:1000000026C1000055C1000053C1000051C10000CD
:100010004FC100004DC100004BC1000049C10000AC
:1000200047C1000045C1000043C1000041C10000BC
:100030003FC100000C94330C3BC1000039C10000EB
:1000400037C100000C94000F33C1000031C1000023
:100050002FC100002DC100002BC100000C94930B98
:1000600027C100000C9427110C94FE1021C1000040
:100070001FC100001DC100001BC1000019C100000C
:100080000C94D30E15C1000013C1000011C1000073
:100090000FC100000DC100000BC100000C942D0F1A
:1000A00007C1000005C100000C94A60E01C10000AC
:1000B000FFC00000FDC00000FBC000000C94790EE2
:1000C000F7C00000F5C00000F3C00000F1C0000060
:1000D000EFC00000EDC00000EBC00000E9C0000070
:1000E000E7C00000A508A80897089B08A108DF083A
:1000F000AC08B008B608BA08BE08C408C808CC08DE
:10010000DF08D208D608DA08A814D414DC14F114D5
:1001100006151B15311546155B1562157B158115E6
:100120009615AB15C015CA15E215EC150000200098
:100130002300260029002C002F00320000010000BF
:1001400003010601090100000A0B02090C0D0E084B
:100150000703040100000000000000000000000090
:10016000000000000000000000000000000000008F
:10017000000012111000000000000000000000004C
:10018000000000000000000000000000000022004D
:10019000250028002B002E00310034000201000051
:1001A000050108010B0100002100240027002A009E
:1001B0002D003000330001010000040107010A0195
:1001C00005050505070508080808020202020A0AD3
:1001D00008080404040401010101010101010303F1
:1001E000030303030303040707070C0C0C0C0C0C9C
:1001F0000C0C0202020206060606060606060B0B99
:100200000B0B0B0B0B0B01021020200808102040D9
:1002100010204080020102010804020101020408CA
:100220001020408080402010080402018004020158
:1002300080402010080402010804020101020408A1
:100240001020408001020408102040801E18112454
:100250001FBECFEFD1E2DEBFCDBF00E00CBF12E08A
:10026000A0E0B2E0ECE6F8E300E00BBF02C00790CC
:100270000D92A435B107D9F725E0A4E5B2E001C09D
:100280001D92A83FB207E1F711E0C7E2D1E000E01C
:1002900006C021970109802FFE010E94C41AC632B0
:1002A000D10780E00807A9F70E94B2120C94341C11
:1002B000A7CE2F923F924F925F926F927F928F9232
:1002C0009F92AF92BF92CF92DF92EF92FF920F93E5
:1002D0001F93CF93DF9300D000D0CDB7DEB78BE56F
:1002E00092E09093BE048093BD048091580290E008
:1002F0009093C0048093BF048091250390E0909375
:10030000C2048093C10480915402853009F07BC3FC
:1003100080915D0290915E02885891098D3591051A
:1003200088F480915802843041F480915F0290916A
:1003300060028097479708F401C280915802843484
:1003400008F0E3C1809158028A3108F454C08091CA
:100350005B0290915C02843F914080F41092BC0457
:100360001092BB048FEF9FEFDC018093B704909352
:10037000B804A093B904B093BA045BC080915D0245
:1003800090915E0285974B97B0F5E1E6F2E082E04E
:1003900090E040E050E0BA018C010F5F1F4F2091C8
:1003A000580230E0021713076CF49F012250310904
:1003B000D9012D913C91275031092730310508F49E
:1003C000F5C1C8010197959587959093BC048093DA
:1003D000BB040C972CF41092BC041092BB040BC00D
:1003E0004093B7045093B8046093B9047093BA046F
:1003F00084E090E0FCC2809158028A3108F44DC03C
:1004000080915B0290915C028032934008F4A6CF09
:1004100080915D0290915E02C697869708F4E2C1D2
:100420003CC04093B7045093B8046093B9047093F0
:10043000BA048BE090E0DBC2208131812552310982
:100440002B31310508F0DEC1440F551F661F771FA1
:100450004160029634968C010F5F1F4F2091580225
:1004600030E00217130764F49F0122503109D901CB
:100470002D913C912C5031092B303105E8F2C80107
:100480000197959587959093BC048093BB040C9736
:1004900044F61092BC041092BB0480915802823240
:1004A00008F44CC080915D0290915E020697079718
:1004B00008F044C0E1E6F2E082E090E040E050E085
:1004C000BA018C010F5F1F4F2091580230E00217D4
:1004D0001307DCF4DF0112972D913C9111972E51F7
:1004E00031092731310508F09AC1440F551F661FA5
:1004F000771F4160208131813496235031092530A6
:10050000310510F40296DDCFC801019795958795C6
:100510009093BC048093BB0440972CF41092BC04CD
:100520001092BB040BC04093B7045093B80460937F
:10053000B9047093BA048CE090E059C21C821B820B
:1005400081E090E09A838983809158028D3008F48D
:100550006BC049E753E0BE016D5F7F4FCE0101964E
:100560000E944112892B09F05FC049E753E0BE01A8
:100570006D5F7F4FCE0101960E944112019709F0F5
:1005800053C049E753E0BE016D5F7F4FCE01019636
:100590000E944112892B09F047C0C12CD12C760151
:1005A00000E010E08091580290E029813A812817FC
:1005B00039075CF549E753E0BE016D5F7F4FCE011F
:1005C00001960E9441125C0149E753E0BE016D5F54
:1005D0007F4FCE0101960E944112B1E0AB16B104EB
:1005E00049F4892B09F5CC0CDD1CEE1CFF1C68942A
:1005F000C0F808C0AB28C1F40197B1F4CC0CDD1CE5
:10060000EE1CFF1C0F5F1F4FCDCF1093BC04009357
:10061000BB04C092B704D092B804E092B904F0923F
:10062000BA0481E090E0E3C11C821B8281E090E08B
:100630009A8389838091BF049091C004181619068B
:100640000CF058C0E091BD04F091BE0482E090E04F
:100650009A8389838281938189974E9708F04AC053
:1006600083E090E09A838983848195810B970A9730
:1006700008F040C04CEB51E0BE016D5F7F4FCE01F2
:1006800001960E944112892BA9F54CEB51E0BE0165
:100690006D5F7F4FCE0101960E944112019751F587
:1006A000C12CD12C760100E010E029813A818091A3
:1006B000BF049091C004281739070CF0F3C04CEB2D
:1006C00051E0BE016D5F7F4FCE0101960E94411245
:1006D0004C010330110509F0AFC04CEB51E0BE01F5
:1006E0006D5F7F4FCE0101960E94411288169906D8
:1006F00009F4A2C0E091BD04F091BE04828193810F
:10070000C697869708F4DDC08CC180915F029091F6
:100710006002825491098E9708F014CE20E030E0F8
:1007200080E090E0DC01F901EF59FD4F40815181FB
:10073000495051094930510588F004CE8091610239
:10074000909162020997099708F0F7CD1092BC04C6
:100750001092BB048FEF9FEFDC0158C1F901ED59F6
:10076000FD4F40815181475151094231510588F473
:10077000880F991FAA1FBB1F81602C5F3F4F203835
:10078000310589F620E230E03093BC042093BB04AD
:100790003DC140815181465051094730510508F013
:1007A000D1CD880F991FAA1FBB1FE7CF20813181B0
:1007B000235131092F30310540F4440F551F661F76
:1007C000771F416002963496E7CD208131812A500F
:1007D00031092930310508F00ECE440F551F661F30
:1007E000771FF0CF80915F0290916002C697869745
:1007F00008F053CEE3E6F2E083E090E040E050E022
:10080000BA0129CE208131812C5031092A3031059D
:1008100008F043CE440F551F661F771F1ACE2D9147
:100820003C912C5031092B30310508F087CE440F14
:10083000551F661F771F5ECE4CEB51E0BE016D5F0A
:100840007F4FCE0101960E9441125C0103301105D9
:1008500069F44CEB51E0BE016D5F7F4FCE01019614
:100860000E944112A816B90609F044CF81149104E0
:1008700059F4AA94AB2809F03DCFCC0CDD1CEE1C3A
:10088000FF1C6894C0F80BC08A94892809F032CF05
:10089000AB2809F02FCFCC0CDD1CEE1CFF1C0F5F2A
:1008A0001F4F03CF1093BC040093BB04C092B70446
:1008B000D092B804E092B904F092BA0482E090E0D9
:1008C00096C0848195814B97459708F0AAC0DF01B7
:1008D00016967F0126ECE20EF11C20E030E040E0AD
:1008E00050E060E070E080E090E00D911C91119785
:1008F000095011090830110508F093C012960D91A6
:100900001C911397015111090D30110520F501E0DB
:100910000E94CC1A21601496AE15BF0531F72093C2
:10092000B7043093B8044093B9045093BA0400E27A
:100930000E94E71A2093B5043093B60485E090E056
:100940009093B4048093B30480E390E09093BC044C
:100950008093BB0450C012960D911C9113970450C4
:1009600011090530110508F05CC001E00E94CC1AA5
:10097000D2CF980122503109D9012D913C912950B3
:1009800031092830310508F0FAC0BC016F5F7F4F94
:10099000D8012D913C91275031092730310508F0BD
:1009A000EBC2440F551F416002960C5F1F4F209110
:1009B000580230E02450310982179307D4F201978E
:1009C000959587959093BC048093BB048A970CF40B
:1009D000D6C0052E000C660B770B4093B7045093DE
:1009E000B8046093B9047093BA0489E090E09093DE
:1009F000B4048093B30481E090E00CC382E0809360
:100A000054021092580280E090E004C38093B7042F
:100A10009093B804A093B904B093BA0483E090E033
:100A2000E6CF80915802893370F182819381895792
:100A300091098335910508F440C125C0D90112966A
:100A40006D917C911397665171096131710508F0C0
:100A500060C1D701C601880F991FAA1FBB1F6C0177
:100A60007D016894C0F84E5F5F4F2C5F3F4F4B3362
:100A7000510509F431C1D9016D917C916A50710918
:100A800069307105D8F280915802823231F4828146
:100A900093810A97099708F44CC182819381895701
:100AA000910983359105D0F4809158028132B0F0DC
:100AB00084819581CA97899788F49F012A5F3F4F67
:100AC000C12CD12C760143E050E0D9016D917C918D
:100AD0006A5071096930710508F44AC182819381B5
:100AE0008C549109C59778F480915802843031F480
:100AF000848195818097479708F499C18091580225
:100B0000843408F07BC180915802863460F1828180
:100B100093810C970B9708F4D8C125C0D901129680
:100B20006D917C9113976E5171096731710508F0D1
:100B300004C2D701C601880F991FAA1FBB1F6C01F1
:100B40007D016894C0F84E5F5F4F2C5F3F4F453486
:100B5000510509F4D5C1D9016D917C916C50710991
:100B60006B307105D8F280915802883540F082814F
:100B70009381855891098B35910508F4EEC18091D8
:100B800058028032E1F48281938106970697B8F487
:100B9000848195810997099790F49F012A5F3F4FBF
:100BA000BF01625C7F4FC12CD12C7601D9014D91E0
:100BB0005C91465051094630510508F4EAC18091D4
:100BC000BF049091C0049E838D8306970CF416CFCA
:100BD0008F010A5F1F4F73E0272E312CE5ECCE2EDC
:100BE000EDE9DE2EECE1EE2EE1E8FE2ED8016D916E
:100BF0007C91F8013497A080B18080E090E00E9461
:100C000094192B013C01B50180E090E00E949419F9
:100C10004B015C012DEC3CEC4CE45FE30E94461A76
:100C20009B01AC01C301B2010E94F71887FD17C0F8
:100C30002DEC3CEC4CE45FE3C301B2010E94461A88
:100C40009B01AC01C501B4010E94F718E82F880F81
:100C5000FF0BEE27FF0FEE1FFF27319602C0E0E0EB
:100C6000F0E0A701960163E971E080E091E00E9465
:100C7000A91A6F01FF0FEE08FF08C626D726E8263F
:100C8000F926BFEF2B1A3B0A0E5F1F4FED81FE8145
:100C90002E163F0609F0AACFC092B704D092B8042E
:100CA000E092B904F092BA0480E290E09093BC0420
:100CB0008093BB048FEF9FEF9ACE84819581CA9772
:100CC000899708F0E0CE9F012A5F3F4FC12CD12CBD
:100CD000760143E050E0CFCE9F012A583F4FD90123
:100CE0002D913C912A5031092930310508F0CBCEA5
:100CF0002CE130E03093BC042093BB04C092B704D5
:100D0000D092B804E092B904F092BA048AE090E07C
:100D10006ECED90112966D917C9113976650710930
:100D20006730710508F0AFCECC0CDD1CEE1CFF1C4B
:100D30009ACE20915802CF01820F911D820F911DF2
:100D4000DC0112978D919C910A97099708F0A5CE26
:100D50001092BC041092BB048FEF9FEFDC018093D4
:100D6000B7049093B804A093B904B093BA044CC1EB
:100D7000D90112966D917C91139766517109613179
:100D8000710588F112966D917C91139766507109E7
:100D90006730710508F0A2CECC0CDD1CEE1CFF1CE8
:100DA0004E5F5F4F2C5F3F4F4332510509F08DCEB0
:100DB0009F012A5B3F4FD9012D913C912A50310967
:100DC0002930310508F08ACE20E130E03093BC04B0
:100DD0002093BB04C092B704D092B804E092B90447
:100DE000F092BA0411C1D701C601880F991FAA1F3A
:100DF000BB1F6C017D016894C0F8D2CF84819581BE
:100E000089549109C39708F07ECE9F012A5F3F4F16
:100E1000BF016A577F4FC12CD12C7601D9014D916A
:100E20005C914950510949305105B8F06CCE86812A
:100E300097810997099708F061CE1092BC0410922F
:100E4000BB048FEF9FEFDC018093B7049093B8044D
:100E5000A093B904B093BA04DAC0D90112964D91A7
:100E60005C9113974651510941315105F0F4D70176
:100E7000C601880F991FAA1FBB1F6C017D016894D2
:100E8000C0F82C5F3F4F2617370741F620E230E0CD
:100E90003093BC042093BB04C092B704D092B80432
:100EA000E092B904F092BA04B2C0D90112964D9101
:100EB0005C911397465051094730510508F023CEF5
:100EC000CC0CDD1CEE1CFF1CDCCF848195810997C6
:100ED000099708F048CE868197818C974F9708F044
:100EE00042CE8085918589974D9708F03CCE9F0131
:100EF000265F3F4FC12CD12C760145E050E02BCE30
:100F00009F0126573F4FD9012D913C912C5031091B
:100F10002B30310508F027CE20E230E03093BC04BE
:100F20002093BB04C092B704D092B804E092B904F5
:100F3000F092BA0488E090E05ACDD90112966D91F2
:100F40007C911397695071096930710508F00BCED7
:100F5000CC0CDD1CEE1CFF1CF6CD848195818254E7
:100F600091098E9708F00BCE8F01045C1F4F8DE125
:100F700090E040E050E01BCDD8012D913C912851EC
:100F800031092231310510F0CB0119CD440F551F25
:100F90000BCDD90112964D915C911397495151098E
:100FA0004331510508F5D701C601880F991FAA1FC3
:100FB000BB1F6C017D016894C0F82C5F3F4F261762
:100FC000370709F0F3CD2EE030E03093BC042093D6
:100FD000BB04C092B704D092B804E092B904F09276
:100FE000BA048FE090E003CDD90112964D915C9147
:100FF0001397495051094930510508F0E0CDCC0C08
:10100000DD1CEE1CFF1CD9CF86E090E0F0CC87E021
:1010100090E0EDCC26960FB6F894DEBF0FBECDBFA4
:10102000DF91CF911F910F91FF90EF90DF90CF90C4
:10103000BF90AF909F908F907F906F905F904F90F8
:101040003F902F900895FC01918D828D981761F04B
:10105000828DDF01A80FB11D5D968C91928D9F5FEF
:101060009F73928F90E008958FEF9FEF0895FC019A
:10107000918D828D981731F0828DE80FF11D858D4D
:1010800090E008958FEF9FEF0895FC01918D228DE0
:10109000892F90E0805C9F4F821B91098F73992765
:1010A000089580E090E0892B21F00E94F4108111D6
:1010B00025C080E090E0892B41F080E090E0892B12
:1010C00021F00E94000081111CC080E090E0892B7B
:1010D00041F080E090E0892B21F00E940000811116
:1010E00013C080E090E0892BA1F080E090E0892B94
:1010F00081F00E94000081110AC008950E94000042
:10110000D8CF0E940000E1CF0E940000EACF0C94EB
:101110000000089590E0FC013197E231F10508F0FC
:101120004EC08827EE58FF4F8F4F0C94C41A809101
:1011300080008F7703C0809180008F7D8093800036
:10114000089580918000877FF9CF84B58F7702C0A2
:1011500084B58F7D84BD08958091B0008F7703C0E2
:101160008091B0008F7D8093B000089580919000B1
:101170008F7707C0809190008F7D03C08091900091
:10118000877F8093900008958091A0008F7707C09B
:101190008091A0008F7D03C08091A000877F809305
:1011A000A0000895809120018F7707C080912001D1
:1011B0008F7D03C080912001877F80932001089557
:1011C0001F93CF93DF93282F30E0F901EA5BFE4FA6
:1011D0008491F901EA5FFD4FD491F901E054FE4F8B
:1011E000C491CC23C1F0162F811194DFEC2FF0E0D5
:1011F000EE0FFF1FE457FE4FA591B4918FB7F894FF
:10120000111105C09C91ED2FE095E92302C0EC91EE
:10121000ED2BEC938FBFDF91CF911F910895FC01CF
:101220002FB7F8948091760390917703A09178037B
:10123000B09179032FBF4381548165817681841BEE
:10124000950BA60BB70B85879687A787B08B278151
:10125000211115C0158616861786108A10862FB79D
:10126000F8948091760390917703A0917803B091E0
:1012700079032FBF83839483A583B6830EC0208513
:1012800021110BC0418552856385748584179507AC
:10129000A607B70710F081E0808780850895FC01DC
:1012A00065857685878590890895FC0141875287F9
:1012B0006387748708950895FC0167830895CF922A
:1012C000DF92EF92FF920F931F93CF93DF936C0106
:1012D0008B017A01EC01C359DC4F888187FF04C080
:1012E000FB011182108224C08CE08C9D90018D9DA9
:1012F000300D11248881A901480F511D87FD5A9591
:1013000080911B0490E04817590794F48881A90143
:10131000480F511D87FD5A95CA01FA01EE0FFF1FB4
:101320008E0F9F1FFC01E557FC4F808186FD19C081
:1013300088818F5F88838CE08C9D90018D9D300D1E
:1013400011248881A901480F511D87FD5A9580916C
:101350001B0490E048175907B4F488818C303CF1A5
:1013600012C08881280F311D87FD3A95F901EE0FD3
:10137000FF1F2E0F3F1FF901E557FC4F808160E0F2
:101380008F731EDFD5CFF801808191810496803460
:101390009C4918F480E49CE904C0F80180819181A3
:1013A0000496F701918380838FEF888344C0F8010E
:1013B000408151818881B901680F711D87FD7A953F
:1013C000CB01FB01EE0FFF1F8E0F9F1FFC01E557A6
:1013D000FC4F81819281840F951FF7019183808357
:1013E0008881A901480F511D87FD5A95CA01FA014C
:1013F000EE0FFF1F8E0F9F1FFC01E557FC4F8081F2
:1014000086FF19C08881280F311D87FD3A95F901A3
:10141000EE0FFF1F2E0F3F1FF901E557FC4F808194
:1014200061E08F73DF91CF911F910F91FF90EF904B
:10143000DF90CF90C5CEDF91CF911F910F91FF909C
:10144000EF90DF90CF90089585ED8093BC00809160
:10145000BC0084FDFCCF10922605089540914803FE
:10146000262F30E0240F311D21323105DCF420918C
:1014700026052430C9F4FC0180E090E0861758F47A
:10148000309148032191DC01AA5DBC4FA30FB11D2F
:101490002C930196F3CF80914803680F6093480323
:1014A00080E0089581E0089582E008950895E09134
:1014B0003D0480913C04E81730F4F0E0E45EFB4F1B
:1014C000808190E008958FEF9FEF089590913D0403
:1014D00080913C04981750F4E92FF0E0E45EFB4F54
:1014E000208130E09F5F90933D0402C02FEF3FEFDB
:1014F000C901089580913C0490E020913D04821B35
:1015000091090895CF92DF92EF92FF920F931F936C
:10151000CF93DF937C01262F972F8A018091270597
:10152000882391F0C62FD72F6E01C40ED51ECC157F
:10153000DD0569F06991D701ED91FC910190F08191
:10154000E02DC7011995F3CF642F822F87DFC801E3
:10155000DF91CF911F910F91FF90EF90DF90CF908F
:101560000895CF93DF931F92CDB7DEB769832091A3
:1015700027052223D1F020914A05203240F021E0B6
:1015800030E0FC013383228380E090E014C080913E
:101590002805E82FF0E0E75DFA4F998190838F5F8F
:1015A0008093280580934A0504C061E0CE0101962E
:1015B00055DF81E090E00F90DF91CF91089508957D
:1015C0000E94301C0C94981B0C94981BFC01848D79
:1015D000DF01A80FB11DA35ABF4F2C91848D90E05D
:1015E00001968F739927848FA689B7892C93A08938
:1015F000B1898C9180648C93938D848D981306C0EF
:101600000288F389E02D80818F7D80830895EF9299
:10161000FF920F931F93CF93DF93EC0181E0888FAC
:101620009B8D8C8D981305C0E889F989808185FD93
:1016300023C0F62E0B8D10E00F5F1F4F0F73112785
:10164000E02E8C8DE8120BC00FB607FCFACFE889AC
:10165000F989808185FFF5CFCE01B8DFF2CF8B8D80
:10166000FE01E80FF11DE35AFF4FF0820B8FEA896C
:10167000FB898081806207C0EE89FF896083E889E9
:10168000F98980818064808381E090E0DF91CF914F
:101690001F910F91FF90EF900895CF93DF93EC018E
:1016A000888D8823C1F0EA89FB89808185FD05C08A
:1016B000A889B9898C9186FD0EC00FB607FCF5CFBD
:1016C000808185FFF2CFA889B9898C9185FFEDCF04
:1016D000CE017CDFE8CFDF91CF9108953FB7F8943A
:1016E0008091720390917303A0917403B09175037C
:1016F00026B5A89B05C02F3F19F00196A11DB11D6D
:101700003FBFBA2FA92F982F8827820F911DA11DA7
:10171000B11DBC01CD0142E0660F771F881F991FE4
:101720004A95D1F708951F920F920FB60F92112488
:101730002F933F938F939F93AF93BF9380917603A3
:1017400090917703A0917803B09179033091710360
:1017500023E0230F2D3720F40196A11DB11D05C0F4
:1017600026E8230F0296A11DB11D209371038093DB
:10177000760390937703A0937803B09379038091D5
:10178000720390917303A0917403B0917503019655
:10179000A11DB11D8093720390937303A0937403F2
:1017A000B0937503BF91AF919F918F913F912F910E
:1017B0000F900FBE0F901F901895CF92DF92EF926F
:1017C000FF92DC01EAE0F0E060E070E0CB013C91E8
:1017D000363308F0365320917B00432F4870277F23
:1017E000242B20937B00232F2770206420937C00E0
:1017F00020917A00206420937A0020917A0026FDBF
:10180000FCCF409178002091790050E0522B6A0182
:10181000550FEE08FF086C0D7D1D8E1D9F1D319725
:10182000B1F62AE030E040E050E00E946118A4E602
:10183000B0E00E945718DC01CB012AE0B595A795CE
:10184000979587952A95D1F7BC016B50710981E076
:101850006133710508F080E0FF90EF90DF90CF904A
:101860000895089508951F920F920FB60F921124B4
:101870000BB60F922F933F934F935F936F937F938A
:101880008F939F93AF93BF93CF93DF93EF93FF9388
:101890002091550230E0F901EA5BFE4F8491F90195
:1018A000EA5FFD4FD491F901E054FE4FC491CC237F
:1018B00099F081112FDCEC2FF0E0EE0FFF1FE45DBB
:1018C000FE4FA591B491EC91ED2331E020E009F4B5
:1018D00030E0832F922F02C080E090E020915902E7
:1018E00030915A022F5F3F4F30935A022093590292
:1018F00020915802253618F026E0209354022091BA
:1019000054022430D9F128F4223069F02330D9F080
:1019100060C0253009F453C0263009F05AC021E0D8
:101920002093250353C0009709F053C0209159021A
:1019300030915A022436310508F443C01092250331
:10194000109258021DC08130910509F042C0E0910B
:10195000580221E02E0F20935802F0E02091590206
:1019600030915A02EE0FFF1FEC5AFD4F308727834C
:1019700010925A021092590224E029C00097B9F43B
:10198000E091580221E02E0F20935802F0E02091C0
:10199000590230915A02EE0FFF1FEC5AFD4F30876B
:1019A000278310925A021092590223E010C020910E
:1019B000590230915A022536310558F007C0009778
:1019C00041F410925A021092590203C025E020936C
:1019D0005402209157022223B1F0892B51F48091B7
:1019E0005602882321F08091560261E009C02F9AA7
:1019F0000AC080915602882329F08091560260E047
:101A0000DFDB01C02F98FF91EF91DF91CF91BF9164
:101A1000AF919F918F917F916F915F914F913F9186
:101A20002F910F900BBE0F900FBE0F901F90189527
:101A3000CF92DF92EF92FF92CF93DF93EC01072ECC
:101A4000000C880B990B0E9496196B017C0120E019
:101A500030E040E45FE30E94461A20E030E048E4D2
:101A600052E40E94FB180E946319C617D707D4F0EE
:101A700020E030E040EA5FE3C701B6010E94461A69
:101A800020E030E048E452E40E94FB1820E030E01F
:101A900040E85FE30E9493180E94631921E06C17ED
:101AA0007D070CF420E0822F90E0DF91CF91FF9032
:101AB000EF90DF90CF9008950F931F93CF93DF9314
:101AC0001F921F92CDB7DEB7152F032FFC01808127
:101AD00091E0909327058093490510922805109274
:101AE0004A05F4E06F9FB00111246A5F7F4F88EED2
:101AF00095E02A83498335DD4981842F912F3AD49B
:101B0000812F90E037D42A81822F902F33D4802FD9
:101B100090E030D481E00F900F90DF91CF911F9132
:101B20000F91CBC39A01CB96211540E1340728F0E1
:101B300020E030E040E050E102C040E050E0BCCFA7
:101B4000FC019081903380F5818128E830E0281BEA
:101B5000310987FD3395220F331F220F331F621780
:101B600073077CF0828128E532E0281B310987FD6C
:101B70003395220F331F220F331F621773070CF4A4
:101B80009B0122503109220F331F4FB7F894892F40
:101B900090E0FC01EE0FFF1F8E0F9F1FFC01E55729
:101BA000FC4F328321834FBF0895CF93DF93DC0135
:101BB0008C91803308F06DC09B013327F901EA5FF7
:101BC000FD4F8491F901E054FE4F2491222399F0B6
:101BD00030E0220F331FF901EA55FE4FC591D49131
:101BE000F901E457FE4F259134919FB7F894E881AD
:101BF000E82BE8839FBF8C91E82FF0E09F01220F34
:101C0000331FE20FF31FE557FC4F6F739081907CF9
:101C1000692B608311961C92119712961C92129751
:101C20006CE00E94B81A9CE0899FB001112440E04A
:101C300050E09A01260F371FF901EE0FFF1F2E0FFC
:101C40003F1FF901E557FC4F908196FD16C04F5F8D
:101C50005F4F4C30510569F78130F9F410928000E4
:101C600082E0809381001092850010928400B19AE6
:101C700080916F00826080936F00EC91F0E0CF0163
:101C8000880F991FE80FF91FE557FC4F808180648A
:101C900080838C91DF91CF910895823061F410920E
:101CA000900080939100109295001092940088BB50
:101CB00080937100E2CF833069F41092A00082E03B
:101CC0008093A1001092A5001092A40089BB80937C
:101CD0007200D3CF8111D1CF1092200182E0809386
:101CE000210110922501109224018ABB8093730078
:101CF000C4CF1F920F920FB60F9211240BB60F9202
:101D00002F933F934F935F936F937F938F939F9303
:101D1000AF93BF93EF93FF9348E251E064E271E029
:101D200080E090E0CCDAFF91EF91BF91AF919F916D
:101D30008F917F916F915F914F913F912F910F9074
:101D40000BBE0F900FBE0F901F9018951F920F9211
:101D50000FB60F9211240BB60F922F933F934F9310
:101D60005F936F937F938F939F93AF93BF93EF9303
:101D7000FF9348EA50E064EA70E083E090E09FDA85
:101D8000FF91EF91BF91AF919F918F917F916F9153
:101D90005F914F913F912F910F900BBE0F900FBE0F
:101DA0000F901F9018951F920F920FB60F9211244B
:101DB0000BB60F922F933F934F935F936F937F9345
:101DC0008F939F93AF93BF93EF93FF9348E950E0B6
:101DD00064E970E082E090E072DAFF91EF91BF91E8
:101DE000AF919F918F917F916F915F914F913F91B3
:101DF0002F910F900BBE0F900FBE0F901F90189554
:101E00001F920F920FB60F9211240BB60F922F93C1
:101E10003F934F935F936F937F938F939F93AF9372
:101E2000BF93EF93FF9348E850E064E870E081E0EF
:101E300090E045DAFF91EF91BF91AF919F918F9123
:101E40007F916F915F914F913F912F910F900BBEBA
:101E50000F900FBE0F901F9018951F920F920FB604
:101E60000F9211240BB60F922F933F934F935F93D2
:101E70006F937F938F939F93AF93BF93EF93FF9352
:101E80008091B900887F803609F49CC068F588325B
:101E900009F45BC090F4803109F454C038F488230D
:101EA00009F4F6C0883009F44DC0F5C0883109F452
:101EB0004CC0803209F45DC0EEC0803409F468C0C3
:101EC00048F4803309F455C0883309F0E4C08093A6
:101ED0002405D8C0803509F44FC0883509F45DC0A9
:101EE000883409F0D8C0D6C0883909F4C7C0A8F42E
:101EF000883709F467C038F4883609F463C080373E
:101F000009F460C0C8C0883809F4B8C0803909F441
:101F10005FC0803809F0BFC05BC0803B09F486C059
:101F200038F4803A09F466C0883A09F47FC0B3C037
:101F3000803C09F4A7C0883C09F4A4C0883B09F49C
:101F40008AC0A9C08091010510C09091230580919D
:101F50002205981770F5E091230581E08E0F80939C
:101F60002305F0E0EE5FFA4F80818093BB0085ECA3
:101F700086C0809324058EC0E091230581E08E0FFA
:101F8000809323058091BB00F0E0EE5FFA4F8083E1
:101F900090912305809122056EC0E091230581E098
:101FA0008E0F809323058091BB00F0E0EE5FFA4F27
:101FB00080838091250581116DC081E080930005AB
:101FC00084EA61C083E08093260510926C03CFCF32
:101FD00080916C03803208F051C0E0916C0381E085
:101FE0008E0F80936C038091BB00F0E0E45BFC4FAC
:101FF0008083BDCF85EC8093BC0010922605809134
:102000006C03803230F4E0916C03F0E0E45BFC4F51
:10201000108260916C0370E0E0914A03F0914B03F1
:102020008CE493E0199510926C0335C084E08093A2
:1020300026051092490310924803E0914603F0915F
:102040004703199580914803811105C081E0809371
:10205000480310922603E091490381E08E0F80939C
:102060004903F0E0EA5DFC4F80818093BB009091D2
:10207000490380914803981708F479CF85E8809345
:10208000BC0009C085EC8093BC001092260503C0FB
:1020900010922405D9D9FF91EF91BF91AF919F91F3
:1020A0008F917F916F915F914F913F912F910F9001
:1020B0000BBE0F900FBE0F901F9018951092260523
:1020C00081E0809325051092000561E084E178D8D5
:1020D00061E085E175D8E9EBF0E080818E7F808357
:1020E00080818D7F808388E48093B80085E480932D
:1020F000BC000895CF92DF92EF92FF920F931F934F
:10210000CF93DF936C017A018B01C0E0D0E0CE1554
:10211000DF0589F0D8016D918D01D601ED91FC911B
:102120000190F081E02DC6011995892B11F47E01F3
:1021300002C02196ECCFC701DF91CF911F910F9183
:10214000FF90EF90DF90CF9008958F929F92AF9283
:10215000BF920F931F93CF93DF93CDB7DEB7A197B5
:102160000FB6F894DEBF0FBECDBF19A2423008F4FF
:102170004AE08E010F5D1F4F842E912CA12CB12CB3
:10218000A50194019ED7E62FB901CA01015011099A
:10219000EA3014F4E05D01C0E95CD801EC93232B34
:1021A000242B252B69F70115110569F0F801019021
:1021B0000020E9F73197AF01401B510BB8018BE4C8
:1021C00095E098DF02C080E090E0A1960FB6F89409
:1021D000DEBF0FBECDBFDF91CF911F910F91BF909A
:1021E000AF909F908F9008958BE495E00E944508F2
:1021F00021E0892B09F420E0822F08951F920F928D
:102200000FB60F9211240BB60F922F933F934F935B
:102210005F936F937F938F939F93AF93BF93EF934E
:10222000FF938BE495E0D2D9FF91EF91BF91AF91ED
:102230009F918F917F916F915F914F913F912F91DE
:102240000F900BBE0F900FBE0F901F9018951F920E
:102250000F920FB60F9211240BB60F922F938F93FC
:102260009F93EF93FF93E0915B05F0915C05808174
:10227000E0916105F091620582FD12C0908180912C
:1022800064058F5F8F7320916505821751F0E0918F
:102290006405F0E0E55BFA4F958F8093640501C01B
:1022A0008081FF91EF919F918F912F910F900BBEA5
:1022B0000F900FBE0F901F901895382F20914A0550
:1022C00090914905213208F049C08091260581117D
:1022D000FCCF42E040932605309325053FEF309335
:1022E00024051092230520932205A9E2B5E042E0DF
:1022F00055E0FA013E2F341B321718F43D9131930B
:10230000F9CF1092010520910105990F922B90931E
:10231000010590910005913061F4109200059091B3
:1023200001059093BB009091BC0093FDF8CF95EC14
:1023300001C095EE9093BC00909126059230E1F398
:10234000909124059F3F79F080912405803241F0DF
:1023500080912405803331F084E005C081E003C022
:1023600082E001C083E01092280510924A05109285
:1023700027050895682F88EE95E0F3C81F93CF9343
:10238000DF93EC018C8583FD06C0613011F4885F1A
:1023900007C0885005C0613011F4805F01C08051D2
:1023A0008C878C858F738C8740EF5FE06C818D8587
:1023B0009E85B8DB40EF5FE06F818D859E85B2DB47
:1023C000EC85E695E695E695E83028F4F0E0E85DE2
:1023D000FD4F108101C010E08D859E8520E030E02A
:1023E00010FF03C040E050E102C040E050E06E81C9
:1023F000CB9662DB8D859E8520E030E011FF03C027
:1024000040E050E102C040E050E06885CB9654DBEC
:102410008D859E8520E030E012FF03C040E050E152
:1024200002C040E050E06D81CB9646DB8D859E85F5
:1024300020E030E013FF03C040E050E102C040E084
:1024400050E06985CB9638DB8C85DF91CF911F9169
:102450000895CF93C62F9091FF0421E02093270584
:10246000909349051092280510924A05682F88EE2E
:1024700095E077D86C2F88EE95E073D881E0CF9106
:102480001CCF8F929F92AF92BF92CF92DF92EF922A
:10249000FF920F931F93CF93DF93FC01C081D181F3
:1024A0002091BF043091C004C217D3070CF048C07C
:1024B0009E01220F331FE091BD04F091BE04E20F94
:1024C000F31F80809180C170DD27F1E0CF27209736
:1024D00019F404E610E002C00CE91FEF7A015B0179
:1024E0006C01040F151FB801C401A2DA892B89F40D
:1024F0000E0D1F1DB801C4019BDA892B69F4B801C8
:102500006E0D7F1DC40194DA892BE9F023E030E0E1
:1025100005C021E030E002C022E030E0F50180811A
:1025200091810196821793073CF0F5011182108288
:10253000F60180819181019691838083CE0105C04F
:1025400081E090E002C08FEF9FEFDF91CF911F916C
:102550000F91FF90EF90DF90CF90BF90AF909F9042
:102560008F900895CF93DF9300D01F921F92CDB725
:10257000DEB7789484B5826084BD84B5816084BD03
:1025800085B5826085BD85B5816085BD80916E0011
:10259000816080936E001092810080918100826042
:1025A000809381008091810081608093810080917F
:1025B00080008160809380008091B100846080936E
:1025C000B1008091B00081608093B0008091910053
:1025D000826080939100809191008160809391004E
:1025E000809190008160809390008091A100826032
:1025F0008093A1008091A10081608093A1008091CF
:10260000A00081608093A00080912101826080936E
:10261000210180912101816080932101809120011D
:1026200081608093200180917A00846080937A0099
:1026300080917A00826080937A0080917A00816034
:1026400080937A0080917A00806880937A0010925B
:10265000C100E0915B05F0915C0582E08083E09130
:102660005705F09158051082E0915905F0915A05EF
:102670008FEC808310926305E0915F05F091600517
:1026800086E08083E0915D05F0915E058081806148
:102690008083E0915D05F0915E0580818860808394
:1026A000E0915D05F0915E05808180688083E09116
:1026B0005D05F0915E0580818F7D808310928A0494
:1026C0001092890452E0252E312C60ED462E67E0F1
:1026D000562E612C712C78EBC72E7BE0D72EE12C87
:1026E000F12C80918104811112C010927A04109211
:1026F000790481E090E0A0E0B0E080937D049093C5
:102700007E04A0937F04B093800480938104809121
:102710007104811114C0A1E0B0E0B0936A04A093E9
:10272000690481E090E0A0E0B0E080936D049093B4
:102730006E04A0936F04B093700480937104809131
:102740006104811112C030925A042092590481E030
:1027500090E0A0E0B0E080935D0490935E04A093CD
:102760005F04B093600480936104809151048111EF
:1027700008C087E0809355021092570281E0809351
:10278000510480914904811138C0ACE0B2E0B093AB
:102790007B03A0937A0310927C032FB7F894809167
:1027A000760390917703A0917803B09179032FBFBE
:1027B00080937D0390937E03A0937F03B093800367
:1027C000109281031092820310928303109284036B
:1027D000109285031092860310928703109288034B
:1027E0001092890310928A03ECE1F2E0F0937B03EC
:1027F000E0937A0381E0809349048091000288236A
:1028000009F437C0F89482E08093B0008093B1005F
:1028100094E69093B3001092B20080937000789485
:1028200080935402109258028091550290E0FC016E
:10283000EA5FFD4F2491FC01E054FE4F8491882310
:10284000C1F090E0880F991FFC01EA55FE4FA59159
:10285000B491FC01E457FE4F459154919FB7F89411
:102860008C91209582238C93DA01EC912E232C936A
:102870009FBF80914804809381038091440490918C
:102880004504A0914604B09147048093830390933C
:102890008403A0938503B09386038091870390916E
:1028A0008803A0918903B0918A0380934004909398
:1028B0004104A0934204B09343048AE793E00E944A
:1028C0000F0980933F0489E794E00E94DD0B082FF5
:1028D00089E694E00E94DD0B8D8389E594E00E94F7
:1028E000DD0B182F8090890490908A04092C000C2D
:1028F000AA08BB08B7FE14C0E0914B05F0914C0547
:102900000190F081E02D6DE28BE495E0199566274A
:102910007727CB01681979098A099B094AE003C026
:102920004AE0C501B40111DC42E050E060E572E02C
:102930008BE495E0DFDBE0918904F0918A04E231D9
:10294000F10508F064C18827EC57FF4F8F4F1CC674
:1029500040924404509245046092460470924704A9
:1029600081E08093480480913F04882309F453C197
:102970000E945901892B09F44EC18091B7049091AE
:10298000B804A091B904B091BA048D33924CAF4F02
:10299000B10509F036C11092480481E090E09093AF
:1029A0008A04809389042DC1112309F434C1309223
:1029B0008A04209289042FC1409244045092450415
:1029C000609246047092470481E0809348048091AD
:1029D0003F04882309F41FC11092480483E090E06B
:1029E000F6C0C0924404D0924504E0924604F092AE
:1029F000470481E08093480480913F04882309F4D0
:102A00000AC11092480484E090E0E1C0C0924404FE
:102A1000D0924504E0924604F092470481E080930E
:102A2000480480913F04882309F4F5C010924804BB
:102A300085E090E0CCC02D81222359F081E0809385
:102A40003E04002309F4E7C010923E0486E090E0C3
:102A5000BEC0002309F4DFC080913E048111F4CF91
:102A6000DAC0C0924404D0924504E0924604F09249
:102A7000470481E08093480480913F04882309F44F
:102A8000CAC01092480487E090E0A1C0409244047C
:102A900050924504609246047092470481E080930E
:102AA000480480913F04882309F4B5C0109248047B
:102AB00088E090E08CC02D81222309F4ACC089E02D
:102AC00090E085C088E893E1A0E0B0E08093440402
:102AD00090934504A0934604B093470481E080930B
:102AE000480480913F04882309F495C0109248045B
:102AF0008AE090E06CC0002309F48DC08BE090E088
:102B000066C040924404509245046092460470921C
:102B1000470481E08093480480913F04882309F4AE
:102B20007AC0109248048CE090E051C0C0924404F6
:102B3000D0924504E0924604F092470481E08093ED
:102B4000480480913F04882309F465C0109248042A
:102B50008DE090E03CC0C0924404D0924504E092E5
:102B60004604F092470481E08093480480913F043A
:102B7000882309F450C0109248048EE090E027C0EA
:102B8000112309F448C0AFE0B0E0B0938A04A093E9
:102B9000890441C040924404509245046092460426
:102BA0007092470481E08093480480913F04882319
:102BB00091F110924804E0E1F0E0F0938A04E09390
:102BC000890429C02D81222331F181E190E0909385
:102BD0008A04809389041FC00E945901892BD9F06F
:102BE0008091B7049091B804A091B904B091BA044F
:102BF0008D399246AF4FB10521F410928A0410929C
:102C0000890482E0809354021092580204C010920A
:102C10008A0410928904109200028091AB04811101
:102C200028C0E9ECF4E01282118213821082DF01E5
:102C300011971C9211971C92369624E0E13EF20700
:102C400091F71092EB041092EE041092EA041092A5
:102C5000E9041092FB041092FE041092FA04109200
:102C6000F90480E68093C4048093FF0481E080939C
:102C7000AB048091A30481112DC08091EE048111D9
:102C800020C01092EE0488EC90E09093EA048093C8
:102C9000E90484EC94E09093ED048093EC0488E0E4
:102CA0008093E3048DE08093E6048AE08093E4045B
:102CB00089E08093E5048BE08093E7048CE08093C7
:102CC000E8048FED94E09093A2048093A10481E046
:102CD0008093A3048091990481111DC080911B04ED
:102CE000803398F491E0980F90931B04809396049E
:102CF00090E0FC01EE0FFF1FE80FF91FE557FC4FB6
:102D000088EB9BE09283818303C08FEF80939604CE
:102D100081E08093990480918E0481111DC080917F
:102D20001B04803398F491E0980F90931B048093D8
:102D30008B0490E0FC01EE0FFF1FE80FF91FE55731
:102D4000FC4F88EB9BE09283818303C08FEF8093DD
:102D50008B0481E080938E0480910102882309F422
:102D6000E3C010923D0410923C041092280510928A
:102D70004A05A4D91092280510924A059FD960E00F
:102D800080E067DB80E496E09093C6048093C504FE
:102D90008091FF0491E0909327058093490510925C
:102DA000280510924A0560E088EE95E00E94B10A7D
:102DB00081E083DA8091FF04909126059111FCCF88
:102DC00091E090932605909325052FEF20932405FD
:102DD0001092230510922205909301059091010510
:102DE000880F892B8093010580910005813061F463
:102DF00010920005809101058093BB008091BC007A
:102E000083FDF8CF85EC01C085EE8093BC008091F6
:102E100026058130E1F380912305811103C02091C3
:102E2000230501C021E0A2E0B5E08CE194E0FC01C3
:102E30003E2F381B321718F43D913193F9CF109281
:102E40003D0420933C0488EE95E00E94660A182F0A
:102E5000682F6F76606180E0FCDA63E08EEFF9DA6C
:102E6000612F80E0F6DA0E946E0B9B01AC0195E0C9
:102E7000892E912CA12CB12C2B833C8349835A831E
:102E80000E946E0B2B813C8149815A81DC01CB0170
:102E9000821B930BA40BB50B883E9340A105B10593
:102EA00048F061E0861A9108A108B10828513C4F0A
:102EB0004F4F5F4F81149104A104B104E9F6612FD3
:102EC000616A80E0C6DA10E020E030E040E050E0E7
:102ED000612F8FEF94E00E945C0D1F5F1031A1F70E
:102EE00069E070E086E994E00E94D50D6AE070E048
:102EF0008BE894E00E94D50D0091A1041091A204EA
:102F0000D8011A962D913C911B97A4EBB0E0FBD011
:102F10009B01AC0160E077E883E993E0D2D0F8014F
:102F200020833183428353830091890410918A0462
:102F30000115110519F00D30110531F465E276E047
:102F40008BE894E00E94A00D0430110519F46CED9B
:102F500075E005C00630110529F46EE975E08BE8CF
:102F600094E00BC00115110521F0C801877F079778
:102F700031F464E873E086E994E00E94A00D023029
:102F8000110519F00B30110531F464E873E086E99E
:102F900094E00E94A00D0115110529F48091010211
:102FA00081110AC021C00530110531F00A30110528
:102FB00019F00031110531F461E08091A104909184
:102FC000A204DCD90130110531F00830110519F0E7
:102FD0000E30110531F462E08091A1049091A204B9
:102FE000CDD90330110541F00C30110529F01092B4
:102FF00001020E94510875CBA090A104B090A204D8
:10300000D5018D909C908401000F111F000F111F9E
:103010000550110929EC30E02150310941F361E0FC
:10302000C5012B833C83AAD92B813C81B2E08B164E
:10303000910490F3C8010197F1F7EECFEBE4F5E0CE
:103040001382128288EE93E0A0E0B0E0848395833F
:10305000A683B78324E332E03183208325EC30E07C
:103060003587248724EC30E03787268720EC30E052
:10307000318B208B21EC30E0338B228B22EC30E043
:10308000358B248B26EC30E0378B268B118E128EFD
:10309000138E148EE8EEF5E01382128284839583FA
:1030A000A683B78384E492E09183808308952BD034
:1030B000A59F900DB49F900DA49F800D911D11248C
:1030C0000895A1E21A2EAA1BBB1BFD010DC0AA1F69
:1030D000BB1FEE1FFF1FA217B307E407F50720F081
:1030E000A21BB30BE40BF50B661F771F881F991FFC
:1030F0001A9469F760957095809590959B01AC0145
:10310000BD01CF010895A29FB001B39FC001A39F4D
:10311000700D811D1124911DB29F700D811D112410
:10312000911D08955058BB27AA270ED075C166D1AE
:1031300030F06BD120F031F49F3F11F41EF45BC1ED
:103140000EF4E095E7FB51C1E92F77D180F3BA1770
:10315000620773078407950718F071F49EF58FC115
:103160000EF4E0950B2EBA2FA02D0B01B9019001A2
:103170000C01CA01A0011124FF27591B99F0593FE6
:1031800050F4503E68F11A16F040A22F232F342F2E
:103190004427585FF3CF469537952795A795F0407C
:1031A0005395C9F77EF41F16BA0B620B730B840B91
:1031B000BAF09150A1F0FF0FBB1F661F771F881F49
:1031C000C2F70EC0BA0F621F731F841F48F48795A1
:1031D00077956795B795F7959E3F08F0B3CF939590
:1031E000880F08F09927EE0F979587950895D9D005
:1031F00008F481E008950CD00FC107D140F0FED053
:1032000030F021F45F3F19F0F0C0511139C1F3C023
:1032100014D198F39923C9F35523B1F3951B550B9A
:10322000BB27AA2762177307840738F09F5F5F4F99
:10323000220F331F441FAA1FA9F333D00E2E3AF0DA
:10324000E0E830D091505040E695001CCAF729D0F4
:10325000FE2F27D0660F771F881FBB1F2617370743
:103260004807AB07B0E809F0BB0B802DBF01FF2773
:1032700093585F4F2AF09E3F510568F0B6C000C1D9
:103280005F3FECF3983EDCF3869577956795B795AD
:10329000F7959F5FC9F7880F911D9695879597F9C8
:1032A0000895E1E0660F771F881FBB1F6217730741
:1032B0008407BA0720F0621B730B840BBA0BEE1F56
:1032C00088F7E095089504D06894B111D9C00895A5
:1032D000BCD088F09F5790F0B92F9927B751A0F034
:1032E000D1F0660F771F881F991F1AF0BA95C9F79A
:1032F00012C0B13081F0C3D0B1E00895C0C0672FD3
:10330000782F8827B85F39F0B93FCCF38695779549
:103310006795B395D9F73EF4909580957095619532
:103320007F4F8F4F9F4F0895E89409C097FB3EF45D
:1033300090958095709561957F4F8F4F9F4F992302
:10334000A9F0F92F96E9BB279395F6958795779580
:103350006795B795F111F8CFFAF4BB0F11F460FF40
:103360001BC06F5F7F4F8F4F9F4F16C0882311F098
:1033700096E911C0772321F09EE8872F762F05C0AC
:10338000662371F096E8862F70E060E02AF09A9547
:10339000660F771F881FDAF7880F9695879597F93C
:1033A0000895990F0008550FAA0BE0E8FEEF1616D6
:1033B0001706E807F907C0F012161306E407F50729
:1033C00098F0621B730B840B950B39F40A2661F09D
:1033D000232B242B252B21F408950A2609F4A14040
:1033E000A6958FEF811D811D089597F99F6780E84D
:1033F00070E060E008959FEF80EC089500240A9447
:103400001616170618060906089500240A941216BF
:103410001306140605060895092E0394000C11F4F2
:10342000882352F0BB0F40F4BF2B11F460FF04C09F
:103430006F5F7F4F8F4F9F4F089557FD9058440FF8
:10344000551F59F05F3F71F04795880F97FB991F03
:1034500061F09F3F79F087950895121613061406C0
:10346000551FF2CF4695F1DF08C01616170618064D
:10347000991FF1CF86957105610508940895E89428
:10348000BB2766277727CB0197F908950BD0C4CFC8
:10349000B5DF28F0BADF18F0952309F0A6CFABCF3F
:1034A0001124EECFCADFA0F3959FD1F3950F50E022
:1034B000551F629FF001729FBB27F00DB11D639FE6
:1034C000AA27F00DB11DAA1F649F6627B00DA11D8C
:1034D000661F829F2227B00DA11D621F739FB00D32
:1034E000A11D621F839FA00D611D221F749F3327A2
:1034F000A00D611D231F849F600D211D822F762F3B
:103500006A2F11249F5750408AF0E1F088234AF037
:10351000EE0FFF1FBB1F661F771F881F9150504083
:10352000A9F79E3F510570F060CFAACF5F3FECF343
:10353000983EDCF3869577956795B795F795E7956F
:103540009F5FC1F7FE2B880F911D9695879597F980
:103550000895DB018F939F93AADDBF91AF91A29F46
:10356000800D911DA39F900DB29F900D1124089581
:10357000991B79E004C0991F961708F0961B881FC5
:103580007A95C9F780950895EE0FFF1F881F8BBFAE
:103590000790F691E02D19940F93083090F0982F32
:1035A000872F762F652F542F432F322F2227085035
:1035B000F4CF220F331F441F551F661F771F881F2C
:1035C000991F0A95B2F70F91089597FB10F816947A
:1035D00000080F93083098F00850232F342F452F00
:1035E000562F672F782F892F902DF4CF059497951C
:1035F00087957795679557954795379527950A95B8
:10360000AAF70F910895CF93DF938230910510F4BC
:1036100082E090E0E091F605F091F70520E030E0DF
:10362000C0E0D0E0309711F140815181481759072F
:10363000C0F04817590761F482819381209719F0EF
:103640009B838A832BC09093F7058093F60526C051
:103650002115310519F04217530718F49A01BE01DC
:10366000DF01EF010280F381E02DDCCF2115310570
:1036700009F1281B390B2430310590F412968D91F5
:103680009C9113976115710521F0FB01938382834F
:1036900004C09093F7058093F605FD01329644C06F
:1036A000FD01E20FF31F81939193225031092D9375
:1036B0003C933AC02091F4053091F505232B41F459
:1036C00020910402309105023093F5052093F40512
:1036D00020910202309103022115310541F42DB7EA
:1036E0003EB74091060250910702241B350BE09132
:1036F000F405F091F505E217F307A0F42E1B3F0B3C
:103700002817390778F0AC014E5F5F4F2417350753
:1037100048F04E0F5F1F5093F5054093F4058193D9
:10372000919302C0E0E0F0E0CF01DF91CF910895E6
:103730000F931F93CF93DF93009709F48CC0FC0184
:103740003297138212820091F6051091F705011548
:10375000110581F420813181820F931F2091F4059E
:103760003091F5052817390779F5F093F505E093C1
:10377000F40571C0D80140E050E0AE17BF0750F427
:1037800012962D913C911397AD012115310509F148
:10379000D901F3CF9D01DA013383228360817181E6
:1037A000860F971F8217930769F4EC0128813981EE
:1037B000260F371F2E5F3F4F318320838A819B81E5
:1037C00093838283452B29F4F093F705E093F60564
:1037D00042C01396FC93EE931297ED0149915991D3
:1037E0009E01240F351FE217F30771F48081918148
:1037F000840F951F029611969C938E9382819381DC
:1038000013969C938E931297E0E0F0E0D801129605
:103810008D919C911397009719F0F8018C01F6CFC8
:103820008D919C9198012E5F3F4F820F931F2091A5
:10383000F4053091F5052817390769F4309729F414
:103840001092F7051092F60502C0138212821093AF
:10385000F5050093F405DF91CF911F910F91089525
:0C38600081E090E0F89400C0F894FFCFE5
:10386C0001010000F805800000000000320CE40AA1
:10387C005C095B0955094F0900000000310CE20A94
:10388C005C090F0955094F0901030206040C0809CC
:10389C0000000000070B7A104508230837084D0B71
:1038AC0000000000B10A820A7A0A660A570A560A10
:0438BC000D0A0000F1
:020000023000CC
:10E000000D9489F10D94B2F10D94B2F10D94B2F129
:10E010000D94B2F10D94B2F10D94B2F10D94B2F1F0
:10E020000D94B2F10D94B2F10D94B2F10D94B2F1E0
:10E030000D94B2F10D94B2F10D94B2F10D94B2F1D0
:10E040000D94B2F10D94B2F10D94B2F10D94B2F1C0
:10E050000D94B2F10D94B2F10D94B2F10D94B2F1B0
:10E060000D94B2F10D94B2F10D94B2F10D94B2F1A0
:10E070000D94B2F10D94B2F10D94B2F10D94B2F190
:10E080000D94B2F10D94B2F10D94B2F10D94B2F180
:10E090000D94B2F10D94B2F10D94B2F10D94B2F170
:10E0A0000D94B2F10D94B2F10D94B2F10D94B2F160
:10E0B0000D94B2F10D94B2F10D94B2F10D94B2F150
:10E0C0000D94B2F10D94B2F10D94B2F10D94B2F140
:10E0D0000D94B2F10D94B2F10D94B2F10D94B2F130
:10E0E0000D94B2F141546D656761323536300041AF
:10E0F000726475696E6F206578706C6F72657220DE
:10E1000073746B3530305632206279204D4C530099
:10E11000426F6F746C6F616465723E004875683F52
:10E1200000436F6D70696C6564206F6E203D200048
:10E130004350552054797065202020203D20005FF9
:10E140005F4156525F415243485F5F3D2000415658
:10E1500052204C696243205665723D20004743437C
:10E160002056657273696F6E203D20004350552024
:10E1700049442020202020203D20004C6F7720663D
:10E18000757365202020203D20004869676820665F
:10E190007573652020203D200045787420667573D6
:10E1A00065202020203D20004C6F636B2066757336
:10E1B000652020203D20004D617220203720323024
:10E1C000313300312E362E3800342E332E350056A2
:10E1D00023202020414444522020206F7020636F70
:10E1E00064652020202020696E73747275637469E1
:10E1F0006F6E2061646472202020496E74657272B3
:10E20000757074006E6F20766563746F7200726A49
:10E210006D702020006A6D70200057686174207056
:10E220006F72743A00506F7274206E6F7420737541
:10E2300070706F72746564004D7573742062652030
:10E2400061206C6574746572002000577269747483
:10E25000696E672045450052656164696E672045B7
:10E26000450045452065727220636E743D00504F35
:10E27000525400303D5A65726F2061646472003FF1
:10E280003D43505520737461747300403D454550C3
:10E29000524F4D207465737400423D426C696E6B41
:10E2A000204C454400453D44756D70204545505215
:10E2B0004F4D00463D44756D7020464C415348001B
:10E2C000483D48656C70004C3D4C69737420492F83
:10E2D0004F20506F72747300513D51756974005234
:10E2E0003D44756D702052414D00563D73686F7707
:10E2F00020696E7465727275707420566563746FF0
:10E30000727300593D506F727420626C696E6B00BD
:10E310002A0011241FBECFEFD1E2DEBFCDBF01E046
:10E320000CBF12E0A0E0B2E0EEE1FDEF03E00BBFB6
:10E3300002C007900D92A030B107D9F712E0A0E01B
:10E34000B2E001C01D92AE30B107E1F70F9460F367
:10E350000D948DFE01E20EBF0FEF0DBF11241FBE05
:10E360000D9460F30D9400F020E030E040ED57E0B4
:10E3700005C0FA013197F1F72F5F3F4F2817390792
:10E38000C0F308959C01260F311DC901A0E0B0E043
:10E390002F5F3F4FABBFFC018791882361F08093D3
:10E3A000C6008091C00086FFFCCF8091C0008064D1
:10E3B0008093C000EACF08958DE08093C6008091DD
:10E3C000C00086FFFCCF8091C00080648093C000B5
:10E3D0008AE08093C6008091C00086FFFCCF8091C8
:10E3E000C00080648093C00008950F94C2F10F9420
:10E3F000DCF10895FC019081992359F09093C600B7
:10E400008091C00086FFFCCF8091C0008064809323
:10E41000C0003196992379F70895282F982F929567
:10E420009F70892F805D8A3308F0895F8093C600D2
:10E430008091C00086FFFCCF8091C00080648093F3
:10E44000C000822F8F70982F905D9A3308F0995FEB
:10E450009093C6008091C00086FFFCCF8091C000E1
:10E4600080648093C00008959C01FB01853691056E
:10E470001CF46330710594F0C90164E670E00F94F8
:10E480002EFE605D7F4F6093C6008091C00086FFC6
:10E49000FCCF8091C00080648093C0002B30310598
:10E4A00014F43297B4F0C90164E670E00F942EFEC4
:10E4B0006AE070E00F942EFE605D7F4F6093C600AF
:10E4C0008091C00086FFFCCF8091C0008064809363
:10E4D000C000C9016AE070E00F942EFEC0968093E0
:10E4E000C6008091C00086FFFCCF8091C000806490
:10E4F0008093C00008951F93182F8EE692EE60E07F
:10E500000F94C2F11093C6008091C00086FFFCCF2B
:10E510008091C00080648093C0000F94DCF11F9153
:10E5200008952F923F924F925F926F927F928F92B7
:10E530009F92AF92BF92CF92DF92EF92FF920F9392
:10E540001F93DF93CF93CDB7DEB762970FB6F894E2
:10E55000DEBF0FBECDBF382E622ECA01DB015C01CB
:10E560006D01772420E2222E2E010894411C511CBB
:10E570008BC081E0A81680E0B80681E0C80680E084
:10E58000D80628F0C601AA27BB270F940DF2BB2797
:10E59000AD2D9C2D8B2D0F940DF28A2D0F940DF225
:10E5A0002092C6008091C00086FFFCCF8091C00001
:10E5B00080648093C0009DE29093C6008091C0006B
:10E5C00086FFFCCF8091C00080648093C0002092C1
:10E5D000C6008091C00086FFFCCF8091C00080649F
:10E5E0008093C00019828601750188249924A1E0D6
:10E5F0003A1651F03A1620F0B2E03B1661F409C029
:10E600000BBFF701779007C0C7010F9477FE782EF4
:10E6100002C0F7017080872D0F940DF22092C60082
:10E620008091C00086FFFCCF8091C0008064809301
:10E63000C000872D8052F401EF70F0708F3520F408
:10E64000E40DF51D708204C0E40DF51D8EE280839B
:10E650000894E11CF11C011D111D0894811C911CE2
:10E6600090E18916910409F0C2CF80E190E0A0E02A
:10E67000B0E0A80EB91ECA1EDB1E198AC2010F9493
:10E68000FAF10F94DCF16A94662009F072CF629679
:10E690000FB6F894DEBF0FBECDBFCF91DF911F91B3
:10E6A0000F91FF90EF90DF90CF90BF90AF909F9031
:10E6B0008F907F906F905F904F903F902F90089534
:10E6C0002F923F924F925F926F927F928F929F9282
:10E6D000AF92BF92CF92DF92EF92FF920F931F9370
:10E6E000DF93CF93CDB7DEB7CD53D1400FB6F894BB
:10E6F000DEBF0FBECDBF01E20EBF0FEF0DBF94B75F
:10E70000F894A89514BE80916000886180936000A1
:10E7100010926000789493FF05C0E0910002F091A0
:10E7200001021995279A2F9A8091C00082608093E8
:10E73000C00080E18093C40088E18093C1000000A4
:10E74000EE24FF24870144E0A42EB12CCC24DD2448
:10E7500024C0C5010197F1F70894E11CF11C011DCB
:10E76000111D21E2E2162EE4F20620E0020720E06D
:10E77000120718F031E0C32ED12CC801B70127ECE5
:10E780003BE140E050E00F9441FE611571058105C9
:10E79000910519F485B1805885B98091C00087FD35
:10E7A00003C0C114D104A9F2A6014F5F5F4FC25E3E
:10E7B000DE4F59834883CE51D140C25EDE4F8881FF
:10E7C0009981CE51D140019711F00D9410FEC05D9A
:10E7D000DE4F19821882C053D14060E0C15DDE4F28
:10E7E0001882CF52D14088249924C35DDE4F19820C
:10E7F0001882CD52D140C05EDE4F188219821A8233
:10E800001B82C052D140CE5CDE4F188219821A8220
:10E810001B82C253D140EE24FF2487010BBFF701B6
:10E8200007911691C45CDE4F19830883CC53D14005
:10E830000D940BFEC25EDE4F28813981CE51D1404E
:10E840002130310509F52091C600C25EDE4F1982E4
:10E850001882CE51D14022C02F5F3F4F4F4F5F4FA4
:10E86000213082E138078AE7480780E0580780F0C6
:10E87000C45CDE4FE881F981CC53D140EF5FFF4F9C
:10E8800019F0EE27FF27099420E030E040E050E047
:10E890008091C00087FFE0CF2091C600C35DDE4FAE
:10E8A00048815981CD52D1404F5F5F4FC35DDE4FEC
:10E8B00059834883CD52D140213209F063C64A3092
:10E8C000510508F05FC60894811C911C53E0851621
:10E8D000910409F059C600E010E018C081E280936D
:10E8E000C6008091C00086FFFCCF8091C00080648C
:10E8F0008093C0002F5F3F4F2931310579F70F9486
:10E90000DCF10F5F1F4F0530110519F020E030E0FA
:10E91000E5CF10920A0210920B0210920C02109294
:10E920000D02109206021092070210920802109235
:10E930000902109202021092030210920402109235
:10E9400005028FEE90EE60E00F94F5F180E191EE1C
:10E9500060E00F94C2F18091C00087FFFCCF9091DE
:10E96000C600903608F09F759032B8F09093C600BC
:10E970008091C00086FFFCCF8091C00080648093AE
:10E98000C000A0E2A093C6008091C00086FFFCCF2B
:10E990008091C00080648093C000983409F4D7C18E
:10E9A0009934B8F4923409F459C1933458F490333B
:10E9B00019F1903308F4E3C59F33A1F1903409F0C5
:10E9C000DEC5BDC0953409F470C1963409F0D7C5D1
:10E9D00098C1923509F42BC2933538F49C3409F46C
:10E9E000F5C1913509F0CBC518C2963509F445C279
:10E9F000993509F0C4C567C483E792EE62E00F94CD
:10EA0000F5F110920602109207021092080210927D
:10EA1000090210920A0210920B0210920C0210923C
:10EA20000D0213C18FE792EE62E00F94F5F18FEEC5
:10EA300090EE60E00F94F5F181E291EE60E00F94CA
:10EA4000C2F187EB91EE60E00F94F5F180E391EE77
:10EA500060E00F94C2F184EE90EE60E00F94F5F167
:10EA60008FE391EE60E00F94C2F186E090E061E008
:10EA700070E00F9434F20F94DCF18DE591EE60E0DC
:10EA80000F94C2F189EC91EE60E00F94F5F18EE401
:10EA900091EE60E00F94C2F183EC91EE60E00F9490
:10EAA000F5F18CE691EE60E00F94C2F18EE10F94E7
:10EAB0000DF288E90F940DF281E00F940DF20F949E
:10EAC000DCF18BE791EE60E00F94C2F119E0E0E039
:10EAD000F0E010935700E4918E2F0F940DF20F94F5
:10EAE000DCF18AE891EE60E00F94C2F1E3E0F0E03F
:10EAF00010935700E4918E2F0F940DF20F94DCF1D8
:10EB000089E991EE60E00F94C2F1E2E0F0E0109349
:10EB10005700E4918E2F0F940DF20F94DCF188EAE8
:10EB200091EE60E00F94C2F1E1E0F0E01093570045
:10EB30001491812F0F940DF20F94DCF107CF8BE825
:10EB400092EE62E00F94F5F18BE492EE60E00F94A8
:10EB5000F5F10F94DCF100E010E019C0C8016F2D51
:10EB60000F947FFEFF2031F489E492EE60E00F9471
:10EB7000C2F10BC0F092C6008091C00086FFFCCFAE
:10EB80008091C00080648093C0000F5F1F4FC80158
:10EB900081519F41A0E0B0E0ABBFFC01F790BAE229
:10EBA000FB1621F0E2E000301E07C1F60F94DCF105
:10EBB0000F94DCF187E592EE60E00F94F5F10F948D
:10EBC000DCF1CC24DD2400E010E01EC0C8010F946D
:10EBD00077FEF82E882331F489E492EE60E00F94FA
:10EBE000C2F10BC08093C6008091C00086FFFCCFAD
:10EBF0008091C00080648093C000FE1419F00894D6
:10EC0000C11CD11C0F5F1F4FC80181519F41A0E063
:10EC1000B0E0ABBFFC01E790FAE2EF1621F022E092
:10EC20000030120799F60F94DCF10F94DCF182E6C4
:10EC300092EE60E00F94C2F1C60161E070E00F94C3
:10EC400034F20F94DCF10F94DCF110920202109276
:10EC50000302109204021092050278CE89E992EE26
:10EC600062E00F94F5F1279A2F9A16C02F9880E052
:10EC700090E0E0EDF7E03197F1F7019684369105E9
:10EC8000C1F72F9A80E090E0E0EDF7E03197F1F7DF
:10EC9000019684369105C1F78091C00087FFE6CFC9
:10ECA0008091C00087FFFCCF64C485EA92EE62E0E9
:10ECB0000F94F5F140910202509103026091040219
:10ECC0007091050281E020E10F9491F2809102029F
:10ECD00090910302A0910402B091050280509F4FD1
:10ECE000AF4FBF4F8093020290930302A0930402A0
:10ECF000B093050280509041A040B04008F426CE69
:10ED0000A4CF83EB92EE62E00F94F5F140910602FE
:10ED100050910702609108027091090280E020E1A1
:10ED20000F9491F28091060290910702A09108023F
:10ED3000B091090280509F4FAF4FBF4F80930602A2
:10ED400090930702A0930802B0930902FFCD80ECD4
:10ED500092EE62E00F94F5F183E792EE60E00F949B
:10ED6000F5F18FE792EE60E00F94F5F18BE892EE0B
:10ED700060E00F94F5F189E992EE60E00F94F5F10F
:10ED800085EA92EE60E00F94F5F183EB92EE60E09D
:10ED90000F94F5F180EC92EE60E00F94F5F187ECC2
:10EDA00092EE60E00F94F5F188ED92EE60E00F9442
:10EDB000F5F18FED92EE60E00F94F5F18AEE92EEB0
:10EDC00060E00F94F5F183E093EEBDCD87EC92EE19
:10EDD00062E00F94F5F181E40F947BF282E40F94EA
:10EDE0007BF283E40F947BF284E40F947BF285E45E
:10EDF0000F947BF286E40F947BF287E40F947BF20E
:10EE000088E40F947BF28AE40F947BF28BE40F94F6
:10EE10007BF28CE40F947BF299CD88ED92EE62E068
:10EE20000F94F5F1772473948824992409C48FED05
:10EE300092EE62E00F94F5F140910A0250910B02BC
:10EE400060910C0270910D0282E020E10F9491F22A
:10EE500080910A0290910B02A0910C02B0910D02D8
:10EE600080509F4FAF4FBF4F80930A0290930B0289
:10EE7000A0930C02B0930D0269CD8AEE92EE62E08F
:10EE80000F94F5F184EE90EE60E00F94F5F18FECC5
:10EE900091EE60E00F94F5F1662477244301CC5D98
:10EEA000DE4F19821882C452D140D401C301B695F5
:10EEB000A79597958795CA5DDE4F88839983AA8326
:10EEC000BB83C652D140CC5DDE4FA881B981C4520C
:10EED000D1401196CC5DDE4FB983A883C452D14096
:10EEE000CD0162E070E00F9434F2B0E2B093C6005E
:10EEF0008091C00086FFFCCF8091C0008064809329
:10EF0000C000EDE2E093C6008091C00086FFFCCF18
:10EF10008091C00080648093C000F0E2F093C6004E
:10EF20008091C00086FFFCCF8091C00080648093F8
:10EF3000C000CA5DDE4FE880F9800A811B81C6529D
:10EF4000D140BB27A12F902F8F2D0F940DF2CA5DBA
:10EF5000DE4F8881C652D1400F940DF2B0E2FB2EF5
:10EF6000F092C6008091C00086FFFCCF8091C00067
:10EF700080648093C0000DE30093C6008091C000C0
:10EF800086FFFCCF8091C00080648093C00010E2B7
:10EF90001093C6008091C00086FFFCCF8091C00016
:10EFA00080648093C0008BBEF3012791C65DDE4F65
:10EFB0002883CA52D140A22EBB24CC24DD2408943D
:10EFC000611C711C811C911C8BBEF3018791282E42
:10EFD0003324442455240894611C711C811C911C09
:10EFE0008BBEF3013791C55DDE4F3883CB52D140E4
:10EFF0000894611C711C811C911C8BBEF30147910C
:10F00000C45DDE4F4883CC52D140ADEFEA2EAFEF66
:10F01000FA2EAFEF0A2FAFEF1A2F6E0C7F1C801E57
:10F02000911E142D032DF22CEE24EA0CFB1C0C1D5A
:10F030001D1D0F940DF220E22093C6008091C000A8
:10F0400086FFFCCF8091C00080648093C000C65DC5
:10F05000DE4F8881CA52D1400F940DF230E23093D6
:10F06000C6008091C00086FFFCCF8091C000806404
:10F070008093C000C45DDE4F8881CC52D1400F9494
:10F080000DF240E24093C6008091C00086FFFCCFA5
:10F090008091C00080648093C000C55DDE4F888190
:10F0A000CB52D1400F940DF250E25093C6008091A4
:10F0B000C00086FFFCCF8091C00080648093C000B8
:10F0C0008FEFE8168FEFF80680E0080780E018075A
:10F0D00031F484E092EE60E00F94C2F1DFC0D80119
:10F0E000C7018070907CA070B0708050904CA040A0
:10F0F000B040D1F52FEF3FE340E050E0E222F322B1
:10F1000004231523CA5DDE4FA880B980CA80DB8046
:10F11000C652D140AE0CBF1CC01ED11EAA0CBB1CD7
:10F12000CC1CDD1C8EE092EE60E00F94C2F1BB2798
:10F13000A12F902F8F2D0F940DF28E2D0F940DF285
:10F1400030E23093C6008091C00086FFFCCF8091F2
:10F15000C00080648093C0004EE34093C60080915D
:10F16000C00086FFFCCF87C08EE09EEFA0E0B0E03D
:10F17000E822F9220A231B239CE0E91694E9F90608
:10F1800090E0090790E0190709F088C0C45DDE4FE0
:10F19000A881CC52D140EA2EFF2400E010E0102FCD
:10F1A0000F2DFE2CEE24C55DDE4FB881CB52D14031
:10F1B000EB0EF11C011D111DD601C501817090706F
:10F1C000A070B070DC0199278827E80EF91E0A1F8D
:10F1D0001B1F20EF30E040E050E0A222B322C42207
:10F1E000D52241E1AA0CBB1CCC1CDD1C4A95D1F7F1
:10F1F000EA0CFB1C0C1D1D1D81E090E0A0E0B0E0BE
:10F20000282239224A225B2235E1220C331C441C7D
:10F21000551C3A95D1F7E20CF31C041D151D57013E
:10F220006801AA0CBB1CCC1CDD1C85E192EE60E0E1
:10F230000F94C2F1C801AA27BB270F940DF2BB2778
:10F24000A12F902F8F2D0F940DF28E2D0F940DF274
:10F2500090E29093C6008091C00086FFFCCF809121
:10F26000C00080648093C000AEE3A093C60080918C
:10F27000C00086FFFCCF8091C00080648093C000F6
:10F28000C601AA27BB270F940DF2BB27AD2D9C2DDD
:10F290008B2D0F940DF28A2D0F940DF20F94DCF14B
:10F2A000CC5DDE4FE881F981C452D140F99709F471
:10F2B0004DCBF4E0EF2EF12C012D112D6E0C7F1CA7
:10F2C000801E911EF2CD83E093EE62E00F94F5F183
:10F2D0008AE192EE60E00F94C2F18091C00087FF56
:10F2E000FCCF1091C6001F751093C6008091C0001E
:10F2F00086FFFCCF8091C00080648093C0000F9493
:10F30000DCF1812F81548A3108F036C1163409F4BA
:10F3100095C0173490F4133409F44EC0143430F40B
:10F320001134F1F0123409F01DC130C0143409F465
:10F3300059C0153409F016C16BC01A3409F4C4C0A1
:10F340001B3438F4173409F48FC0183409F00AC19B
:10F35000A1C01B3409F4D2C01C3409F003C1E8C0B9
:10F360008FEF81B90DC082B1809582B980E090E0C5
:10F37000E0EDF7E03197F1F70196883C9105C1F790
:10F380008091C00087FFEFCF12B8EFC08FEF84B934
:10F390000DC085B1809585B980E090E0E0EDF7E0A3
:10F3A0003197F1F70196883C9105C1F78091C00033
:10F3B00087FFEFCF15B8D9C08FEF87B90DC088B1DF
:10F3C000809588B980E090E0E0EDF7E03197F1F7C3
:10F3D0000196883C9105C1F78091C00087FFEFCF6F
:10F3E00018B8C3C08FEF8AB90DC08BB180958BB9A7
:10F3F00080E090E0E0EDF7E03197F1F70196883C8E
:10F400009105C1F78091C00087FFEFCF1BB8ADC059
:10F410008FEF8DB90DC08EB180958EB980E090E0F0
:10F42000E0EDF7E03197F1F70196883C9105C1F7DF
:10F430008091C00087FFEFCF1EB897C08FEF80BBD1
:10F440000DC081B3809581BB80E090E0E0EDF7E0F6
:10F450003197F1F70196883C9105C1F78091C00082
:10F4600087FFEFCF11BA81C08FEF83BB0DC084B38C
:10F47000809584BB80E090E0E0EDF7E03197F1F714
:10F480000196883C9105C1F78091C00087FFEFCFBE
:10F4900014BA6BC08FEF809301010FC080910201FD
:10F4A00080958093020180E090E0E0EDF7E03197F5
:10F4B000F1F70196883C9105C1F78091C00087FF64
:10F4C000EDCF1092020151C08FEF809304010FC065
:10F4D0008091050180958093050180E090E0E0ED4A
:10F4E000F7E03197F1F70196883C9105C1F78091DB
:10F4F000C00087FFEDCF1092050137C08FEF8093DA
:10F5000007010FC08091080180958093080180E079
:10F5100090E0E0EDF7E03197F1F70196883C910536
:10F52000C1F78091C00087FFEDCF109208011DC088
:10F530008FEF80930A010FC080910B01809580931B
:10F540000B0180E090E0E0EDF7E03197F1F70196F4
:10F55000883C9105C1F78091C00087FFEDCF1092E4
:10F560000B0103C085E292EEEEC98091C00087FFD7
:10F57000FCCF8091C600EAC988E392EEE4C98CE131
:10F5800091EEE1C988249924933011F1943028F444
:10F59000913089F09230B8F408C0953061F195301F
:10F5A000F0F0963009F048C043C02B3109F042C951
:10F5B00091E06BE13FC96227C15DDE4F2883CF52E6
:10F5C000D14092E037C9B22FA0E0622793E032C960
:10F5D000822F90E0A82BB92B622794E02BC92E3004
:10F5E00009F039C3622795E0C05DDE4F19821882A9
:10F5F000C053D1401FC9E1E0F0E0EC0FFD1FC05D3A
:10F60000DE4F08811981C053D140E00FF11F2083E4
:10F610000F5F1F4FC05DDE4F19830883C053D14079
:10F6200062270A171B0709F005C9D80196E002C92D
:10F63000261709F010C303C0973009F0FBC87724E0
:10F640009981933109F412C19431C8F4963009F4C8
:10F65000D8C0973050F4923009F406C1933009F4C1
:10F660006DC0913009F059C253C0913109F477C08F
:10F67000923108F0BBC0903109F04FC2F5C098310B
:10F6800009F487C0993150F4953109F4EFC09531F0
:10F6900008F4C6C1963109F040C2C2C19A3109F4DA
:10F6A0006CC09A3108F491C09B3109F45BC09D3164
:10F6B00009F033C29D81903359F48F81882311F46E
:10F6C0009EE11CC0813011F091E018C098E916C08D
:10F6D000892F807591F0903539F4E0E0F0E089E011
:10F6E0008093570094910AC0983539F4E3E0F0E034
:10F6F00089E080935700949101C090E01A821B82A8
:10F700008D818C831D829E831F8227E030E009C299
:10F710001A8288E08B8381E48C8386E58D8382E581
:10F720008E8389E48F8383E5888780E589878FE5E9
:10F730008A8782E38B872BE030E0F3C18A818139AD
:10F7400041F0823941F0803911F48FE005C080E04A
:10F7500003C082E001C08AE01A828B8344C0772410
:10F76000739482C08D81882311F48EE12CC0813086
:10F7700011F081E028C088E926C01A82E1E0F0E0BB
:10F7800089E08093570084918B831C8224E030E0D1
:10F79000C8C18B81803589F48C81883039F4E2E0EE
:10F7A000F0E089E08093570084910DC0E0E0F0E044
:10F7B00089E080935700849106C0E3E0F0E089E09F
:10F7C0008093570084911A82DFCF8D81836C99E0FA
:10F7D000E1E0F0E0082E90935700E89507B600FCB2
:10F7E000FDCF1A821B8223E030E09BC180EC8A832C
:10F7F000CE5CDE4F188219821A821B82C253D1401E
:10F800008EC18A8190E0A0E0B0E0582F44273327D2
:10F8100022278B8190E0A0E0B0E0DC0199278827C7
:10F82000282B392B4A2B5B2B8D8190E0A0E0B0E098
:10F83000282B392B4A2B5B2B8C8190E0A0E0B0E089
:10F84000BA2FA92F982F8827282B392B4A2B5B2BCF
:10F85000220F331F441F551FC05EDE4F288339839C
:10F860004A835B83C052D1401A8259C13A81C95C34
:10F87000DE4F3883C753D140CA5CDE4F1882C6536F
:10F88000D1408B81C82EDD24CA5CDE4F488159816E
:10F89000C653D140C42AD52A933109F082C0CE5C28
:10F8A000DE4F88819981AA81BB81C253D1408050AB
:10F8B000904CA340B04030F583E0CE5CDE4FE88052
:10F8C000F9800A811B81C253D140F70100935B008C
:10F8D00080935700E89507B600FCFDCFCE5CDE4F65
:10F8E000088119812A813B81C253D14000501F4FAA
:10F8F0002F4F3F4FCE5CDE4F088319832A833B8313
:10F90000C253D140C05EDE4F488159816A817B81FC
:10F91000C052D140DE011B9631E08C9111962C91A2
:10F9200011971296C75CDE4F2883C953D140C85C3B
:10F93000DE4F1882C853D14090E0C85CDE4FE881AA
:10F94000F981C853D1408E2B9F2B0C01FA01609393
:10F950005B0030935700E89511244E5F5F4F6F4F67
:10F960007F4F0EEFE02E0FEFF02ECE0CDF1CC114F8
:10F97000D10499F685E0C05EDE4F088119812A81A5
:10F980003B81C052D140F80120935B008093570027
:10F99000E89507B600FCFDCF81E180935700E8951C
:10F9A00035C0C05EDE4F88819981AA81BB81C0527B
:10F9B000D140B695A795979587957C018601ABE0D8
:10F9C000AA2EB12CAC0EBD1E0BC0D5016D915D01F0
:10F9D000C7010F947FFE0894E11CF11C01501040F8
:10F9E0000115110591F7A60160E070E0440F551F65
:10F9F000661F771FC05EDE4FE880F9800A811B8199
:10FA0000C052D1404E0D5F1D601F711F1A82C05E33
:10FA1000DE4F488359836A837B83C052D1407FC0C5
:10FA2000FA80C55CDE4FF882CB53D140C65CDE4F16
:10FA30001882CA53D1408B81C82EDD24C65CDE4FAC
:10FA400008811981CA53D140C02AD12A1A828981DA
:10FA5000BE016D5F7F4F843121F59601C05EDE4FA0
:10FA6000E880F9800A811B81C052D1400BBFF701A9
:10FA700087919691DB018C9311969C936E5F7F4FDB
:10FA8000D801C7010296A11DB11DC05EDE4F88835B
:10FA90009983AA83BB83C052D14022503040F1F6F3
:10FAA00036C0C05EDE4F288139814A815B81C052F9
:10FAB000D1400894C108D108760100E010E0089414
:10FAC000C11CD11C0894E11CF11C011D111DE20E8A
:10FAD000F31E041F151F21BDBB27A52F942F832FB5
:10FAE00082BD2F5F3F4F4F4F5F4FF89A80B5DB01CC
:10FAF0008D93BD012E153F054007510761F7C05E8C
:10FB0000DE4F288339834A835B83C052D1409601FC
:10FB10002D5F3F4FFB01108204C080EC8A8322E0FE
:10FB200030E08BE18093C6008091C00086FFFCCF5F
:10FB30008091C00080648093C000C15DDE4FF88179
:10FB4000CF52D140F093C6008091C00086FFFCCF19
:10FB50008091C00080648093C000432F3093C60022
:10FB60008091C00086FFFCCF8091C00080648093AC
:10FB7000C000922F2093C6008091C00086FFFCCF6A
:10FB80008091C00080648093C0008EE08093C600A6
:10FB90008091C00086FFFCCF8091C000806480937C
:10FBA000C00065E1C15DDE4FE880CF52D1406E25D7
:10FBB00069276427FE01319610C090819093C6009A
:10FBC0008091C00086FFFCCF31968091C000806498
:10FBD0008093C0006927215030402115310569F715
:10FBE0006093C6008091C00086FFFCCF8091C0006A
:10FBF00080648093C00085B1805885B9772081F4F6
:10FC0000C15DDE4F0881CF52D1400F5FC15DDE4F35
:10FC10000883CF52D14090E0A0E0B0E00D941AF4F8
:10FC200027982F9880E090E020ED37E0F901319798
:10FC3000F1F7019684369105C9F700008091C00064
:10FC40008D7F8093C00081E180935700E895EE2777
:10FC5000FF270994FFCF90E00D941AF497FB092E2B
:10FC600007260AD077FD04D02ED006D000201AF443
:10FC7000709561957F4F0895F6F7909581959F4F08
:10FC80000895A1E21A2EAA1BBB1BFD010DC0AA1FDD
:10FC9000BB1FEE1FFF1FA217B307E407F50720F0F5
:10FCA000A21BB30BE40BF50B661F771F881F991F70
:10FCB0001A9469F760957095809590959B01AC01B9
:10FCC000BD01CF010895AA1BBB1B51E107C0AA1FAC
:10FCD000BB1FA617B70710F0A61BB70B881F991FED
:10FCE0005A95A9F780959095BC01CD010895F99991
:10FCF000FECF92BD81BDF89A992780B50895262F31
:10FD0000F999FECF1FBA92BD81BD20BD0FB6F89400
:0EFD1000FA9AF99A0FBE01960895F894FFCF63
:040000033000E000E9
:00000001FF