:1000000026C1000055C1000053C1000051C10000CD
:100010004FC100004DC100004BC1000049C10000AC
:1000200047C1000045C1000043C1000041C10000BC
:100030003FC100000C949D0D3BC1000039C1000080
:1000400037C100000C946A1033C1000031C10000B8
:100050002FC100002DC100002BC100000C94FA0C30
:1000600027C100000C94FB120C94D21221C1000095
:100070001FC100001DC100001BC1000019C100000C
:100080000C943D1015C1000013C1000011C1000007
:100090000FC100000DC100000BC100000C949710AF
:1000A00007C1000005C100000C94101001C1000040
:1000B000FFC00000FDC00000FBC000000C94E30F77
:1000C000F7C00000F5C00000F3C00000F1C0000060
:1000D000EFC00000EDC00000EBC00000E9C0000070
:1000E000E7C00000A508A80897089B08A108DF083A
:1000F000AC08B008B608BA08BE08C408C808CC08DE
:10010000DF08D208D608DA082A17561760177517BD
:100110008A179F17B417C917DE17E417FD170318BE
:1001200018182D18421848185C186518000020008F
:100130002300260029002C002F00320000010000BF
:1001400003010601090100000A0B02090C0D0E084B
:100150000703040100000000000000000000000090
:10016000000000000000000000000000000000008F
:10017000000012111000000000000000000000004C
:10018000000000000000000000000000000022004D
:10019000250028002B002E00310034000201000051
:1001A000050108010B0100002100240027002A009E
:1001B0002D003000330001010000040107010A0195
:1001C00005050505070508080808020202020A0AD3
:1001D00008080404040401010101010101010303F1
:1001E000030303030303040707070C0C0C0C0C0C9C
:1001F0000C0C0202020206060606060606060B0B99
:100200000B0B0B0B0B0B01021020200808102040D9
:1002100010204080020102010804020101020408CA
:100220001020408080402010080402018004020158
:1002300080402010080402010804020101020408A1
:10024000102040800102040810204080671A112409
:100250001FBECFEFD1E2DEBFCDBF00E00CBF12E08A
:10026000A0E0B2E0E0E6FFE300E00BBF02C00790D1
:100270000D92AC36B107D9F726E0ACE6B2E001C08A
:100280001D92AF32B207E1F711E0C7E2D1E000E022
:1002900006C021970109802FFE010E943E1EC63232
:1002A000D10780E00807A9F70E9436150C94AE1F0D
:1002B000A7CE2F923F924F925F926F927F928F9232
:1002C0009F92AF92BF92CF92DF92EF92FF920F93E5
:1002D0001F93CF93DF9300D000D0CDB7DEB783E775
:1002E00092E09093CA048093C9048091700290E0D8
:1002F0009093CC048093CB0480913D0390E0909345
:10030000CE048093CD0480916C02853009F07BC3CC
:100310008091750290917602885891098D359105EA
:1003200088F480917002843041F48091770290913A
:1003300078028097479708F401C280917002843454
:1003400008F0E3C1809170028A3108F454C08091B2
:10035000730290917402843F914080F41092C8041B
:100360001092C7048FEF9FEFDC018093C30490933A
:10037000C404A093C504B093C6045BC08091750209
:100380009091760285974B97B0F5E9E7F2E082E02D
:1003900090E040E050E0BA018C010F5F1F4F2091C8
:1003A000700230E0021713076CF49F0122503109EC
:1003B000D9012D913C91275031092730310508F49E
:1003C000F5C1C8010197959587959093C8048093CE
:1003D000C7040C972CF41092C8041092C7040BC0E9
:1003E0004093C3045093C4046093C5047093C6043F
:1003F00084E090E0FCC2809170028A3108F44DC024
:1004000080917302909174028032934008F4A6CFD9
:100410008091750290917602C697869708F4E2C1A2
:100420003CC04093C3045093C4046093C5047093CC
:10043000C6048BE090E0DBC2208131812552310976
:100440002B31310508F0DEC1440F551F661F771FA1
:100450004160029634968C010F5F1F4F209170020D
:1004600030E00217130764F49F0122503109D901CB
:100470002D913C912C5031092B303105E8F2C80107
:100480000197959587959093C8048093C7040C971E
:1004900044F61092C8041092C70480917002823210
:1004A00008F44CC0809175029091760206970797E8
:1004B00008F044C0E9E7F2E082E090E040E050E07C
:1004C000BA018C010F5F1F4F2091700230E00217BC
:1004D0001307DCF4DF0112972D913C9111972E51F7
:1004E00031092731310508F09AC1440F551F661FA5
:1004F000771F4160208131813496235031092530A6
:10050000310510F40296DDCFC801019795958795C6
:100510009093C8048093C70440972CF41092C804A9
:100520001092C7040BC04093C3045093C40460935B
:10053000C5047093C6048CE090E059C21C821B82F3
:1005400081E090E09A838983809170028D3008F475
:100550006BC049E753E0BE016D5F7F4FCE0101964E
:100560000E94C514892B09F05FC049E753E0BE0122
:100570006D5F7F4FCE0101960E94C514019709F06F
:1005800053C049E753E0BE016D5F7F4FCE01019636
:100590000E94C514892B09F047C0C12CD12C7601CB
:1005A00000E010E08091700290E029813A812817E4
:1005B00039075CF549E753E0BE016D5F7F4FCE011F
:1005C00001960E94C5145C0149E753E0BE016D5FCE
:1005D0007F4FCE0101960E94C514B1E0AB16B10465
:1005E00049F4892B09F5CC0CDD1CEE1CFF1C68942A
:1005F000C0F808C0AB28C1F40197B1F4CC0CDD1CE5
:10060000EE1CFF1C0F5F1F4FCDCF1093C80400934B
:10061000C704C092C304D092C404E092C504F0920F
:10062000C60481E090E0E3C11C821B8281E090E07F
:100630009A8389838091CB049091CC041816190673
:100640000CF058C0E091C904F091CA0482E090E037
:100650009A8389838281938189974E9708F04AC053
:1006600083E090E09A838983848195810B970A9730
:1006700008F040C04CEB51E0BE016D5F7F4FCE01F2
:1006800001960E94C514892BA9F54CEB51E0BE01DF
:100690006D5F7F4FCE0101960E94C514019751F501
:1006A000C12CD12C760100E010E029813A818091A3
:1006B000CB049091CC04281739070CF0F3C04CEB15
:1006C00051E0BE016D5F7F4FCE0101960E94C514BF
:1006D0004C010330110509F0AFC04CEB51E0BE01F5
:1006E0006D5F7F4FCE0101960E94C5148816990652
:1006F00009F4A2C0E091C904F091CA0482819381F7
:10070000C697869708F4DDC08CC1809177029091DE
:100710007802825491098E9708F014CE20E030E0E0
:1007200080E090E0DC01F901E758FD4F4081518104
:10073000495051094930510588F004CE8091790221
:1007400090917A020997099708F0F7CD1092C804A2
:100750001092C7048FEF9FEFDC0158C1F901E558F3
:10076000FD4F40815181475151094231510588F473
:10077000880F991FAA1FBB1F81602C5F3F4F203835
:10078000310589F620E230E03093C8042093C70495
:100790003DC140815181465051094730510508F013
:1007A000D1CD880F991FAA1FBB1FE7CF20813181B0
:1007B000235131092F30310540F4440F551F661F76
:1007C000771F416002963496E7CD208131812A500F
:1007D00031092930310508F00ECE440F551F661F30
:1007E000771FF0CF8091770290917802C697869715
:1007F00008F053CEEBE7F2E083E090E040E050E019
:10080000BA0129CE208131812C5031092A3031059D
:1008100008F043CE440F551F661F771F1ACE2D9147
:100820003C912C5031092B30310508F087CE440F14
:10083000551F661F771F5ECE4CEB51E0BE016D5F0A
:100840007F4FCE0101960E94C5145C010330110553
:1008500069F44CEB51E0BE016D5F7F4FCE01019614
:100860000E94C514A816B90609F044CF811491045A
:1008700059F4AA94AB2809F03DCFCC0CDD1CEE1C3A
:10088000FF1C6894C0F80BC08A94892809F032CF05
:10089000AB2809F02FCFCC0CDD1CEE1CFF1C0F5F2A
:1008A0001F4F03CF1093C8040093C704C092C30422
:1008B000D092C404E092C504F092C60482E090E0B5
:1008C00096C0848195814B97459708F0AAC0DF01B7
:1008D00016967F0126ECE20EF11C20E030E040E0AD
:1008E00050E060E070E080E090E00D911C91119785
:1008F000095011090830110508F093C012960D91A6
:100900001C911397015111090D30110520F501E0DB
:100910000E94461E21601496AE15BF0531F7209344
:10092000C3043093C4044093C5045093C60400E24A
:100930000E94611E2093C1043093C20485E090E0C0
:100940009093C0048093BF0480E390E09093C80428
:100950008093C70450C012960D911C9113970450B8
:1009600011090530110508F05CC001E00E94461E27
:10097000D2CF980122503109D9012D913C912950B3
:1009800031092830310508F0FAC0BC016F5F7F4F94
:10099000D8012D913C91275031092730310508F0BD
:1009A000EBC2440F551F416002960C5F1F4F209110
:1009B000700230E02450310982179307D4F2019776
:1009C000959587959093C8048093C7048A970CF4F3
:1009D000D6C0052E000C660B770B4093C3045093D2
:1009E000C4046093C5047093C60489E090E09093BA
:1009F000C0048093BF0481E090E00CC382E0809348
:100A00006C021092700280E090E004C38093C304F3
:100A10009093C404A093C504B093C60483E090E00F
:100A2000E6CF80917002893370F18281938189577A
:100A300091098335910508F440C125C0D90112966A
:100A40006D917C911397665171096131710508F0C0
:100A500060C1D701C601880F991FAA1FBB1F6C0177
:100A60007D016894C0F84E5F5F4F2C5F3F4F4B3362
:100A7000510509F431C1D9016D917C916A50710918
:100A800069307105D8F280917002823231F482812E
:100A900093810A97099708F44CC182819381895701
:100AA000910983359105D0F4809170028132B0F0C4
:100AB00084819581CA97899788F49F012A5F3F4F67
:100AC000C12CD12C760143E050E0D9016D917C918D
:100AD0006A5071096930710508F44AC182819381B5
:100AE0008C549109C59778F480917002843031F468
:100AF000848195818097479708F499C1809170020D
:100B0000843408F07BC180917002863460F1828168
:100B100093810C970B9708F4D8C125C0D901129680
:100B20006D917C9113976E5171096731710508F0D1
:100B300004C2D701C601880F991FAA1FBB1F6C01F1
:100B40007D016894C0F84E5F5F4F2C5F3F4F453486
:100B5000510509F4D5C1D9016D917C916C50710991
:100B60006B307105D8F280917002883540F0828137
:100B70009381855891098B35910508F4EEC18091D8
:100B800070028032E1F48281938106970697B8F46F
:100B9000848195810997099790F49F012A5F3F4FBF
:100BA000BF01625C7F4FC12CD12C7601D9014D91E0
:100BB0005C91465051094630510508F4EAC18091D4
:100BC000CB049091CC049E838D8306970CF416CFB2
:100BD0008F010A5F1F4F73E0272E312CE5ECCE2EDC
:100BE000EDE9DE2EECE1EE2EE1E8FE2ED8016D916E
:100BF0007C91F8013497A080B18080E090E00E9461
:100C0000B31C2B013C01B50180E090E00E94B31CB5
:100C10004B015C012DEC3CEC4CE45FE30E94691D50
:100C20009B01AC01C301B2010E94161C87FD17C0D5
:100C30002DEC3CEC4CE45FE3C301B2010E94691D62
:100C40009B01AC01C501B4010E94161CE82F880F5E
:100C5000FF0BEE27FF0FEE1FFF27319602C0E0E0EB
:100C6000F0E0A701960163E971E080E091E00E9465
:100C7000231E6F01FF0FEE08FF08C626D726E826C1
:100C8000F926BFEF2B1A3B0A0E5F1F4FED81FE8145
:100C90002E163F0609F0AACFC092C304D092C40416
:100CA000E092C504F092C60480E290E09093C804FC
:100CB0008093C7048FEF9FEF9ACE84819581CA9766
:100CC000899708F0E0CE9F012A5F3F4FC12CD12CBD
:100CD000760143E050E0CFCE9F012A583F4FD90123
:100CE0002D913C912A5031092930310508F0CBCEA5
:100CF0002CE130E03093C8042093C704C092C304B1
:100D0000D092C404E092C504F092C6048AE090E058
:100D10006ECED90112966D917C9113976650710930
:100D20006730710508F0AFCECC0CDD1CEE1CFF1C4B
:100D30009ACE20917002CF01820F911D820F911DDA
:100D4000DC0112978D919C910A97099708F0A5CE26
:100D50001092C8041092C7048FEF9FEFDC018093BC
:100D6000C3049093C404A093C504B093C6044CC1BB
:100D7000D90112966D917C91139766517109613179
:100D8000710588F112966D917C91139766507109E7
:100D90006730710508F0A2CECC0CDD1CEE1CFF1CE8
:100DA0004E5F5F4F2C5F3F4F4332510509F08DCEB0
:100DB0009F012A5B3F4FD9012D913C912A50310967
:100DC0002930310508F08ACE20E130E03093C804A4
:100DD0002093C704C092C304D092C404E092C50417
:100DE000F092C60411C1D701C601880F991FAA1F2E
:100DF000BB1F6C017D016894C0F8D2CF84819581BE
:100E000089549109C39708F07ECE9F012A5F3F4F16
:100E1000BF016A577F4FC12CD12C7601D9014D916A
:100E20005C914950510949305105B8F06CCE86812A
:100E300097810997099708F061CE1092C804109223
:100E4000C7048FEF9FEFDC018093C3049093C40429
:100E5000A093C504B093C604DAC0D90112964D918F
:100E60005C9113974651510941315105F0F4D70176
:100E7000C601880F991FAA1FBB1F6C017D016894D2
:100E8000C0F82C5F3F4F2617370741F620E230E0CD
:100E90003093C8042093C704C092C304D092C40402
:100EA000E092C504F092C604B2C0D90112964D91E9
:100EB0005C911397465051094730510508F023CEF5
:100EC000CC0CDD1CEE1CFF1CDCCF848195810997C6
:100ED000099708F048CE868197818C974F9708F044
:100EE00042CE8085918589974D9708F03CCE9F0131
:100EF000265F3F4FC12CD12C760145E050E02BCE30
:100F00009F0126573F4FD9012D913C912C5031091B
:100F10002B30310508F027CE20E230E03093C804B2
:100F20002093C704C092C304D092C404E092C504C5
:100F3000F092C60488E090E05ACDD90112966D91E6
:100F40007C911397695071096930710508F00BCED7
:100F5000CC0CDD1CEE1CFF1CF6CD848195818254E7
:100F600091098E9708F00BCE8F01045C1F4F8DE125
:100F700090E040E050E01BCDD8012D913C912851EC
:100F800031092231310510F0CB0119CD440F551F25
:100F90000BCDD90112964D915C911397495151098E
:100FA0004331510508F5D701C601880F991FAA1FC3
:100FB000BB1F6C017D016894C0F82C5F3F4F261762
:100FC000370709F0F3CD2EE030E03093C8042093CA
:100FD000C704C092C304D092C404E092C504F09246
:100FE000C6048FE090E003CDD90112964D915C913B
:100FF0001397495051094930510508F0E0CDCC0C08
:10100000DD1CEE1CFF1CD9CF86E090E0F0CC87E021
:1010100090E0EDCC26960FB6F894DEBF0FBECDBFA4
:10102000DF91CF911F910F91FF90EF90DF90CF90C4
:10103000BF90AF909F908F907F906F905F904F90F8
:101040003F902F900895FC01918D828D981761F04B
:10105000828DDF01A80FB11D5D968C91928D9F5FEF
:101060009F73928F90E008958FEF9FEF0895FC019A
:10107000918D828D981731F0828DE80FF11D858D4D
:1010800090E008958FEF9FEF0895FC01918D228DE0
:10109000892F90E0805C9F4F821B91098F73992765
:1010A000089580E090E0892B21F00E946112811167
:1010B00025C080E090E0892B41F080E090E0892B12
:1010C00021F00E94000081111CC080E090E0892B7B
:1010D00041F080E090E0892B21F00E940000811116
:1010E00013C080E090E0892BA1F080E090E0892B94
:1010F00081F00E94000081110AC008950E94000042
:10110000D8CF0E940000E1CF0E940000EACF0C94EB
:101110000000089590E0FC013197E231F10508F0FC
:101120004EC08827EE58FF4F8F4F0C943E1E809183
:1011300080008F7703C0809180008F7D8093800036
:10114000089580918000877FF9CF84B58F7702C0A2
:1011500084B58F7D84BD08958091B0008F7703C0E2
:101160008091B0008F7D8093B000089580919000B1
:101170008F7707C0809190008F7D03C08091900091
:10118000877F8093900008958091A0008F7707C09B
:101190008091A0008F7D03C08091A000877F809305
:1011A000A0000895809120018F7707C080912001D1
:1011B0008F7D03C080912001877F80932001089557
:1011C0001F93CF93DF93282F30E0F901EA5BFE4FA6
:1011D0008491F901EA5FFD4FD491F901E054FE4F8B
:1011E000C491CC23C1F0162F811194DFEC2FF0E0D5
:1011F000EE0FFF1FE457FE4FA591B4918FB7F894FF
:10120000111105C09C91ED2FE095E92302C0EC91EE
:10121000ED2BEC938FBFDF91CF911F910895FC01CF
:1012200065857685878590890895FC014187528779
:101230006387748708950895FC0167830895CF93A9
:10124000DF93EC01613079F048F06230B9F063303F
:1012500019F561E08B81B4DF60E014C061E08B813F
:10126000AFDF60E004C060E08B81AADF61E08C81C9
:10127000A7DF61E08D81A4DF60E00AC060E08B81C0
:101280009FDF61E08C819CDF60E08D8199DF61E010
:101290008E81DF91CF9194CFDF91CF910895CF933D
:1012A000DF93EC01613049F030F0623059F0633087
:1012B00089F460E008C060E001C061E08B8180DFFC
:1012C00061E004C061E08B817BDF60E08C81DF91B5
:1012D000CF9176CFDF91CF9108951F93CF93DF9376
:1012E000EC0111E020E030E0A9016F85788989895F
:1012F0009A890E94651D18160CF010E0612F8C81F0
:101300005FDF61E08B815CDF60E08B81DF91CF91FB
:101310001F9156CFCF93DF93EC0120E030E0A9017D
:101320006F85788989899A890E94651D18161CF431
:10133000EBA1FCA102C0EDA1FEA1DF91CF91199418
:10134000DC0112962C91213069F028F0223089F0CE
:101350002430B1F00895DC01ED91FC910280F3811D
:10136000E02D1994DC01ED91FC910480F581E02DD4
:101370000DC0DC01ED91FC910680F781E02D06C0E7
:10138000DC01ED91FC910084F185E02D1994CF9260
:10139000DF92EF92FF920F931F93CF93DF936C0135
:1013A0008B017A01EC01CB57DC4F888187FF04C0A9
:1013B000FB011182108224C08CE08C9D90018D9DD8
:1013C000300D11248881A901480F511D87FD5A95C0
:1013D0008091220490E04817590794F48881A9016C
:1013E000480F511D87FD5A95CA01FA01EE0FFF1FE4
:1013F0008E0F9F1FFC01EE56FC4F808186FD19C0A9
:1014000088818F5F88838CE08C9D90018D9D300D4D
:1014100011248881A901480F511D87FD5A9580919B
:10142000220490E048175907B4F488818C303CF1CD
:1014300012C08881280F311D87FD3A95F901EE0F02
:10144000FF1F2E0F3F1FF901EE56FC4F808160E019
:101450008F73B6DED5CFF8018081918104968034F8
:101460009C4918F480E49CE904C0F80180819181D2
:101470000496F701918380838FEF888344C0F8013D
:10148000408151818881B901680F711D87FD7A956E
:10149000CB01FB01EE0FFF1F8E0F9F1FFC01EE56CD
:1014A000FC4F81819281840F951FF7019183808386
:1014B0008881A901480F511D87FD5A95CA01FA017B
:1014C000EE0FFF1F8E0F9F1FFC01EE56FC4F808119
:1014D00086FF19C08881280F311D87FD3A95F901D3
:1014E000EE0FFF1F2E0F3F1FF901EE56FC4F8081BC
:1014F00061E08F73DF91CF911F910F91FF90EF907B
:10150000DF90CF905DCEDF91CF911F910F91FF9033
:10151000EF90DF90CF90089585ED8093BC0080918F
:10152000BC0084FDFCCF1092F60408954091600346
:10153000262F30E0240F311D21323105DCF42091BB
:10154000F6042430C9F4FC0180E090E0861758F4DA
:10155000309160032191DC01A25CBC4FA30FB11D4F
:101560002C930196F3CF80916003680F6093600322
:1015700080E0089581E0089582E008950895E09163
:10158000440480914304E81730F4F0E0ED5DFB4F34
:10159000808190E008958FEF9FEF0895909144042B
:1015A00080914304981750F4E92FF0E0ED5DFB4F74
:1015B000208130E09F5F9093440402C02FEF3FEF03
:1015C000C90108958091430490E020914404821B56
:1015D00091090895CF92DF92EF92FF920F931F939C
:1015E000CF93DF937C01262F972F8A018091F704F8
:1015F000882391F0C62FD72F6E01C40ED51ECC15AF
:10160000DD0569F06991D701ED91FC910190F081C0
:10161000E02DC7011995F3CF642F822F87DFC80112
:10162000DF91CF911F910F91FF90EF90DF90CF90BE
:101630000895CF93DF931F92CDB7DEB769832091D2
:10164000F7042223D1F020911A05203240F021E046
:1016500030E0FC013383228380E090E014C080916D
:10166000F804E82FF0E0E750FB4F998190838F5FFB
:101670008093F80480931A0504C061E0CE010196BE
:1016800055DF81E090E00F90DF91CF9108950E94A7
:10169000AA1F0C94121F0C94121F0C94121F8F92ED
:1016A0009F92AF92BF92CF92DF92EF92FF920F93F1
:1016B0001F93CF93DF93EC018B859C85AD85BE8511
:1016C0000F81188529853A85BC01CD01601B710BFE
:1016D000820B930B09F4D0C08AF00E94B51C9B01C9
:1016E000AC010E94B21B2F89388D498D5A8D0E9402
:1016F000691D0E94D01D6B017C011BC090958095D7
:10170000709561957F4F8F4F9F4F0E94B51C9B0135
:10171000AC010E94B21B2F89388D498D5A8D0E94D1
:10172000691D0E94D01D6B017C01F7FAF094F7F857
:10173000F0948F849888A988BA88A5019401C7017C
:10174000B6010E94651D18160CF043C020E030E081
:10175000A901C501B4010E94161C81110BC06F893B
:10176000788D898D9A8D9B01AC010E94B21B0E94DD
:10177000D01D1BC0A50194016F89788D898D9A8D2C
:101780000E941A1C6B017C0120E030E0A9010E943C
:10179000651D181624F0F7FAF094F7F8F094A701F5
:1017A0009601C501B4010E94B21B7B018C01BB886C
:1017B000CC88DD88CE892B2D3C2D4D2D5C2F0E94B1
:1017C000651D18160CF05DC03B2D7C2D8D2D9C2FBA
:1017D0005FC0A5019401C701B6010E94161C87FFD6
:1017E00054C020E030E0A901C501B4010E94161CDC
:1017F000811111C06F89788D898D9A8D9B01AC0103
:101800000E94B21B0E94D01D6B017C01F7FAF0947C
:10181000F7F8F0941DC0A50194016F89788D898D2A
:101820009A8D0E941A1C6B017C0120E030E0A90116
:101830000E94651D181624F0F7FAF094F7F8F0945A
:10184000A7019601C501B4010E94B11B6B017C0187
:101850008B889C88AD88BE88B7FAB094B7F8B094EE
:10186000A5019401C701B6010E94161C87FF0DC097
:10187000382D792DC5010CC030E070E080E090E09B
:1018800007C03E2D7F2DC80103C03C2D7D2DC70113
:10189000C32ED72E7C01C701B601DF91CF911F91D6
:1018A0000F91FF90EF90DF90CF90BF90AF909F90FF
:1018B0008F90089562E08091ED059091EE0533D709
:1018C00062E08091EB059091EC052DC761E080917D
:1018D000ED059091EE0527D761E08091EB059091A1
:1018E000EC0521C7FC01848DDF01A80FB11DA35AAF
:1018F000BF4F2C91848D90E001968F739927848F30
:10190000A689B7892C93A089B1898C9180648C9326
:10191000938D848D981306C00288F389E02D808111
:101920008F7D808308953FB7F89480918E039091C6
:101930008F03A0919003B091910326B5A89B05C099
:101940002F3F19F00196A11DB11D3FBFBA2FA92F3E
:10195000982F8827820F911DA11DB11DBC01CD01BB
:1019600042E0660F771F881F991F4A95D1F70895A7
:101970002FB7F89460918A0370918B0380918C0348
:1019800090918D032FBF08950F931F93CF93DF93F3
:10199000EC01EEDF0B811C812D813E81DC01CB014E
:1019A000801B910BA20BB30B8D879E87AF87B88BE3
:1019B0002F8121110BC01D861E861F86188A18864E
:1019C000D7DF6B837C838D839E830EC02885211196
:1019D0000BC009851A852B853C8580179107A207C6
:1019E000B30710F081E088878885DF91CF911F9140
:1019F0000F9108951F920F920FB60F9211242F93FB
:101A00003F938F939F93AF93BF9380918A0390915D
:101A10008B03A0918C03B0918D033091890323E057
:101A2000230F2D3720F40196A11DB11D05C026E816
:101A3000230F0296A11DB11D2093890380938A0371
:101A400090938B03A0938C03B0938D0380918E03AE
:101A500090918F03A0919003B09191030196A11DE5
:101A6000B11D80938E0390938F03A0939003B09346
:101A70009103BF91AF919F918F913F912F910F90C3
:101A80000FBE0F901F901895CF92DF92EF92FF92AA
:101A9000DC01EAE0F0E060E070E0CB0112963C91FE
:101AA0001297363308F0365320917B00432F48704D
:101AB000277F242B20937B00232F277020642093E3
:101AC0007C0020917A00206420937A0020917A0093
:101AD00026FDFCCF409178002091790050E0522BF8
:101AE0006A01550FEE08FF086C0D7D1D8E1D9F1DB0
:101AF0003197A1F62AE030E040E050E00E94801BE0
:101B0000A4E6B0E00E94761BDC01CB012AE0B5958B
:101B1000A795979587952A95D1F7BC016B507109C8
:101B200081E06133710508F080E0FF90EF90DF9075
:101B3000CF9008950895089508951F920F920FB6BB
:101B40000F9211240BB60F922F933F934F935F93F5
:101B50006F937F938F939F93AF93BF93CF93DF93B5
:101B6000EF93FF9320916D0230E0F901EA5BFE4FA5
:101B70008491F901EA5FFD4FD491F901E054FE4FE1
:101B8000C491CC2399F08111C5DAEC2FF0E0EE0F6F
:101B9000FF1FE45DFE4FA591B491EC91ED2331E080
:101BA00020E009F430E0832F922F02C080E090E023
:101BB00020917102309172022F5F3F4F3093720279
:101BC0002093710220917002253618F026E02093B0
:101BD0006C0220916C022430D9F128F4223069F093
:101BE0002330D9F060C0253009F453C0263009F005
:101BF0005AC021E020933D0353C0009709F053C021
:101C000020917102309172022436310508F443C0EC
:101C100010923D03109270021DC08130910509F0B1
:101C200042C0E091700221E02E0F20937002F0E09C
:101C30002091710230917202EE0FFF1FE459FD4FA7
:101C400030872783109272021092710224E029C01B
:101C50000097B9F4E091700221E02E0F20937002FA
:101C6000F0E02091710230917202EE0FFF1FE459F3
:101C7000FD4F30872783109272021092710223E089
:101C800010C020917102309172022536310558F052
:101C900007C0009741F4109272021092710203C0C3
:101CA00025E020936C0220916F022223B1F0892B52
:101CB00051F480916E02882321F080916E0261E0E0
:101CC00009C02F9A0AC080916E02882329F0809162
:101CD0006E0260E075DA01C02F98FF91EF91DF91FD
:101CE000CF91BF91AF919F918F917F916F915F91B4
:101CF0004F913F912F910F900BBE0F900FBE0F9001
:101D00001F901895CF92DF92EF92FF92CF93DF93BF
:101D1000EC01072E000C880B990B0E94B51C6B017F
:101D20007C0120E030E040E45FE30E94691D20E098
:101D300030E048E452E40E941A1C0E94821CC6173C
:101D4000D707D4F020E030E040EA5FE3C701B601F6
:101D50000E94691D20E030E048E452E40E941A1C11
:101D600020E030E040E85FE30E94B21B0E94821C4A
:101D700021E06C177D070CF420E0822F90E0DF91CA
:101D8000CF91FF90EF90DF90CF9008950F931F9326
:101D9000CF93DF931F921F92CDB7DEB7152F032F7E
:101DA000FC01808191E09093F704809319051092D3
:101DB000F80410921A05F4E06F9FB00111246A5FD5
:101DC0007F4F88EB95E02A83498333DC4981842F58
:101DD000912FA4D4812F90E0A1D42A81822F902F1B
:101DE0009DD4802F90E09AD481E00F900F90DF91E6
:101DF000CF911F910F9135C49A01CB96211540E1E7
:101E0000340728F020E030E040E050E102C040E03C
:101E100050E0BCCFFC019081903380F5818128E8AF
:101E200030E0281B310987FD3395220F331F220F25
:101E3000331F621773077CF0828128E532E0281B8C
:101E4000310987FD3395220F331F220F331F62178D
:101E500073070CF49B0122503109220F331F4FB737
:101E6000F894892F90E0FC01EE0FFF1F8E0F9F1F4B
:101E7000FC01EE56FC4F328321834FBF0895CF9370
:101E8000DF93DC018C91803308F06DC09B01332718
:101E9000F901EA5FFD4F8491F901E054FE4F24916E
:101EA000222399F030E0220F331FF901EA55FE4F4B
:101EB000C591D491F901E457FE4F259134919FB714
:101EC000F894E881E82BE8839FBF8C91E82FF0E03D
:101ED0009F01220F331FE20FF31FEE56FC4F6F736B
:101EE0009081907C692B608311961C9211971296B9
:101EF0001C9212976CE00E94321E9CE0899FB001F8
:101F0000112440E050E09A01260F371FF901EE0F2F
:101F1000FF1F2E0F3F1FF901EE56FC4F908196FDDB
:101F200016C04F5F5F4F4C30510569F78130F9F4AF
:101F30001092800082E080938100109285001092C0
:101F40008400B19A80916F00826080936F00EC9161
:101F5000F0E0CF01880F991FE80FF91FEE56FC4FF4
:101F60008081806480838C91DF91CF91089582304D
:101F700061F410929000809391001092950010925D
:101F8000940088BB80937100E2CF833069F4109293
:101F9000A00082E08093A1001092A5001092A400FE
:101FA00089BB80937200D3CF8111D1CF10922001D1
:101FB00082E08093210110922501109224018ABBB6
:101FC00080937300C4CF1F920F920FB60F9211240B
:101FD0000BB60F922F933F934F935F936F937F9323
:101FE0008F939F93AF93BF93EF93FF9348E251E09A
:101FF00064E271E080E090E0CAD9FF91EF91BF9177
:10200000AF919F918F917F916F915F914F913F9190
:102010002F910F900BBE0F900FBE0F901F90189531
:102020001F920F920FB60F9211240BB60F922F939F
:102030003F934F935F936F937F938F939F93AF9350
:10204000BF93EF93FF9348EA50E064EA70E083E0C7
:1020500090E09DD9FF91EF91BF91AF919F918F91AA
:102060007F916F915F914F913F912F910F900BBE98
:102070000F900FBE0F901F9018951F920F920FB6E2
:102080000F9211240BB60F922F933F934F935F93B0
:102090006F937F938F939F93AF93BF93EF93FF9330
:1020A00048E950E064E970E082E090E070D9FF9187
:1020B000EF91BF91AF919F918F917F916F915F91C0
:1020C0004F913F912F910F900BBE0F900FBE0F902D
:1020D0001F9018951F920F920FB60F9211240BB6F6
:1020E0000F922F933F934F935F936F937F938F93B1
:1020F0009F93AF93BF93EF93FF9348E850E064E85A
:1021000070E081E090E043D9FF91EF91BF91AF91F2
:102110009F918F917F916F915F914F913F912F91FF
:102120000F900BBE0F900FBE0F901F9018951F922F
:102130000F920FB60F9211240BB60F922F933F936D
:102140004F935F936F937F938F939F93AF93BF93BF
:10215000EF93FF938091B900887F803609F49CC08B
:1021600068F5883209F45BC090F4803109F454C0FA
:1021700038F4882309F4F6C0883009F44DC0F5C05E
:10218000883109F44CC0803209F45DC0EEC080345F
:1021900009F468C048F4803309F455C0883309F065
:1021A000E4C08093F404D8C0803509F44FC088356A
:1021B00009F45DC0883409F0D8C0D6C0883909F464
:1021C000C7C0A8F4883709F467C038F4883609F422
:1021D00063C0803709F460C0C8C0883809F4B8C04B
:1021E000803909F45FC0803809F0BFC05BC0803B14
:1021F00009F486C038F4803A09F466C0883A09F4D4
:102200007FC0B3C0803C09F4A7C0883C09F4A4C0D7
:10221000883B09F48AC0A9C08091D10410C0909174
:10222000F3048091F204981770F5E091F30481E0D3
:102230008E0F8093F304F0E0EE52FB4F8081809389
:10224000BB0085EC86C08093F4048EC0E091F3045B
:1022500081E08E0F8093F3048091BB00F0E0EE529A
:10226000FB4F80839091F3048091F2046EC0E09163
:10227000F30481E08E0F8093F3048091BB00F0E0C3
:10228000EE52FB4F80838091F50481116DC081E097
:102290008093D00484EA61C083E08093F6041092B6
:1022A0008403CFCF80918403803208F051C0E09145
:1022B000840381E08E0F809384038091BB00F0E063
:1022C000EC59FC4F8083BDCF85EC8093BC0010920D
:1022D000F60480918403803230F4E0918403F0E0CE
:1022E000EC59FC4F10826091840370E0E09162032E
:1022F000F091630384E693E019951092840335C04E
:1023000084E08093F6041092610310926003E091E0
:102310005E03F0915F03199580916003811105C000
:1023200081E08093600310923E03E091610381E0BD
:102330008E0F80936103F0E0E25CFC4F808180931C
:10234000BB009091610380916003981708F479CFE6
:1023500085E88093BC0009C085EC8093BC00109296
:10236000F60403C01092F404D7D8FF91EF91BF9107
:10237000AF919F918F917F916F915F914F913F911D
:102380002F910F900BBE0F900FBE0F901F901895BE
:102390001092F60481E08093F5041092D00461E07D
:1023A00084E10E94E00861E085E10E94E008E9EB39
:1023B000F0E080818E7F808380818D7F808388E4C0
:1023C0008093B80085E48093BC000895CF92DF929B
:1023D000EF92FF920F931F93CF93DF936C017A01DB
:1023E0008B01C0E0D0E0CE15DF0589F0D8016D91FA
:1023F0008D01D601ED91FC910190F081E02DC60197
:102400001995892B11F47E0102C02196ECCFC701EA
:10241000DF91CF911F910F91FF90EF90DF90CF90C0
:1024200008958F929F92AF92BF920F931F93CF9375
:10243000DF93CDB7DEB7A1970FB6F894DEBF0FBE1E
:10244000CDBF19A2423008F44AE08E010F5D1F4F44
:10245000842E912CA12CB12CA50194010E94801BEB
:10246000E62FB901CA0101501109EA3014F4E05D08
:1024700001C0E95CD801EC93232B242B252B61F7B9
:102480000115110569F0F80101900020E9F7319775
:10249000AF01401B510BB8018BE195E097DF02C003
:1024A00080E090E0A1960FB6F894DEBF0FBECDBFDE
:1024B000DF91CF911F910F91BF90AF909F908F9020
:1024C00008958BE195E00E94450821E0892B09F4ED
:1024D00020E0822F0895EF92FF920F931F93CF93E6
:1024E000DF93EC0181E0888F9B8D8C8D981305C064
:1024F000E889F989808185FD23C0F62E0B8D10E0D7
:102500000F5F1F4F0F731127E02E8C8DE8120BC049
:102510000FB607FCFACFE889F989808185FFF5CFEE
:10252000CE01E0D9F2CF8B8DFE01E80FF11DE35A09
:10253000FF4FF0820B8FEA89FB898081806207C0A0
:10254000EE89FF896083E889F989808180648083CE
:1025500081E090E0DF91CF911F910F91FF90EF907C
:102560000895CF93DF93EC01888D8823C1F0EA8929
:10257000FB89808185FD05C0A889B9898C9186FD7C
:102580000EC00FB607FCF5CF808185FFF2CFA8897A
:10259000B9898C9185FFEDCFCE01A4D9E8CFDF9129
:1025A000CF9108951F920F920FB60F9211240BB680
:1025B0000F922F933F934F935F936F937F938F93DC
:1025C0009F93AF93BF93EF93FF938BE195E08AD9ED
:1025D000FF91EF91BF91AF919F918F917F916F91FB
:1025E0005F914F913F912F910F900BBE0F900FBEB7
:1025F0000F901F9018951F920F920FB60F921124F3
:102600000BB60F922F938F939F93EF93FF93E091CD
:102610002B05F0912C058081E0913105F091320578
:1026200082FD12C09081809134058F5F8F7320915D
:102630003505821751F0E0913405F0E0E55EFA4F80
:10264000958F8093340501C08081FF91EF919F9118
:102650008F912F910F900BBE0F900FBE0F901F9078
:102660001895382F20911A0590911905213208F0FC
:1026700049C08091F6048111FCCF42E04093F604FA
:102680003093F5043FEF3093F4041092F304209359
:10269000F204A9EFB4E042ED54E0FA013E2F341BFE
:1026A000321718F43D913193F9CF1092D104209153
:1026B000D104990F922B9093D1049091D004913032
:1026C00061F41092D0049091D1049093BB0090914A
:1026D000BC0093FDF8CF95EC01C095EE9093BC0043
:1026E0009091F6049230E1F39091F4049F3F79F0D9
:1026F0008091F404803241F08091F404803331F011
:1027000084E005C081E003C082E001C083E0109254
:10271000F80410921A051092F7040895682F88EBB8
:1027200095E00C94190B1F93CF93DF93EC018C85EC
:1027300083FD06C0613011F4885F07C0885005C072
:10274000613011F4805F01C080518C878C858F735C
:102750008C8740EF5FE06C818D859E854DDB40EF7F
:102760005FE06F818D859E8547DBEC85E695E6957C
:10277000E695E83028F4F0E0E05DFD4F108101C0FF
:1027800010E08D859E8520E030E010FF03C040E022
:1027900050E102C040E050E06E81CB96F7DA8D85C3
:1027A0009E8520E030E011FF03C040E050E102C010
:1027B00040E050E06885CB96E9DA8D859E8520E083
:1027C00030E012FF03C040E050E102C040E050E0C2
:1027D0006D81CB96DBDA8D859E8520E030E013FF9E
:1027E00003C040E050E102C040E050E06985CB9674
:1027F000CDDA8C85DF91CF911F9108958F929F92B2
:10280000AF92BF92CF92DF92EF92FF92B1D86B015D
:102810007C014091DF055091E0056091E1057091E8
:10282000E2058091E3059091E405A091E505B09162
:10283000E605840F951FA61FB71F8C159D05AE05D5
:10284000BF0508F04AC08090D3059090D405A090B1
:10285000D505B090D60520E030E0A901C501B4014E
:102860000E94651D181664F48091CB059091CC05EB
:10287000A091CD05B091CE050196A11DB11D13C04B
:1028800020E030E0A901C501B401D0D787FF13C013
:102890008091CB059091CC05A091CD05B091CE054E
:1028A0000197A109B1098093CB059093CC05A09322
:1028B000CD05B093CE058091CB05682F637084EC75
:1028C00095E00E94A009C092E305D092E405E09251
:1028D000E505F092E60581E001C080E0FF90EF9011
:1028E000DF90CF90BF90AF909F908F900895CF9240
:1028F000DF92EF92FF9284EC95E00E944F0B9B01D8
:10290000AC016093D3057093D4058093D505909363
:10291000D60560E070E08AE794E48CD76B017C0117
:1029200020E030E0A9010E94651D18161CF4C701C3
:10293000B60103C0C701B6019058E9D76093DF051F
:102940007093E0058093E1059093E205FF90EF908E
:10295000DF90CF900895CF93C62F90912A0621E063
:102960002093F704909319051092F80410921A0519
:10297000682F88EB95E00E94190B6C2F88EB95E08F
:102980000E94190B81E0CF916CCE8F929F92AF92F3
:10299000BF92CF92DF92EF92FF920F931F93CF934C
:1029A000DF93FC01C081D1812091CB043091CC0414
:1029B000C217D3070CF048C09E01220F331FE091CD
:1029C000C904F091CA04E20FF31F80809180C170A6
:1029D000DD27F1E0CF27209719F404E610E002C0CC
:1029E0000CE91FEF7A015B016C01040F151FB801A0
:1029F000C40188D9892B89F40E0D1F1DB801C401AB
:102A000081D9892B69F4B8016E0D7F1DC4017AD973
:102A1000892BE9F023E030E005C021E030E002C07E
:102A200022E030E0F50180819181019682179307C1
:102A30003CF0F50111821082F601808191810196AE
:102A400091838083CE0105C081E090E002C08FEFCA
:102A50009FEFDF91CF911F910F91FF90EF90DF904B
:102A6000CF90BF90AF909F908F900895CF93DF93BA
:102A700000D01F92CDB7DEB7789484B5826084BD54
:102A800084B5816084BD85B5826085BD85B5816072
:102A900085BD80916E00816080936E0010928100F0
:102AA00080918100826080938100809181008160AB
:102AB000809381008091800081608093800080916C
:102AC000B10084608093B1008091B00081608093F8
:102AD000B00080919100826080939100809191007C
:102AE000816080939100809190008160809390003C
:102AF0008091A10082608093A1008091A1008160FB
:102B00008093A1008091A00081608093A0008091BB
:102B10002101826080932101809121018160809355
:102B200021018091200181608093200180917A00B1
:102B3000846080937A0080917A00826080937A002A
:102B400080917A00816080937A0080917A00806819
:102B500080937A001092C100E0912B05F0912C0532
:102B600082E08083E0912705F09128051082E091B2
:102B70002905F0912A058FEC808310923305E091AE
:102B80002F05F091300586E08083E0912D05F091CE
:102B90002E05808180618083E0912D05F0912E05C6
:102BA000808188608083E0912D05F0912E058081E1
:102BB00080688083E0912D05F0912E0580818F7DC6
:102BC00080831092A8041092A70460EDC62E67E0DF
:102BD000D62EE12CF12C78EB872E7BE0972EA12CC2
:102BE000B12C80919F04811115C08CE092E09093EC
:102BF0009604809395041092980410929704109272
:102C00009B0410929C0410929D0410929E0481E0FB
:102C100080939F0480918D04811117C0ACE0B2E0D5
:102C2000B0938404A0938304E1E0F0E0F093860481
:102C3000E09385041092890410928A0410928B0408
:102C400010928C0481E080938D0480917B0481112B
:102C500017C08CE092E09093720480937104A2E01C
:102C6000B0E0B0937404A0937304109277041092B0
:102C700078041092790410927A0481E080937B04A6
:102C800080916904811108C087E080936D021092E1
:102C90006F0281E0809369048091610481112FC0EB
:102CA000E4E1F2E0F0935104E093500410925204F6
:102CB0000E94B80C6093530470935404809355049D
:102CC000909356041092570410925804109259048D
:102CD00010925A0410925B0410925C0410925D04EE
:102CE00010925E0410925F041092600484E292E0FD
:102CF000909351048093500481E08093610480910B
:102D00000002882309F437C0F89482E08093B00071
:102D10008093B10094E69093B3001092B200809338
:102D20007000789480936C021092700280916D0212
:102D300090E0FC01EA5FFD4F4491FC01E054FE4F3E
:102D400084918823C1F090E0880F991FFC01EA5517
:102D5000FE4FA591B491FC01E457FE4F25913491AB
:102D60009FB7F8948C91409584238C93D901EC9172
:102D70004E234C939FBF80914F04809357048091C2
:102D80004B0490914C04A0914D04B0914E0480935B
:102D9000590490935A04A0935B04B0935C0480910F
:102DA0005D0490915E04A0915F04B09160048093F3
:102DB000470490934804A0934904B0934A0480E5E3
:102DC00094E00E94C40C8093460485E994E00E943C
:102DD000440D682E83E894E00E94440D782E81E72C
:102DE00094E00E94440D182F6091A7047091A804EC
:102DF0001B01770F4408550857FE14C0E0911B05CE
:102E0000F0911C050190F081E02D6DE28BE195E0E1
:102E1000199566277727CB016219730984099509EB
:102E20004AE003C04AE0C201B101FBDA42E050E0EF
:102E300068E672E08BE195E0C9DAE091A704F091D1
:102E4000A804E231F10508F05BC18827EC57FF4F79
:102E50008F4F14C7C0924B04D0924C04E0924D04A3
:102E6000F0924E0481E080934F04809146048823C1
:102E700009F44AC10E945901892B09F445C1809186
:102E8000C3049091C404A091C504B091C6048D33CD
:102E9000924CAF4FB10509F02DC110924F0481E063
:102EA00090E09093A8048093A70424C1112309F40F
:102EB0002BC1A2E0B0E0B093A804A093A70424C162
:102EC000C0924B04D0924C04E0924D04F0924E0418
:102ED00081E080934F0480914604882309F414C153
:102EE00010924F0483E090E0EBC080924B049092EC
:102EF0004C04A0924D04B0924E0481E080934F04A4
:102F000080914604882309F4FFC010924F0484E0A6
:102F100090E0D6C080924B0490924C04A0924D0455
:102F2000B0924E0481E080934F0480914604882340
:102F300009F4EAC010924F0485E090E0C1C0772008
:102F400059F081E080934504662009F4DDC01092B9
:102F5000450486E090E0B4C0662009F4D5C08091B5
:102F600045048111F4CFD0C080924B0490924C0460
:102F7000A0924D04B0924E0481E080934F04809162
:102F80004604882309F4C0C010924F0487E090E003
:102F900097C0C0924B04D0924C04E0924D04F09242
:102FA0004E0481E080934F0480914604882309F405
:102FB000ABC010924F0488E090E082C0772009F403
:102FC000A3C089E090E07CC088E893E1A0E0B0E095
:102FD00080934B0490934C04A0934D04B0934E0403
:102FE00081E080934F0480914604882309F48CC0CB
:102FF00010924F048AE090E063C0662009F484C018
:103000008BE090E05DC0C0924B04D0924C04E09203
:103010004D04F0924E0481E080934F048091460469
:10302000882309F471C010924F048CE090E048C0EE
:1030300080924B0490924C04A0924D04B0924E04A6
:1030400081E080934F0480914604882309F45CC09A
:1030500010924F048DE090E033C080924B04909228
:103060004C04A0924D04B0924E0481E080934F0432
:1030700080914604882309F447C010924F048EE0E3
:1030800090E01EC0112309F43FC08FE090E018C00B
:10309000C0924B04D0924C04E0924D04F0924E0446
:1030A00081E080934F0480914604882369F1109257
:1030B0004F0480E190E004C0772031F181E190E09D
:1030C0009093A8048093A7041FC00E945901892BE4
:1030D000D9F08091C3049091C404A091C504B0912B
:1030E000C6048D399246AF4FB10521F41092A80461
:1030F0001092A70482E080936C021092700204C0C8
:103100001092A8041092A704109200028091B704B4
:1031100081111DC080912204803398F491E0980FB2
:10312000909322048093B40490E0FC01EE0FFF1F03
:10313000E80FF91FEE56FC4F88EB9BE092838183EA
:1031400003C08FEF8093B40481E08093B704809133
:10315000AC0481111DC080912204803398F491E069
:10316000980F909322048093A90490E0FC01EE0F45
:10317000FF1FE80FF91FEE56FC4F88EB9BE0928390
:10318000818303C08FEF8093A90481E08093AC0416
:1031900080910102882309F4E5C010924404109242
:1031A00043041092F80410921A05F2D81092F80411
:1031B00010921A05EDD860E080E0CDDB80E496E067
:1031C0009093F1058093F00580912A0691E0909309
:1031D000F704809319051092F80410921A0560E024
:1031E00088EB95E00E94190B81E03BDA80912A067A
:1031F0009091F6049111FCCF91E09093F604909396
:10320000F5042FEF2093F4041092F3041092F204CB
:103210009093D1049091D104880F892B8093D1048D
:103220008091D004813061F41092D0048091D10457
:103230008093BB008091BC0083FDF8CF85EC01C07A
:1032400085EE8093BC008091F6048130E1F380919B
:10325000F304811103C02091F30401C021E0A2ED29
:10326000B4E083E294E0FC013E2F381B321718F4DF
:103270003D913193F9CF109244042093430488EB9D
:1032800095E00E94CE0A182F682F6F76606180E06B
:1032900062DB63E08EEF5FDB612F80E05CDB0E942E
:1032A000930C9B01AC0185E0482E512C612C712CB4
:1032B00029833A834B835C830E94930C29813A8152
:1032C0004B815C81DC01CB01821B930BA40BB50B02
:1032D000883E9340A105B10548F0F1E04F1A51082E
:1032E0006108710828513C4F4F4F5F4F4114510402
:1032F00061047104E9F6612F616A80E02CDB10E063
:1033000020E030E040E050E0612F8AE296E00E9449
:10331000C60E1F5F1031A1F769E070E084EB94E006
:103320000E943F0F6AE070E089EA94E00E943F0F3C
:1033300080E090E0A8ECB2E48093D7059093D805A4
:10334000A093D905B093DA05D2DA80E090E0A8EC3A
:10335000B2E48093DB059093DC05A093DD05B09388
:10336000DE05C5DA6090A7047090A80461147104AA
:1033700021F09DE06916710431F465E276E089EA96
:1033800094E00E940A0FA4E06A16710419F46CED2F
:1033900075E006C0B6E06B16710429F46EE975E0BD
:1033A00089EA94E00BC06114710421F0C301877FA6
:1033B000079731F464E873E084EB94E00E940A0F0D
:1033C000E2E06E16710421F0FBE06F16710431F437
:1033D00064E873E084EB94E00E940A0F61147104C6
:1033E00029F480910102811115C03AC025E06216CE
:1033F000710481F06AE06616710461F080E168167C
:10340000710441F093E06916710421F0ACE06A1692
:10341000710431F580E090E0A8E4B3E48093DB052B
:103420009093DC05A093DD05B093DE0560DA80E0C3
:1034300090E0A8E4B2EC8093D3059093D405A093D8
:10344000D505B093D60584E190E0A0E0B0E080938C
:10345000DF059093E005A093E105B093E205CED996
:103460008091A7049091A8048130910529F08830BB
:10347000910511F00E9731F580E090E0A8E4B3E4F7
:103480008093DB059093DC05A093DD05B093DE050A
:103490002EDA80E090E0A8E4B2E48093D305909324
:1034A000D405A093D505B093D60584E190E0A0E0C3
:1034B000B0E08093DF059093E005A093E105B09321
:1034C000E2059CD9109201020E9451088ACB109209
:1034D0001E0510921D0588EE93E0A0E0B0E08093F9
:1034E0001F0590932005A0932105B09322052CE39E
:1034F00032E030931C0520931B0525EC30E030931F
:1035000028052093270524EC30E030932A052093EA
:10351000290520EC30E030932C0520932B0521EC7D
:1035200030E030932E0520932D0522EC30E03093CF
:10353000300520932F0526EC30E0309332052093A0
:10354000310510923405109235051092360510920F
:1035500037051092BB051092BA058093BC05909375
:10356000BD05A093BE05B093BF058CE492E0909397
:10357000B9058093B805E4EFF5E012821182138259
:103580001082DF0111971C9211971C92369686E0EB
:10359000EC30F80791F78FEE95E010921606109236
:1035A00019061092260620E62093EF0520932A069E
:1035B00028EC30E0309315062093140690931806FB
:1035C0008093170648E040930E064DE040931106A5
:1035D0004AE040930F0649E0409310064BE04093C9
:1035E00012064CE0409313064AE056E05093EE0575
:1035F0004093ED0541E04093290630932506209342
:103600002406909328068093270682E080931E0666
:1036100087E08093210684E080931F0683E08093F7
:10362000200685E08093220686E0809323068AE1C7
:1036300096E09093EC058093EB058CE592E09093F7
:10364000C5058093C4051092C6051092CB05109253
:10365000CC051092CD051092CE051092CF05109298
:10366000D0051092D1051092D2051092D305109278
:10367000D4051092D5051092D60580E090E0A0E820
:10368000BFE38093D7059093D805A093D905B09355
:10369000DA058093DB059093DC05A093DD05B093FC
:1036A000DE051092DF051092E0051092E105109200
:1036B000E2051092E3051092E4051092E5051092E0
:1036C000E6051092C7051092C8051092C905109220
:1036D000CA0586E69CE09093E8058093E7058AE5B5
:1036E0009CE09093EA058093E90508952BD0A59F6F
:1036F000900DB49F900DA49F800D911D11240895ED
:10370000A1E21A2EAA1BBB1BFD010DC0AA1FBB1FE5
:10371000EE1FFF1FA217B307E407F50720F0A21B57
:10372000B30BE40BF50B661F771F881F991F1A94C4
:1037300069F760957095809590959B01AC01BD01EE
:10374000CF010895A29FB001B39FC001A39F700D48
:10375000811D1124911DB29F700D811D1124911D99
:1037600008955058BB27AA270ED075C166D130F0F6
:103770006BD120F031F49F3F11F41EF45BC10EF4C5
:10378000E095E7FB51C1E92F77D180F3BA176207C3
:1037900073078407950718F071F49EF58FC10EF436
:1037A000E0950B2EBA2FA02D0B01B90190010C0151
:1037B000CA01A0011124FF27591B99F0593F50F469
:1037C000503E68F11A16F040A22F232F342F4427C1
:1037D000585FF3CF469537952795A795F0405395B9
:1037E000C9F77EF41F16BA0B620B730B840BBAF089
:1037F0009150A1F0FF0FBB1F661F771F881FC2F7F4
:103800000EC0BA0F621F731F841F48F48795779507
:103810006795B795F7959E3F08F0B3CF9395880FBE
:1038200008F09927EE0F979587950895D9D008F459
:1038300081E008950CD00FC107D140F0FED030F0E8
:1038400021F45F3F19F0F0C0511139C1F3C014D118
:1038500098F39923C9F35523B1F3951B550BBB2757
:10386000AA2762177307840738F09F5F5F4F220F04
:10387000331F441FAA1FA9F333D00E2E3AF0E0E8FD
:1038800030D091505040E695001CCAF729D0FE2F49
:1038900027D0660F771F881FBB1F261737074807DB
:1038A000AB07B0E809F0BB0B802DBF01FF27935891
:1038B0005F4F2AF09E3F510568F0B6C000C15F3FE0
:1038C000ECF3983EDCF3869577956795B795F79579
:1038D0009F5FC9F7880F911D9695879597F9089571
:1038E000E1E0660F771F881FBB1F6217730784070D
:1038F000BA0720F0621B730B840BBA0BEE1F88F71C
:10390000E095089504D06894B111D9C00895BCD051
:1039100088F09F5790F0B92F9927B751A0F0D1F0B8
:10392000660F771F881F991F1AF0BA95C9F712C042
:10393000B13081F0C3D0B1E00895C0C0672F782FB7
:103940008827B85F39F0B93FCCF3869577956795AE
:10395000B395D9F73EF490958095709561957F4F1A
:103960008F4F9F4F0895E89409C097FB3EF49095C0
:103970008095709561957F4F8F4F9F4F9923A9F048
:10398000F92F96E9BB279395F695879577956795D7
:10399000B795F111F8CFFAF4BB0F11F460FF1BC01B
:1039A0006F5F7F4F8F4F9F4F16C0882311F096E9AE
:1039B00011C0772321F09EE8872F762F05C066235C
:1039C00071F096E8862F70E060E02AF09A95660F15
:1039D000771F881FDAF7880F9695879597F90895CE
:1039E000990F0008550FAA0BE0E8FEEF1616170610
:1039F000E807F907C0F012161306E407F50798F078
:103A0000621B730B840B950B39F40A2661F0232B90
:103A1000242B252B21F408950A2609F4A140A6950C
:103A20008FEF811D811D089597F99F6780E870E0F1
:103A300060E008959FEF80EC089500240A94161624
:103A4000170618060906089500240A94121613068C
:103A5000140605060895092E0394000C11F488231A
:103A600052F0BB0F40F4BF2B11F460FF04C06F5F36
:103A70007F4F8F4F9F4F089557FD9058440F551F0C
:103A800059F05F3F71F04795880F97FB991F61F0E0
:103A90009F3F79F087950895121613061406551F57
:103AA000F2CF4695F1DF08C0161617061806991FC3
:103AB000F1CF86957105610508940895E894BB27B8
:103AC00066277727CB0197F908958ADF08F48FEFEF
:103AD00008950BD0C0CFB1DF28F0B6DF18F09523E2
:103AE00009F0A2CFA7CF1124EACFC6DFA0F3959F9C
:103AF000D1F3950F50E0551F629FF001729FBB27D5
:103B0000F00DB11D639FAA27F00DB11DAA1F649F80
:103B10006627B00DA11D661F829F2227B00DA11D33
:103B2000621F739FB00DA11D621F839FA00D611DB9
:103B3000221F749F3327A00D611D231F849F600DDA
:103B4000211D822F762F6A2F11249F5750408AF013
:103B5000E1F088234AF0EE0FFF1FBB1F661F771F9F
:103B6000881F91505040A9F79E3F510570F05CCFDF
:103B7000A6CF5F3FECF3983EDCF38695779567958B
:103B8000B795F795E7959F5FC1F7FE2B880F911DBD
:103B90009695879597F9089511F40EF44BCF3EC092
:103BA00073DFD0F39923D9F3CEF39F57550B87FFDB
:103BB00043D00024A0E640EA90018058569597959E
:103BC00028F4805C660F771F881F20F026173707C0
:103BD000480730F4621B730B840B202931294A2BD0
:103BE000A69517940794202531254A2758F7660F84
:103BF000771F881F20F026173707480730F4620B1D
:103C0000730B840B200D311D411DA09581F7B90167
:103C1000842F9158880F9695879508959F3F31F08E
:103C2000915020F4879577956795B795880F911DEA
:103C30009695879597F9089591505040660F771F94
:103C4000881FD2F70895DB018F939F934FDDBF91BB
:103C5000AF91A29F800D911DA39F900DB29F900DDB
:103C600011240895991B79E004C0991F961708F054
:103C7000961B881F7A95C9F780950895EE0FFF1F50
:103C8000881F8BBF0790F691E02D19940F93083091
:103C900090F0982F872F762F652F542F432F322F98
:103CA00022270850F4CF220F331F441F551F661FD1
:103CB000771F881F991F0A95B2F70F91089597FBF8
:103CC00010F8169400080F93083098F00850232F2E
:103CD000342F452F562F672F782F892F902DF4CF13
:103CE0000594979587957795679557954795379557
:103CF00027950A95AAF70F910895CF93DF93823005
:103D0000910510F482E090E0E0912D06F0912E06EE
:103D100020E030E0C0E0D0E0309711F140815181E7
:103D200048175907C0F04817590761F482819381F9
:103D3000209719F09B838A832BC090932E06809343
:103D40002D0626C02115310519F04217530718F426
:103D50009A01BE01DF01EF010280F381E02DDCCF8B
:103D60002115310509F1281B390B2430310590F458
:103D700012968D919C9113976115710521F0FB01AD
:103D80009383828304C090932E0680932D06FD01B9
:103D9000329644C0FD01E20FF31F819391932250AC
:103DA00031092D933C933AC020912B0630912C067B
:103DB000232B41F4209104023091050230932C060C
:103DC00020932B0620910202309103022115310528
:103DD00041F42DB73EB74091060250910702241BD3
:103DE000350BE0912B06F0912C06E217F307A0F4B7
:103DF0002E1B3F0B2817390778F0AC014E5F5F4F41
:103E00002417350748F04E0F5F1F50932C06409340
:103E10002B068193919302C0E0E0F0E0CF01DF91A7
:103E2000CF9108950F931F93CF93DF93009709F4D9
:103E30008CC0FC0132971382128200912D061091E2
:103E40002E060115110581F420813181820F931F07
:103E500020912B0630912C062817390779F5F0931D
:103E60002C06E0932B0671C0D80140E050E0AE175D
:103E7000BF0750F412962D913C911397AD01211577
:103E8000310509F1D901F3CF9D01DA013383228392
:103E900060817181860F971F8217930769F4EC0187
:103EA00028813981260F371F2E5F3F4F31832083B2
:103EB0008A819B8193838283452B29F4F0932E067C
:103EC000E0932D0642C01396FC93EE931297ED01FA
:103ED000499159919E01240F351FE217F30771F4A0
:103EE00080819181840F951F029611969C938E93E9
:103EF0008281938113969C938E931297E0E0F0E079
:103F0000D80112968D919C911397009719F0F801A2
:103F10008C01F6CF8D919C9198012E5F3F4F820FBF
:103F2000931F20912B0630912C062817390769F42E
:103F3000309729F410922E0610922D0602C013829B
:103F4000128210932C0600932B06DF91CF911F91C4
:103F50000F91089581E090E0F89400C0F894FFCFAD
:103F6000010100002F068000000000009A0D490B9F
:103F7000000000009C0D4D0B1C091B0915090F09C1
:103F8000000000009B0D4B0B1C09C40C15090F0908
:103F900001030206040C0809000000006B12E61180
:103FA000450823083708B11200000000190BEA0A7F
:103FB000E20ACE0ABF0ABE0A00000000A0098A0970
:0C3FC0006D094F091F094F0B0D0A00008E
:020000023000CC
:10E000000D9489F10D94B2F10D94B2F10D94B2F129
:10E010000D94B2F10D94B2F10D94B2F10D94B2F1F0
:10E020000D94B2F10D94B2F10D94B2F10D94B2F1E0
:10E030000D94B2F10D94B2F10D94B2F10D94B2F1D0
:10E040000D94B2F10D94B2F10D94B2F10D94B2F1C0
:10E050000D94B2F10D94B2F10D94B2F10D94B2F1B0
:10E060000D94B2F10D94B2F10D94B2F10D94B2F1A0
:10E070000D94B2F10D94B2F10D94B2F10D94B2F190
:10E080000D94B2F10D94B2F10D94B2F10D94B2F180
:10E090000D94B2F10D94B2F10D94B2F10D94B2F170
:10E0A0000D94B2F10D94B2F10D94B2F10D94B2F160
:10E0B0000D94B2F10D94B2F10D94B2F10D94B2F150
:10E0C0000D94B2F10D94B2F10D94B2F10D94B2F140
:10E0D0000D94B2F10D94B2F10D94B2F10D94B2F130
:10E0E0000D94B2F141546D656761323536300041AF
:10E0F000726475696E6F206578706C6F72657220DE
:10E1000073746B3530305632206279204D4C530099
:10E11000426F6F746C6F616465723E004875683F52
:10E1200000436F6D70696C6564206F6E203D200048
:10E130004350552054797065202020203D20005FF9
:10E140005F4156525F415243485F5F3D2000415658
:10E1500052204C696243205665723D20004743437C
:10E160002056657273696F6E203D20004350552024
:10E1700049442020202020203D20004C6F7720663D
:10E18000757365202020203D20004869676820665F
:10E190007573652020203D200045787420667573D6
:10E1A00065202020203D20004C6F636B2066757336
:10E1B000652020203D20004D617220203720323024
:10E1C000313300312E362E3800342E332E350056A2
:10E1D00023202020414444522020206F7020636F70
:10E1E00064652020202020696E73747275637469E1
:10E1F0006F6E2061646472202020496E74657272B3
:10E20000757074006E6F20766563746F7200726A49
:10E210006D702020006A6D70200057686174207056
:10E220006F72743A00506F7274206E6F7420737541
:10E2300070706F72746564004D7573742062652030
:10E2400061206C6574746572002000577269747483
:10E25000696E672045450052656164696E672045B7
:10E26000450045452065727220636E743D00504F35
:10E27000525400303D5A65726F2061646472003FF1
:10E280003D43505520737461747300403D454550C3
:10E29000524F4D207465737400423D426C696E6B41
:10E2A000204C454400453D44756D70204545505215
:10E2B0004F4D00463D44756D7020464C415348001B
:10E2C000483D48656C70004C3D4C69737420492F83
:10E2D0004F20506F72747300513D51756974005234
:10E2E0003D44756D702052414D00563D73686F7707
:10E2F00020696E7465727275707420566563746FF0
:10E30000727300593D506F727420626C696E6B00BD
:10E310002A0011241FBECFEFD1E2DEBFCDBF01E046
:10E320000CBF12E0A0E0B2E0EEE1FDEF03E00BBFB6
:10E3300002C007900D92A030B107D9F712E0A0E01B
:10E34000B2E001C01D92AE30B107E1F70F9460F367
:10E350000D948DFE01E20EBF0FEF0DBF11241FBE05
:10E360000D9460F30D9400F020E030E040ED57E0B4
:10E3700005C0FA013197F1F72F5F3F4F2817390792
:10E38000C0F308959C01260F311DC901A0E0B0E043
:10E390002F5F3F4FABBFFC018791882361F08093D3
:10E3A000C6008091C00086FFFCCF8091C0008064D1
:10E3B0008093C000EACF08958DE08093C6008091DD
:10E3C000C00086FFFCCF8091C00080648093C000B5
:10E3D0008AE08093C6008091C00086FFFCCF8091C8
:10E3E000C00080648093C00008950F94C2F10F9420
:10E3F000DCF10895FC019081992359F09093C600B7
:10E400008091C00086FFFCCF8091C0008064809323
:10E41000C0003196992379F70895282F982F929567
:10E420009F70892F805D8A3308F0895F8093C600D2
:10E430008091C00086FFFCCF8091C00080648093F3
:10E44000C000822F8F70982F905D9A3308F0995FEB
:10E450009093C6008091C00086FFFCCF8091C000E1
:10E4600080648093C00008959C01FB01853691056E
:10E470001CF46330710594F0C90164E670E00F94F8
:10E480002EFE605D7F4F6093C6008091C00086FFC6
:10E49000FCCF8091C00080648093C0002B30310598
:10E4A00014F43297B4F0C90164E670E00F942EFEC4
:10E4B0006AE070E00F942EFE605D7F4F6093C600AF
:10E4C0008091C00086FFFCCF8091C0008064809363
:10E4D000C000C9016AE070E00F942EFEC0968093E0
:10E4E000C6008091C00086FFFCCF8091C000806490
:10E4F0008093C00008951F93182F8EE692EE60E07F
:10E500000F94C2F11093C6008091C00086FFFCCF2B
:10E510008091C00080648093C0000F94DCF11F9153
:10E5200008952F923F924F925F926F927F928F92B7
:10E530009F92AF92BF92CF92DF92EF92FF920F9392
:10E540001F93DF93CF93CDB7DEB762970FB6F894E2
:10E55000DEBF0FBECDBF382E622ECA01DB015C01CB
:10E560006D01772420E2222E2E010894411C511CBB
:10E570008BC081E0A81680E0B80681E0C80680E084
:10E58000D80628F0C601AA27BB270F940DF2BB2797
:10E59000AD2D9C2D8B2D0F940DF28A2D0F940DF225
:10E5A0002092C6008091C00086FFFCCF8091C00001
:10E5B00080648093C0009DE29093C6008091C0006B
:10E5C00086FFFCCF8091C00080648093C0002092C1
:10E5D000C6008091C00086FFFCCF8091C00080649F
:10E5E0008093C00019828601750188249924A1E0D6
:10E5F0003A1651F03A1620F0B2E03B1661F409C029
:10E600000BBFF701779007C0C7010F9477FE782EF4
:10E6100002C0F7017080872D0F940DF22092C60082
:10E620008091C00086FFFCCF8091C0008064809301
:10E63000C000872D8052F401EF70F0708F3520F408
:10E64000E40DF51D708204C0E40DF51D8EE280839B
:10E650000894E11CF11C011D111D0894811C911CE2
:10E6600090E18916910409F0C2CF80E190E0A0E02A
:10E67000B0E0A80EB91ECA1EDB1E198AC2010F9493
:10E68000FAF10F94DCF16A94662009F072CF629679
:10E690000FB6F894DEBF0FBECDBFCF91DF911F91B3
:10E6A0000F91FF90EF90DF90CF90BF90AF909F9031
:10E6B0008F907F906F905F904F903F902F90089534
:10E6C0002F923F924F925F926F927F928F929F9282
:10E6D000AF92BF92CF92DF92EF92FF920F931F9370
:10E6E000DF93CF93CDB7DEB7CD53D1400FB6F894BB
:10E6F000DEBF0FBECDBF01E20EBF0FEF0DBF94B75F
:10E70000F894A89514BE80916000886180936000A1
:10E7100010926000789493FF05C0E0910002F091A0
:10E7200001021995279A2F9A8091C00082608093E8
:10E73000C00080E18093C40088E18093C1000000A4
:10E74000EE24FF24870144E0A42EB12CCC24DD2448
:10E7500024C0C5010197F1F70894E11CF11C011DCB
:10E76000111D21E2E2162EE4F20620E0020720E06D
:10E77000120718F031E0C32ED12CC801B70127ECE5
:10E780003BE140E050E00F9441FE611571058105C9
:10E79000910519F485B1805885B98091C00087FD35
:10E7A00003C0C114D104A9F2A6014F5F5F4FC25E3E
:10E7B000DE4F59834883CE51D140C25EDE4F8881FF
:10E7C0009981CE51D140019711F00D9410FEC05D9A
:10E7D000DE4F19821882C053D14060E0C15DDE4F28
:10E7E0001882CF52D14088249924C35DDE4F19820C
:10E7F0001882CD52D140C05EDE4F188219821A8233
:10E800001B82C052D140CE5CDE4F188219821A8220
:10E810001B82C253D140EE24FF2487010BBFF701B6
:10E8200007911691C45CDE4F19830883CC53D14005
:10E830000D940BFEC25EDE4F28813981CE51D1404E
:10E840002130310509F52091C600C25EDE4F1982E4
:10E850001882CE51D14022C02F5F3F4F4F4F5F4FA4
:10E86000213082E138078AE7480780E0580780F0C6
:10E87000C45CDE4FE881F981CC53D140EF5FFF4F9C
:10E8800019F0EE27FF27099420E030E040E050E047
:10E890008091C00087FFE0CF2091C600C35DDE4FAE
:10E8A00048815981CD52D1404F5F5F4FC35DDE4FEC
:10E8B00059834883CD52D140213209F063C64A3092
:10E8C000510508F05FC60894811C911C53E0851621
:10E8D000910409F059C600E010E018C081E280936D
:10E8E000C6008091C00086FFFCCF8091C00080648C
:10E8F0008093C0002F5F3F4F2931310579F70F9486
:10E90000DCF10F5F1F4F0530110519F020E030E0FA
:10E91000E5CF10920A0210920B0210920C02109294
:10E920000D02109206021092070210920802109235
:10E930000902109202021092030210920402109235
:10E9400005028FEE90EE60E00F94F5F180E191EE1C
:10E9500060E00F94C2F18091C00087FFFCCF9091DE
:10E96000C600903608F09F759032B8F09093C600BC
:10E970008091C00086FFFCCF8091C00080648093AE
:10E98000C000A0E2A093C6008091C00086FFFCCF2B
:10E990008091C00080648093C000983409F4D7C18E
:10E9A0009934B8F4923409F459C1933458F490333B
:10E9B00019F1903308F4E3C59F33A1F1903409F0C5
:10E9C000DEC5BDC0953409F470C1963409F0D7C5D1
:10E9D00098C1923509F42BC2933538F49C3409F46C
:10E9E000F5C1913509F0CBC518C2963509F445C279
:10E9F000993509F0C4C567C483E792EE62E00F94CD
:10EA0000F5F110920602109207021092080210927D
:10EA1000090210920A0210920B0210920C0210923C
:10EA20000D0213C18FE792EE62E00F94F5F18FEEC5
:10EA300090EE60E00F94F5F181E291EE60E00F94CA
:10EA4000C2F187EB91EE60E00F94F5F180E391EE77
:10EA500060E00F94C2F184EE90EE60E00F94F5F167
:10EA60008FE391EE60E00F94C2F186E090E061E008
:10EA700070E00F9434F20F94DCF18DE591EE60E0DC
:10EA80000F94C2F189EC91EE60E00F94F5F18EE401
:10EA900091EE60E00F94C2F183EC91EE60E00F9490
:10EAA000F5F18CE691EE60E00F94C2F18EE10F94E7
:10EAB0000DF288E90F940DF281E00F940DF20F949E
:10EAC000DCF18BE791EE60E00F94C2F119E0E0E039
:10EAD000F0E010935700E4918E2F0F940DF20F94F5
:10EAE000DCF18AE891EE60E00F94C2F1E3E0F0E03F
:10EAF00010935700E4918E2F0F940DF20F94DCF1D8
:10EB000089E991EE60E00F94C2F1E2E0F0E0109349
:10EB10005700E4918E2F0F940DF20F94DCF188EAE8
:10EB200091EE60E00F94C2F1E1E0F0E01093570045
:10EB30001491812F0F940DF20F94DCF107CF8BE825
:10EB400092EE62E00F94F5F18BE492EE60E00F94A8
:10EB5000F5F10F94DCF100E010E019C0C8016F2D51
:10EB60000F947FFEFF2031F489E492EE60E00F9471
:10EB7000C2F10BC0F092C6008091C00086FFFCCFAE
:10EB80008091C00080648093C0000F5F1F4FC80158
:10EB900081519F41A0E0B0E0ABBFFC01F790BAE229
:10EBA000FB1621F0E2E000301E07C1F60F94DCF105
:10EBB0000F94DCF187E592EE60E00F94F5F10F948D
:10EBC000DCF1CC24DD2400E010E01EC0C8010F946D
:10EBD00077FEF82E882331F489E492EE60E00F94FA
:10EBE000C2F10BC08093C6008091C00086FFFCCFAD
:10EBF0008091C00080648093C000FE1419F00894D6
:10EC0000C11CD11C0F5F1F4FC80181519F41A0E063
:10EC1000B0E0ABBFFC01E790FAE2EF1621F022E092
:10EC20000030120799F60F94DCF10F94DCF182E6C4
:10EC300092EE60E00F94C2F1C60161E070E00F94C3
:10EC400034F20F94DCF10F94DCF110920202109276
:10EC50000302109204021092050278CE89E992EE26
:10EC600062E00F94F5F1279A2F9A16C02F9880E052
:10EC700090E0E0EDF7E03197F1F7019684369105E9
:10EC8000C1F72F9A80E090E0E0EDF7E03197F1F7DF
:10EC9000019684369105C1F78091C00087FFE6CFC9
:10ECA0008091C00087FFFCCF64C485EA92EE62E0E9
:10ECB0000F94F5F140910202509103026091040219
:10ECC0007091050281E020E10F9491F2809102029F
:10ECD00090910302A0910402B091050280509F4FD1
:10ECE000AF4FBF4F8093020290930302A0930402A0
:10ECF000B093050280509041A040B04008F426CE69
:10ED0000A4CF83EB92EE62E00F94F5F140910602FE
:10ED100050910702609108027091090280E020E1A1
:10ED20000F9491F28091060290910702A09108023F
:10ED3000B091090280509F4FAF4FBF4F80930602A2
:10ED400090930702A0930802B0930902FFCD80ECD4
:10ED500092EE62E00F94F5F183E792EE60E00F949B
:10ED6000F5F18FE792EE60E00F94F5F18BE892EE0B
:10ED700060E00F94F5F189E992EE60E00F94F5F10F
:10ED800085EA92EE60E00F94F5F183EB92EE60E09D
:10ED90000F94F5F180EC92EE60E00F94F5F187ECC2
:10EDA00092EE60E00F94F5F188ED92EE60E00F9442
:10EDB000F5F18FED92EE60E00F94F5F18AEE92EEB0
:10EDC00060E00F94F5F183E093EEBDCD87EC92EE19
:10EDD00062E00F94F5F181E40F947BF282E40F94EA
:10EDE0007BF283E40F947BF284E40F947BF285E45E
:10EDF0000F947BF286E40F947BF287E40F947BF20E
:10EE000088E40F947BF28AE40F947BF28BE40F94F6
:10EE10007BF28CE40F947BF299CD88ED92EE62E068
:10EE20000F94F5F1772473948824992409C48FED05
:10EE300092EE62E00F94F5F140910A0250910B02BC
:10EE400060910C0270910D0282E020E10F9491F22A
:10EE500080910A0290910B02A0910C02B0910D02D8
:10EE600080509F4FAF4FBF4F80930A0290930B0289
:10EE7000A0930C02B0930D0269CD8AEE92EE62E08F
:10EE80000F94F5F184EE90EE60E00F94F5F18FECC5
:10EE900091EE60E00F94F5F1662477244301CC5D98
:10EEA000DE4F19821882C452D140D401C301B695F5
:10EEB000A79597958795CA5DDE4F88839983AA8326
:10EEC000BB83C652D140CC5DDE4FA881B981C4520C
:10EED000D1401196CC5DDE4FB983A883C452D14096
:10EEE000CD0162E070E00F9434F2B0E2B093C6005E
:10EEF0008091C00086FFFCCF8091C0008064809329
:10EF0000C000EDE2E093C6008091C00086FFFCCF18
:10EF10008091C00080648093C000F0E2F093C6004E
:10EF20008091C00086FFFCCF8091C00080648093F8
:10EF3000C000CA5DDE4FE880F9800A811B81C6529D
:10EF4000D140BB27A12F902F8F2D0F940DF2CA5DBA
:10EF5000DE4F8881C652D1400F940DF2B0E2FB2EF5
:10EF6000F092C6008091C00086FFFCCF8091C00067
:10EF700080648093C0000DE30093C6008091C000C0
:10EF800086FFFCCF8091C00080648093C00010E2B7
:10EF90001093C6008091C00086FFFCCF8091C00016
:10EFA00080648093C0008BBEF3012791C65DDE4F65
:10EFB0002883CA52D140A22EBB24CC24DD2408943D
:10EFC000611C711C811C911C8BBEF3018791282E42
:10EFD0003324442455240894611C711C811C911C09
:10EFE0008BBEF3013791C55DDE4F3883CB52D140E4
:10EFF0000894611C711C811C911C8BBEF30147910C
:10F00000C45DDE4F4883CC52D140ADEFEA2EAFEF66
:10F01000FA2EAFEF0A2FAFEF1A2F6E0C7F1C801E57
:10F02000911E142D032DF22CEE24EA0CFB1C0C1D5A
:10F030001D1D0F940DF220E22093C6008091C000A8
:10F0400086FFFCCF8091C00080648093C000C65DC5
:10F05000DE4F8881CA52D1400F940DF230E23093D6
:10F06000C6008091C00086FFFCCF8091C000806404
:10F070008093C000C45DDE4F8881CC52D1400F9494
:10F080000DF240E24093C6008091C00086FFFCCFA5
:10F090008091C00080648093C000C55DDE4F888190
:10F0A000CB52D1400F940DF250E25093C6008091A4
:10F0B000C00086FFFCCF8091C00080648093C000B8
:10F0C0008FEFE8168FEFF80680E0080780E018075A
:10F0D00031F484E092EE60E00F94C2F1DFC0D80119
:10F0E000C7018070907CA070B0708050904CA040A0
:10F0F000B040D1F52FEF3FE340E050E0E222F322B1
:10F1000004231523CA5DDE4FA880B980CA80DB8046
:10F11000C652D140AE0CBF1CC01ED11EAA0CBB1CD7
:10F12000CC1CDD1C8EE092EE60E00F94C2F1BB2798
:10F13000A12F902F8F2D0F940DF28E2D0F940DF285
:10F1400030E23093C6008091C00086FFFCCF8091F2
:10F15000C00080648093C0004EE34093C60080915D
:10F16000C00086FFFCCF87C08EE09EEFA0E0B0E03D
:10F17000E822F9220A231B239CE0E91694E9F90608
:10F1800090E0090790E0190709F088C0C45DDE4FE0
:10F19000A881CC52D140EA2EFF2400E010E0102FCD
:10F1A0000F2DFE2CEE24C55DDE4FB881CB52D14031
:10F1B000EB0EF11C011D111DD601C501817090706F
:10F1C000A070B070DC0199278827E80EF91E0A1F8D
:10F1D0001B1F20EF30E040E050E0A222B322C42207
:10F1E000D52241E1AA0CBB1CCC1CDD1C4A95D1F7F1
:10F1F000EA0CFB1C0C1D1D1D81E090E0A0E0B0E0BE
:10F20000282239224A225B2235E1220C331C441C7D
:10F21000551C3A95D1F7E20CF31C041D151D57013E
:10F220006801AA0CBB1CCC1CDD1C85E192EE60E0E1
:10F230000F94C2F1C801AA27BB270F940DF2BB2778
:10F24000A12F902F8F2D0F940DF28E2D0F940DF274
:10F2500090E29093C6008091C00086FFFCCF809121
:10F26000C00080648093C000AEE3A093C60080918C
:10F27000C00086FFFCCF8091C00080648093C000F6
:10F28000C601AA27BB270F940DF2BB27AD2D9C2DDD
:10F290008B2D0F940DF28A2D0F940DF20F94DCF14B
:10F2A000CC5DDE4FE881F981C452D140F99709F471
:10F2B0004DCBF4E0EF2EF12C012D112D6E0C7F1CA7
:10F2C000801E911EF2CD83E093EE62E00F94F5F183
:10F2D0008AE192EE60E00F94C2F18091C00087FF56
:10F2E000FCCF1091C6001F751093C6008091C0001E
:10F2F00086FFFCCF8091C00080648093C0000F9493
:10F30000DCF1812F81548A3108F036C1163409F4BA
:10F3100095C0173490F4133409F44EC0143430F40B
:10F320001134F1F0123409F01DC130C0143409F465
:10F3300059C0153409F016C16BC01A3409F4C4C0A1
:10F340001B3438F4173409F48FC0183409F00AC19B
:10F35000A1C01B3409F4D2C01C3409F003C1E8C0B9
:10F360008FEF81B90DC082B1809582B980E090E0C5
:10F37000E0EDF7E03197F1F70196883C9105C1F790
:10F380008091C00087FFEFCF12B8EFC08FEF84B934
:10F390000DC085B1809585B980E090E0E0EDF7E0A3
:10F3A0003197F1F70196883C9105C1F78091C00033
:10F3B00087FFEFCF15B8D9C08FEF87B90DC088B1DF
:10F3C000809588B980E090E0E0EDF7E03197F1F7C3
:10F3D0000196883C9105C1F78091C00087FFEFCF6F
:10F3E00018B8C3C08FEF8AB90DC08BB180958BB9A7
:10F3F00080E090E0E0EDF7E03197F1F70196883C8E
:10F400009105C1F78091C00087FFEFCF1BB8ADC059
:10F410008FEF8DB90DC08EB180958EB980E090E0F0
:10F42000E0EDF7E03197F1F70196883C9105C1F7DF
:10F430008091C00087FFEFCF1EB897C08FEF80BBD1
:10F440000DC081B3809581BB80E090E0E0EDF7E0F6
:10F450003197F1F70196883C9105C1F78091C00082
:10F4600087FFEFCF11BA81C08FEF83BB0DC084B38C
:10F47000809584BB80E090E0E0EDF7E03197F1F714
:10F480000196883C9105C1F78091C00087FFEFCFBE
:10F4900014BA6BC08FEF809301010FC080910201FD
:10F4A00080958093020180E090E0E0EDF7E03197F5
:10F4B000F1F70196883C9105C1F78091C00087FF64
:10F4C000EDCF1092020151C08FEF809304010FC065
:10F4D0008091050180958093050180E090E0E0ED4A
:10F4E000F7E03197F1F70196883C9105C1F78091DB
:10F4F000C00087FFEDCF1092050137C08FEF8093DA
:10F5000007010FC08091080180958093080180E079
:10F5100090E0E0EDF7E03197F1F70196883C910536
:10F52000C1F78091C00087FFEDCF109208011DC088
:10F530008FEF80930A010FC080910B01809580931B
:10F540000B0180E090E0E0EDF7E03197F1F70196F4
:10F55000883C9105C1F78091C00087FFEDCF1092E4
:10F560000B0103C085E292EEEEC98091C00087FFD7
:10F57000FCCF8091C600EAC988E392EEE4C98CE131
:10F5800091EEE1C988249924933011F1943028F444
:10F59000913089F09230B8F408C0953061F195301F
:10F5A000F0F0963009F048C043C02B3109F042C951
:10F5B00091E06BE13FC96227C15DDE4F2883CF52E6
:10F5C000D14092E037C9B22FA0E0622793E032C960
:10F5D000822F90E0A82BB92B622794E02BC92E3004
:10F5E00009F039C3622795E0C05DDE4F19821882A9
:10F5F000C053D1401FC9E1E0F0E0EC0FFD1FC05D3A
:10F60000DE4F08811981C053D140E00FF11F2083E4
:10F610000F5F1F4FC05DDE4F19830883C053D14079
:10F6200062270A171B0709F005C9D80196E002C92D
:10F63000261709F010C303C0973009F0FBC87724E0
:10F640009981933109F412C19431C8F4963009F4C8
:10F65000D8C0973050F4923009F406C1933009F4C1
:10F660006DC0913009F059C253C0913109F477C08F
:10F67000923108F0BBC0903109F04FC2F5C098310B
:10F6800009F487C0993150F4953109F4EFC09531F0
:10F6900008F4C6C1963109F040C2C2C19A3109F4DA
:10F6A0006CC09A3108F491C09B3109F45BC09D3164
:10F6B00009F033C29D81903359F48F81882311F46E
:10F6C0009EE11CC0813011F091E018C098E916C08D
:10F6D000892F807591F0903539F4E0E0F0E089E011
:10F6E0008093570094910AC0983539F4E3E0F0E034
:10F6F00089E080935700949101C090E01A821B82A8
:10F700008D818C831D829E831F8227E030E009C299
:10F710001A8288E08B8381E48C8386E58D8382E581
:10F720008E8389E48F8383E5888780E589878FE5E9
:10F730008A8782E38B872BE030E0F3C18A818139AD
:10F7400041F0823941F0803911F48FE005C080E04A
:10F7500003C082E001C08AE01A828B8344C0772410
:10F76000739482C08D81882311F48EE12CC0813086
:10F7700011F081E028C088E926C01A82E1E0F0E0BB
:10F7800089E08093570084918B831C8224E030E0D1
:10F79000C8C18B81803589F48C81883039F4E2E0EE
:10F7A000F0E089E08093570084910DC0E0E0F0E044
:10F7B00089E080935700849106C0E3E0F0E089E09F
:10F7C0008093570084911A82DFCF8D81836C99E0FA
:10F7D000E1E0F0E0082E90935700E89507B600FCB2
:10F7E000FDCF1A821B8223E030E09BC180EC8A832C
:10F7F000CE5CDE4F188219821A821B82C253D1401E
:10F800008EC18A8190E0A0E0B0E0582F44273327D2
:10F8100022278B8190E0A0E0B0E0DC0199278827C7
:10F82000282B392B4A2B5B2B8D8190E0A0E0B0E098
:10F83000282B392B4A2B5B2B8C8190E0A0E0B0E089
:10F84000BA2FA92F982F8827282B392B4A2B5B2BCF
:10F85000220F331F441F551FC05EDE4F288339839C
:10F860004A835B83C052D1401A8259C13A81C95C34
:10F87000DE4F3883C753D140CA5CDE4F1882C6536F
:10F88000D1408B81C82EDD24CA5CDE4F488159816E
:10F89000C653D140C42AD52A933109F082C0CE5C28
:10F8A000DE4F88819981AA81BB81C253D1408050AB
:10F8B000904CA340B04030F583E0CE5CDE4FE88052
:10F8C000F9800A811B81C253D140F70100935B008C
:10F8D00080935700E89507B600FCFDCFCE5CDE4F65
:10F8E000088119812A813B81C253D14000501F4FAA
:10F8F0002F4F3F4FCE5CDE4F088319832A833B8313
:10F90000C253D140C05EDE4F488159816A817B81FC
:10F91000C052D140DE011B9631E08C9111962C91A2
:10F9200011971296C75CDE4F2883C953D140C85C3B
:10F93000DE4F1882C853D14090E0C85CDE4FE881AA
:10F94000F981C853D1408E2B9F2B0C01FA01609393
:10F950005B0030935700E89511244E5F5F4F6F4F67
:10F960007F4F0EEFE02E0FEFF02ECE0CDF1CC114F8
:10F97000D10499F685E0C05EDE4F088119812A81A5
:10F980003B81C052D140F80120935B008093570027
:10F99000E89507B600FCFDCF81E180935700E8951C
:10F9A00035C0C05EDE4F88819981AA81BB81C0527B
:10F9B000D140B695A795979587957C018601ABE0D8
:10F9C000AA2EB12CAC0EBD1E0BC0D5016D915D01F0
:10F9D000C7010F947FFE0894E11CF11C01501040F8
:10F9E0000115110591F7A60160E070E0440F551F65
:10F9F000661F771FC05EDE4FE880F9800A811B8199
:10FA0000C052D1404E0D5F1D601F711F1A82C05E33
:10FA1000DE4F488359836A837B83C052D1407FC0C5
:10FA2000FA80C55CDE4FF882CB53D140C65CDE4F16
:10FA30001882CA53D1408B81C82EDD24C65CDE4FAC
:10FA400008811981CA53D140C02AD12A1A828981DA
:10FA5000BE016D5F7F4F843121F59601C05EDE4FA0
:10FA6000E880F9800A811B81C052D1400BBFF701A9
:10FA700087919691DB018C9311969C936E5F7F4FDB
:10FA8000D801C7010296A11DB11DC05EDE4F88835B
:10FA90009983AA83BB83C052D14022503040F1F6F3
:10FAA00036C0C05EDE4F288139814A815B81C052F9
:10FAB000D1400894C108D108760100E010E0089414
:10FAC000C11CD11C0894E11CF11C011D111DE20E8A
:10FAD000F31E041F151F21BDBB27A52F942F832FB5
:10FAE00082BD2F5F3F4F4F4F5F4FF89A80B5DB01CC
:10FAF0008D93BD012E153F054007510761F7C05E8C
:10FB0000DE4F288339834A835B83C052D1409601FC
