:1000000026C1000055C1000053C1000051C10000CD
:100010004FC100004DC100004BC1000049C10000AC
:1000200047C1000045C1000043C1000041C10000BC
:100030003FC100000C94A90B3BC1000039C1000076
:1000400037C100000C94410E33C1000031C10000E3
:100050002FC100002DC100002BC100000C94090B22
:1000600027C100000C94A1100C94781021C100004D
:100070001FC100001DC100001BC1000019C100000C
:100080000C94140E15C1000013C1000011C1000032
:100090000FC100000DC100000BC100000C946E0EDA
:1000A00007C1000005C100000C94E70D01C100006C
:1000B000FFC00000FDC00000FBC000000C94BA0DA2
:1000C000F7C00000F5C00000F3C00000F1C0000060
:1000D000EFC00000EDC00000EBC00000E9C0000070
:1000E000E7C0000082088508740878087E08BC080C
:1000F00089088D08930897089B08A108A508A908F6
:10010000BC08AF08B308B708171445144B145B14A8
:10011000731485149A14AE14BE14C414D814DE14C7
:10012000F11404151B15DE142015291500002000FC
:100130002300260029002C002F00320000010000BF
:1001400003010601090100000A0B02090C0D0E084B
:100150000703040100000000000000000000000090
:10016000000000000000000000000000000000008F
:10017000000012111000000000000000000000004C
:10018000000000000000000000000000000022004D
:10019000250028002B002E00310034000201000051
:1001A000050108010B0100002100240027002A009E
:1001B0002D003000330001010000040107010A0195
:1001C00005050505070508080808020202020A0AD3
:1001D00008080404040401010101010101010303F1
:1001E000030303030303040707070C0C0C0C0C0C9C
:1001F0000C0C0202020206060606060606060B0B99
:100200000B0B0B0B0B0B01021020200808102040D9
:1002100010204080020102010804020101020408CA
:100220001020408080402010080402018004020158
:1002300080402010080402010804020101020408A1
:100240001020408001020408102040804B17112428
:100250001FBECFEFD1E2DEBFCDBF00E00CBF12E08A
:10026000A0E0B2E0E6ECF6E300E00BBF02C00790CE
:100270000D92A035B107D9F725E0A0E5B2E001C0A5
:100280001D92A43FB207E1F711E0C7E2D1E000E020
:1002900006C021970109802FFE010E94F119C63284
:1002A000D10780E00807A9F70E9453120C94611B44
:1002B000A7CE2F923F924F925F926F927F928F9232
:1002C0009F92AF92BF92CF92DF92EF92FF920F93E5
:1002D0001F93CF93DF9300D000D0CDB7DEB787E573
:1002E00092E090932A04809329048091540290E034
:1002F00090932C0480932B048091210390E09093A1
:100300002E0480932D0480915002853009F07BC328
:100310008091590290915A02885891098D35910522
:1003200088F480915402843041F480915B02909172
:100330005C028097479708F401C28091540284348C
:1003400008F0E3C1809154028A3108F454C08091CE
:10035000570290915802843F914080F410922804F3
:10036000109227048FEF9FEFDC018093230490937A
:100370002404A0932504B09326045BC08091590205
:1003800090915A0285974B97B0F5EDE5F2E082E047
:1003900090E040E050E0BA018C010F5F1F4F2091C8
:1003A000540230E0021713076CF49F012250310908
:1003B000D9012D913C91275031092730310508F49E
:1003C000F5C1C8010197959587959093280480936E
:1003D00027040C972CF410922804109227040BC0C9
:1003E00040932304509324046093250470932604BF
:1003F00084E090E0FCC2809154028A3108F44DC040
:1004000080915702909158028032934008F4A6CF11
:100410008091590290915A02C697869708F4E2C1DA
:100420003CC04093230450932404609325047093AC
:1004300026048BE090E0DBC2208131812552310916
:100440002B31310508F0DEC1440F551F661F771FA1
:100450004160029634968C010F5F1F4F2091540229
:1004600030E00217130764F49F0122503109D901CB
:100470002D913C912C5031092B303105E8F2C80107
:1004800001979595879590932804809327040C975E
:1004900044F610922804109227048091540282326C
:1004A00008F44CC08091590290915A020697079720
:1004B00008F044C0EDE5F2E082E090E040E050E07A
:1004C000BA018C010F5F1F4F2091540230E00217D8
:1004D0001307DCF4DF0112972D913C9111972E51F7
:1004E00031092731310508F09AC1440F551F661FA5
:1004F000771F4160208131813496235031092530A6
:10050000310510F40296DDCFC801019795958795C6
:10051000909328048093270440972CF41092280489
:10052000109227040BC0409323045093240460933B
:100530002504709326048CE090E059C21C821B8233
:1005400081E090E09A838983809154028D3008F491
:100550006BC049E753E0BE016D5F7F4FCE0101964E
:100560000E94E211892B09F05FC049E753E0BE0108
:100570006D5F7F4FCE0101960E94E211019709F055
:1005800053C049E753E0BE016D5F7F4FCE01019636
:100590000E94E211892B09F047C0C12CD12C7601B1
:1005A00000E010E08091540290E029813A81281700
:1005B00039075CF549E753E0BE016D5F7F4FCE011F
:1005C00001960E94E2115C0149E753E0BE016D5FB4
:1005D0007F4FCE0101960E94E211B1E0AB16B1044B
:1005E00049F4892B09F5CC0CDD1CEE1CFF1C68942A
:1005F000C0F808C0AB28C1F40197B1F4CC0CDD1CE5
:10060000EE1CFF1C0F5F1F4FCDCF109328040093EB
:100610002704C0922304D0922404E0922504F0928F
:10062000260481E090E0E3C11C821B8281E090E01F
:100630009A83898380912B0490912C0418161906B3
:100640000CF058C0E0912904F0912A0482E090E077
:100650009A8389838281938189974E9708F04AC053
:1006600083E090E09A838983848195810B970A9730
:1006700008F040C04CEB51E0BE016D5F7F4FCE01F2
:1006800001960E94E211892BA9F54CEB51E0BE01C5
:100690006D5F7F4FCE0101960E94E211019751F5E7
:1006A000C12CD12C760100E010E029813A818091A3
:1006B0002B0490912C04281739070CF0F3C04CEB55
:1006C00051E0BE016D5F7F4FCE0101960E94E211A5
:1006D0004C010330110509F0AFC04CEB51E0BE01F5
:1006E0006D5F7F4FCE0101960E94E2118816990638
:1006F00009F4A2C0E0912904F0912A048281938137
:10070000C697869708F4DDC08CC180915B029091FA
:100710005C02825491098E9708F014CE20E030E0FC
:1007200080E090E0DC01F901E35AFD4F4081518106
:10073000495051094930510588F004CE80915D023D
:1007400090915E020997099708F0F7CD109228045E
:10075000109227048FEF9FEFDC0158C1F901E15A95
:10076000FD4F40815181475151094231510588F473
:10077000880F991FAA1FBB1F81602C5F3F4F203835
:10078000310589F620E230E03093280420932704D5
:100790003DC140815181465051094730510508F013
:1007A000D1CD880F991FAA1FBB1FE7CF20813181B0
:1007B000235131092F30310540F4440F551F661F76
:1007C000771F416002963496E7CD208131812A500F
:1007D00031092930310508F00ECE440F551F661F30
:1007E000771FF0CF80915B0290915C02C69786974D
:1007F00008F053CEEFE5F2E083E090E040E050E017
:10080000BA0129CE208131812C5031092A3031059D
:1008100008F043CE440F551F661F771F1ACE2D9147
:100820003C912C5031092B30310508F087CE440F14
:10083000551F661F771F5ECE4CEB51E0BE016D5F0A
:100840007F4FCE0101960E94E2115C010330110539
:1008500069F44CEB51E0BE016D5F7F4FCE01019614
:100860000E94E211A816B90609F044CF8114910440
:1008700059F4AA94AB2809F03DCFCC0CDD1CEE1C3A
:10088000FF1C6894C0F80BC08A94892809F032CF05
:10089000AB2809F02FCFCC0CDD1CEE1CFF1C0F5F2A
:1008A0001F4F03CF1093280400932704C092230402
:1008B000D0922404E0922504F092260482E090E095
:1008C00096C0848195814B97459708F0AAC0DF01B7
:1008D00016967F0126ECE20EF11C20E030E040E0AD
:1008E00050E060E070E080E090E00D911C91119785
:1008F000095011090830110508F093C012960D91A6
:100900001C911397015111090D30110520F501E0DB
:100910000E94F91921601496AE15BF0531F7209396
:10092000230430932404409325045093260400E2CA
:100930000E94141A209321043093220485E090E051
:100940009093200480931F0480E390E09093280408
:100950008093270450C012960D911C911397045058
:1009600011090530110508F05CC001E00E94F91979
:10097000D2CF980122503109D9012D913C912950B3
:1009800031092830310508F0FAC0BC016F5F7F4F94
:10099000D8012D913C91275031092730310508F0BD
:1009A000EBC2440F551F416002960C5F1F4F209110
:1009B000540230E02450310982179307D4F2019792
:1009C0009595879590932804809327048A970CF433
:1009D000D6C0052E000C660B770B40932304509372
:1009E0002404609325047093260489E090E090939A
:1009F000200480931F0481E090E00CC382E0809388
:100A000050021092540280E090E004C380932304CB
:100A100090932404A0932504B093260483E090E0EF
:100A2000E6CF80915402893370F182819381895796
:100A300091098335910508F440C125C0D90112966A
:100A40006D917C911397665171096131710508F0C0
:100A500060C1D701C601880F991FAA1FBB1F6C0177
:100A60007D016894C0F84E5F5F4F2C5F3F4F4B3362
:100A7000510509F431C1D9016D917C916A50710918
:100A800069307105D8F280915402823231F482814A
:100A900093810A97099708F44CC182819381895701
:100AA000910983359105D0F4809154028132B0F0E0
:100AB00084819581CA97899788F49F012A5F3F4F67
:100AC000C12CD12C760143E050E0D9016D917C918D
:100AD0006A5071096930710508F44AC182819381B5
:100AE0008C549109C59778F480915402843031F484
:100AF000848195818097479708F499C18091540229
:100B0000843408F07BC180915402863460F1828184
:100B100093810C970B9708F4D8C125C0D901129680
:100B20006D917C9113976E5171096731710508F0D1
:100B300004C2D701C601880F991FAA1FBB1F6C01F1
:100B40007D016894C0F84E5F5F4F2C5F3F4F453486
:100B5000510509F4D5C1D9016D917C916C50710991
:100B60006B307105D8F280915402883540F0828153
:100B70009381855891098B35910508F4EEC18091D8
:100B800054028032E1F48281938106970697B8F48B
:100B9000848195810997099790F49F012A5F3F4FBF
:100BA000BF01625C7F4FC12CD12C7601D9014D91E0
:100BB0005C91465051094630510508F4EAC18091D4
:100BC0002B0490912C049E838D8306970CF416CFF2
:100BD0008F010A5F1F4F73E0272E312CE5ECCE2EDC
:100BE000EDE9DE2EECE1EE2EE1E8FE2ED8016D916E
:100BF0007C91F8013497A080B18080E090E00E9461
:100C0000C1182B013C01B50180E090E00E94C118A1
:100C10004B015C012DEC3CEC4CE45FE30E9473194A
:100C20009B01AC01C301B2010E94241887FD17C0CB
:100C30002DEC3CEC4CE45FE3C301B2010E9473195C
:100C40009B01AC01C501B4010E942418E82F880F54
:100C5000FF0BEE27FF0FEE1FFF27319602C0E0E0EB
:100C6000F0E0A701960163E971E080E091E00E9465
:100C7000D6196F01FF0FEE08FF08C626D726E82613
:100C8000F926BFEF2B1A3B0A0E5F1F4FED81FE8145
:100C90002E163F0609F0AACFC0922304D092240456
:100CA000E0922504F092260480E290E090932804DC
:100CB000809327048FEF9FEF9ACE84819581CA9706
:100CC000899708F0E0CE9F012A5F3F4FC12CD12CBD
:100CD000760143E050E0CFCE9F012A583F4FD90123
:100CE0002D913C912A5031092930310508F0CBCEA5
:100CF0002CE130E03093280420932704C092230491
:100D0000D0922404E0922504F09226048AE090E038
:100D10006ECED90112966D917C9113976650710930
:100D20006730710508F0AFCECC0CDD1CEE1CFF1C4B
:100D30009ACE20915402CF01820F911D820F911DF6
:100D4000DC0112978D919C910A97099708F0A5CE26
:100D500010922804109227048FEF9FEFDC018093FC
:100D6000230490932404A0932504B09326044CC13B
:100D7000D90112966D917C91139766517109613179
:100D8000710588F112966D917C91139766507109E7
:100D90006730710508F0A2CECC0CDD1CEE1CFF1CE8
:100DA0004E5F5F4F2C5F3F4F4332510509F08DCEB0
:100DB0009F012A5B3F4FD9012D913C912A50310967
:100DC0002930310508F08ACE20E130E03093280444
:100DD00020932704C0922304D0922404E092250497
:100DE000F092260411C1D701C601880F991FAA1FCE
:100DF000BB1F6C017D016894C0F8D2CF84819581BE
:100E000089549109C39708F07ECE9F012A5F3F4F16
:100E1000BF016A577F4FC12CD12C7601D9014D916A
:100E20005C914950510949305105B8F06CCE86812A
:100E300097810997099708F061CE109228041092C3
:100E400027048FEF9FEFDC01809323049093240409
:100E5000A0932504B0932604DAC0D90112964D91CF
:100E60005C9113974651510941315105F0F4D70176
:100E7000C601880F991FAA1FBB1F6C017D016894D2
:100E8000C0F82C5F3F4F2617370741F620E230E0CD
:100E90003093280420932704C0922304D092240482
:100EA000E0922504F0922604B2C0D90112964D9129
:100EB0005C911397465051094730510508F023CEF5
:100EC000CC0CDD1CEE1CFF1CDCCF848195810997C6
:100ED000099708F048CE868197818C974F9708F044
:100EE00042CE8085918589974D9708F03CCE9F0131
:100EF000265F3F4FC12CD12C760145E050E02BCE30
:100F00009F0126573F4FD9012D913C912C5031091B
:100F10002B30310508F027CE20E230E03093280452
:100F200020932704C0922304D0922404E092250445
:100F3000F092260488E090E05ACDD90112966D9186
:100F40007C911397695071096930710508F00BCED7
:100F5000CC0CDD1CEE1CFF1CF6CD848195818254E7
:100F600091098E9708F00BCE8F01045C1F4F8DE125
:100F700090E040E050E01BCDD8012D913C912851EC
:100F800031092231310510F0CB0119CD440F551F25
:100F90000BCDD90112964D915C911397495151098E
:100FA0004331510508F5D701C601880F991FAA1FC3
:100FB000BB1F6C017D016894C0F82C5F3F4F261762
:100FC000370709F0F3CD2EE030E03093280420936A
:100FD0002704C0922304D0922404E0922504F092C6
:100FE00026048FE090E003CDD90112964D915C91DB
:100FF0001397495051094930510508F0E0CDCC0C08
:10100000DD1CEE1CFF1CD9CF86E090E0F0CC87E021
:1010100090E0EDCC26960FB6F894DEBF0FBECDBFA4
:10102000DF91CF911F910F91FF90EF90DF90CF90C4
:10103000BF90AF909F908F907F906F905F904F90F8
:101040003F902F900895FC01918D228D892F90E083
:10105000805C9F4F821B91098F739927089580E0D0
:1010600090E0892B19F0D4D7811125C080E090E061
:10107000892B41F080E090E0892B21F00E94000054
:1010800081111CC080E090E0892B41F080E090E06D
:10109000892B21F00E940000811113C080E090E0B4
:1010A000892BA1F080E090E0892B81F00E94000064
:1010B00081110AC008950E940000D8CF0E9400004C
:1010C000E1CF0E940000EACF0C940000089590E068
:1010D000FC013197E231F10508F04EC08827EE5847
:1010E000FF4F8F4F0C94F119809180008F7703C0D0
:1010F000809180008F7D8093800008958091800092
:10110000877FF9CF84B58F7702C084B58F7D84BD8A
:1011100008958091B0008F7703C08091B0008F7DDB
:101120008093B0000895809190008F7707C08091E0
:1011300090008F7D03C080919000877F8093900006
:1011400008958091A0008F7707C08091A0008F7DC7
:1011500003C08091A000877F8093A00008958091B4
:1011600020018F7707C0809120018F7D03C080917F
:101170002001877F8093200108951F93CF93DF93F1
:10118000282F30E0F901EA5BFE4F8491F901EA5F14
:10119000FD4FD491F901E054FE4FC491CC23C1F02E
:1011A000162F811194DFEC2FF0E0EE0FFF1FE457B4
:1011B000FE4FA591B4918FB7F894111105C09C9181
:1011C000ED2FE095E92302C0EC91ED2BEC938FBF5E
:1011D000DF91CF911F910895FC012FB7F894809172
:1011E000720390917303A0917403B09175032FBFA4
:1011F0004381548165817681841B950BA60BB70BC7
:1012000085879687A787B08B2781211115C0158602
:1012100016861786108A10862FB7F894809172036D
:1012200090917303A0917403B09175032FBF8383D2
:101230009483A583B6830EC0208521110BC0418500
:1012400052856385748584179507A607B70710F044
:1012500081E0808780850895FC0165857685878596
:1012600090890895FC0141875287638774870895A8
:101270000895FC0167830895CF92DF92EF92FF9269
:101280000F931F93CF93DF936C018B017A01EC01D5
:10129000C759DC4F888187FF04C0FB01118210828F
:1012A00024C08CE08C9D90018D9D300D112488818F
:1012B000A901480F511D87FD5A958091870390E041
:1012C0004817590794F48881A901480F511D87FDDB
:1012D0005A95CA01FA01EE0FFF1F8E0F9F1FFC01E6
:1012E000E459FB4F808186FD19C088818F5F888318
:1012F0008CE08C9D90018D9D300D11248881A90179
:10130000480F511D87FD5A958091870390E048173B
:101310005907B4F488818C303CF112C08881280FC1
:10132000311D87FD3A95F901EE0FFF1F2E0F3F1F6C
:10133000F901E459FB4F808160E08F731EDFD5CF48
:10134000F80180819181049680349C4918F480E4EE
:101350009CE904C0F801808191810496F701918392
:1013600080838FEF888344C0F80140815181888158
:10137000B901680F711D87FD7A95CB01FB01EE0F56
:10138000FF1F8E0F9F1FFC01E459FB4F818192814B
:10139000840F951FF701918380838881A901480FED
:1013A000511D87FD5A95CA01FA01EE0FFF1F8E0FDE
:1013B0009F1FFC01E459FB4F808186FF19C0888183
:1013C000280F311D87FD3A95F901EE0FFF1F2E0FF3
:1013D0003F1FF901E459FB4F808161E08F73DF917A
:1013E000CF911F910F91FF90EF90DF90CF90C5CEDE
:1013F000DF91CF911F910F91FF90EF90DF90CF90F1
:10140000089585ED8093BC008091BC0084FDFCCFE5
:1014100010922205089540914403262F30E0240FB6
:10142000311D21323105DCF4209122052430C9F42C
:10143000FC0180E090E0861758F43091440321913C
:10144000DC01AE5DBC4FA30FB11D2C930196F3CF11
:1014500080914403680F6093440380E0089581E025
:10146000089582E008950895E091A9038091A8036A
:10147000E81730F4F0E0E857FC4F808190E00895E1
:101480008FEF9FEF08959091A9038091A80398177B
:1014900050F4E92FF0E0E857FC4F208130E09F5FE7
:1014A0009093A90302C02FEF3FEFC90108958091E7
:1014B000A80390E02091A903821B91090895CF927F
:1014C000DF92EF92FF920F931F93CF93DF937C01F4
:1014D000262F972F8A0180912305882391F0C62F0C
:1014E000D72F6E01C40ED51ECC15DD0569F06991AC
:1014F000D701ED91FC910190F081E02DC701199584
:10150000F3CF642F822F87DFC801DF91CF911F9126
:101510000F91FF90EF90DF90CF900895CF93DF93DE
:101520001F92CDB7DEB76983209123052223D1F026
:1015300020914605203240F021E030E0FC01338369
:10154000228380E090E014C080912405E82FF0E031
:10155000EB5DFA4F998190838F5F80932405809390
:10156000460504C061E0CE01019655DF81E090E0C0
:101570000F90DF91CF91089508950E945D1B0C9408
:10158000C51A0C94C51AFC01848DDF01A80FB11D8A
:10159000A35ABF4F2C91848D90E001968F739927A9
:1015A000848FA689B7892C93A089B1898C91806496
:1015B0008C93938D848D981306C00288F389E02D57
:1015C00080818F7D808308953FB7F89480916E036A
:1015D00090916F03A0917003B091710326B5A89B01
:1015E00005C02F3F19F00196A11DB11D3FBFBA2FB5
:1015F000A92F982F8827820F911DA11DB11DBC0115
:10160000CD0142E0660F771F881F991F4A95D1F7D9
:1016100008951F920F920FB60F9211242F933F93AC
:101620008F939F93AF93BF938091720390917303B5
:10163000A0917403B091750330916D0323E0230FE3
:101640002D3720F40196A11DB11D05C026E8230FFA
:101650000296A11DB11D20936D0380937203909398
:101660007303A0937403B093750380916E039091FC
:101670006F03A0917003B09171030196A11DB11D7C
:1016800080936E0390936F03A0937003B0937103E4
:10169000BF91AF919F918F913F912F910F900FBE6E
:1016A0000F901F901895CF92DF92EF92FF92DC017E
:1016B000EAE0F0E060E070E0CB013C91363308F006
:1016C000365320917B00432F4870277F242B209393
:1016D0007B00232F2770206420937C0020917A00C8
:1016E000206420937A0020917A0026FDFCCF40915F
:1016F00078002091790050E0522B6A01550FEE08D6
:10170000FF086C0D7D1D8E1D9F1D3197B1F62AE0DF
:1017100030E040E050E00E948E17A4E6B0E00E9466
:101720008417DC01CB012AE0B595A795979587959D
:101730002A95D1F7BC016B50710981E061337105C5
:1017400008F080E0FF90EF90DF90CF90089508952B
:1017500008951F920F920FB60F9211240BB60F929D
:101760002F933F934F935F936F937F938F939F93A9
:10177000AF93BF93CF93DF93EF93FF9320915102E9
:1017800030E0F901EA5BFE4F8491F901EA5FFD4F19
:10179000D491F901E054FE4FC491CC2399F081110A
:1017A00096DCEC2FF0E0EE0FFF1FE45DFE4FA591FD
:1017B000B491EC91ED2331E020E009F430E0832F87
:1017C000922F02C080E090E02091550230915602A5
:1017D0002F5F3F4F309356022093550220915402C1
:1017E000253618F026E02093500220915002243034
:1017F000D9F128F4223069F02330D9F060C02530C7
:1018000009F453C0263009F05AC021E02093210387
:1018100053C0009709F053C02091550230915602F1
:101820002436310508F443C010922103109254026B
:101830001DC08130910509F042C0E091540221E0C1
:101840002E0F20935402F0E0209155023091560261
:10185000EE0FFF1FE05BFD4F30872783109256028B
:101860001092550224E029C00097B9F4E091540287
:1018700021E02E0F20935402F0E020915502309188
:101880005602EE0FFF1FE05BFD4F3087278310925B
:1018900056021092550223E010C02091550230915B
:1018A00056022536310558F007C0009741F41092D2
:1018B00056021092550203C025E020935002209159
:1018C00053022223B1F0892B51F4809152028823D4
:1018D00021F08091520261E009C02F9A0AC08091E4
:1018E0005202882329F08091520260E046DC01C058
:1018F0002F98FF91EF91DF91CF91BF91AF919F9181
:101900008F917F916F915F914F913F912F910F90A8
:101910000BBE0F900FBE0F901F901895CF92DF92C5
:10192000EF92FF92CF93DF93EC01072E000C880B10
:10193000990B0E94C3186B017C0120E030E040E469
:101940005FE30E94731920E030E048E452E40E9413
:1019500028180E949018C617D707D4F020E030E06E
:1019600040EA5FE3C701B6010E94731920E030E04E
:1019700048E452E40E94281820E030E040E85FE3A9
:101980000E94C0170E94901821E06C177D070CF48C
:1019900020E0822F90E0DF91CF91FF90EF90DF90D9
:1019A000CF9008950F931F93CF93DF931F921F92B1
:1019B000CDB7DEB7152F032FFC01808191E0909306
:1019C0002305809345051092240510924605F4E006
:1019D0006F9FB00111246A5F7F4F84EE95E02A83E8
:1019E00049839CDD4981842F912F3ED4812F90E043
:1019F0003BD42A81822F902F37D4802F90E034D48B
:101A000081E00F900F90DF91CF911F910F91CFC385
:101A10009A01CB96211540E1340728F020E030E010
:101A200040E050E102C040E050E0BCCFCF93DF93F4
:101A3000DC018C91803308F06DC09B013327F901E4
:101A4000EA5FFD4F8491F901E054FE4F2491222377
:101A500099F030E0220F331FF901EA55FE4FC5918E
:101A6000D491F901E457FE4F259134919FB7F89432
:101A7000E881E82BE8839FBF8C91E82FF0E09F017D
:101A8000220F331FE20FF31FE459FB4F6F73908156
:101A9000907C692B608311961C92119712961C9270
:101AA00012976CE00E94E5199CE0899FB001112417
:101AB00040E050E09A01260F371FF901EE0FFF1F9B
:101AC0002E0F3F1FF901E459FB4F908196FD16C080
:101AD0004F5F5F4F4C30510569F78130F9F4109238
:101AE000800082E080938100109285001092840033
:101AF000B19A80916F00826080936F00EC91F0E06A
:101B0000CF01880F991FE80FF91FE459FB4F80811F
:101B1000806480838C91DF91CF910895823061F44D
:101B20001092900080939100109295001092940072
:101B300088BB80937100E2CF833069F41092A000DB
:101B400082E08093A1001092A5001092A40089BBAE
:101B500080937200D3CF8111D1CF1092200182E007
:101B60008093210110922501109224018ABB809359
:101B70007300C4CF1F920F920FB60F9211240BB6B1
:101B80000F922F933F934F935F936F937F938F9316
:101B90009F93AF93BF93EF93FF9348E251E064E2CA
:101BA00071E080E090E068DBFF91EF91BF91AF9131
:101BB0009F918F917F916F915F914F913F912F9165
:101BC0000F900BBE0F900FBE0F901F9018951F9295
:101BD0000F920FB60F9211240BB60F922F933F93D3
:101BE0004F935F936F937F938F939F93AF93BF9325
:101BF000EF93FF9348EA50E064EA70E083E090E0FE
:101C00003BDBFF91EF91BF91AF919F918F917F91BE
:101C10006F915F914F913F912F910F900BBE0F905D
:101C20000FBE0F901F9018951F920F920FB60F9234
:101C300011240BB60F922F933F934F935F936F93A3
:101C40007F938F939F93AF93BF93EF93FF9348E955
:101C500050E064E970E082E090E00EDBFF91EF91EC
:101C6000BF91AF919F918F917F916F915F914F91B4
:101C70003F912F910F900BBE0F900FBE0F901F90B2
:101C800018951F920F920FB60F9211240BB60F9258
:101C90002F933F934F935F936F937F938F939F9374
:101CA000AF93BF93EF93FF9348E850E064E870E090
:101CB00081E090E0E1DAFF91EF91BF91AF919F91C8
:101CC0008F917F916F915F914F913F912F910F90E5
:101CD0000BBE0F900FBE0F901F9018951F920F9282
:101CE0000FB60F9211240BB60F922F933F934F9381
:101CF0005F936F937F938F939F93AF93BF93EF9374
:101D0000FF938091B900887F803609F49CC068F504
:101D1000883209F45BC090F4803109F454C038F47F
:101D2000882309F4F6C0883009F44DC0F5C0883125
:101D300009F44CC0803209F45DC0EEC0803409F46F
:101D400068C048F4803309F455C0883309F0E4C012
:101D500080932005D8C0803509F44FC0883509F438
:101D60005DC0883409F0D8C0D6C0883909F4C7C02E
:101D7000A8F4883709F467C038F4883609F463C0DA
:101D8000803709F460C0C8C0883809F4B8C0803909
:101D900009F45FC0803809F0BFC05BC0803B09F424
:101DA00086C038F4803A09F466C0883A09F47FC0E6
:101DB000B3C0803C09F4A7C0883C09F4A4C0883BA8
:101DC00009F48AC0A9C08091FD0410C090911F053C
:101DD00080911E05981770F5E0911F0581E08E0F28
:101DE00080931F05F0E0E250FB4F80818093BB00A1
:101DF00085EC86C0809320058EC0E0911F0581E0B0
:101E00008E0F80931F058091BB00F0E0E250FB4FE6
:101E1000808390911F0580911E056EC0E0911F0583
:101E200081E08E0F80931F058091BB00F0E0E250AF
:101E3000FB4F80838091210581116DC081E08093EB
:101E4000FC0484EA61C083E0809322051092680359
:101E5000CFCF80916803803208F051C0E0916803D1
:101E600081E08E0F809368038091BB00F0E0E85B17
:101E7000FC4F8083BDCF85EC8093BC00109222057F
:101E800080916803803230F4E0916803F0E0E85B11
:101E9000FC4F10826091680370E0E0914603F0917E
:101EA000470388E493E019951092680335C084E0F5
:101EB000809322051092450310924403E09142035F
:101EC000F0914303199580914403811105C081E08D
:101ED0008093440310922203E091450381E08E0F2A
:101EE00080934503F0E0EE5DFC4F80818093BB0062
:101EF0009091450380914403981708F479CF85E8C1
:101F00008093BC0009C085EC8093BC001092220530
:101F100003C01092200575DAFF91EF91BF91AF9148
:101F20009F918F917F916F915F914F913F912F91F1
:101F30000F900BBE0F900FBE0F901F901895109230
:101F4000220581E0809321051092FC0461E084E188
:101F500014D961E085E111D9E9EBF0E080818E7F51
:101F6000808380818D7F808388E48093B80085E4BE
:101F70008093BC000895CF92DF92EF92FF920F936F
:101F80001F93CF93DF936C017A018B01C0E0D0E007
:101F9000CE15DF0589F0D8016D918D01D601ED9147
:101FA000FC910190F081E02DC6011995892B11F467
:101FB0007E0102C02196ECCFC701DF91CF911F9126
:101FC0000F91FF90EF90DF90CF900895FC01918DDD
:101FD000828D981761F0828DDF01A80FB11D5D968B
:101FE0008C91928D9F5F9F73928F90E008958FEFF9
:101FF0009FEF0895FC01918D828D981731F0828DAD
:10200000E80FF11D858D90E008958FEF9FEF089503
:1020100087E495E018D821E0892B09F420E0822F8D
:102020000895EF92FF920F931F93CF93DF93EC01EC
:1020300081E0888F9B8D8C8D981305C0E889F98984
:10204000808185FD23C0F62E0B8D10E00F5F1F4FA2
:102050000F731127E02E8C8DE8120BC00FB607FC12
:10206000FACFE889F989808185FFF5CFCE018BDA37
:10207000F2CF8B8DFE01E80FF11DE35AFF4FF08286
:102080000B8FEA89FB898081806207C0EE89FF8916
:102090006083E889F98980818064808381E090E0B1
:1020A000DF91CF911F910F91FF90EF900895CF9303
:1020B000DF93EC01888D8823C1F0EA89FB89808158
:1020C00085FD05C0A889B9898C9186FD0EC00FB623
:1020D00007FCF5CF808185FFF2CFA889B9898C9163
:1020E00085FFEDCFCE014FDAE8CFDF91CF91089594
:1020F0001F920F920FB60F9211240BB60F922F93CF
:102100003F934F935F936F937F938F939F93AF937F
:10211000BF93EF93FF9387E495E035DAFF91EF915A
:10212000BF91AF919F918F917F916F915F914F91EF
:102130003F912F910F900BBE0F900FBE0F901F90ED
:1021400018951F920F920FB60F9211240BB60F9293
:102150002F938F939F93EF93FF93E0915705F09107
:1021600058058081E0915D05F0915E0582FD12C009
:102170009081809160058F5F8F7320916105821738
:1021800051F0E0916005F0E0E95BFA4F958F8093A4
:10219000600501C08081FF91EF919F918F912F91F8
:1021A0000F900BBE0F900FBE0F901F901895382FF9
:1021B0002091460590914505213208F049C0809153
:1021C00022058111FCCF42E0409322053093210586
:1021D0003FEF3093200510921F0520931E05A5E2C6
:1021E000B5E04EEF54E0FA013E2F341B321718F4DD
:1021F0003D913193F9CF1092FD042091FD04990F88
:10220000922B9093FD049091FC04913061F4109214
:10221000FC049091FD049093BB009091BC0093FD51
:10222000F8CF95EC01C095EE9093BC0090912205FB
:102230009230E1F3909120059F3F79F08091200545
:10224000803241F080912005803331F084E005C078
:1022500081E003C082E001C083E010922405109267
:102260004605109223050895682F84EE95E056C91F
:102270001F93CF93DF93EC018C8583FD06C0613003
:1022800011F4885F07C0885005C0613011F4805F89
:1022900001C080518C878C858F738C8740EF5FE005
:1022A0006C818D859E85B4DB40EF5FE06F818D850D
:1022B0009E85AEDBEC85E695E695E695E83028F45C
:1022C000F0E0E85DFD4F108101C010E08D859E8536
:1022D00020E030E010FF03C040E050E102C040E0E9
:1022E00050E06E81CB965EDB8D859E8520E030E0F0
:1022F00011FF03C040E050E102C040E050E06885BB
:10230000CB9650DB8D859E8520E030E012FF03C028
:1023100040E050E102C040E050E06D81CB9642DBEE
:102320008D859E8520E030E013FF03C040E050E142
:1023300002C040E050E06985CB9634DB8C85DF91AC
:10234000CF911F910895FC012081203310F5318138
:1023500088E890E0831B910937FD9395880F991FBA
:10236000880F991F8438F3E09F0714F484E893E002
:102370000297880F991F4FB7F89430E0F901EE0FDC
:10238000FF1F2E0F3F1FF901E459FB4F92838183FA
:102390004FBF0895CF93C62F90916B0421E02093F7
:1023A0002305909345051092240510924605682F49
:1023B00084EE95E0B3D86C2F84EE95E0AFD881E041
:1023C000CF91F5CE8F929F92AF92BF92CF92DF9234
:1023D000EF92FF920F931F93CF93DF93FC01C08185
:1023E000D18120912B0430912C04C217D3070CF01B
:1023F00048C09E01220F331FE0912904F0912A0466
:10240000E20FF31F80809180C170DD27F1E0CF27BC
:10241000209719F404E610E002C00CE91FEF7A01DE
:102420005B016C01040F151FB801C40177DA892B19
:1024300089F40E0D1F1DB801C40170DA892B69F4EF
:10244000B8016E0D7F1DC40169DA892BE9F023E024
:1024500030E005C021E030E002C022E030E0F501CC
:10246000808191810196821793073CF0F5011182DA
:102470001082F60180819181019691838083CE0143
:1024800005C081E090E002C08FEF9FEFDF91CF9118
:102490001F910F91FF90EF90DF90CF90BF90AF9082
:1024A0009F908F900895CF93DF9300D01F92CDB768
:1024B000DEB7789484B5826084BD84B5816084BDC4
:1024C00085B5826085BD85B5816085BD80916E00D2
:1024D000816080936E001092810080918100826003
:1024E0008093810080918100816080938100809140
:1024F00080008160809380008091B100846080932F
:10250000B1008091B00081608093B0008091910013
:10251000826080939100809191008160809391000E
:10252000809190008160809390008091A1008260F2
:102530008093A1008091A10081608093A10080918F
:10254000A00081608093A00080912101826080932F
:1025500021018091210181608093210180912001DE
:1025600081608093200180917A00846080937A005A
:1025700080917A00826080937A0080917A008160F5
:1025800080937A0080917A00806880937A0010921C
:10259000C100E0915705F091580582E08083E091F9
:1025A0005305F09154051082E0915505F0915605C0
:1025B0008FEC808310925F05E0915B05F0915C05E4
:1025C00086E08083E0915905F0915A058081806111
:1025D0008083E0915905F0915A058081886080835D
:1025E000E0915905F0915A05808180688083E091DF
:1025F0005905F0915A0580818F7D80831092F603F2
:102600001092F503412C512C3201439465E0262EA3
:10261000312C78EEC72E73E0D72EE12CF12C80916F
:10262000ED03811111C083E090E09093E603809365
:10263000E5034092E9035092EA036092EB03709243
:10264000EC0381E08093ED038091DD03811111C0E3
:10265000A4E0B0E0B093D603A093D5034092D90391
:102660005092DA036092DB037092DC0381E0809386
:10267000DD038091CD0381110FC03092C6032092FB
:10268000C5034092C9035092CA036092CB03709273
:10269000CC0381E08093CD038091BD03811108C0FC
:1026A00087E0809351021092530281E08093BD0332
:1026B0008091B503811138C0ECE0F2E0F09377032C
:1026C000E0937603109278032FB7F8948091720309
:1026D00090917303A0917403B09175032FBF809301
:1026E000790390937A03A0937B03B0937C031092B9
:1026F0007D0310927E0310927F031092800310924C
:10270000810310928203109283031092840310922B
:102710008503109286038CE192E090937703809377
:10272000760381E08093B50380910002882309F449
:1027300037C0F89482E08093B0008093B10094E6B3
:102740009093B3001092B2008093700078948093BD
:102750005002109254028091510290E0FC01EA5F15
:10276000FD4F2491FC01E054FE4F84918823C1F079
:1027700090E0880F991FFC01EA55FE4FA591B49196
:10278000FC01E457FE4F459154919FB7F8948C910A
:10279000209582238C93DA01EC912E232C939FBFFA
:1027A0008091B40380937D038091B0039091B10335
:1027B000A091B203B091B30380937F039093800301
:1027C000A0938103B093820380918303909184034B
:1027D000A0918503B09186038093AC039093AD03E1
:1027E000A093AE03B093AF0386E793E00E94EC089A
:1027F000082F8093AB0385EE93E00E94530B182FB4
:1028000085ED93E00E94530BB82E85EC93E00E9477
:10281000530B982FE091F503F091F603E231F105A7
:1028200008F032C18827EC57FF4F8F4FDAC580ED93
:1028300097E0A0E0B0E08093B0039093B103A09341
:10284000B203B093B30381E08093B403002309F48F
:102850001FC10E945901892B09F41AC180912304D8
:1028600090912404A0912504B09126048D33924CBC
:10287000AF4FB10509F002C11092B40381E090E0BE
:102880009093F6038093F503F9C0992309F400C1EE
:1028900082E090E0D9C0C092B003D092B103E09240
:1028A000B203F092B303002309F4BCC01092B40346
:1028B00083E090E0C9C08CE291E0A0E0B0E08093BA
:1028C000B0039093B103A093B203B093B30300237A
:1028D00009F4A8C01092B403A4E0B0E0B093F603EA
:1028E000A093F503D5C0C092B003D092B103E0929B
:1028F000B203F092B303002309F494C01092B4031E
:102900003092F6032092F503C3C0BB2059F081E05A
:102910008093AA03112309F4BBC01092AA0386E096
:1029200090E092C0112309F4B3C08091AA038111F1
:10293000F4CFAEC084EF91E0A0E0B0E08093B003AC
:102940009093B103A093B203B093B303002309F4AF
:1029500069C01092B40387E090E076C0C092B003E3
:10296000D092B103E092B203F092B303002309F4D2
:1029700059C01092B40388E090E066C0BB2009F40F
:1029800087C089E090E060C088E893E1A0E0B0E013
:102990008093B0039093B103A093B203B093B303B9
:1029A000002309F43FC01092B4038AE090E04CC0C9
:1029B000112309F46DC08BE090E046C0C092B003D3
:1029C000D092B103E092B203F092B30381E080931E
:1029D000B403002309F45CC01092B4038CE090E0CF
:1029E00033C08CE291E0A0E0B0E08093B00390931C
:1029F000B103A093B203B093B303002399F01092F4
:102A0000B4038DE090E020C084EF91E0A0E0B0E05E
:102A10008093B0039093B103A093B203B093B30338
:102A2000011104C081E08093B40332C01092B4035A
:102A30008EE090E009C0992359F18FE090E004C046
:102A4000BB2031F181E190E09093F6038093F50390
:102A50001FC00E945901892BD9F0809123049091C5
:102A60002404A0912504B09126048D399246AF4FDD
:102A7000B10521F41092F6031092F50382E08093E1
:102A800050021092540204C01092F6031092F50303
:102A90001092000280911704811128C0E5E3F4E050
:102AA0001282118213821082DF0111971C921197FA
:102AB0001C92369624E0ED34F20791F710925704F9
:102AC00010925A0410925604109255041092670402
:102AD00010926A04109266041092650480E6809356
:102AE000300480936B0481E08093170480910F047D
:102AF00081112DC080915A04811120C010925A0476
:102B000088EC90E0909356048093550480E394E021
:102B1000909359048093580488E080934F048DE08B
:102B2000809352048AE08093500489E0809351049A
:102B30008BE0809353048CE0809354048BE494E006
:102B400090930E0480930D0481E080930F04809194
:102B5000050481111DC080918703803398F491E0B2
:102B6000980F909387038093020490E0FC01EE0F8E
:102B7000FF1FE80FF91FE459FB4F88EB9BE092839E
:102B8000818303C08FEF8093020481E0809305046A
:102B90008091FA0381111DC080918703803398F4DE
:102BA00091E0980F909387038093F70390E0FC01E6
:102BB000EE0FFF1FE80FF91FE459FB4F88EB9BE076
:102BC0009283818303C08FEF8093F70381E080932A
:102BD000FA0380910102882309F4E3C01092A9034B
:102BE0001092A8031092240510924605A8D91092BD
:102BF000240510924605A3D960E080E0CBDB80E499
:102C000096E0909332048093310480916B0491E0BC
:102C10009093230580934505109224051092460554
:102C200060E084EE95E00E948E0A81E0C0DA809137
:102C30006B04909122059111FCCF91E090932205B5
:102C4000909321052FEF2093200510921F051092DD
:102C50001E059093FD049091FD04880F892B8093AD
:102C6000FD048091FC04813061F41092FC04809199
:102C7000FD048093BB008091BC0083FDF8CF85EC00
:102C800001C085EE8093BC00809122058130E1F384
:102C900080911F05811103C020911F0501C021E013
:102CA000AEEFB4E088E893E0FC013E2F381B32170A
:102CB00018F43D913193F9CF1092A9032093A80302
:102CC00084EE95E00E94430A182F682F6F766061AA
:102CD00080E060DB63E08EEF5DDB612F80E05ADB3C
:102CE0000E94E40A9B01AC0195E0892E912CA12C55
:102CF000B12C2B833C8349835A830E94E40A2B81A5
:102D00003C8149815A81DC01CB01821B930BA40BCE
:102D1000B50B883E9340A105B10548F061E0861AE5
:102D20009108A108B10828513C4F4F4F5F4F8114C3
:102D30009104A104B104E9F6612F616A80E02ADB05
:102D400010E020E030E040E050E0612F8BE694E0BE
:102D50000E94D20C1F5F1031A1F769E070E082E0A1
:102D600094E00E94160D6AE070E087EF93E00E9405
:102D7000160D00910D0410910E04D8011A962D9194
:102D80003C911B97A4EBB0E0EBD09B01AC0160E061
:102D900077E883E993E0C2D0F8012083318342834E
:102DA00053830091F5031091F6030115110519F0F5
:102DB0000D30110519F487EF93E0C5DAC8018D7F56
:102DC000049719F487EF93E009C00115110521F06C
:102DD000C801877F079719F482E094E0B4DA0230E3
:102DE000110519F00B30110519F482E094E0ABDA0B
:102DF0000115110529F48091010281110AC021C039
:102E00000530110531F00A30110519F000311105B6
:102E100031F461E080910D0490910E0429DA0130C3
:102E2000110531F00830110519F00E30110531F49B
:102E300062E080910D0490910E041ADA03301105BE
:102E400041F00C30110529F0109201020E942F0868
:102E5000E6CBA0900D04B0900E04D5018D909C900F
:102E60008401000F111F000F111F0550110929ECDB
:102E700030E02150310941F361E0C5012B833C83EF
:102E8000F7D92B813C81B2E08B16910490F3C801F5
:102E90000197F1F7EECFE7E4F5E01382128288EEB6
:102EA00093E0A0E0B0E084839583A683B78324E316
:102EB00032E03183208325EC30E03587248724EC11
:102EC00030E03787268720EC30E0318B208B21ECF7
:102ED00030E0338B228B22EC30E0358B248B26ECD8
:102EE00030E0378B268B118E128E138E148EE4EE0B
:102EF000F5E01382128284839583A683B78384E4EA
:102F000092E09183808308952BD0A59F900DB49F6C
:102F1000900DA49F800D911D11240895A1E21A2EF9
:102F2000AA1BBB1BFD010DC0AA1FBB1FEE1FFF1F6D
:102F3000A217B307E407F50720F0A21BB30BE40BBD
:102F4000F50B661F771F881F991F1A9469F7609504
:102F50007095809590959B01AC01BD01CF010895BE
:102F6000A29FB001B39FC001A39F700D811D1124CA
:102F7000911DB29F700D811D1124911D089550580F
:102F8000BB27AA270ED075C166D130F06BD120F0D7
:102F900031F49F3F11F41EF45BC10EF4E095E7FBA2
:102FA00051C1E92F77D180F3BA17620773078407FD
:102FB000950718F071F49EF58FC10EF4E0950B2E75
:102FC000BA2FA02D0B01B90190010C01CA01A0017B
:102FD0001124FF27591B99F0593F50F4503E68F1D6
:102FE0001A16F040A22F232F342F4427585FF3CF17
:102FF000469537952795A795F0405395C9F77EF4E8
:103000001F16BA0B620B730B840BBAF09150A1F030
:10301000FF0FBB1F661F771F881FC2F70EC0BA0FB6
:10302000621F731F841F48F4879577956795B7953E
:10303000F7959E3F08F0B3CF9395880F08F0992736
:10304000EE0F979587950895D9D008F481E00895FB
:103050000CD00FC107D140F0FED030F021F45F3F1B
:1030600019F0F0C0511139C1F3C014D198F399236C
:10307000C9F35523B1F3951B550BBB27AA2762173C
:103080007307840738F09F5F5F4F220F331F441F81
:10309000AA1FA9F333D00E2E3AF0E0E830D09150B9
:1030A0005040E695001CCAF729D0FE2F27D0660FA6
:1030B000771F881FBB1F261737074807AB07B0E8E5
:1030C00009F0BB0B802DBF01FF2793585F4F2AF0FB
:1030D0009E3F510568F0B6C000C15F3FECF3983EDB
:1030E000DCF3869577956795B795F7959F5FC9F758
:1030F000880F911D9695879597F90895E1E0660FE1
:10310000771F881FBB1F621773078407BA0720F059
:10311000621B730B840BBA0BEE1F88F7E0950895C2
:1031200004D06894B111D9C00895BCD088F09F57DD
:1031300090F0B92F9927B751A0F0D1F0660F771F03
:10314000881F991F1AF0BA95C9F712C0B13081F0E3
:10315000C3D0B1E00895C0C0672F782F8827B85F2B
:1031600039F0B93FCCF3869577956795B395D9F744
:103170003EF490958095709561957F4F8F4F9F4F4E
:103180000895E89409C097FB3EF49095809570955A
:1031900061957F4F8F4F9F4F9923A9F0F92F96E9A3
:1031A000BB279395F695879577956795B795F11118
:1031B000F8CFFAF4BB0F11F460FF1BC06F5F7F4FB5
:1031C0008F4F9F4F16C0882311F096E911C07723C7
:1031D00021F09EE8872F762F05C0662371F096E8D0
:1031E000862F70E060E02AF09A95660F771F881F9F
:1031F000DAF7880F9695879597F90895990F000843
:10320000550FAA0BE0E8FEEF16161706E807F907B8
:10321000C0F012161306E407F50798F0621B730B53
:10322000840B950B39F40A2661F0232B242B252BD4
:1032300021F408950A2609F4A140A6958FEF811D77
:10324000811D089597F99F6780E870E060E0089518
:103250009FEF80EC089500240A94161617061806AE
:103260000906089500240A9412161306140605068A
:103270000895092E0394000C11F4882352F0BB0F1B
:1032800040F4BF2B11F460FF04C06F5F7F4F8F4F7E
:103290009F4F089557FD9058440F551F59F05F3FB9
:1032A00071F04795880F97FB991F61F09F3F79F068
:1032B00087950895121613061406551FF2CF4695EA
:1032C000F1DF08C0161617061806991FF1CF86956C
:1032D0007105610508940895E894BB276627772750
:1032E000CB0197F908950BD0C4CFB5DF28F0BADF32
:1032F00018F0952309F0A6CFABCF1124EECFCADF8B
:10330000A0F3959FD1F3950F50E0551F629FF001F8
:10331000729FBB27F00DB11D639FAA27F00DB11D51
:10332000AA1F649F6627B00DA11D661F829F2227DA
:10333000B00DA11D621F739FB00DA11D621F839F61
:10334000A00D611D221F749F3327A00D611D231F37
:10335000849F600D211D822F762F6A2F11249F5785
:1033600050408AF0E1F088234AF0EE0FFF1FBB1FA8
:10337000661F771F881F91505040A9F79E3F510547
:1033800070F060CFAACF5F3FECF3983EDCF38695F8
:1033900077956795B795F795E7959F5FC1F7FE2BF2
:1033A000880F911D9695879597F90895DB018F9366
:1033B0009F93AADDBF91AF91A29F800D911DA39F06
:1033C000900DB29F900D11240895991B79E004C0CF
:1033D000991F961708F0961B881F7A95C9F7809554
:1033E0000895EE0FFF1F881F8BBF0790F691E02D09
:1033F00019940F93083090F0982F872F762F652F10
:10340000542F432F322F22270850F4CF220F331F7F
:10341000441F551F661F771F881F991F0A95B2F713
:103420000F91089597FB10F8169400080F93083039
:1034300098F00850232F342F452F562F672F782FC1
:10344000892F902DF4CF059497958795779567955B
:1034500057954795379527950A95AAF70F9108959F
:10346000CF93DF938230910510F482E090E0E091F9
:10347000F205F091F30520E030E0C0E0D0E03097B5
:1034800011F14081518148175907C0F04817590779
:1034900061F482819381209719F09B838A832BC0EA
:1034A0009093F3058093F20526C02115310519F09C
:1034B0004217530718F49A01BE01DF01EF010280A1
:1034C000F381E02DDCCF2115310509F1281B390BE3
:1034D0002430310590F412968D919C9113976115CB
:1034E000710521F0FB019383828304C09093F3055F
:1034F0008093F205FD01329644C0FD01E20FF31FF7
:1035000081939193225031092D933C933AC020919D
:10351000F0053091F105232B41F420910402309104
:1035200005023093F1052093F005209102023091BD
:1035300003022115310541F42DB73EB74091060233
:1035400050910702241B350BE091F005F091F10535
:10355000E217F307A0F42E1B3F0B2817390778F06A
:10356000AC014E5F5F4F2417350748F04E0F5F1FC9
:103570005093F1054093F0058193919302C0E0E0F0
:10358000F0E0CF01DF91CF9108950F931F93CF9378
:10359000DF93009709F48CC0FC01329713821282EA
:1035A0000091F2051091F3050115110581F42081B8
:1035B0003181820F931F2091F0053091F10528177A
:1035C000390779F5F093F105E093F00571C0D80162
:1035D00040E050E0AE17BF0750F412962D913C9199
:1035E0001397AD012115310509F1D901F3CF9D01E3
:1035F000DA013383228360817181860F971F8217DE
:10360000930769F4EC0128813981260F371F2E5F5B
:103610003F4F318320838A819B8193838283452B13
:1036200029F4F093F305E093F20542C01396FC935E
:10363000EE931297ED01499159919E01240F351F88
:10364000E217F30771F480819181840F951F029630
:1036500011969C938E938281938113969C938E9363
:103660001297E0E0F0E0D80112968D919C911397AB
:10367000009719F0F8018C01F6CF8D919C9198017B
:103680002E5F3F4F820F931F2091F0053091F1057F
:103690002817390769F4309729F41092F30510922E
:1036A000F20502C0138212821093F1050093F00517
:1036B000DF91CF911F910F91089581E090E0F894F0
:0636C00000C0F894FFCFEA
:1036C60001010000F405800000000000A80BC10AFB
:1036D6003909380932092C0900000000A70BBF0A76
:1036E6003909EC0832092C0901030206040C080901
:1036F600000000001110BB0F2308E60FFA0F571049
:10370600000000008E0A5F0A570A430A340A330A89
:00000001FF
