:1000000014C1000043C1000041C100003FC1000015
:100010003DC100003BC1000039C1000037C10000F4
:1000200035C1000033C1000031C100002FC1000004
:100030002DC1000091C6000029C1000027C10000A9
:1000400025C100000C94750821C100001FC10000EB
:100050001DC100001BC1000019C1000031C6000015
:1000600015C1000051C2000026C200000FC10000EF
:100070000DC100000BC1000009C1000007C1000054
:100080000C94480803C1000001C10000FFC000003B
:10009000FDC00000FBC00000F9C000000C94A208E5
:1000A000F5C00000F3C00000C6C70000EFC00000AC
:1000B000EDC00000EBC00000E9C000008FC70000E9
:1000C000E5C00000E3C00000E1C00000DFC00000A8
:1000D000DDC00000DBC00000D9C00000D7C00000B8
:1000E000D5C000003B033E032D03310337037503E6
:1000F000420346034C03500354035A035E03620356
:10010000750368036C0370030000210024002700BE
:100110002A002D0030003300010100000401070116
:100120000A0100002200250028002B002E003100CB
:10013000340002010000050108010B01000020004D
:100140002300260029002C002F00320000010000AF
:10015000030106010901050505050705080808084A
:10016000020202020A0A080804040404010101014F
:10017000010101010303030303030303040707074A
:100180000C0C0C0C0C0C0C0C0202020206060606EF
:10019000060606060B0B0B0B0B0B0B0B01021020BC
:1001A00020080810204010204080020102010804AD
:1001B0000201010204081020408080402010080441
:1001C000020180040201804020100804020108049A
:1001D00002010102040810204080010204081020DE
:1001E000408000000A0B02090C0D0E0807030401F1
:1001F00000000000000000000000000000000000FF
:1002000000000000000000000000000000001211CB
:1002100010000000000000000000000000000000CE
:100220000000000000000000EF0911241FBECFEF06
:10023000D1E2DEBFCDBF00E00CBF12E0A0E0B2E033
:10024000EAE2FDE100E00BBF02C007900D92A83585
:10025000B107D9F726E0A8E5B2E001C01D92A630AB
:10026000B207E1F711E0C5E1D1E000E006C0219757
:100270000109802FFE010E945A0DC431D10780E090
:100280000807A9F70E94120B0C94930EB9CE382FD1
:100290002091D40290914204213208F049C080910B
:1002A000B1028111FCCF42E04093B1023093B00221
:1002B0003FEF3093AF021092AE022093AD02A4EB59
:1002C000B2E04DE852E0FA013E2F341B321718F429
:1002D0003D913193F9CF10928C0220918C02990FAD
:1002E000922B90938C0290918B02913061F410923A
:1002F0008B0290918C029093BB009091BC0093FD77
:10030000F8CF95EC01C095EE9093BC009091B102AE
:100310009230E1F39091AF029F3F79F08091AF026C
:10032000803241F08091AF02803331F084E005C02B
:1003300081E003C082E001C083E01092B30210921A
:10034000D4021092B2020895CF92DF92EF92FF9200
:100350000F931F93CF93DF936C017A018B01C0E061
:10036000D0E0CE15DF0589F0D8016D918D01D60161
:10037000ED91FC910190F081E02DC6011995892B3A
:1003800011F47E0102C02196ECCFC701DF91CF911D
:100390001F910F91FF90EF90DF90CF90089560E054
:1003A00088E295E065C2CF93C62F9091AD0521E01C
:1003B0002093B202909342041092B3021092D4029E
:1003C000682F88E295E054D26C2F88E295E050D2F5
:1003D00081E0CF915CCF83E494E0EED021E0892BE3
:1003E00009F420E0822F0895EF92FF920F931F935C
:1003F000CF93DF93EC0181E0888F9B8D8C8D9813D8
:1004000005C0E889F989808185FD23C0F62E0B8D12
:1004100010E00F5F1F4F0F731127E02E8C8DE81235
:100420000BC00FB607FCFACFE889F989808185FFF8
:10043000F5CFCE0152D2F2CF8B8DFE01E80FF11D28
:10044000E35AFF4FF0820B8FEA89FB89808180623B
:1004500007C0EE89FF896083E889F989808180641B
:10046000808381E090E0DF91CF911F910F91FF9009
:10047000EF900895CF93DF93EC01888D8823C1F02E
:10048000EA89FB89808185FD05C0A889B9898C919D
:1004900086FD0EC00FB607FCF5CF808185FFF2CF39
:1004A000A889B9898C9185FFEDCFCE0116D2E8CF0E
:1004B000DF91CF9108951F920F920FB60F921124E2
:1004C0000BB60F922F933F934F935F936F937F934E
:1004D0008F939F93AF93BF93EF93FF9383E494E045
:1004E000FCD1FF91EF91BF91AF919F918F917F913F
:1004F0006F915F914F913F912F910F900BBE0F9095
:100500000FBE0F901F9018951F920F920FB60F926B
:1005100011240BB60F922F938F939F93EF93FF931A
:10052000E0915304F09154048081E0915904F091DA
:100530005A0482FD12C0908180915C048F5F8F739A
:1005400020915D04821751F0E0915C04F0E0ED5BD6
:10055000FB4F958F80935C0401C08081FF91EF91E8
:100560009F918F912F910F900BBE0F900FBE0F9008
:100570001F901895FC01918D828D981761F0828DE6
:10058000DF01A80FB11D5D968C91928D9F5F9F73C7
:10059000928F90E008958FEF9FEF0895FC01918D69
:1005A000828D981731F0828DE80FF11D858D90E0D6
:1005B00008958FEF9FEF0895FC01918D228D892F73
:1005C00090E0805C9F4F821B91098F73992708955B
:1005D00080E090E0892B19F0FEDE811125C080E0DB
:1005E00090E0892B41F080E090E0892B21F00E947F
:1005F000000081111CC080E090E0892B41F080E078
:1006000090E0892B21F00E940000811113C080E04E
:1006100090E0892BA1F080E090E0892B81F00E948E
:10062000000081110AC008950E940000D8CF0E94E6
:100630000000E1CF0E940000EACF0C940000089572
:1006400090E0FC013197E231F10508F04EC08827B7
:10065000EE58FF4F8F4F0C945A0D809180008F778A
:1006600003C0809180008F7D8093800008958091E9
:100670008000877FF9CF84B58F7702C084B58F7DE6
:1006800084BD08958091B0008F7703C08091B00041
:100690008F7D8093B0000895809190008F7707C080
:1006A000809190008F7D03C080919000877F809320
:1006B000900008958091A0008F7707C08091A000DE
:1006C0008F7D03C08091A000877F8093A000089554
:1006D000809120018F7707C0809120018F7D03C01A
:1006E00080912001877F8093200108953FB7F8947F
:1006F0008091FE059091FF05A0910006B091010642
:1007000026B5A89B05C02F3F19F00196A11DB11D6C
:100710003FBFBA2FA92F982F8827820F911DA11DA7
:10072000B11DBC01CD0142E0660F771F881F991FE4
:100730004A95D1F70895FC0165857685878590896E
:100740000895FC014187528763877487089508954F
:10075000FC016783089585ED8093BC008091BC0007
:1007600084FDFCCF1092B10208954091D005262F50
:1007700030E0240F311D21323105DCF42091B1022B
:100780002430C9F4FC0180E090E0861758F43091E1
:10079000D0052191DC01A255BA4FA30FB11D2C93B6
:1007A0000196F3CF8091D005680F6093D00580E06B
:1007B000089581E0089582E008950895E091790216
:1007C00080917802E81730F4F0E0E85AFD4F80811C
:1007D00090E008958FEF9FEF0895909179028091B6
:1007E0007802981750F4E92FF0E0E85AFD4F208185
:1007F00030E09F5F9093790202C02FEF3FEFC90175
:1008000008958091780290E020917902821B9109ED
:100810000895CF92DF92EF92FF920F931F93CF93A1
:10082000DF937C01262F972F8A018091B2028823C3
:1008300091F0C62FD72F6E01C40ED51ECC15DD0545
:1008400069F06991D701ED91FC910190F081E02D63
:10085000C7011995F3CF642F822F87DFC801DF917D
:10086000CF911F910F91FF90EF90DF90CF9008955F
:10087000CF93DF931F92CDB7DEB769832091B20289
:100880002223D1F02091D402203240F021E030E048
:10089000FC013383228380E090E014C08091B30296
:1008A000E82FF0E0EC54FD4F998190838F5F8093A7
:1008B000B3028093D40204C061E0CE01019655DFFB
:1008C00081E090E00F90DF91CF91089508950E940C
:1008D0008F0E0C94F70D0C94F70DFC01848DDF0145
:1008E000A80FB11DA35ABF4F2C91848D90E00196A3
:1008F0008F739927848FA689B7892C93A089B18992
:100900008C9180648C93938D848D981306C002889B
:10091000F389E02D80818F7D80830895CF93DF93CD
:10092000282F30E0F901EE51FE4F8491F901E45691
:10093000FE4FD491F901EA5AFE4FC491CC2389F0BD
:1009400081117EDEEC2FF0E0EE0FFF1FE45CFE4F26
:10095000A591B491EC91ED2381E090E021F480E049
:1009600002C080E090E0DF91CF9108951F93CF9374
:10097000DF93282F30E0F901EE51FE4F8491F90109
:10098000E456FE4FD491F901EA5AFE4FC491CC23AC
:10099000C1F0162F811154DEEC2FF0E0EE0FFF1F97
:1009A000EE5DFE4FA591B4918FB7F894111105C07B
:1009B0009C91ED2FE095E92302C0EC91ED2BEC9397
:1009C0008FBFDF91CF911F910895CF92DF92EF9269
:1009D000FF920F931F93CF93DF936C018B017A01EA
:1009E000EC01CB50DA4F888187FF04C0FB011182F4
:1009F000108224C08CE08C9D90018D9D300D1124BF
:100A00008881A901480F511D87FD5A9580913704AF
:100A100090E04817590794F48881A901480F511DA7
:100A200087FD5A95CA01FA01EE0FFF1F8E0F9F1F17
:100A3000FC01E955FC4F808186FD19C088818F5FDC
:100A400088838CE08C9D90018D9D300D11248881D0
:100A5000A901480F511D87FD5A958091370490E0F8
:100A600048175907B4F488818C303CF112C0888152
:100A7000280F311D87FD3A95F901EE0FFF1F2E0F4C
:100A80003F1FF901E955FC4F808160E08F736EDFF5
:100A9000D5CFF80180819181049680349C4918F467
:100AA00080E49CE904C0F801808191810496F701FB
:100AB000918380838FEF888344C0F8014081518106
:100AC0008881B901680F711D87FD7A95CB01FB0103
:100AD000EE0FFF1F8E0F9F1FFC01E955FC4F818118
:100AE0009281840F951FF701918380838881A901EA
:100AF000480F511D87FD5A95CA01FA01EE0FFF1FDD
:100B00008E0F9F1FFC01E955FC4F808186FF19C0A5
:100B10008881280F311D87FD3A95F901EE0FFF1FDF
:100B20002E0F3F1FF901E955FC4F808161E08F7363
:100B3000DF91CF911F910F91FF90EF90DF90CF90B9
:100B400015CFDF91CF911F910F91FF90EF90DF9024
:100B5000CF900895CF93DF9390E0FC01E456FE4FD1
:100B60002491FC01EA5AFE4F8491882361F190E0C0
:100B7000880F991FFC01E85FFE4FC591D491FC01DD
:100B8000EE5DFE4FA591B491611109C09FB7F89435
:100B90008881209582238883EC912E230BC06230BC
:100BA00061F49FB7F8943881822F809583238883DE
:100BB000EC912E2B2C939FBF06C08FB7F894E88141
:100BC0002E2B28838FBFDF91CF9108958F929F9214
:100BD000AF92BF92CF92DF92EF92FF926B017C01B6
:100BE00085DD4B015C01C114D104E104F104E9F09D
:100BF0007DDDDC01CB0188199909AA09BB09883E72
:100C00009340A105B10578F321E0C21AD108E108AB
:100C1000F10888EE880E83E0981EA11CB11CC11457
:100C2000D104E104F10421F7DECFFF90EF90DF90D3
:100C3000CF90BF90AF909F908F9008952FB7F8946A
:100C40006091FA057091FB058091FC059091FD057E
:100C50002FBF08950F931F93CF93DF93EC01EEDF27
:100C60000B811C812D813E81DC01CB01801B910B0E
:100C7000A20BB30B8D879E87AF87B88B2F81211175
:100C80000BC01D861E861F86188A1886D7DF6B83C9
:100C90007C838D839E830EC0288521110BC009851E
:100CA0001A852B853C8580179107A207B30710F0A2
:100CB00081E088878885DF91CF911F910F910895FA
:100CC0001F920F920FB60F9211242F933F938F9381
:100CD0009F93AF93BF938091FA059091FB05A091EC
:100CE000FC05B091FD053091F90523E0230F2D3768
:100CF00020F40196A11DB11D05C026E8230F029620
:100D0000A11DB11D2093F9058093FA059093FB0571
:100D1000A093FC05B093FD058091FE059091FF0521
:100D2000A0910006B09101060196A11DB11D80930E
:100D3000FE059093FF05A0930006B0930106BF91B6
:100D4000AF919F918F913F912F910F900FBE0F9078
:100D50001F901895089508951F920F920FB60F9245
:100D600011240BB60F922F933F934F935F936F9382
:100D70007F938F939F93AF93BF93EF93FF93809154
:100D8000D602CCDD2091DA023091DB022F5F3F4F9B
:100D90003093DB022093DA029091D902953618F055
:100DA00096E09093D5029091D5029430C9F128F441
:100DB000923069F09330D1F05EC0953009F451C0A3
:100DC000963009F058C091E09093A60351C081116C
:100DD00052C02091DA023091DB022436310508F44A
:100DE00042C01092A6031092D9021CC0813009F0B3
:100DF00042C0E091D90291E09E0F9093D902F0E0B9
:100E00002091DA023091DB02EE0FFF1FEB52FD4F13
:100E1000308727831092DB021092DA0294E029C017
:100E2000811117C0E091D90291E09E0F9093D902F1
:100E3000F0E02091DA023091DB02EE0FFF1FEB525F
:100E4000FD4F308727831092DB021092DA0293E085
:100E500010C02091DA023091DB022536310558F0BE
:100E600007C0811108C01092DB021092DA0203C0A1
:100E700095E09093D5029091D8029923B1F0811119
:100E80000AC08091D702882321F08091D70261E0C7
:100E900009C02F9A0AC08091D702882329F0809137
:100EA000D70260E063DD01C02F98FF91EF91BF9101
:100EB000AF919F918F917F916F915F914F913F91F2
:100EC0002F910F900BBE0F900FBE0F901F90189593
:100ED0001F93CF93DF93EC01162F8881803308F0A6
:100EE0004CC061E0812F36DE8881E82FF0E09F0161
:100EF000220F331FE20FF31FE955FC4F1F73908140
:100F0000907C192B108319821A826CE0C7D59CE063
:100F1000899FB001112440E050E09A01260F371F4D
:100F2000F901EE0FFF1F2E0F3F1FF901E955FC4F8E
:100F3000908196FD16C04F5F5F4F4C30510569F7A9
:100F4000813001F51092800082E080938100109240
:100F5000850010928400B19A80916F008260809326
:100F60006F00E881F0E0CF01880F991FE80FF91FAB
:100F7000E955FC4F8081806480838881DF91CF9127
:100F80001F910895823061F4109290008093910037
:100F9000109295001092940088BB80937100E1CF6D
:100FA000833069F41092A00082E08093A100109237
:100FB000A5001092A40089BB80937200D2CF81114A
:100FC000D0CF1092200182E0809321011092250160
:100FD000109224018ABB80937300C3CF1F920F929B
:100FE0000FB60F9211240BB60F922F933F934F938E
:100FF0005F936F937F938F939F93AF93BF93EF9381
:10100000FF9348E251E064E271E080E090E0DDDCD3
:10101000FF91EF91BF91AF919F918F917F916F91D0
:101020005F914F913F912F910F900BBE0F900FBE8C
:101030000F901F9018951F920F920FB60F921124C8
:101040000BB60F922F933F934F935F936F937F93C2
:101050008F939F93AF93BF93EF93FF9348EA50E032
:1010600064EA70E083E090E0B0DCFF91EF91BF9123
:10107000AF919F918F917F916F915F914F913F9130
:101080002F910F900BBE0F900FBE0F901F901895D1
:101090001F920F920FB60F9211240BB60F922F933F
:1010A0003F934F935F936F937F938F939F93AF93F0
:1010B000BF93EF93FF9348E950E064E970E082E06A
:1010C00090E083DCFF91EF91BF91AF919F918F9161
:1010D0007F916F915F914F913F912F910F900BBE38
:1010E0000F900FBE0F901F9018951F920F920FB682
:1010F0000F9211240BB60F922F933F934F935F9350
:101100006F937F938F939F93AF93BF93EF93FF93CF
:1011100048E850E064E870E081E090E056DCFF9140
:10112000EF91BF91AF919F918F917F916F915F915F
:101130004F913F912F910F900BBE0F900FBE0F90CC
:101140001F9018951F920F920FB60F9211240BB695
:101150000F922F933F934F935F936F937F938F9350
:101160009F93AF93BF93EF93FF938091B900887FD4
:10117000803609F49CC068F5883209F45BC090F4AD
:10118000803109F454C038F4882309F4F6C088305B
:1011900009F44DC0F5C0883109F44CC0803209F41F
:1011A0005DC0EEC0803409F468C048F4803309F4AF
:1011B00055C0883309F0E4C08093AF02D8C08035B1
:1011C00009F44FC0883509F45DC0883409F0D8C0EF
:1011D000D6C0883909F4C7C0A8F4883709F467C0B5
:1011E00038F4883609F463C0803709F460C0C8C099
:1011F000883809F4B8C0803909F45FC0803809F034
:10120000BFC05BC0803B09F486C038F4803A09F463
:1012100066C0883A09F47FC0B3C0803C09F4A7C017
:10122000883C09F4A4C0883B09F48AC0A9C0809115
:101230008C0210C09091AE028091AD02981770F5AB
:10124000E091AE0281E08E0F8093AE02F0E0E357B2
:10125000FD4F80818093BB0085EC86C08093AF02F8
:101260008EC0E091AE0281E08E0F8093AE0280913D
:10127000BB00F0E0E357FD4F80839091AE02809178
:10128000AD026EC0E091AE0281E08E0F8093AE029F
:101290008091BB00F0E0E357FD4F80838091B00266
:1012A00081116DC081E080938B0284EA61C083E08C
:1012B0008093B1021092F405CFCF8091F405803273
:1012C00008F051C0E091F40581E08E0F8093F405A1
:1012D0008091BB00F0E0EC52FA4F8083BDCF85ECEB
:1012E0008093BC001092B1028091F405803230F4FA
:1012F000E091F405F0E0EC52FA4F10826091F405B1
:1013000070E0E091D205F091D30584ED95E0199558
:101310001092F40535C084E08093B1021092D1059B
:101320001092D005E091CE05F091CF0519958091EE
:10133000D005811105C081E08093D0051092AE05E3
:10134000E091D10581E08E0F8093D105F0E0E25568
:10135000FA4F80818093BB009091D1058091D00598
:10136000981708F479CF85E88093BC0009C085EC14
:101370008093BC001092B10203C01092AF02EBD96F
:10138000FF91EF91BF91AF919F918F917F916F915D
:101390005F914F913F912F910F900BBE0F900FBE19
:1013A0000F901F9018951092B10281E08093B002C7
:1013B00010928B0261E084E1D9DA61E085E1D6DA4E
:1013C000E9EBF0E080818E7F808380818D7F808358
:1013D00088E48093B80085E48093BC00089510925F
:1013E00046041092450488EE93E0A0E0B0E08093BC
:1013F000470490934804A0934904B0934A042AE216
:1014000032E0309344042093430425EC30E03093E1
:10141000500420934F0424EC30E030935204209386
:10142000510420EC30E0309354042093530421EC19
:1014300030E0309356042093550422EC30E0309392
:1014400058042093570426EC30E030935A0420933C
:10145000590410925C0410925D0410925E04109284
:101460005F041092E6041092E7041092E8041092D0
:10147000E9041092EA041092EB041092EC0410922A
:10148000ED041092EE041092EF041092F00410920A
:10149000F1041092F2041092F3041092F4041092EA
:1014A000F50410922B0510922A0580932C05909339
:1014B0002D05A0932E05B0932F058AE392E090931B
:1014C000290580932805E7E7F5E01282118213824F
:1014D0001082DF0111971C9211971C92369685E0BD
:1014E000EF38F80791F71092990510929C05109229
:1014F000A9051092AC051092A8051092A70580E6E8
:10150000809372058093AD0588EC90E090939805E8
:101510008093970582E795E090939B0580939A05C9
:1015200088E0809391058DE0809394058AE0809314
:10153000920589E0809393058BE0809395058CE07C
:10154000809396058DE895E09093710580937005E2
:1015500083E090E090935F0580935E0581E090E0EA
:10156000A0E0B0E08093640590936505A0936605C4
:10157000B093670524E030E030934D0520934C058F
:101580008093520590935305A0935405B09355054D
:1015900025E030E030933B0520933A0580934005E9
:1015A00090934105A0934205B09343058091370481
:1015B0008033A0F491E0980F90933704809337051F
:1015C00090E0FC01EE0FFF1F8E0F9F1FFC01E955FD
:1015D000FC4F88EB9BE09283818303C08FEF809365
:1015E0003705809137048033A0F491E0980F9093F1
:1015F00037048093340590E0FC01EE0FFF1F8E0F3F
:101600009F1FFC01E955FC4F88EB9BE0928381838F
:1016100003C08FEF8093340587E08093D602109249
:10162000D8020895789484B5826084BD84B58160C1
:1016300084BD85B5826085BD85B5816085BD80919D
:101640006E00816080936E00109281008091810015
:10165000826080938100809181008160809381000D
:10166000809180008160809380008091B1008460CF
:101670008093B1008091B00081608093B000809130
:1016800091008260809391008091910081608093AD
:101690009100809190008160809390008091A100E2
:1016A00082608093A1008091A10081608093A1005D
:1016B0008091A00081608093A000809121018260D0
:1016C000809321018091210181608093210180918B
:1016D000200181608093200180917A008460809352
:1016E0007A0080917A00826080937A0080917A00FB
:1016F000816080937A0080917A00806880937A007C
:101700001092C10010922405109225051092260512
:10171000109227051092E2041092E3041092E40460
:101720001092E50468EB7BE080E090E04FDA83E420
:1017300094E09093230580932205E0915304F09167
:10174000540412E01083E0914F04F0915004108291
:10175000E0915104F091520480E1808310925B0487
:10176000E0915704F0915804D6E0D083E0915504FD
:10177000F0915604808180618083E0915504F0915E
:101780005604808188608083E0915504F09156046E
:10179000808180688083E0915504F09156048081B7
:1017A0008F7D80834BDA6093E2047093E30480932F
:1017B000E4049093E5048091220590912305DC01D7
:1017C000ED91FC910280F381E02D41E150E066E46F
:1017D00072E019956AE070E080E090E0F7D9C1E02E
:1017E000C093F604E0915304F09154041083E09107
:1017F0004F04F09150041082E0915104F091520492
:101800008FEC808310925B04E0915704F0915804B0
:10181000D083E0915504F0915604808180618083EB
:10182000E0915504F0915604808188608083E091B6
:101830005504F0915604808180688083E0915504BE
:10184000F091560480818F7D8083109279021092EE
:1018500078021092B3021092D402A5DDA4DD60E0FC
:1018600080E00E94D30180E496E090937405809319
:1018700073058091AD05C093B2028093420410922B
:10188000B3021092D40260E088E295E00E9438042E
:1018900081E00E9447018091AD059091B1029111C4
:1018A000FCCF91E09093B1029093B0022FEF209380
:1018B000AF021092AE021092AD0290938C02909102
:1018C0008C02880F892B80938C0280918B0281304F
:1018D00061F410928B0280918C028093BB00809106
:1018E000BC0083FDF8CF85EC01C085EE8093BC0081
:1018F0008091B1028130E1F38091AE02811103C089
:101900008091AE0201C081E0ADE8B2E028E532E0AE
:10191000F9019E2F921B981718F49D919193F9CF7E
:10192000109279028093780288E295E00E94ED039C
:10193000C82F682F6F76606180E00E94D30163E05A
:101940008EEF0E94D3016C2F80E00E94D30165E0EE
:1019500070E080E090E03AD96C2F616A80E00E94EC
:10196000D301C6E0D1E08091AD05D093B20280935F
:1019700042041092B3021092D4026C2F88E295E0D8
:101980000E9438040E94CF010E94CF010E94CF0123
:101990000E94CF0181E00E944701CC5FC63419F755
:1019A00069E070E087E395E093DA6AE070E084E351
:1019B00095E08EDA1092390410923804F89482E09F
:1019C0008093B0008093B10094E69093B30010929E
:1019D000B2008093700078948093D5021092D9025F
:1019E0008091D60260E0B6D861E083E3B3D860E0CE
:1019F00082E3B0D8CAE0D2E00AE112E0BB24B3949B
:101A000088E8C82E83E1D82EE12CF12C80913A048D
:101A1000811129C0D0937B02C0937A0210927C027C
:101A20000DD960937D0270937E0280937F02909324
:101A30008002109281021092820210928302109210
:101A400084021092850210928602109287021092F0
:101A500088021092890210928A0210937B020093EE
:101A60007A02B0923A0482E30E948E0421E0892B2C
:101A700009F420E020938102C0928302D092840274
:101A8000E0928502F09286028AE792E0E3D8682F1E
:101A900083E30E94B6040E94E802B8CF991B79E064
:101AA00004C0991F961708F0961B881F7A95C9F7EE
:101AB00080950895EE0FFF1F881F8BBF0790F6914A
:101AC000E02D1994CF93DF938230910510F482E0DA
:101AD00090E0E0910406F091050620E030E0C0E0DF
:101AE000D0E0309711F14081518148175907C0F07B
:101AF0004817590761F482819381209719F09B83DD
:101B00008A832BC0909305068093040626C0211576
:101B1000310519F04217530718F49A01BE01DF018D
:101B2000EF010280F381E02DDCCF2115310509F1B1
:101B3000281B390B2430310590F412968D919C911D
:101B400013976115710521F0FB019383828304C013
:101B50009093050680930406FD01329644C0FD0172
:101B6000E20FF31F81939193225031092D933C93FF
:101B70003AC02091020630910306232B41F42091B4
:101B80000202309103023093030620930206209153
:101B90000002309101022115310541F42DB73EB705
:101BA0004091040250910502241B350BE09102067E
:101BB000F0910306E217F307A0F42E1B3F0B281742
:101BC000390778F0AC014E5F5F4F2417350748F0B6
:101BD0004E0F5F1F5093030640930206819391932B
:101BE00002C0E0E0F0E0CF01DF91CF9108950F93C4
:101BF0001F93CF93DF93009709F48CC0FC013297B9
:101C00001382128200910406109105060115110538
:101C100081F420813181820F931F2091020630913F
:101C200003062817390779F5F0930306E0930206B7
:101C300071C0D80140E050E0AE17BF0750F41296D3
:101C40002D913C911397AD012115310509F1D90171
:101C5000F3CF9D01DA013383228360817181860F86
:101C6000971F8217930769F4EC0128813981260FA9
:101C7000371F2E5F3F4F318320838A819B8193835F
:101C80008283452B29F4F0930506E093040642C0B5
:101C90001396FC93EE931297ED01499159919E0191
:101CA000240F351FE217F30771F480819181840FAF
:101CB000951F029611969C938E9382819381139621
:101CC0009C938E931297E0E0F0E0D80112968D91EC
:101CD0009C911397009719F0F8018C01F6CF8D9124
:101CE0009C9198012E5F3F4F820F931F2091020617
:101CF000309103062817390769F4309729F41092B8
:101D000005061092040602C0138212821093030685
:101D100000930206DF91CF911F910F91089581E00A
:0A1D200090E0F89400C0F894FFCFA3
:101D2A0000000606800000000000AB066B04A80352
:101D3A00A703A1039B0300000000AA066904A803E5
:101D4A002A06A1039B0300000000F401A401DC029F
:101D5A00BA02CE023A020000000038040904010463
:101D6A00ED03DE03DD03564D4450565F317C315F8F
:081D7A00564D4450560D0A00BD
:020000023000CC
:10E000000D9489F10D94B2F10D94B2F10D94B2F129
:10E010000D94B2F10D94B2F10D94B2F10D94B2F1F0
:10E020000D94B2F10D94B2F10D94B2F10D94B2F1E0
:10E030000D94B2F10D94B2F10D94B2F10D94B2F1D0
:10E040000D94B2F10D94B2F10D94B2F10D94B2F1C0
:10E050000D94B2F10D94B2F10D94B2F10D94B2F1B0
:10E060000D94B2F10D94B2F10D94B2F10D94B2F1A0
:10E070000D94B2F10D94B2F10D94B2F10D94B2F190
:10E080000D94B2F10D94B2F10D94B2F10D94B2F180
:10E090000D94B2F10D94B2F10D94B2F10D94B2F170
:10E0A0000D94B2F10D94B2F10D94B2F10D94B2F160
:10E0B0000D94B2F10D94B2F10D94B2F10D94B2F150
:10E0C0000D94B2F10D94B2F10D94B2F10D94B2F140
:10E0D0000D94B2F10D94B2F10D94B2F10D94B2F130
:10E0E0000D94B2F141546D656761323536300041AF
:10E0F000726475696E6F206578706C6F72657220DE
:10E1000073746B3530305632206279204D4C530099
:10E11000426F6F746C6F616465723E004875683F52
:10E1200000436F6D70696C6564206F6E203D200048
:10E130004350552054797065202020203D20005FF9
:10E140005F4156525F415243485F5F3D2000415658
:10E1500052204C696243205665723D20004743437C
:10E160002056657273696F6E203D20004350552024
:10E1700049442020202020203D20004C6F7720663D
:10E18000757365202020203D20004869676820665F
:10E190007573652020203D200045787420667573D6
:10E1A00065202020203D20004C6F636B2066757336
:10E1B000652020203D20004D617220203720323024
:10E1C000313300312E362E3800342E332E350056A2
:10E1D00023202020414444522020206F7020636F70
:10E1E00064652020202020696E73747275637469E1
:10E1F0006F6E2061646472202020496E74657272B3
:10E20000757074006E6F20766563746F7200726A49
:10E210006D702020006A6D70200057686174207056
:10E220006F72743A00506F7274206E6F7420737541
:10E2300070706F72746564004D7573742062652030
:10E2400061206C6574746572002000577269747483
:10E25000696E672045450052656164696E672045B7
:10E26000450045452065727220636E743D00504F35
:10E27000525400303D5A65726F2061646472003FF1
:10E280003D43505520737461747300403D454550C3
:10E29000524F4D207465737400423D426C696E6B41
:10E2A000204C454400453D44756D70204545505215
:10E2B0004F4D00463D44756D7020464C415348001B
:10E2C000483D48656C70004C3D4C69737420492F83
:10E2D0004F20506F72747300513D51756974005234
:10E2E0003D44756D702052414D00563D73686F7707
:10E2F00020696E7465727275707420566563746FF0
:10E30000727300593D506F727420626C696E6B00BD
:10E310002A0011241FBECFEFD1E2DEBFCDBF01E046
:10E320000CBF12E0A0E0B2E0EEE1FDEF03E00BBFB6
:10E3300002C007900D92A030B107D9F712E0A0E01B
:10E34000B2E001C01D92AE30B107E1F70F9460F367
:10E350000D948DFE01E20EBF0FEF0DBF11241FBE05
:10E360000D9460F30D9400F020E030E040ED57E0B4
:10E3700005C0FA013197F1F72F5F3F4F2817390792
:10E38000C0F308959C01260F311DC901A0E0B0E043
:10E390002F5F3F4FABBFFC018791882361F08093D3
:10E3A000C6008091C00086FFFCCF8091C0008064D1
:10E3B0008093C000EACF08958DE08093C6008091DD
:10E3C000C00086FFFCCF8091C00080648093C000B5
:10E3D0008AE08093C6008091C00086FFFCCF8091C8
:10E3E000C00080648093C00008950F94C2F10F9420
:10E3F000DCF10895FC019081992359F09093C600B7
:10E400008091C00086FFFCCF8091C0008064809323
:10E41000C0003196992379F70895282F982F929567
:10E420009F70892F805D8A3308F0895F8093C600D2
:10E430008091C00086FFFCCF8091C00080648093F3
:10E44000C000822F8F70982F905D9A3308F0995FEB
:10E450009093C6008091C00086FFFCCF8091C000E1
:10E4600080648093C00008959C01FB01853691056E
:10E470001CF46330710594F0C90164E670E00F94F8
:10E480002EFE605D7F4F6093C6008091C00086FFC6
:10E49000FCCF8091C00080648093C0002B30310598
:10E4A00014F43297B4F0C90164E670E00F942EFEC4
:10E4B0006AE070E00F942EFE605D7F4F6093C600AF
:10E4C0008091C00086FFFCCF8091C0008064809363
:10E4D000C000C9016AE070E00F942EFEC0968093E0
:10E4E000C6008091C00086FFFCCF8091C000806490
:10E4F0008093C00008951F93182F8EE692EE60E07F
:10E500000F94C2F11093C6008091C00086FFFCCF2B
:10E510008091C00080648093C0000F94DCF11F9153
:10E5200008952F923F924F925F926F927F928F92B7
:10E530009F92AF92BF92CF92DF92EF92FF920F9392
:10E540001F93DF93CF93CDB7DEB762970FB6F894E2
:10E55000DEBF0FBECDBF382E622ECA01DB015C01CB
:10E560006D01772420E2222E2E010894411C511CBB
:10E570008BC081E0A81680E0B80681E0C80680E084
:10E58000D80628F0C601AA27BB270F940DF2BB2797
:10E59000AD2D9C2D8B2D0F940DF28A2D0F940DF225
:10E5A0002092C6008091C00086FFFCCF8091C00001
:10E5B00080648093C0009DE29093C6008091C0006B
:10E5C00086FFFCCF8091C00080648093C0002092C1
:10E5D000C6008091C00086FFFCCF8091C00080649F
:10E5E0008093C00019828601750188249924A1E0D6
:10E5F0003A1651F03A1620F0B2E03B1661F409C029
:10E600000BBFF701779007C0C7010F9477FE782EF4
:10E6100002C0F7017080872D0F940DF22092C60082
:10E620008091C00086FFFCCF8091C0008064809301
:10E63000C000872D8052F401EF70F0708F3520F408
:10E64000E40DF51D708204C0E40DF51D8EE280839B
:10E650000894E11CF11C011D111D0894811C911CE2
:10E6600090E18916910409F0C2CF80E190E0A0E02A
:10E67000B0E0A80EB91ECA1EDB1E198AC2010F9493
:10E68000FAF10F94DCF16A94662009F072CF629679
:10E690000FB6F894DEBF0FBECDBFCF91DF911F91B3
:10E6A0000F91FF90EF90DF90CF90BF90AF909F9031
:10E6B0008F907F906F905F904F903F902F90089534
:10E6C0002F923F924F925F926F927F928F929F9282
:10E6D000AF92BF92CF92DF92EF92FF920F931F9370
:10E6E000DF93CF93CDB7DEB7CD53D1400FB6F894BB
:10E6F000DEBF0FBECDBF01E20EBF0FEF0DBF94B75F
:10E70000F894A89514BE80916000886180936000A1
:10E7100010926000789493FF05C0E0910002F091A0
:10E7200001021995279A2F9A8091C00082608093E8
:10E73000C00080E18093C40088E18093C1000000A4
:10E74000EE24FF24870144E0A42EB12CCC24DD2448
:10E7500024C0C5010197F1F70894E11CF11C011DCB
:10E76000111D21E2E2162EE4F20620E0020720E06D
:10E77000120718F031E0C32ED12CC801B70127ECE5
:10E780003BE140E050E00F9441FE611571058105C9
:10E79000910519F485B1805885B98091C00087FD35
:10E7A00003C0C114D104A9F2A6014F5F5F4FC25E3E
:10E7B000DE4F59834883CE51D140C25EDE4F8881FF
:10E7C0009981CE51D140019711F00D9410FEC05D9A
:10E7D000DE4F19821882C053D14060E0C15DDE4F28
:10E7E0001882CF52D14088249924C35DDE4F19820C
:10E7F0001882CD52D140C05EDE4F188219821A8233
:10E800001B82C052D140CE5CDE4F188219821A8220
:10E810001B82C253D140EE24FF2487010BBFF701B6
:10E8200007911691C45CDE4F19830883CC53D14005
:10E830000D940BFEC25EDE4F28813981CE51D1404E
:10E840002130310509F52091C600C25EDE4F1982E4
:10E850001882CE51D14022C02F5F3F4F4F4F5F4FA4
:10E86000213082E138078AE7480780E0580780F0C6
:10E87000C45CDE4FE881F981CC53D140EF5FFF4F9C
:10E8800019F0EE27FF27099420E030E040E050E047
:10E890008091C00087FFE0CF2091C600C35DDE4FAE
:10E8A00048815981CD52D1404F5F5F4FC35DDE4FEC
:10E8B00059834883CD52D140213209F063C64A3092
:10E8C000510508F05FC60894811C911C53E0851621
:10E8D000910409F059C600E010E018C081E280936D
:10E8E000C6008091C00086FFFCCF8091C00080648C
:10E8F0008093C0002F5F3F4F2931310579F70F9486
:10E90000DCF10F5F1F4F0530110519F020E030E0FA
:10E91000E5CF10920A0210920B0210920C02109294
:10E920000D02109206021092070210920802109235
:10E930000902109202021092030210920402109235
:10E9400005028FEE90EE60E00F94F5F180E191EE1C
:10E9500060E00F94C2F18091C00087FFFCCF9091DE
:10E96000C600903608F09F759032B8F09093C600BC
:10E970008091C00086FFFCCF8091C00080648093AE
:10E98000C000A0E2A093C6008091C00086FFFCCF2B
:10E990008091C00080648093C000983409F4D7C18E
:10E9A0009934B8F4923409F459C1933458F490333B
:10E9B00019F1903308F4E3C59F33A1F1903409F0C5
:10E9C000DEC5BDC0953409F470C1963409F0D7C5D1
:10E9D00098C1923509F42BC2933538F49C3409F46C
:10E9E000F5C1913509F0CBC518C2963509F445C279
:10E9F000993509F0C4C567C483E792EE62E00F94CD
:10EA0000F5F110920602109207021092080210927D
:10EA1000090210920A0210920B0210920C0210923C
:10EA20000D0213C18FE792EE62E00F94F5F18FEEC5
:10EA300090EE60E00F94F5F181E291EE60E00F94CA
:10EA4000C2F187EB91EE60E00F94F5F180E391EE77
:10EA500060E00F94C2F184EE90EE60E00F94F5F167
:10EA60008FE391EE60E00F94C2F186E090E061E008
:10EA700070E00F9434F20F94DCF18DE591EE60E0DC
:10EA80000F94C2F189EC91EE60E00F94F5F18EE401
:10EA900091EE60E00F94C2F183EC91EE60E00F9490
:10EAA000F5F18CE691EE60E00F94C2F18EE10F94E7
:10EAB0000DF288E90F940DF281E00F940DF20F949E
:10EAC000DCF18BE791EE60E00F94C2F119E0E0E039
:10EAD000F0E010935700E4918E2F0F940DF20F94F5
:10EAE000DCF18AE891EE60E00F94C2F1E3E0F0E03F
:10EAF00010935700E4918E2F0F940DF20F94DCF1D8
:10EB000089E991EE60E00F94C2F1E2E0F0E0109349
:10EB10005700E4918E2F0F940DF20F94DCF188EAE8
:10EB200091EE60E00F94C2F1E1E0F0E01093570045
:10EB30001491812F0F940DF20F94DCF107CF8BE825
:10EB400092EE62E00F94F5F18BE492EE60E00F94A8
:10EB5000F5F10F94DCF100E010E019C0C8016F2D51
:10EB60000F947FFEFF2031F489E492EE60E00F9471
:10EB7000C2F10BC0F092C6008091C00086FFFCCFAE
:10EB80008091C00080648093C0000F5F1F4FC80158
:10EB900081519F41A0E0B0E0ABBFFC01F790BAE229
:10EBA000FB1621F0E2E000301E07C1F60F94DCF105
:10EBB0000F94DCF187E592EE60E00F94F5F10F948D
:10EBC000DCF1CC24DD2400E010E01EC0C8010F946D
:10EBD00077FEF82E882331F489E492EE60E00F94FA
:10EBE000C2F10BC08093C6008091C00086FFFCCFAD
:10EBF0008091C00080648093C000FE1419F00894D6
:10EC0000C11CD11C0F5F1F4FC80181519F41A0E063
:10EC1000B0E0ABBFFC01E790FAE2EF1621F022E092
:10EC20000030120799F60F94DCF10F94DCF182E6C4
:10EC300092EE60E00F94C2F1C60161E070E00F94C3
:10EC400034F20F94DCF10F94DCF110920202109276
:10EC50000302109204021092050278CE89E992EE26
:10EC600062E00F94F5F1279A2F9A16C02F9880E052
:10EC700090E0E0EDF7E03197F1F7019684369105E9
:10EC8000C1F72F9A80E090E0E0EDF7E03197F1F7DF
:10EC9000019684369105C1F78091C00087FFE6CFC9
:10ECA0008091C00087FFFCCF64C485EA92EE62E0E9
:10ECB0000F94F5F140910202509103026091040219
:10ECC0007091050281E020E10F9491F2809102029F
:10ECD00090910302A0910402B091050280509F4FD1
:10ECE000AF4FBF4F8093020290930302A0930402A0
:10ECF000B093050280509041A040B04008F426CE69
:10ED0000A4CF83EB92EE62E00F94F5F140910602FE
:10ED100050910702609108027091090280E020E1A1
:10ED20000F9491F28091060290910702A09108023F
:10ED3000B091090280509F4FAF4FBF4F80930602A2
:10ED400090930702A0930802B0930902FFCD80ECD4
:10ED500092EE62E00F94F5F183E792EE60E00F949B
:10ED6000F5F18FE792EE60E00F94F5F18BE892EE0B
:10ED700060E00F94F5F189E992EE60E00F94F5F10F
:10ED800085EA92EE60E00F94F5F183EB92EE60E09D
:10ED90000F94F5F180EC92EE60E00F94F5F187ECC2
:10EDA00092EE60E00F94F5F188ED92EE60E00F9442
:10EDB000F5F18FED92EE60E00F94F5F18AEE92EEB0
:10EDC00060E00F94F5F183E093EEBDCD87EC92EE19
:10EDD00062E00F94F5F181E40F947BF282E40F94EA
:10EDE0007BF283E40F947BF284E40F947BF285E45E
:10EDF0000F947BF286E40F947BF287E40F947BF20E
:10EE000088E40F947BF28AE40F947BF28BE40F94F6
:10EE10007BF28CE40F947BF299CD88ED92EE62E068
:10EE20000F94F5F1772473948824992409C48FED05
:10EE300092EE62E00F94F5F140910A0250910B02BC
:10EE400060910C0270910D0282E020E10F9491F22A
:10EE500080910A0290910B02A0910C02B0910D02D8
:10EE600080509F4FAF4FBF4F80930A0290930B0289
:10EE7000A0930C02B0930D0269CD8AEE92EE62E08F
:10EE80000F94F5F184EE90EE60E00F94F5F18FECC5
:10EE900091EE60E00F94F5F1662477244301CC5D98
:10EEA000DE4F19821882C452D140D401C301B695F5
:10EEB000A79597958795CA5DDE4F88839983AA8326
:10EEC000BB83C652D140CC5DDE4FA881B981C4520C
:10EED000D1401196CC5DDE4FB983A883C452D14096
:10EEE000CD0162E070E00F9434F2B0E2B093C6005E
:10EEF0008091C00086FFFCCF8091C0008064809329
:10EF0000C000EDE2E093C6008091C00086FFFCCF18
:10EF10008091C00080648093C000F0E2F093C6004E
:10EF20008091C00086FFFCCF8091C00080648093F8
:10EF3000C000CA5DDE4FE880F9800A811B81C6529D
:10EF4000D140BB27A12F902F8F2D0F940DF2CA5DBA
:10EF5000DE4F8881C652D1400F940DF2B0E2FB2EF5
:10EF6000F092C6008091C00086FFFCCF8091C00067
:10EF700080648093C0000DE30093C6008091C000C0
:10EF800086FFFCCF8091C00080648093C00010E2B7
:10EF90001093C6008091C00086FFFCCF8091C00016
:10EFA00080648093C0008BBEF3012791C65DDE4F65
:10EFB0002883CA52D140A22EBB24CC24DD2408943D
:10EFC000611C711C811C911C8BBEF3018791282E42
:10EFD0003324442455240894611C711C811C911C09
:10EFE0008BBEF3013791C55DDE4F3883CB52D140E4
:10EFF0000894611C711C811C911C8BBEF30147910C
:10F00000C45DDE4F4883CC52D140ADEFEA2EAFEF66
:10F01000FA2EAFEF0A2FAFEF1A2F6E0C7F1C801E57
:10F02000911E142D032DF22CEE24EA0CFB1C0C1D5A
:10F030001D1D0F940DF220E22093C6008091C000A8
:10F0400086FFFCCF8091C00080648093C000C65DC5
:10F05000DE4F8881CA52D1400F940DF230E23093D6
:10F06000C6008091C00086FFFCCF8091C000806404
:10F070008093C000C45DDE4F8881CC52D1400F9494
:10F080000DF240E24093C6008091C00086FFFCCFA5
:10F090008091C00080648093C000C55DDE4F888190
:10F0A000CB52D1400F940DF250E25093C6008091A4
:10F0B000C00086FFFCCF8091C00080648093C000B8
:10F0C0008FEFE8168FEFF80680E0080780E018075A
:10F0D00031F484E092EE60E00F94C2F1DFC0D80119
:10F0E000C7018070907CA070B0708050904CA040A0
:10F0F000B040D1F52FEF3FE340E050E0E222F322B1
:10F1000004231523CA5DDE4FA880B980CA80DB8046
:10F11000C652D140AE0CBF1CC01ED11EAA0CBB1CD7
:10F12000CC1CDD1C8EE092EE60E00F94C2F1BB2798
:10F13000A12F902F8F2D0F940DF28E2D0F940DF285
:10F1400030E23093C6008091C00086FFFCCF8091F2
:10F15000C00080648093C0004EE34093C60080915D
:10F16000C00086FFFCCF87C08EE09EEFA0E0B0E03D
:10F17000E822F9220A231B239CE0E91694E9F90608
:10F1800090E0090790E0190709F088C0C45DDE4FE0
:10F19000A881CC52D140EA2EFF2400E010E0102FCD
:10F1A0000F2DFE2CEE24C55DDE4FB881CB52D14031
:10F1B000EB0EF11C011D111DD601C501817090706F
:10F1C000A070B070DC0199278827E80EF91E0A1F8D
:10F1D0001B1F20EF30E040E050E0A222B322C42207
:10F1E000D52241E1AA0CBB1CCC1CDD1C4A95D1F7F1
:10F1F000EA0CFB1C0C1D1D1D81E090E0A0E0B0E0BE
:10F20000282239224A225B2235E1220C331C441C7D
:10F21000551C3A95D1F7E20CF31C041D151D57013E
:10F220006801AA0CBB1CCC1CDD1C85E192EE60E0E1
:10F230000F94C2F1C801AA27BB270F940DF2BB2778
:10F24000A12F902F8F2D0F940DF28E2D0F940DF274
:10F2500090E29093C6008091C00086FFFCCF809121
:10F26000C00080648093C000AEE3A093C60080918C
:10F27000C00086FFFCCF8091C00080648093C000F6
:10F28000C601AA27BB270F940DF2BB27AD2D9C2DDD
:10F290008B2D0F940DF28A2D0F940DF20F94DCF14B
:10F2A000CC5DDE4FE881F981C452D140F99709F471
:10F2B0004DCBF4E0EF2EF12C012D112D6E0C7F1CA7
:10F2C000801E911EF2CD83E093EE62E00F94F5F183
:10F2D0008AE192EE60E00F94C2F18091C00087FF56
:10F2E000FCCF1091C6001F751093C6008091C0001E
:10F2F00086FFFCCF8091C00080648093C0000F9493
:10F30000DCF1812F81548A3108F036C1163409F4BA
:10F3100095C0173490F4133409F44EC0143430F40B
:10F320001134F1F0123409F01DC130C0143409F465
:10F3300059C0153409F016C16BC01A3409F4C4C0A1
:10F340001B3438F4173409F48FC0183409F00AC19B
:10F35000A1C01B3409F4D2C01C3409F003C1E8C0B9
:10F360008FEF81B90DC082B1809582B980E090E0C5
:10F37000E0EDF7E03197F1F70196883C9105C1F790
:10F380008091C00087FFEFCF12B8EFC08FEF84B934
:10F390000DC085B1809585B980E090E0E0EDF7E0A3
:10F3A0003197F1F70196883C9105C1F78091C00033
:10F3B00087FFEFCF15B8D9C08FEF87B90DC088B1DF
:10F3C000809588B980E090E0E0EDF7E03197F1F7C3
:10F3D0000196883C9105C1F78091C00087FFEFCF6F
:10F3E00018B8C3C08FEF8AB90DC08BB180958BB9A7
:10F3F00080E090E0E0EDF7E03197F1F70196883C8E
:10F400009105C1F78091C00087FFEFCF1BB8ADC059
:10F410008FEF8DB90DC08EB180958EB980E090E0F0
:10F42000E0EDF7E03197F1F70196883C9105C1F7DF
:10F430008091C00087FFEFCF1EB897C08FEF80BBD1
:10F440000DC081B3809581BB80E090E0E0EDF7E0F6
:10F450003197F1F70196883C9105C1F78091C00082
:10F4600087FFEFCF11BA81C08FEF83BB0DC084B38C
:10F47000809584BB80E090E0E0EDF7E03197F1F714
:10F480000196883C9105C1F78091C00087FFEFCFBE
:10F4900014BA6BC08FEF809301010FC080910201FD
:10F4A00080958093020180E090E0E0EDF7E03197F5
:10F4B000F1F70196883C9105C1F78091C00087FF64
:10F4C000EDCF1092020151C08FEF809304010FC065
:10F4D0008091050180958093050180E090E0E0ED4A
:10F4E000F7E03197F1F70196883C9105C1F78091DB
:10F4F000C00087FFEDCF1092050137C08FEF8093DA
:10F5000007010FC08091080180958093080180E079
:10F5100090E0E0EDF7E03197F1F70196883C910536
:10F52000C1F78091C00087FFEDCF109208011DC088
:10F530008FEF80930A010FC080910B01809580931B
:10F540000B0180E090E0E0EDF7E03197F1F70196F4
:10F55000883C9105C1F78091C00087FFEDCF1092E4
:10F560000B0103C085E292EEEEC98091C00087FFD7
:10F57000FCCF8091C600EAC988E392EEE4C98CE131
:10F5800091EEE1C988249924933011F1943028F444
:10F59000913089F09230B8F408C0953061F195301F
:10F5A000F0F0963009F048C043C02B3109F042C951
:10F5B00091E06BE13FC96227C15DDE4F2883CF52E6
:10F5C000D14092E037C9B22FA0E0622793E032C960
:10F5D000822F90E0A82BB92B622794E02BC92E3004
:10F5E00009F039C3622795E0C05DDE4F19821882A9
:10F5F000C053D1401FC9E1E0F0E0EC0FFD1FC05D3A
:10F60000DE4F08811981C053D140E00FF11F2083E4
:10F610000F5F1F4FC05DDE4F19830883C053D14079
:10F6200062270A171B0709F005C9D80196E002C92D
:10F63000261709F010C303C0973009F0FBC87724E0
:10F640009981933109F412C19431C8F4963009F4C8
:10F65000D8C0973050F4923009F406C1933009F4C1
:10F660006DC0913009F059C253C0913109F477C08F
:10F67000923108F0BBC0903109F04FC2F5C098310B
:10F6800009F487C0993150F4953109F4EFC09531F0
:10F6900008F4C6C1963109F040C2C2C19A3109F4DA
:10F6A0006CC09A3108F491C09B3109F45BC09D3164
:10F6B00009F033C29D81903359F48F81882311F46E
:10F6C0009EE11CC0813011F091E018C098E916C08D
:10F6D000892F807591F0903539F4E0E0F0E089E011
:10F6E0008093570094910AC0983539F4E3E0F0E034
:10F6F00089E080935700949101C090E01A821B82A8
:10F700008D818C831D829E831F8227E030E009C299
:10F710001A8288E08B8381E48C8386E58D8382E581
:10F720008E8389E48F8383E5888780E589878FE5E9
:10F730008A8782E38B872BE030E0F3C18A818139AD
:10F7400041F0823941F0803911F48FE005C080E04A
:10F7500003C082E001C08AE01A828B8344C0772410
:10F76000739482C08D81882311F48EE12CC0813086
:10F7700011F081E028C088E926C01A82E1E0F0E0BB
:10F7800089E08093570084918B831C8224E030E0D1
:10F79000C8C18B81803589F48C81883039F4E2E0EE
:10F7A000F0E089E08093570084910DC0E0E0F0E044
:10F7B00089E080935700849106C0E3E0F0E089E09F
:10F7C0008093570084911A82DFCF8D81836C99E0FA
:10F7D000E1E0F0E0082E90935700E89507B600FCB2
:10F7E000FDCF1A821B8223E030E09BC180EC8A832C
:10F7F000CE5CDE4F188219821A821B82C253D1401E
:10F800008EC18A8190E0A0E0B0E0582F44273327D2
:10F8100022278B8190E0A0E0B0E0DC0199278827C7
:10F82000282B392B4A2B5B2B8D8190E0A0E0B0E098
:10F83000282B392B4A2B5B2B8C8190E0A0E0B0E089
:10F84000BA2FA92F982F8827282B392B4A2B5B2BCF
:10F85000220F331F441F551FC05EDE4F288339839C
:10F860004A835B83C052D1401A8259C13A81C95C34
:10F87000DE4F3883C753D140CA5CDE4F1882C6536F
:10F88000D1408B81C82EDD24CA5CDE4F488159816E
:10F89000C653D140C42AD52A933109F082C0CE5C28
:10F8A000DE4F88819981AA81BB81C253D1408050AB
:10F8B000904CA340B04030F583E0CE5CDE4FE88052
:10F8C000F9800A811B81C253D140F70100935B008C
:10F8D00080935700E89507B600FCFDCFCE5CDE4F65
:10F8E000088119812A813B81C253D14000501F4FAA
:10F8F0002F4F3F4FCE5CDE4F088319832A833B8313
:10F90000C253D140C05EDE4F488159816A817B81FC
:10F91000C052D140DE011B9631E08C9111962C91A2
:10F9200011971296C75CDE4F2883C953D140C85C3B
:10F93000DE4F1882C853D14090E0C85CDE4FE881AA
:10F94000F981C853D1408E2B9F2B0C01FA01609393
:10F950005B0030935700E89511244E5F5F4F6F4F67
:10F960007F4F0EEFE02E0FEFF02ECE0CDF1CC114F8
:10F97000D10499F685E0C05EDE4F088119812A81A5
:10F980003B81C052D140F80120935B008093570027
:10F99000E89507B600FCFDCF81E180935700E8951C
:10F9A00035C0C05EDE4F88819981AA81BB81C0527B
:10F9B000D140B695A795979587957C018601ABE0D8
:10F9C000AA2EB12CAC0EBD1E0BC0D5016D915D01F0
:10F9D000C7010F947FFE0894E11CF11C01501040F8
:10F9E0000115110591F7A60160E070E0440F551F65
:10F9F000661F771FC05EDE4FE880F9800A811B8199
:10FA0000C052D1404E0D5F1D601F711F1A82C05E33
:10FA1000DE4F488359836A837B83C052D1407FC0C5
:10FA2000FA80C55CDE4FF882CB53D140C65CDE4F16
:10FA30001882CA53D1408B81C82EDD24C65CDE4FAC
:10FA400008811981CA53D140C02AD12A1A828981DA
:10FA5000BE016D5F7F4F843121F59601C05EDE4FA0
:10FA6000E880F9800A811B81C052D1400BBFF701A9
:10FA700087919691DB018C9311969C936E5F7F4FDB
:10FA8000D801C7010296A11DB11DC05EDE4F88835B
:10FA90009983AA83BB83C052D14022503040F1F6F3
:10FAA00036C0C05EDE4F288139814A815B81C052F9
:10FAB000D1400894C108D108760100E010E0089414
:10FAC000C11CD11C0894E11CF11C011D111DE20E8A
:10FAD000F31E041F151F21BDBB27A52F942F832FB5
:10FAE00082BD2F5F3F4F4F4F5F4FF89A80B5DB01CC
:10FAF0008D93BD012E153F054007510761F7C05E8C
:10FB0000DE4F288339834A835B83C052D1409601FC
:10FB10002D5F3F4FFB01108204C080EC8A8322E0FE
:10FB200030E08BE18093C6008091C00086FFFCCF5F
:10FB30008091C00080648093C000C15DDE4FF88179
:10FB4000CF52D140F093C6008091C00086FFFCCF19
:10FB50008091C00080648093C000432F3093C60022
:10FB60008091C00086FFFCCF8091C00080648093AC
:10FB7000C000922F2093C6008091C00086FFFCCF6A
:10FB80008091C00080648093C0008EE08093C600A6
:10FB90008091C00086FFFCCF8091C000806480937C
:10FBA000C00065E1C15DDE4FE880CF52D1406E25D7
:10FBB00069276427FE01319610C090819093C6009A
:10FBC0008091C00086FFFCCF31968091C000806498
:10FBD0008093C0006927215030402115310569F715
:10FBE0006093C6008091C00086FFFCCF8091C0006A
:10FBF00080648093C00085B1805885B9772081F4F6
:10FC0000C15DDE4F0881CF52D1400F5FC15DDE4F35
:10FC10000883CF52D14090E0A0E0B0E00D941AF4F8
:10FC200027982F9880E090E020ED37E0F901319798
:10FC3000F1F7019684369105C9F700008091C00064
:10FC40008D7F8093C00081E180935700E895EE2777
:10FC5000FF270994FFCF90E00D941AF497FB092E2B
:10FC600007260AD077FD04D02ED006D000201AF443
:10FC7000709561957F4F0895F6F7909581959F4F08
:10FC80000895A1E21A2EAA1BBB1BFD010DC0AA1FDD
:10FC9000BB1FEE1FFF1FA217B307E407F50720F0F5
:10FCA000A21BB30BE40BF50B661F771F881F991F70
:10FCB0001A9469F760957095809590959B01AC01B9
:10FCC000BD01CF010895AA1BBB1B51E107C0AA1FAC
:10FCD000BB1FA617B70710F0A61BB70B881F991FED
:10FCE0005A95A9F780959095BC01CD010895F99991
:10FCF000FECF92BD81BDF89A992780B50895262F31
:10FD0000F999FECF1FBA92BD81BD20BD0FB6F89400
:0EFD1000FA9AF99A0FBE01960895F894FFCF63
:040000033000E000E9
:00000001FF