:1000000072C000009EC000009CC000009AC00000AA
:1000100098C0000096C0000094C0000092C000008C
:1000200090C000008EC000008CC000008AC000009C
:1000300088C0000086C0000084C0000082C00000AC
:1000400080C000007EC000007CC000007AC00000BC
:1000500078C0000076C0000074C000001BC3000020
:1000600070C00000E1C20000B6C200006AC000001B
:1000700068C0000066C0000064C0000062C00000EC
:1000800060C000005EC000005CC000005AC00000FC
:1000900058C0000056C0000054C0000052C000000C
:1000A00050C000004EC000004CC000004AC000001C
:1000B00048C0000046C0000044C0000042C000002C
:1000C00040C000003EC000003CC000003AC000003C
:1000D00038C0000036C0000034C0000032C000004C
:1000E00030C00000940311241FBECFEFD1E2DEBF69
:1000F000CDBF00E00CBF22E0AEE2B2E001C01D9235
:10010000A43FB207E1F712E0A0E0B2E0E2E9F9E0D3
:1001100000E00BBF02C007900D92AE32B107D9F7D5
:1001200010E0C3E7D0E000E005C021970109802F6F
:10013000FE01F0D3C237D10780E00807B1F72BD317
:1001400026C45ECFCF92DF92EF92FF920F931F9360
:10015000CF93DF936C017A018B01C0E0D0E0CE1524
:10016000DF0589F0D8016D918D01D601ED91FC91EB
:100170000190F081E02DC6011995892B11F47E01C3
:1001800002C02196ECCFC701DF91CF911F910F9153
:10019000FF90EF90DF90CF900895FC01918D828DBC
:1001A000981761F0828DDF01A80FB11D5D968C91CB
:1001B000928D9F5F9F73928F90E008958FEF9FEFD6
:1001C0000895FC01918D828D981731F0828DE80F92
:1001D000F11D858D90E008958FEF9FEF0895FC014C
:1001E000918D228D892F90E0805C9F4F821B910919
:1001F0008F739927089587E392E0F1DF21E0892B3F
:1002000009F420E0822F0895FC01848DDF01A80FFE
:10021000B11DA35ABF4F2C91848D90E001968F732E
:100220009927848FA689B7892C93A089B1898C914D
:1002300080648C93938D848D981306C00288F38913
:10024000E02D80818F7D80830895EF92FF920F9340
:100250001F93CF93DF93EC0181E0888F9B8D8C8D72
:10026000981305C0E889F989808185FD23C0F62EA1
:100270000B8D10E00F5F1F4F0F731127E02E8C8D39
:10028000E8120BC00FB607FCFACFE889F989808124
:1002900085FFF5CFCE01B8DFF2CF8B8DFE01E80FE1
:1002A000F11DE35AFF4FF0820B8FEA89FB898081B1
:1002B000806207C0EE89FF896083E889F9898081BF
:1002C0008064808381E090E0DF91CF911F910F9156
:1002D000FF90EF900895CF93DF93EC01888D8823F2
:1002E000C1F0EA89FB89808185FD05C0A889B989AB
:1002F0008C9186FD0EC00FB607FCF5CF808185FF7F
:10030000F2CFA889B9898C9185FFEDCFCE017CDF32
:10031000E8CFDF91CF91089580E090E0892B19F02C
:100320006ADF811125C080E090E0892B41F080E0F8
:1003300090E0892B21F00E94000081111CC080E018
:1003400090E0892B41F080E090E0892B21F00E9421
:100350000000811113C080E090E0892BA1F080E0C3
:1003600090E0892B81F00E94000081110AC008955D
:100370000E940000D8CF0E940000E1CF0E94000040
:10038000EACF0C94000008953FB7F89480913302AF
:1003900090913402A0913502B091360226B5A89B07
:1003A00005C02F3F19F00196A11DB11D3FBFBA2F07
:1003B000A92F982F8827820F911DA11DB11DBC0167
:1003C000CD0142E0660F771F881F991F4A95D1F72C
:1003D00008958F929F92AF92BF92CF92DF92EF9249
:1003E000FF92D2DF4B015C0188EEC82E83E0D82E4D
:1003F000E12CF12CC9DFDC01CB0188199909AA098C
:10040000BB09883E9340A105B10558F021E0C21A0E
:10041000D108E108F10888EE880E83E0981EA11C3F
:10042000B11CC114D104E104F10421F7FF90EF9055
:10043000DF90CF90BF90AF909F908F9008952FB78F
:10044000F89440912F0250913002609131027091E6
:1004500032022FBF443F51406105710560F1FC013C
:100460008081863308F0865390917B00282F287076
:10047000977F922B90937B008770806480937C00A1
:1004800080917A00806480937A0080917A0086FD62
:10049000FCCFA091780080917900B0E0B82B24E6E1
:1004A00030E032D221E061157C4C810591050CF0E1
:1004B00020E0822F08950895009761F0FC010190DB
:1004C0000020E9F73197AF01481B590BBC0187E3C6
:1004D00092E038CE80E090E008958F929F92AF92A4
:1004E000BF92CF92DF92EF92FF920F931F93CF9321
:1004F000DF93CDB7DEB7A1970FB6F894DEBF0FBE7E
:10050000CDBF6C01990FEE08FF08F7FE2FC0E091F8
:100510003702F09138020190F081E02D6DE287E31F
:1005200092E019958C0122273327A9012C193D0946
:100530004E095F0919A2CE0181967C019AE0892EAD
:10054000912CA12CB12CCA01B901A5019401EED1C5
:10055000605DF70162937F01211531054105510569
:1005600091F7CF01A9DF080F191F1CC0A701960141
:1005700019A28E010F5D1F4F8AE0C82ED12CE12CED
:10058000F12CCA01B901A7019601D0D1605DF80133
:1005900062938F01211531054105510591F7CF0176
:1005A0008BDF8C0184E192E087DF800F911FA196A1
:1005B0000FB6F894DEBF0FBECDBFDF91CF911F9174
:1005C0000F91FF90EF90DF90CF90BF90AF909F90F2
:1005D0008F900895A7D11F920F920FB60F921124FA
:1005E0000BB60F922F933F934F935F936F937F932D
:1005F0008F939F93AF93BF93EF93FF9387E392E023
:1006000003DEFF91EF91BF91AF919F918F917F9109
:100610006F915F914F913F912F910F900BBE0F9073
:100620000FBE0F901F9018951F920F920FB60F924A
:1006300011240BB60F922F938F939F93EF93FF93F9
:10064000E0914702F09148028081E0914D02F091E3
:100650004E0282FD12C09081809150028F5F8F7395
:1006600020915102821751F0E0915002F0E0E95CD4
:10067000FD4F958F8093500201C08081FF91EF91D3
:100680009F918F912F910F900BBE0F900FBE0F90E7
:100690001F9018951F920F920FB60F9211242F934F
:1006A0003F938F939F93AF93BF9380912F0290912D
:1006B0003002A0913102B091320230912E0223E03B
:1006C000230F2D3720F40196A11DB11D05C026E88A
:1006D000230F0296A11DB11D20932E0280932F029D
:1006E00090933002A0933102B09332028091330292
:1006F00090913402A0913502B09136020196A11D6D
:10070000B11D8093330290933402A0933502B093CD
:100710003602BF91AF919F918F913F912F910F9092
:100720000FBE0F901F901895E7E3F2E0138212823C
:1007300088EE93E0A0E0B0E084839583A683B7833E
:1007400088E092E09183808385EC90E095878487B0
:1007500084EC90E09787868780EC90E0918B808B8B
:1007600081EC90E0938B828B82EC90E0958B848B74
:1007700086EC90E0978B868B118E128E138E148EE2
:100780001092E5021092E40281E090E09093D5028D
:100790008093D4020895789484B5826084BD84B532
:1007A000816084BD85B5826085BD85B5816085BD6C
:1007B00080916E00816080936E0010928100809124
:1007C00081008260809381008091810081608093AC
:1007D0008100809180008160809380008091B100D1
:1007E00084608093B1008091B00081608093B000FC
:1007F000809191008260809391008091910081604E
:10080000809391008091900081608093900080910E
:10081000A10082608093A1008091A10081608093FB
:10082000A1008091A00081608093A00080912101AF
:100830008260809321018091210181608093210158
:100840008091200181608093200180917A008460F2
:1008500080937A0080917A00826080937A00809100
:100860007A00816080937A0080917A00806880931A
:100870007A001092C100E0914702F091480282E0B4
:100880008083E0914302F09144021082E09145029E
:10089000F09146028FEC808310924F02E0914B0260
:1008A000F0914C0286E08083E0914902F0914A0287
:1008B000808180618083E0914902F0914A028081C9
:1008C00088608083E0914902F0914A0280818068CB
:1008D0008083E0914902F0914A0280818F7D80837C
:1008E00087E192E0E9DD84EE92E0A9DD90E0F5DDBC
:1008F00070DD82E292E0E0DD84ED92E0A0DD90E048
:10090000ECDD67DD09DDECCF33D0B7FF0895821B46
:10091000930B0895EE0FFF1F881F8BBF0790F69172
:10092000E02D199481E090E0F89431C0A1E21A2EF4
:10093000AA1BBB1BFD010DC0AA1FBB1FEE1FFF1F83
:10094000A217B307E407F50720F0A21BB30BE40BD3
:10095000F50B661F771F881F991F1A9469F760951A
:100960007095809590959B01AC01BD01CF010895D4
:10097000A29FB001B39FC001A39F700D811D1124E0
:10098000911DB29F700D811D1124911D0895F89441
:02099000FFCF97
:1009920001000000000000002501A200EF00CD00D0
:1009A200E1006B010D0A0053656E736F7231203DD9
:0E09B200200053656E736F7232203D200000EE
:00000001FF
