:1000000007C1000036C1000034C1000032C1000049
:1000100030C100002EC100002CC100002AC1000028
:1000200028C1000026C1000024C1000022C1000038
:1000300020C100001EC100001CC100001AC1000048
:1000400018C100000C94480814C1000012C100003F
:1000500010C100000EC100000CC1000004C7000068
:1000600008C10000CAC600009FC6000002C100000F
:1000700000C10000FEC00000FCC00000FAC000008B
:10008000DAC70000F6C00000F4C00000F2C00000B3
:10009000F0C00000EEC00000ECC000000C94750839
:1000A000E8C00000E6C0000099C70000E2C0000000
:1000B000E0C00000DEC00000DCC0000062C700003D
:1000C000D8C00000D6C00000D4C00000D2C00000DC
:1000D000D0C00000CEC00000CCC00000CAC00000EC
:1000E000C8C0000060026302520256025A029A021D
:1000F00067026B027102750279027F028302870236
:100100009A028D029102950200002100240027002E
:100110002A002D0030003300010100000401070116
:100120000A0100002200250028002B002E003100CB
:10013000340002010000050108010B010505050559
:10014000070508080808020202020A0A080804044F
:10015000040401010101010101010303030303037D
:100160000303040707070C0C0C0C0C0C0C0C02020C
:10017000020206060606060606060B0B0B0B0B0B09
:100180000B0B010210202008081020401020408096
:10019000020102010804020101020408102040804B
:1001A00080402010080402018004020180402010D9
:1001B0000804020108040201010204081020408022
:1001C000010204081020408000000A0B02090C0DF7
:1001D0000E080703040100000000000000000000FA
:1001E000000000000000000000000000000000000F
:1001F00000000000121110000000000000000000CC
:100200000000000000000000000000000000790D68
:1002100011241FBECFEFD1E2DEBFCDBF00E00CBF87
:1002200024E0ACE3B2E001C01D92AA3DB207E1F7C1
:1002300012E0A0E0B2E0E6EEF2E200E00BBF02C0A6
:1002400007900D92AC33B107D9F711E0C8E0D1E0C7
:1002500000E006C021970109802FFE010E94BD0E1B
:10026000C730D10780E00807A9F70E94E70A0C947D
:100270007111C6CEFC01918D828D981761F0828D2F
:10028000DF01A80FB11D5D968C91928D9F5F9F73CA
:10029000928F90E008958FEF9FEF0895FC01918D6C
:1002A000828D981731F0828DE80FF11D858D90E0D9
:1002B00008958FEF9FEF0895FC01918D228D892F76
:1002C00090E0805C9F4F821B91098F73992708955E
:1002D0008FEF92E0F1DF21E0892B09F420E0822FFB
:1002E0000895FC01848DDF01A80FB11DA35ABF4FF3
:1002F0002C91848D90E001968F739927848FA68925
:10030000B7892C93A089B1898C9180648C93938D4B
:10031000848D981306C00288F389E02D80818F7D3B
:1003200080830895EF92FF920F931F93CF93DF93F3
:10033000EC0181E0888F9B8D8C8D981305C0E88936
:10034000F989808185FD23C0F62E0B8D10E00F5FAB
:100350001F4F0F731127E02E8C8DE8120BC00FB6C4
:1003600007FCFACFE889F989808185FFF5CFCE01B6
:10037000B8DFF2CF8B8DFE01E80FF11DE35AFF4F7E
:10038000F0820B8FEA89FB898081806207C0EE8949
:10039000FF896083E889F98980818064808381E0B6
:1003A00090E0DF91CF911F910F91FF90EF90089512
:1003B000CF93DF93EC01888D8823C1F0EA89FB8914
:1003C000808185FD05C0A889B9898C9186FD0EC004
:1003D0000FB607FCF5CF808185FFF2CFA889B989D8
:1003E0008C9185FFEDCFCE017CDFE8CFDF91CF91FF
:1003F000089580E090E0892B19F06ADF811125C013
:1004000080E090E0892B41F080E090E0892B21F0A2
:100410000E94000081111CC080E090E0892B41F017
:1004200080E090E0892B21F00E940000811113C030
:1004300080E090E0892BA1F080E090E0892B81F0B2
:100440000E94000081110AC008950E940000D8CFC8
:100450000E940000E1CF0E940000EACF0C9400004F
:100460000895362F90E0FC01E853FE4F4491FC01C3
:10047000EE57FE4F2491FC01E45CFE4F94919923CA
:1004800009F46BC0442309F455C050E0FA013197D8
:10049000E231F10508F04EC08827EE58FF4F8F4F2C
:1004A0000C94BD0E809180008F7707C080918000F2
:1004B0008F7D03C080918000877F809380003AC049
:1004C00084B58F7702C084B58F7D84BD33C08091A1
:1004D000B0008F7703C08091B0008F7D8093B00013
:1004E00029C0809190008F7707C0809190008F7D08
:1004F00003C080919000877F809390001BC0809103
:10050000A0008F7707C08091A0008F7D03C08091ED
:10051000A000877F8093A0000DC0809120018F777D
:1005200007C0809120018F7D03C080912001877FCB
:1005300080932001E92FF0E0EE0FFF1FEE5DFE4FEC
:10054000A591B4918FB7F894EC91311103C0209527
:100550002E2301C02E2B2C938FBF08953FB7F89404
:100560008091880290918902A0918A02B0918B02B9
:1005700026B5A89B05C02F3F19F00196A11DB11DFE
:100580003FBFBA2FA92F982F8827820F911DA11D39
:10059000B11DBC01CD0142E0660F771F881F991F76
:1005A0004A95D1F70895CF93DF93EC01613079F04C
:1005B00048F06230B9F0633019F561E08B8151DFAA
:1005C00060E014C061E08B814CDF60E004C060E05B
:1005D0008B8147DF61E08C8144DF61E08D8141DF09
:1005E00060E00AC060E08B813CDF61E08C8139DF34
:1005F00060E08D8136DF61E08E81DF91CF9131CF78
:10060000DF91CF910895CF93DF93EC01613049F0F2
:1006100030F0623059F0633089F460E008C060E087
:1006200001C061E08B811DDF61E004C061E08B816E
:1006300018DF60E08C81DF91CF9113CFDF91CF91F4
:1006400008951F93CF93DF93EC0111E020E030E099
:10065000A9016F85788989899A890E947410181672
:100660000CF010E0612F8C81FCDE61E08B81F9DE03
:1006700060E08B81DF91CF911F91F3CECF93DF9319
:10068000EC0120E030E0A9016F85788989899A8999
:100690000E94741018161CF4EBA1FCA102C0EDA17D
:1006A000FEA1DF91CF911994DC0112962C9121309B
:1006B00069F028F0223089F02430B1F00895DC018F
:1006C000ED91FC910280F381E02D1994DC01ED9114
:1006D000FC910480F581E02D0DC0DC01ED91FC91D1
:1006E0000680F781E02D06C0DC01ED91FC910084CD
:1006F000F185E02D1994CF93DF93DC018C91803349
:1007000008F06DC09B013327F901EE57FE4F84912D
:10071000F901E45CFE4F2491222399F030E0220F8E
:10072000331FF901E85FFE4FC591D491F901EE5DE9
:10073000FE4F259134919FB7F894E881E82BE88328
:100740009FBF8C91E82FF0E09F01220F331FE20F33
:10075000F31FE855FC4F6F739081907C692B608389
:1007600011961C92119712961C9212976CE00E949F
:10077000B10E9CE0899FB001112440E050E09A0145
:10078000260F371FF901EE0FFF1F2E0F3F1FF90134
:10079000E855FC4F908196FD16C04F5F5F4F4C307F
:1007A000510569F78130F9F41092800082E080935E
:1007B00081001092850010928400B19A80916F00A0
:1007C000826080936F00EC91F0E0CF01880F991F59
:1007D000E80FF91FE855FC4F8081806480838C917D
:1007E000DF91CF910895823061F410929000809350
:1007F0009100109295001092940088BB8093710034
:10080000E2CF833069F41092A00082E08093A100CF
:100810001092A5001092A40089BB80937200D3CFE0
:100820008111D1CF1092200182E08093210110929A
:100830002501109224018ABB80937300C4CFCF920C
:10084000DF92EF92FF920F931F93CF93DF936C0190
:100850008B017A01EC01CD57DD4F888187FF04C001
:10086000FB011182108224C08CE08C9D90018D9D33
:10087000300D11248881A901480F511D87FD5A951B
:100880008091380490E04817590794F48881A901B1
:10089000480F511D87FD5A95CA01FA01EE0FFF1F3F
:1008A0008E0F9F1FFC01E855FC4F808186FD19C00B
:1008B00088818F5F88838CE08C9D90018D9D300DA9
:1008C00011248881A901480F511D87FD5A958091F7
:1008D000380490E048175907B4F488818C303CF113
:1008E00012C08881280F311D87FD3A95F901EE0F5E
:1008F000FF1F2E0F3F1FF901E855FC4F808160E07C
:100900008F73AFDDD5CFF80180819181049680345B
:100910009C4918F480E49CE904C0F801808191812D
:100920000496F701918380838FEF888344C0F80198
:10093000408151818881B901680F711D87FD7A95C9
:10094000CB01FB01EE0FFF1F8E0F9F1FFC01E8552F
:10095000FC4F81819281840F951FF70191838083E1
:100960008881A901480F511D87FD5A95CA01FA01D6
:10097000EE0FFF1F8E0F9F1FFC01E855FC4F80817B
:1009800086FF19C08881280F311D87FD3A95F9012E
:10099000EE0FFF1F2E0F3F1FF901E855FC4F80811E
:1009A00061E08F73DF91CF911F910F91FF90EF90D6
:1009B000DF90CF9056CDDF91CF911F910F91FF9097
:1009C000EF90DF90CF90089585ED8093BC008091EB
:1009D000BC0084FDFCCF1092DA02089540915E02C3
:1009E000262F30E0240F311D21323105DCF4209117
:1009F000DA022430C9F4FC0180E090E0861758F454
:100A000030915E022191DC01A45CBD4FA30FB11DAA
:100A10002C930196F3CF80915E02680F60935E0283
:100A200080E0089581E0089582E008951092DA024E
:100A300081E08093D9021092B40261E084E111DD7B
:100A400061E085E10EDDE9EBF0E080818E7F80835F
:100A500080818D7F808388E48093B80085E48093D3
:100A6000BC0008950895E091AD028091AC02E817B2
:100A700030F4F0E0E457FD4F808190E008958FEF6F
:100A80009FEF08959091AD028091AC02981750F4B9
:100A9000E92FF0E0E457FD4F208130E09F5F909315
:100AA000AD0202C02FEF3FEFC90108958091AC0263
:100AB00090E02091AD02821B91090895CF92DF92C0
:100AC000EF92FF920F931F93CF93DF937C01262F1A
:100AD000972F8A018091DB02882391F0C62FD72FB0
:100AE0006E01C40ED51ECC15DD0569F06991D701E4
:100AF000ED91FC910190F081E02DC7011995F3CFA4
:100B0000642F822F6BDFC801DF91CF911F910F916E
:100B1000FF90EF90DF90CF900895CF93DF931F92D7
:100B2000CDB7DEB769832091DB022223D1F020917B
:100B3000FE02203240F021E030E0FC0133832283CA
:100B400080E090E014C08091DC02E82FF0E0E352F6
:100B5000FD4F998190838F5F8093DC028093FE022A
:100B600004C061E0CE01019639DF81E090E00F9092
:100B7000DF91CF9108950E9432118F929F92AF9290
:100B8000BF92CF92DF92EF92FF920F931F93CF937A
:100B9000DF93EC018B859C85AD85BE850F81188523
:100BA00029853A85BC01CD01601B710B820B930B2B
:100BB00009F4D0C08AF00E94C40F9B01AC010E94CE
:100BC000C60E2F89388D498D5A8D0E9478100E944B
:100BD000DF106B017C011BC090958095709561952D
:100BE0007F4F8F4F9F4F0E94C40F9B01AC010E940B
:100BF000C60E2F89388D498D5A8D0E9478100E941B
:100C0000DF106B017C01F7FAF094F7F8F0948F8411
:100C10009888A988BA88A5019401C701B6010E94E5
:100C2000741018160CF043C020E030E0A901C50193
:100C3000B4010E942A0F81110BC06F89788D898DB4
:100C40009A8D9B01AC010E94C60E0E94DF101BC052
:100C5000A50194016F89788D898D9A8D0E942E0F40
:100C60006B017C0120E030E0A9010E94741018168D
:100C700024F0F7FAF094F7F8F094A7019601C50173
:100C8000B4010E94C60E7B018C01BB88CC88DD8834
:100C9000CE892B2D3C2D4D2D5C2F0E9474101816E3
:100CA0000CF05DC03B2D7C2D8D2D9C2F5FC0A501D0
:100CB0009401C701B6010E942A0F87FF54C020E0AB
:100CC00030E0A901C501B4010E942A0F811111C0B1
:100CD0006F89788D898D9A8D9B01AC010E94C60E1B
:100CE0000E94DF106B017C01F7FAF094F7F8F094A2
:100CF0001DC0A50194016F89788D898D9A8D0E9400
:100D00002E0F6B017C0120E030E0A9010E947410DD
:100D1000181624F0F7FAF094F7F8F094A70196016A
:100D2000C501B4010E94C50E6B017C018B889C88B3
:100D3000AD88BE88B7FAB094B7F8B094A501940115
:100D4000C701B6010E942A0F87FF0DC0382D792DEB
:100D5000C5010CC030E070E080E090E007C03E2D9F
:100D60007F2DC80103C03C2D7D2DC701C32ED72E7A
:100D70007C01C701B601DF91CF911F910F91FF90C8
:100D8000EF90DF90CF90BF90AF909F908F9008959D
:100D900062E0809178049091790464C361E080916D
:100DA0007804909179045EC31F920F920FB60F9250
:100DB00011240BB60F922F933F934F935F936F9332
:100DC0007F938F939F93AF93BF93EF93FF938FEF97
:100DD00092E087DAFF91EF91BF91AF919F918F9150
:100DE0007F916F915F914F913F912F910F900BBE2B
:100DF0000F900FBE0F901F9018951F920F920FB675
:100E00000F9211240BB60F922F938F939F93EF9312
:100E1000FF93E0910F03F09110038081E09115039F
:100E2000F091160382FD12C09081809118038F5FAC
:100E30008F7320911903821751F0E0911803F0E0AD
:100E4000E150FD4F958F8093180301C08081FF9181
:100E5000EF919F918F912F910F900BBE0F900FBE2E
:100E60000F901F9018951F920F920FB60F9211249A
:100E70002F933F938F939F93AF93BF938091B00233
:100E80009091B102A091B202B091B3023091870269
:100E900023E0230F2D3720F40196A11DB11D05C0BD
:100EA00026E8230F0296A11DB11D2093870280938F
:100EB000B0029093B102A093B202B093B3028091BA
:100EC000880290918902A0918A02B0918B020196CA
:100ED000A11DB11D8093880290938902A0938A027C
:100EE000B0938B02BF91AF919F918F913F912F91C2
:100EF0000F900FBE0F901F9018950F931F93CF93D5
:100F0000DF931F921F92CDB7DEB7152F032FFC0181
:100F1000808191E09093DB028093FD021092DC02CD
:100F20001092FE02F4E06F9FB00111246A5F7F4FC0
:100F30008CE993E02A834983F0DD4981842F912F46
:100F40008DD2812F90E08AD22A81822F902F86D253
:100F5000802F90E083D281E00F900F90DF91CF91AE
:100F60001F910F911EC29A01CB96211540E13407C3
:100F700028F020E030E040E050E102C040E050E0E6
:100F8000BCCF1F920F920FB60F9211240BB60F9287
:100F90002F933F934F935F936F937F938F939F9381
:100FA000AF93BF93EF93FF9348E251E064E271E0A7
:100FB00080E090E044DCFF91EF91BF91AF919F9171
:100FC0008F917F916F915F914F913F912F910F90F2
:100FD0000BBE0F900FBE0F901F9018951F920F928F
:100FE0000FB60F9211240BB60F922F933F934F938E
:100FF0005F936F937F938F939F93AF93BF93EF9381
:10100000FF9348EA50E064EA70E083E090E017DC88
:10101000FF91EF91BF91AF919F918F917F916F91D0
:101020005F914F913F912F910F900BBE0F900FBE8C
:101030000F901F9018951F920F920FB60F921124C8
:101040000BB60F922F933F934F935F936F937F93C2
:101050008F939F93AF93BF93EF93FF9348E950E033
:1010600064E970E082E090E0EADBFF91EF91BF91EC
:10107000AF919F918F917F916F915F914F913F9130
:101080002F910F900BBE0F900FBE0F901F901895D1
:101090001F920F920FB60F9211240BB60F922F933F
:1010A0003F934F935F936F937F938F939F93AF93F0
:1010B000BF93EF93FF9348E850E064E870E081E06D
:1010C00090E0BDDBFF91EF91BF91AF919F918F9128
:1010D0007F916F915F914F913F912F910F900BBE38
:1010E0000F900FBE0F901F9018951F920F920FB682
:1010F0000F9211240BB60F922F933F934F935F9350
:101100006F937F938F939F93AF93BF93EF93FF93CF
:101110008091B900887F803609F49CC068F58832D8
:1011200009F45BC090F4803109F454C038F488238A
:1011300009F4F6C0883009F44DC0F5C0883109F4CF
:101140004CC0803209F45DC0EEC0803409F468C040
:1011500048F4803309F455C0883309F0E4C0809323
:10116000D802D8C0803509F44FC0883509F45DC075
:10117000883409F0D8C0D6C0883909F4C7C0A8F4AB
:10118000883709F467C038F4883609F463C08037BB
:1011900009F460C0C8C0883809F4B8C0803909F4BF
:1011A0005FC0803809F0BFC05BC0803B09F486C0D7
:1011B00038F4803A09F466C0883A09F47FC0B3C0B5
:1011C000803C09F4A7C0883C09F4A4C0883B09F41A
:1011D0008AC0A9C08091B50210C09091D7028091B9
:1011E000D602981770F5E091D70281E08E0F8093B8
:1011F000D702F0E0EA54FD4F80818093BB0085EC7C
:1012000086C08093D8028EC0E091D70281E08E0F15
:101210008093D7028091BB00F0E0EA54FD4F8083B9
:101220009091D7028091D6026EC0E091D70281E002
:101230008E0F8093D7028091BB00F0E0EA54FD4FFF
:1012400080838091D90281116DC081E08093B402C6
:1012500084EA61C083E08093DA0210928202CFCFE9
:1012600080918202803208F051C0E091820281E0D8
:101270008E0F809382028091BB00F0E0EE59FD4F0B
:101280008083BDCF85EC8093BC001092DA02809100
:101290008202803230F4E0918202F0E0EE59FD4F9C
:1012A00010826091820270E0E0916002F091610230
:1012B00082E692E019951092820235C084E0809314
:1012C000DA0210925F0210925E02E0915C02F091ED
:1012D0005D02199580915E02811105C081E08093C5
:1012E0005E0210923C02E0915F0281E08E0F8093DB
:1012F0005F02F0E0E45CFD4F80818093BB00909141
:101300005F0280915E02981708F479CF85E8809398
:10131000BC0009C085EC8093BC001092DA0203C0C7
:101320001092D80251DBFF91EF91BF91AF919F9145
:101330008F917F916F915F914F913F912F910F907E
:101340000BBE0F900FBE0F901F901895CF92DF929B
:10135000EF92FF920F931F93CF93DF936C017A016B
:101360008B01C0E0D0E0CE15DF0589F0D8016D918A
:101370008D01D601ED91FC910190F081E02DC60127
:101380001995892B11F47E0102C02196ECCFC7017B
:10139000DF91CF911F910F91FF90EF90DF90CF9051
:1013A0000895382F2091FE029091FD02213208F01D
:1013B00049C08091DA028111FCCF42E04093DA0209
:1013C0003093D9023FEF3093D8021092D702209386
:1013D000D602ADEDB2E046EB52E0FA013E2F341BEF
:1013E000321718F43D913193F9CF1092B502209144
:1013F000B502990F922B9093B5029091B40291305F
:1014000061F41092B4029091B5029093BB00909158
:10141000BC0093FDF8CF95EC01C095EE9093BC0015
:101420009091DA029230E1F39091D8029F3F79F0E7
:101430008091D802803241F08091D802803331F01F
:1014400084E005C081E003C082E001C083E0109227
:10145000DC021092FE021092DB020895682F8CE9E4
:1014600093E05BCB1F93CF93DF93EC018C8583FFDD
:1014700006C0613011F4885F07C0885005C0613034
:1014800011F4805F01C080518C878C858F738C87AD
:1014900040EF5FE06C818D859E8565DD40EF5FE00C
:1014A0006F818D859E855FDDEC85E695E695E695F9
:1014B000E83028F4F0E0EC5FFD4F108101C010E04F
:1014C0008D859E8520E030E010FF03C040E050E1B4
:1014D00002C040E050E06E81CB960FDD8D859E8589
:1014E00020E030E011FF03C040E050E102C040E0E6
:1014F00050E06885CB9601DD8D859E8520E030E04B
:1015000012FF03C040E050E102C040E050E06D81B6
:10151000CB96F3DC8D859E8520E030E013FF03C081
:1015200040E050E102C040E050E06985CB96E5DC48
:101530008C85DF91CF911F910895CF92DF92EF922A
:10154000FF9281E594E019DB9B01AC01609360049C
:1015500070936104809362049093630460E070E090
:101560008AE794E47BD46B017C0120E030E0A901A0
:10157000BBD518161CF4C701B60103C0C701B601DC
:101580009058D4D460936C0470936D0480936E046F
:1015900090936F04FF90EF90DF90CF900895CF93DA
:1015A000C62F9091B50421E02093DB029093FD02B9
:1015B0001092DC021092FE02682F8CE993E0ADDA03
:1015C0006C2F8CE993E0A9DA81E0CF91EACE789490
:1015D00084B5826084BD84B5816084BD85B5826038
:1015E00085BD85B5816085BD80916E0081608093E9
:1015F0006E00109281008091810082608093810052
:101600008091810081608093810080918000816061
:10161000809380008091B10084608093B1008091BC
:10162000B00081608093B0008091910082608093CF
:101630009100809191008160809391008091900051
:101640008160809390008091A10082608093A100CE
:101650008091A10081608093A1008091A0008160B1
:101660008093A0008091210182608093210180916C
:10167000210181608093210180912001816080930C
:10168000200180917A00846080937A0080917A00B2
:10169000826080937A0080917A00816080937A00E2
:1016A00080917A00806880937A001092C100E09166
:1016B0000F03F091100382E08083E0910B03F0911F
:1016C0000C031082E0910D03F0910E038FEC8083E8
:1016D00010921703E0911303F091140386E08083C6
:1016E000E0911103F0911203808180618083E09189
:1016F0001103F0911203808188608083E0911103CF
:10170000F0911203808180688083E0911103F09151
:10171000120380818F7D80831092AD021092AC0203
:101720001092DC021092FE0281D91092DC0210921B
:10173000FE027CD960E080E032DF80E496E09093A6
:101740007C0480937B048091B50491E09093DB024C
:101750008093FD021092DC021092FE0260E08CE9A0
:1017600093E0DBD981E01DDE8091B5049091DA022F
:101770009111FCCF91E09093DA029093D9022FEF70
:101780002093D8021092D7021092D6029093B502FD
:101790009091B502880F892B8093B5028091B40295
:1017A000813061F41092B4028091B5028093BB0045
:1017B0008091BC0083FDF8CF85EC01C085EE80935D
:1017C000BC008091DA028130E1F38091D70281116F
:1017D00003C08091D70201C081E0A6EBB2E02CE803
:1017E00032E0F9019E2F921B981718F49D91919366
:1017F000F9CF1092AD028093AC028CE993E042D90C
:10180000C82F682F6F76606180E0C9DE63E08EEFDD
:10181000C6DE6C2F80E0C3DE0E94AE024B015C018D
:10182000F5E0CF2ED12CE12CF12C0E94AE02DC0190
:10183000CB0188199909AA09BB09883E9340A105E3
:10184000B10558F021E0C21AD108E108F10888EE8C
:10185000880E83E0981EA11CB11CC114D104E104C0
:10186000F10419F76C2F616A80E099DEC0E020E096
:1018700030E040E050E06C2F85EB94E03EDBCF5F42
:10188000C031A9F780E090E0A8E4B3E48093640459
:1018900090936504A0936604B09367044EDE80E0E5
:1018A00090E0A8ECB2E48093680490936904A0935C
:1018B0006A04B0936B0441DE62E070E08CE394E074
:1018C0000E947B0363E070E089E394E00E947B0365
:1018D0001092AF021092AE02EAE04E2E512C612C13
:1018E000712CC8E8D0E02FB7F8948091B0029091A5
:1018F000B102A091B202B091B3022FBF4497A105EB
:10190000B10508F445C02AE030E040E050E0BA01FB
:1019100080913F04863308F0865390917B00E82F36
:10192000E870977F9E2B90937B00877080648093F4
:101930007C0080917A00806480937A0080917A00A4
:1019400086FDFCCF80917800E091790090E09E2B9D
:10195000092E000CAA0BBB0B480F591F6A1F7B1FD7
:1019600021503109A9F6CB01BA01A301920188D413
:10197000A4E6B0E07BD4DC01CB017AE0B595A79575
:10198000979587957A95D1F7C3972CF010E087C08B
:10199000112309F484C080E090E0A8E4B3E48093CC
:1019A000600490936104A0936204B093630485E0A3
:1019B00090E0A0E0B0E080936C0490936D04A0935D
:1019C0006E04B0936F048FB7F894C090B002D090BB
:1019D000B102E090B202F090B3028FBF40916C046C
:1019E00050916D0460916E0470916F048091700449
:1019F00090917104A0917204B0917304840F951FAB
:101A0000A61FB71F8C159D05AE05BF0508F046C083
:101A10008090600490906104A0906204B090630490
:101A200020E030E0A901C501B4015ED3181664F4CA
:101A30008091580490915904A0915A04B0915B048C
:101A40000196A11DB11D13C020E030E0A901C50120
:101A5000B40100D287FF13C08091580490915904BB
:101A6000A0915A04B0915B040197A109B109809338
:101A7000580490935904A0935A04B0935B04609166
:101A80005804637081E594E00E945403C09270048E
:101A9000D0927104E0927204F092730411E080918C
:101AA0003904803318F590913A049E01291B3109BD
:101AB00097FD3395220F331F220F331F2E3893E0EB
:101AC000390714F42EE833E022503109220F331F76
:101AD0004FB7F89490E0FC01EE0FFF1F8E0F9F1F91
:101AE000FC01E855FC4F328321834FBF0E94F9016E
:101AF000FACE109202031092010388EE93E0A0E068
:101B0000B0E08093030390930403A0930503B09384
:101B1000060320E132E0309300032093FF0225EC1E
:101B200030E030930C0320930B0324EC30E030932F
:101B30000E0320930D0320EC30E03093100320932C
:101B40000F0321EC30E0309312032093110322ECB9
:101B500030E0309314032093130326EC30E03093ED
:101B60001603209315031092180310921903109274
:101B70001A0310921B0310929F0310929E038093EE
:101B8000A0039093A103A093A203B093A30380E2C8
:101B900092E090939D0380939C03EFE7F4E0128220
:101BA000118213821082DF0111971C9211971C92EF
:101BB000369684E0E739F80791F71092A104109265
:101BC000A4041092B1041092B4041092B0041092C4
:101BD000AF0480E680937A048093B50488EC90E0AB
:101BE0009093A00480939F048AE794E09093A304C9
:101BF0008093A20488E0809399048DE080939C04F4
:101C00008AE080939A0489E080939B048BE0809320
:101C10009D048CE080939E0485E994E09093790480
:101C20008093780480E392E090935204809351046F
:101C300010925304109258041092590410925A04AE
:101C400010925B0410925C0410925D0410925E048A
:101C500010925F041092600410926104109262046A
:101C60001092630480E090E0A0E8BFE380936404F6
:101C700090936504A0936604B0936704809368040E
:101C800090936904A0936A04B0936B0410926C045F
:101C900010926D0410926E0410926F0410927004F2
:101CA00010927104109272041092730410925404F2
:101CB0001092550410925604109257048EEC96E040
:101CC000909375048093740488EC96E09093770465
:101CD000809376041092400410923F0481E090E0DB
:101CE0009093C9048093C80482E090E09093B70475
:101CF0008093B604809138048033A0F491E0980F6B
:101D00009093380480933C0490E0FC01EE0FFF1F99
:101D10008E0F9F1FFC01E855FC4F88EB9BE09283E0
:101D2000818303C08FEF80933C048091380480331B
:101D3000A0F491E0980F909338048093390490E0D8
:101D4000FC01EE0FFF1F8E0F9F1FFC01E855FC4F9B
:101D500088EB9BE09283818308958FEF8093390411
:101D60000895991B79E004C0991F961708F0961BF7
:101D7000881F7A95C9F780950895EE0FFF1F881F79
:101D80008BBF0790F691E02D19945058BB27AA27D6
:101D90000ED070C161D130F066D120F031F49F3F98
:101DA00011F41EF456C10EF4E095E7FB4CC1E92F87
:101DB00072D180F3BA17620773078407950718F08A
:101DC00071F49EF58AC10EF4E0950B2EBA2FA02D6A
:101DD0000B01B90190010C01CA01A0011124FF27D8
:101DE000591B99F0593F50F4503E68F11A16F040D3
:101DF000A22F232F342F4427585FF3CF46953795D2
:101E00002795A795F0405395C9F77EF41F16BA0B96
:101E1000620B730B840BBAF09150A1F0FF0FBB1F44
:101E2000661F771F881FC2F70EC0BA0F621F731F8D
:101E3000841F48F4879577956795B795F7959E3FEA
:101E400008F0B3CF9395880F08F09927EE0F979578
:101E500087950895D4D008F481E008950CD00AC184
:101E600002D140F0F9D030F021F45F3F19F0EBC01F
:101E7000511134C1EEC00FD198F39923C9F3552302
:101E8000B1F3951B550BBB27AA276217730784076D
:101E900038F09F5F5F4F220F331F441FAA1FA9F323
:101EA00033D00E2E3AF0E0E830D091505040E69515
:101EB000001CCAF729D0FE2F27D0660F771F881F76
:101EC000BB1F261737074807AB07B0E809F0BB0B65
:101ED000802DBF01FF2793585F4F2AF09E3F510589
:101EE00068F0B1C0FBC05F3FECF3983EDCF3869531
:101EF00077956795B795F7959F5FC9F7880F911DFF
:101F00009695879597F90895E1E0660F771F881FEA
:101F1000BB1F621773078407BA0720F0621B730B9D
:101F2000840BBA0BEE1F88F7E0950895BCD088F0BB
:101F30009F5790F0B92F9927B751A0F0D1F0660FB5
:101F4000771F881F991F1AF0BA95C9F712C0B130D0
:101F500081F0C3D0B1E00895C0C0672F782F8827E3
:101F6000B85F39F0B93FCCF3869577956795B3950F
:101F7000D9F73EF490958095709561957F4F8F4F7E
:101F80009F4F0895E89409C097FB3EF49095809583
:101F9000709561957F4F8F4F9F4F9923A9F0F92F2F
:101FA00096E9BB279395F695879577956795B795AD
:101FB000F111F8CFFAF4BB0F11F460FF1BC06F5F93
:101FC0007F4F8F4F9F4F16C0882311F096E911C0A5
:101FD000772321F09EE8872F762F05C0662371F0C6
:101FE00096E8862F70E060E02AF09A95660F771FDA
:101FF000881FDAF7880F9695879597F90895990FB6
:102000000008550FAA0BE0E8FEEF16161706E807C2
:10201000F907C0F012161306E407F50798F0621BE3
:10202000730B840B950B39F40A2661F0232B242BB8
:10203000252B21F408950A2609F4A140A6958FEFD7
:10204000811D811D089597F99F6780E870E060E029
:1020500008959FEF80EC089500240A941616170641
:1020600018060906089500240A9412161306140689
:1020700005060895092E0394000C11F4882352F0EC
:10208000BB0F40F4BF2B11F460FF04C06F5F7F4FA4
:102090008F4F9F4F089557FD9058440F551F59F08B
:1020A0005F3F71F04795880F97FB991F61F09F3F45
:1020B00079F087950895121613061406551FF2CF6E
:1020C0004695F1DF08C0161617061806991FF1CFBE
:1020D00086957105610508940895E894BB276627E5
:1020E0007727CB0197F908958ADF08F48FEF0895D9
:1020F0000BD0C0CFB1DF28F0B6DF18F0952309F080
:10210000A2CFA7CF1124EACFC6DFA0F3959FD1F3CA
:10211000950F50E0551F629FF001729FBB27F00D95
:10212000B11D639FAA27F00DB11DAA1F649F6627EA
:10213000B00DA11D661F829F2227B00DA11D621F39
:10214000739FB00DA11D621F839FA00D611D221FF3
:10215000749F3327A00D611D231F849F600D211DD7
:10216000822F762F6A2F11249F5750408AF0E1F07A
:1021700088234AF0EE0FFF1FBB1F661F771F881FC3
:1021800091505040A9F79E3F510570F05CCFA6CF0B
:102190005F3FECF3983EDCF3869577956795B795AE
:1021A000F795E7959F5FC1F7FE2B880F911D9695D8
:1021B000879597F9089511F40EF44BCF3EC073DF65
:1021C000D0F39923D9F3CEF39F57550B87FF43D014
:1021D0000024A0E640EA900180585695979528F48F
:1021E000805C660F771F881F20F026173707480787
:1021F00030F4621B730B840B202931294A2BA695DE
:1022000017940794202531254A2758F7660F771F22
:10221000881F20F026173707480730F4620B730B2E
:10222000840B200D311D411DA09581F7B901842F2C
:102230009158880F9695879508959F3F31F091505A
:1022400020F4879577956795B795880F911D96959A
:10225000879597F9089591505040660F771F881F12
:10226000D2F7089581E090E0F8943BC02BD0A59F71
:10227000900DB49F900DA49F800D911D1124089581
:10228000A1E21A2EAA1BBB1BFD010DC0AA1FBB1F7A
:10229000EE1FFF1FA217B307E407F50720F0A21BEC
:1022A000B30BE40BF50B661F771F881F991F1A9459
:1022B00069F760957095809590959B01AC01BD0183
:1022C000CF010895A29FB001B39FC001A39F700DDD
:1022D000811D1124911DB29F700D811D1124911D2E
:0622E0000895F894FFCF01
:1022E6000100000001030206040C080900000000BA
:1022F6009201A6095C013A014E01D80100000000D6
:102306008D055E05560542053305320500000000C1
:0C23160054033E0321030303D302BD0562
:00000001FF
