:10000000FAC0000029C1000027C1000025C100007E
:1000100023C1000021C100001FC100001DC100005C
:100020001BC1000019C1000017C1000015C100006C
:1000300013C1000011C100000FC100000DC100007C
:100040000BC1000009C1000007C1000005C100008C
:1000500003C1000001C10000FFC0000081C6000014
:10006000FBC0000022C60000F7C50000F5C000007C
:10007000F3C00000F1C00000EFC00000EDC00000C0
:10008000EBC00000E9C00000E7C00000E5C00000D0
:10009000E3C00000E1C00000DFC0000021C7000095
:1000A000DBC00000D9C00000D7C00000D5C00000F0
:1000B000D3C00000D1C00000CFC00000CDC0000000
:1000C000CBC00000C9C00000C7C00000C5C0000010
:1000D000C3C00000C1C00000BFC00000BDC0000020
:1000E000BBC0000062036503540358035C039C0318
:1000F00069036D03730377037B038103850389031E
:100100009C038F039303970300002200250028001F
:100110002B002E003100340002010000050108010F
:100120000B0105050505070508080808020202027B
:100130000A0A080804040404010101010101010183
:100140000303030303030303040707070C0C0C0C4E
:100150000C0C0C0C02020202060606060606060637
:100160000B0B0B0B0B0B0B0B0102102020080810C4
:100170002040102040800201020108040201010217
:1001800004081020408080402010080402018004F0
:10019000020180402010080402010804020101024B
:1001A0000408102040800102040810204080000054
:1001B0000A0B02090C0D0E080703040100000000E1
:1001C000000000000000000000000000000000002F
:1001D00000000000000000000000121110000000EC
:1001E000000000000000000000000000000000000F
:1001F00000000000BD0811241FBECFEFD1E2DEBF1A
:10020000CDBF00E00CBF24E0ACE3B2E001C01D9222
:10021000A435B207E1F712E0A0E0B2E0EEE7FEE1BC
:1002200000E00BBF02C007900D92AC33B107D9F7C5
:1002300010E0CBEFD0E000E006C021970109802F4D
:10024000FE010E94890CCA3FD10780E00807A9F788
:100250000E94280A0C943D0FD3CECF92DF92EF92EA
:10026000FF920F931F93CF93DF936C017A018B0161
:10027000C0E0D0E0CE15DF0589F0D8016D918D0189
:10028000D601ED91FC910190F081E02DC601199508
:10029000892B11F47E0102C02196ECCFC701DF91BA
:1002A000CF911F910F91FF90EF90DF90CF90089525
:1002B000382F2091AC029091AB02213208F049C056
:1002C000809188028111FCCF42E0409388023093F4
:1002D00087023FEF309386021092850220938402BA
:1002E000ABE8B2E044E652E0FA013E2F341B32178D
:1002F00018F43D913193F9CF10926302209163027B
:10030000990F922B9093630290916202913061F465
:1003100010926202909163029093BB009091BC0096
:1003200093FDF8CF95EC01C095EE9093BC009091B1
:1003300088029230E1F3909186029F3F79F080919C
:100340008602803241F080918602803331F084E071
:1003500005C081E003C082E001C083E010928A0200
:100360001092AC02109289020895CF93C62F9091FB
:10037000070421E0209389029093AB0210928A0235
:100380001092AC02682F8AE493E01FD36C2F8AE4AA
:1003900093E01BD381E0CF918BCF682F8AE493E069
:1003A00014C31F93CF93DF93EC018C8583FD06C0AC
:1003B000613011F4885F07C0885005C0613011F4C6
:1003C000805F01C080518C878C858F738C8740EF54
:1003D0005FE06C818D859E8543D540EF5FE06F8146
:1003E0008D859E853DD5EC85E695E695E695E830CC
:1003F00028F4F0E0EC5FFD4F108101C010E08D8526
:100400009E8520E030E010FF03C040E050E102C0D4
:1004100040E050E06E81CB96EDD48D859E8520E046
:1004200030E011FF03C040E050E102C040E050E086
:100430006885CB96DFD48D859E8520E030E012FF65
:1004400003C040E050E102C040E050E06D81CB9637
:10045000D1D48D859E8520E030E013FF03C040E0BD
:1004600050E102C040E050E06985CB96C3D48C8552
:10047000DF91CF911F910895FC01918D828D981786
:1004800061F0828DDF01A80FB11D5D968C91928D78
:100490009F5F9F73928F90E008958FEF9FEF089575
:1004A000FC01918D828D981731F0828DE80FF11D3E
:1004B000858D90E008958FEF9FEF0895FC01918D59
:1004C000228D892F90E0805C9F4F821B91098F7352
:1004D000992708958DEA92E0F1DF21E0892B09F454
:1004E00020E0822F0895FC01848DDF01A80FB11D4B
:1004F000A35ABF4F2C91848D90E001968F7399275A
:10050000848FA689B7892C93A089B1898C91806446
:100510008C93938D848D981306C00288F389E02D07
:1005200080818F7D80830895EF92FF920F931F93B8
:10053000CF93DF93EC0181E0888F9B8D8C8D981396
:1005400005C0E889F989808185FD23C0F62E0B8DD1
:1005500010E00F5F1F4F0F731127E02E8C8DE812F4
:100560000BC00FB607FCFACFE889F989808185FFB7
:10057000F5CFCE01B8DFF2CF8B8DFE01E80FF11D74
:10058000E35AFF4FF0820B8FEA89FB8980818062FA
:1005900007C0EE89FF896083E889F98980818064DA
:1005A000808381E090E0DF91CF911F910F91FF90C8
:1005B000EF900895CF93DF93EC01888D8823C1F0ED
:1005C000EA89FB89808185FD05C0A889B9898C915C
:1005D00086FD0EC00FB607FCF5CF808185FFF2CFF8
:1005E000A889B9898C9185FFEDCFCE017CDFE8CF5A
:1005F000DF91CF91089580E090E0892B19F06ADFB8
:10060000811125C080E090E0892B41F080E090E0EE
:10061000892B21F00E94000081111CC080E090E035
:10062000892B41F080E090E0892B21F00E940000AE
:10063000811113C080E090E0892BA1F080E090E070
:10064000892B81F00E94000081110AC008950E9448
:100650000000D8CF0E940000E1CF0E940000EACF46
:100660000C9400000895362F90E0FC01E255FE4FF7
:100670004491FC01E859FE4F2491FC01EE5DFE4FD0
:100680009491992309F46BC0442309F455C050E0B8
:10069000FA013197E231F10508F04EC08827EE5893
:1006A000FF4F8F4F0C94890C809180008F7707C08B
:1006B000809180008F7D03C080918000877F809330
:1006C00080003AC084B58F7702C084B58F7D84BD29
:1006D00033C08091B0008F7703C08091B0008F7DD0
:1006E0008093B00029C0809190008F7707C08091DF
:1006F00090008F7D03C080919000877F8093900051
:100700001BC08091A0008F7707C08091A0008F7DD3
:1007100003C08091A000877F8093A0000DC08091CE
:1007200020018F7707C0809120018F7D03C08091C9
:100730002001877F80932001E92FF0E0EE0FFF1F5B
:10074000E85FFE4FA591B4918FB7F894EC91311109
:1007500003C020952E2301C02E2B2C938FBF08950C
:10076000CF93DF93EC01613079F048F06230B9F05B
:10077000633019F561E08B8176DF60E014C061E0E1
:100780008B8171DF60E004C060E08B816CDF61E031
:100790008C8169DF61E08D8166DF60E00AC060E026
:1007A0008B8161DF61E08C815EDF60E08D815BDFEA
:1007B00061E08E81DF91CF9156CFDF91CF91089587
:1007C000CF93DF93EC01613049F030F0623059F0A3
:1007D000633089F460E008C060E001C061E08B81B3
:1007E00042DF61E004C061E08B813DDF60E08C812D
:1007F000DF91CF9138CFDF91CF9108951F93CF93A1
:10080000DF93EC0111E020E030E0A9016F857889E9
:1008100089899A890E94400E18160CF010E0612F09
:100820008C8121DF61E08B811EDF60E08B81DF91B5
:10083000CF911F9118CFCF93DF93EC0120E030E0F0
:10084000A9016F85788989899A890E94400E1816B6
:100850001CF4EBA1FCA102C0EDA1FEA1DF91CF91A0
:100860001994DC0112962C91213069F028F0223085
:1008700089F02430B1F00895DC01ED91FC91028003
:10088000F381E02D1994DC01ED91FC910480F58158
:10089000E02D0DC0DC01ED91FC910680F781E02D8B
:1008A00006C0DC01ED91FC910084F185E02D1994E6
:1008B00085ED8093BC008091BC0084FDFCCF10923C
:1008C0008802089540912A04262F30E0240F311D1C
:1008D00021323105DCF4209188022430C9F4FC0176
:1008E00080E090E0861758F430912A042191DC01D1
:1008F000A85FBB4FA30FB11D2C930196F3CF80913E
:100900002A04680F60932A0480E0089581E0089526
:1009100082E008950895E0915D0280915C02E817FD
:1009200030F4F0E0E45CFD4F808190E008958FEFBB
:100930009FEF089590915D0280915C02981750F4AA
:10094000E92FF0E0E45CFD4F208130E09F5F909361
:100950005D0202C02FEF3FEFC901089580915C0254
:1009600090E020915D02821B91090895CF92DF9261
:10097000EF92FF920F931F93CF93DF937C01262F6B
:10098000972F8A0180918902882391F0C62FD72F53
:100990006E01C40ED51ECC15DD0569F06991D70135
:1009A000ED91FC910190F081E02DC7011995F3CFF5
:1009B000642F822F87DFC801DF91CF911F910F91A4
:1009C000FF90EF90DF90CF900895CF93DF931F9229
:1009D000CDB7DEB76983209189022223D1F020911F
:1009E000AC02203240F021E030E0FC01338322836E
:1009F00080E090E014C080918A02E82FF0E0E55793
:100A0000FD4F998190838F5F80938A028093AC021F
:100A100004C061E0CE01019655DF81E090E00F90C7
:100A2000DF91CF9108950E94FE0E8F929F92AF9218
:100A3000BF92CF92DF92EF92FF920F931F93CF93CB
:100A4000DF93EC018B859C85AD85BE850F81188574
:100A500029853A85BC01CD01601B710B820B930B7C
:100A600009F4C4C082F00E94900D9B01AC015AD7DA
:100A70002F89388D498D5A8D0E94440E0E94AB0EED
:100A80006B017C011AC090958095709561957F4FA0
:100A90008F4F9F4F0E94900D9B01AC0143D72F8930
:100AA000388D498D5A8D0E94440E0E94AB0E6B0109
:100AB0007C01F7FAF094F7F8F0948F849888A9886D
:100AC000BA88A5019401C701B6010E94400E18160C
:100AD0000CF03FC020E030E0A901C501B40186D789
:100AE00081110AC06F89788D898D9A8D9B01AC0127
:100AF00019D70E94AB0E19C0A50194016F89788D9A
:100B0000898D9A8D77D76B017C0120E030E0A901B7
:100B10000E94400E181624F0F7FAF094F7F8F094BB
:100B2000A7019601C501B401FDD67B018C01BB88EC
:100B3000CC88DD88CE892B2D3C2D4D2D5C2F0E943D
:100B4000400E18160CF057C03B2D7C2D8D2D9C2F80
:100B500059C0A5019401C701B60148D787FF4FC00E
:100B600020E030E0A901C501B40140D7811110C0D7
:100B70006F89788D898D9A8D9B01AC01D3D60E94A7
:100B8000AB0E6B017C01F7FAF094F7F8F0941BC000
:100B9000A50194016F89788D898D9A8D2BD76B0172
:100BA0007C0120E030E0A9010E94400E181624F0DC
:100BB000F7FAF094F7F8F094A7019601C501B40193
:100BC000B0D66B017C018B889C88AD88BE88B7FA53
:100BD000B094B7F8B094A5019401C701B60106D747
:100BE00087FF0DC0382D792DC5010CC030E070E0B5
:100BF00080E090E007C03E2D7F2DC80103C03C2D52
:100C00007D2DC701C32ED72E7C01C701B601DF9110
:100C1000CF911F910F91FF90EF90DF90CF90BF90F9
:100C2000AF909F908F90089562E0809156039091CD
:100C30005703B7CB61E08091560390915703B1CB36
:100C400062E08091580390915903ABCB61E08091B1
:100C5000580390915903A5CB1F920F920FB60F9294
:100C600011240BB60F922F933F934F935F936F9383
:100C70007F938F939F93AF93BF93EF93FF938DEAEF
:100C800092E031DCFF91EF91BF91AF919F918F91F5
:100C90007F916F915F914F913F912F910F900BBE7C
:100CA0000F900FBE0F901F9018951F920F920FB6C6
:100CB0000F9211240BB60F922F938F939F93EF9364
:100CC000FF93E091BD02F091BE028081E091C302EA
:100CD000F091C40282FD12C090818091C6028F5FA4
:100CE0008F732091C702821751F0E091C602F0E0A5
:100CF000E355FD4F958F8093C60201C08081FF911F
:100D0000EF919F918F912F910F900BBE0F900FBE7F
:100D10000F901F9018953FB7F894809150049091D0
:100D20005104A0915204B091530426B5A89B05C06C
:100D30002F3F19F00196A11DB11D3FBFBA2FA92F5A
:100D4000982F8827820F911DA11DB11DBC01CD01D7
:100D500042E0660F771F881F991F4A95D1F70895C3
:100D60001F920F920FB60F9211242F933F938F93E0
:100D70009F93AF93BF9380915E0290915F02A09189
:100D80006002B091610230914F0423E0230F2D37B0
:100D900020F40196A11DB11D05C026E8230F02967F
:100DA000A11DB11D20934F0480935E0290935F02BA
:100DB000A0936002B093610280915004909151041D
:100DC000A0915204B09153040196A11DB11D8093CE
:100DD000500490935104A0935204B0935304BF91D4
:100DE000AF919F918F913F912F910F900FBE0F90D8
:100DF0001F9018950F931F93CF93DF931F921F920D
:100E0000CDB7DEB7152F032FFC01808191E09093C1
:100E100089028093AB0210928A021092AC02F4E035
:100E20006F9FB00111246A5F7F4F8AE493E02A83A9
:100E30004983CBDD4981842F912FAFDA812F90E058
:100E4000ACDA2A81822F902FA8DA802F90E0A5DAE1
:100E500081E00F900F90DF91CF911F910F9128CAE1
:100E60009A01CB96211540E1340728F020E030E0CC
:100E700040E050E102C040E050E0BCCFCF92DF92B2
:100E8000EF92FF92CF93DF93EC01E881F981028426
:100E9000F385E02D19959B01AC016F87788B898BC9
:100EA0009A8B60E070E08AE794E4A4D56B017C0142
:100EB00020E030E0A901E4D618161CF4C701B60101
:100EC00003C0C701B6019058FDD56B8F7C8F8D8F05
:100ED0009E8FDF91CF91FF90EF90DF90CF9008959C
:100EE0001F920F920FB60F9211240BB60F922F93F1
:100EF0003F934F935F936F937F938F939F93AF93A2
:100F0000BF93EF93FF938091B900887F803609F4F7
:100F10009CC068F5883209F45BC090F4803109F414
:100F200054C038F4882309F4F6C0883009F44DC061
:100F3000F5C0883109F44CC0803209F45DC0EEC0C0
:100F4000803409F468C048F4803309F455C088330C
:100F500009F0E4C080938602D8C0803509F44FC000
:100F6000883509F45DC0883409F0D8C0D6C0883906
:100F700009F4C7C0A8F4883709F467C038F4883684
:100F800009F463C0803709F460C0C8C0883809F428
:100F9000B8C0803909F45FC0803809F0BFC05BC0B9
:100FA000803B09F486C038F4803A09F466C0883A78
:100FB00009F47FC0B3C0803C09F4A7C0883C09F4A1
:100FC000A4C0883B09F48AC0A9C08091630210C004
:100FD0009091850280918402981770F5E0918502C6
:100FE00081E08E0F80938502F0E0EC59FD4F808107
:100FF0008093BB0085EC86C0809386028EC0E09112
:10100000850281E08E0F809385028091BB00F0E025
:10101000EC59FD4F808390918502809184026EC0CF
:10102000E091850281E08E0F809385028091BB0064
:10103000F0E0EC59FD4F80838091870281116DC0F3
:1010400081E08093620284EA61C083E08093880239
:1010500010924E04CFCF80914E04803208F051C0E0
:10106000E0914E0481E08E0F80934E048091BB008E
:10107000F0E0E25DFB4F8083BDCF85EC8093BC0048
:101080001092880280914E04803230F4E0914E0438
:10109000F0E0E25DFB4F108260914E0470E0E09161
:1010A0002C04F0912D048EE294E0199510924E04D8
:1010B00035C084E08093880210922B0410922A0499
:1010C000E0912804F0912904199580912A04811156
:1010D00005C081E080932A0410920804E0912B045B
:1010E00081E08E0F80932B04F0E0E85FFB4F80815E
:1010F0008093BB0090912B0480912A04981708F4E8
:1011000079CF85E88093BC0009C085EC8093BC0052
:101110001092880203C010928602CADBFF91EF9101
:10112000BF91AF919F918F917F916F915F914F91FF
:101130003F912F910F900BBE0F900FBE0F901F90FD
:1011400018951092880281E08093870210926202C3
:1011500061E084E188DA61E085E185DAE9EBF0E0DD
:1011600080818E7F808380818D7F808388E48093DF
:10117000B80085E48093BC0008951092B0021092EC
:10118000AF0288EE93E0A0E0B0E08093B1029093CC
:10119000B202A093B302B093B40220E132E03093E4
:1011A000AE022093AD0225EC30E03093BA022093DA
:1011B000B90224EC30E03093BC022093BB0220EC57
:1011C00030E03093BE022093BD0221EC30E030933A
:1011D000C0022093BF0222EC30E03093C202209381
:1011E000C10226EC30E03093C4022093C302109277
:1011F000C6021092C7021092C8021092C902109241
:101200004D0310924C0380934E0390934F03A09391
:101210005003B093510380E292E090934B0380938C
:101220004A03E1EDF3E01282118213821082DF01A2
:1012300011971C9211971C92369683E0E93EF807AD
:1012400091F78CEC93E01092F3031092F603109256
:10125000030420E62093CC032093070428EC30E01D
:101260003093F2032093F1039093F5038093F403FA
:1012700048E04093EB034DE04093EE034AE0409397
:10128000EC0349E04093ED034BE04093EF034CE067
:101290004093F00347EE53E05093590340935803B3
:1012A00041E040930604309302042093010490939C
:1012B00005048093040482E08093FB0387E080931D
:1012C000FE0384E08093FC0383E08093FD0385E0CC
:1012D0008093FF0386E08093000487EF93E0909370
:1012E0005703809356031092BB031092BA0381E018
:1012F00090E09093A9038093A80320E332E0309319
:10130000820320938103109283031092880310922A
:10131000890310928A0310928B0310928C0310920F
:101320008D0310928E0310928F03109290031092EF
:101330009103109292031092930380E090E0A0E852
:10134000BFE38093940390939503A0939603B09387
:1013500097038093980390939903A0939A03B09373
:101360009B0310929C0310929D0310929E03109277
:101370009F031092A0031092A1031092A203109257
:10138000A303109284031092850310928603109297
:10139000870346E256E05093A5034093A40340E23E
:1013A00056E05093A7034093A60330935B0320932A
:1013B0005A0310925C031092610310926203109220
:1013C00063031092640310926503109266031092F7
:1013D0006703109268031092690310926A031092D7
:1013E0006B0310926C0380936D0390936E03A09334
:1013F0006F03B09370038093710390937203A09373
:101400007303B093740310927503109276031092D5
:101410007703109278031092790310927A03109256
:101420007B0310927C0310925D0310925E03109276
:101430005F03109260038AE196E090937E038093AD
:101440007D0384E196E09093800380937F03089569
:10145000789484B5826084BD84B5816084BD85B58F
:10146000826085BD85B5816085BD80916E0081609B
:1014700080936E0010928100809181008260809341
:101480008100809181008160809381008091800043
:101490008160809380008091B10084608093B1006E
:1014A0008091B00081608093B00080919100826053
:1014B0008093910080919100816080939100809150
:1014C00090008160809390008091A1008260809361
:1014D000A1008091A10081608093A1008091A00073
:1014E00081608093A000809121018260809321011E
:1014F0008091210181608093210180912001816090
:101500008093200180917A00846080937A0080919A
:101510007A00826080937A0080917A008160809363
:101520007A0080917A00806880937A001092C100DE
:10153000E091BD02F091BE0282E08083E091B902A9
:10154000F091BA021082E091BB02F091BC028FECE4
:1015500080831092C502E091C102F091C20286E040
:101560008083E091BF02F091C0028081806180831E
:10157000E091BF02F091C002808188608083E09199
:10158000BF02F091C002808180688083E091BF0239
:10159000F091C00280818F7D808310925D02109255
:1015A0005C0210928A021092AC02CBDDCADD60E0D0
:1015B00080E00E94B50180E496E09093CE03809392
:1015C000CD038091070491E0909389028093AB0250
:1015D00010928A021092AC0260E08AE493E0F5D99E
:1015E00081E00E9458018091070490918802911136
:1015F000FCCF91E090938802909387022FEF209385
:101600008602109285021092840290936302909158
:101610006302880F892B809363028091620281307C
:1016200061F410926202809163028093BB0080910A
:10163000BC0083FDF8CF85EC01C085EE8093BC0033
:10164000809188028130E1F380918502811103C08D
:101650008091850201C081E0A4E6B2E02CE332E093
:10166000F9019E2F921B981718F49D919193F9CF31
:1016700010925D0280935C028AE493E05BD9C82FEC
:10168000682F6F76606180E00E94B50163E08EEFA5
:101690000E94B5016C2F80E00E94B5013CDB4B013C
:1016A0005C0165E0C62ED12CE12CF12C34DBDC0191
:1016B000CB0188199909AA09BB09883E9340A10565
:1016C000B10558F021E0C21AD108E108F10888EE0E
:1016D000880E83E0981EA11CB11CC114D104E10442
:1016E000F10421F76C2F616A80E00E94B501C0E02F
:1016F00020E030E040E050E06C2F87E094E07ADBBF
:10170000CF5FC031A9F7812C912C38E4A32E33E4AC
:10171000B32E8092940390929503A0929603B09278
:10172000970381E893E0AADBC12CD12C48ECE42E8E
:1017300042E4F42EC0929803D0929903E0929A0367
:10174000F0929B0381E893E099DB80926D03909285
:101750006E03A0926F03B09270038AE593E08EDB74
:10176000C0927103D0927203E0927303F0927403FB
:101770008AE593E083DB5AE0C52ED12CE12CF12CD5
:101780002FB7F89480915E0290915F02A091600261
:10179000B09161022FBF4497A105B10508F445C07F
:1017A0002AE030E040E050E0BA018091BA0386338D
:1017B00008F0865390917B00E82FE870977F9E2B6E
:1017C00090937B008770806480937C0080917A0086
:1017D000806480937A0080917A0086FDFCCF8091AE
:1017E0007800E091790090E09E2B092E000CAA0B66
:1017F000BB0B480F591F6A1F7B1F21503109A9F6E7
:10180000CB01BA01A701960107D3A4E6B0E0FAD252
:10181000DC01CB012AE0B595A795979587952A9588
:10182000D1F7C3970CF46FC002C0D1116FC08FB74E
:10183000F89480905E0290905F02A0906002B09059
:1018400061028FBF40919C0350919D0360919E0364
:1018500070919F038091A0039091A103A091A20396
:10186000B091A303840F951FA61FB71F8815990574
:10187000AA05BB0508F049C0409090035090910321
:10188000609092037090930320E030E0A901C301BF
:10189000B201F6D1181664F48091880390918903FF
:1018A000A0918A03B0918B030196A11DB11D13C0B5
:1018B00020E030E0A901C301B20198D087FF13C036
:1018C0008091880390918903A0918A03B0918B0342
:1018D0000197A109B1098093880390938903A0938C
:1018E0008A03B0938B0360918803637081E893E06F
:1018F0000E9431048092A0039092A103A092A203BF
:10190000B092A30302C0D1E001C0D0E00E94FB026C
:1019100037CFEE0FFF1F881F8BBF0790F691E02D8A
:1019200019945058BB27AA270ED070C161D130F04E
:1019300066D120F031F49F3F11F41EF456C10EF42D
:10194000E095E7FB4CC1E92F72D180F3BA1762072B
:1019500073078407950718F071F49EF58AC10EF499
:10196000E0950B2EBA2FA02D0B01B90190010C01AF
:10197000CA01A0011124FF27591B99F0593F50F4C7
:10198000503E68F11A16F040A22F232F342F44271F
:10199000585FF3CF469537952795A795F040539517
:1019A000C9F77EF41F16BA0B620B730B840BBAF0E7
:1019B0009150A1F0FF0FBB1F661F771F881FC2F752
:1019C0000EC0BA0F621F731F841F48F48795779566
:1019D0006795B795F7959E3F08F0B3CF9395880F1D
:1019E00008F09927EE0F979587950895D4D008F4BD
:1019F00081E008950CD00AC102D140F0F9D030F056
:101A000021F45F3F19F0EBC0511134C1EEC00FD18A
:101A100098F39923C9F35523B1F3951B550BBB27B5
:101A2000AA2762177307840738F09F5F5F4F220F62
:101A3000331F441FAA1FA9F333D00E2E3AF0E0E85B
:101A400030D091505040E695001CCAF729D0FE2FA7
:101A500027D0660F771F881FBB1F26173707480739
:101A6000AB07B0E809F0BB0B802DBF01FF279358EF
:101A70005F4F2AF09E3F510568F0B1C0FBC05F3F49
:101A8000ECF3983EDCF3869577956795B795F795D7
:101A90009F5FC9F7880F911D9695879597F90895CF
:101AA000E1E0660F771F881FBB1F6217730784076B
:101AB000BA0720F0621B730B840BBA0BEE1F88F77A
:101AC000E0950895BCD088F09F5790F0B92F9927E2
:101AD000B751A0F0D1F0660F771F881F991F1AF039
:101AE000BA95C9F712C0B13081F0C3D0B1E0089502
:101AF000C0C0672F782F8827B85F39F0B93FCCF383
:101B0000869577956795B395D9F73EF4909580952E
:101B1000709561957F4F8F4F9F4F0895E89409C04E
:101B200097FB3EF490958095709561957F4F8F4F10
:101B30009F4F9923A9F0F92F96E9BB279395F69526
:101B4000879577956795B795F111F8CFFAF4BB0FA4
:101B500011F460FF1BC06F5F7F4F8F4F9F4F16C008
:101B6000882311F096E911C0772321F09EE8872F92
:101B7000762F05C0662371F096E8862F70E060E04E
:101B80002AF09A95660F771F881FDAF7880F9695C7
:101B9000879597F90895990F0008550FAA0BE0E86B
:101BA000FEEF16161706E807F907C0F0121613061F
:101BB000E407F50798F0621B730B840B950B39F45F
:101BC0000A2661F0232B242B252B21F408950A26C5
:101BD00009F4A140A6958FEF811D811D089597F905
:101BE0009F6780E870E060E008959FEF80EC0895C3
:101BF00000240A94161617061806090608950024EC
:101C00000A9412161306140605060895092E039465
:101C1000000C11F4882352F0BB0F40F4BF2B11F4D9
:101C200060FF04C06F5F7F4F8F4F9F4F089557FD38
:101C30009058440F551F59F05F3F71F04795880F3A
:101C400097FB991F61F09F3F79F0879508951216D1
:101C500013061406551FF2CF4695F1DF08C016167D
:101C600017061806991FF1CF86957105610508942E
:101C70000895E894BB2766277727CB0197F9089545
:101C80008ADF08F48FEF08950BD0C0CFB1DF28F0C2
:101C9000B6DF18F0952309F0A2CFA7CF1124EACF21
:101CA000C6DFA0F3959FD1F3950F50E0551F629FBB
:101CB000F001729FBB27F00DB11D639FAA27F00DA5
:101CC000B11DAA1F649F6627B00DA11D661F829FCC
:101CD0002227B00DA11D621F739FB00DA11D621FB1
:101CE000839FA00D611D221F749F3327A00D611DCE
:101CF000231F849F600D211D822F762F6A2F1124B0
:101D00009F5750408AF0E1F088234AF0EE0FFF1F02
:101D1000BB1F661F771F881F91505040A9F79E3F39
:101D2000510570F05CCFA6CF5F3FECF3983EDCF33B
:101D3000869577956795B795F795E7959F5FC1F776
:101D4000FE2B880F911D9695879597F9089511F4AC
:101D50000EF44BCF3EC073DFD0F39923D9F3CEF30B
:101D60009F57550B87FF43D00024A0E640EA90011F
:101D700080585695979528F4805C660F771F881FCA
:101D800020F026173707480730F4621B730B840BCB
:101D9000202931294A2BA69517940794202531250F
:101DA0004A2758F7660F771F881F20F02617370736
:101DB000480730F4620B730B840B200D311D411D5D
:101DC000A09581F7B901842F9158880F9695879532
:101DD00008959F3F31F0915020F48795779567954E
:101DE000B795880F911D9695879597F9089591500D
:101DF0005040660F771F881FD2F7089581E090E06A
:101E0000F8943BC02BD0A59F900DB49F900DA49F3C
:101E1000800D911D11240895A1E21A2EAA1BBB1B4F
:101E2000FD010DC0AA1FBB1FEE1FFF1FA217B307A6
:101E3000E407F50720F0A21BB30BE40BF50B661FBC
:101E4000771F881F991F1A9469F760957095809580
:101E500090959B01AC01BD01CF010895A29FB001F7
:101E6000B39FC001A39F700D811D1124911DB29FCE
:0E1E7000700D811D1124911D0895F894FFCF6F
:101E7E000100000001030206040C08090000000026
:101E8E0094022D015E023C025002DA0200000000B4
:101E9E00E504B604AE049A048B048A040000000024
:0C1EAE0031041B04FE03E003B003150523
:020000023000CC
:10E000000D9489F10D94B2F10D94B2F10D94B2F129
:10E010000D94B2F10D94B2F10D94B2F10D94B2F1F0
:10E020000D94B2F10D94B2F10D94B2F10D94B2F1E0
:10E030000D94B2F10D94B2F10D94B2F10D94B2F1D0
:10E040000D94B2F10D94B2F10D94B2F10D94B2F1C0
:10E050000D94B2F10D94B2F10D94B2F10D94B2F1B0
:10E060000D94B2F10D94B2F10D94B2F10D94B2F1A0
:10E070000D94B2F10D94B2F10D94B2F10D94B2F190
:10E080000D94B2F10D94B2F10D94B2F10D94B2F180
:10E090000D94B2F10D94B2F10D94B2F10D94B2F170
:10E0A0000D94B2F10D94B2F10D94B2F10D94B2F160
:10E0B0000D94B2F10D94B2F10D94B2F10D94B2F150
:10E0C0000D94B2F10D94B2F10D94B2F10D94B2F140
:10E0D0000D94B2F10D94B2F10D94B2F10D94B2F130
:10E0E0000D94B2F141546D656761323536300041AF
:10E0F000726475696E6F206578706C6F72657220DE
:10E1000073746B3530305632206279204D4C530099
:10E11000426F6F746C6F616465723E004875683F52
:10E1200000436F6D70696C6564206F6E203D200048
:10E130004350552054797065202020203D20005FF9
:10E140005F4156525F415243485F5F3D2000415658
:10E1500052204C696243205665723D20004743437C
:10E160002056657273696F6E203D20004350552024
:10E1700049442020202020203D20004C6F7720663D
:10E18000757365202020203D20004869676820665F
:10E190007573652020203D200045787420667573D6
:10E1A00065202020203D20004C6F636B2066757336
:10E1B000652020203D20004D617220203720323024
:10E1C000313300312E362E3800342E332E350056A2
:10E1D00023202020414444522020206F7020636F70
:10E1E00064652020202020696E73747275637469E1
:10E1F0006F6E2061646472202020496E74657272B3
:10E20000757074006E6F20766563746F7200726A49
:10E210006D702020006A6D70200057686174207056
:10E220006F72743A00506F7274206E6F7420737541
:10E2300070706F72746564004D7573742062652030
:10E2400061206C6574746572002000577269747483
:10E25000696E672045450052656164696E672045B7
:10E26000450045452065727220636E743D00504F35
:10E27000525400303D5A65726F2061646472003FF1
:10E280003D43505520737461747300403D454550C3
:10E29000524F4D207465737400423D426C696E6B41
:10E2A000204C454400453D44756D70204545505215
:10E2B0004F4D00463D44756D7020464C415348001B
:10E2C000483D48656C70004C3D4C69737420492F83
:10E2D0004F20506F72747300513D51756974005234
:10E2E0003D44756D702052414D00563D73686F7707
:10E2F00020696E7465727275707420566563746FF0
:10E30000727300593D506F727420626C696E6B00BD
:10E310002A0011241FBECFEFD1E2DEBFCDBF01E046
:10E320000CBF12E0A0E0B2E0EEE1FDEF03E00BBFB6
:10E3300002C007900D92A030B107D9F712E0A0E01B
:10E34000B2E001C01D92AE30B107E1F70F9460F367
:10E350000D948DFE01E20EBF0FEF0DBF11241FBE05
:10E360000D9460F30D9400F020E030E040ED57E0B4
:10E3700005C0FA013197F1F72F5F3F4F2817390792
:10E38000C0F308959C01260F311DC901A0E0B0E043
:10E390002F5F3F4FABBFFC018791882361F08093D3
:10E3A000C6008091C00086FFFCCF8091C0008064D1
:10E3B0008093C000EACF08958DE08093C6008091DD
:10E3C000C00086FFFCCF8091C00080648093C000B5
:10E3D0008AE08093C6008091C00086FFFCCF8091C8
:10E3E000C00080648093C00008950F94C2F10F9420
:10E3F000DCF10895FC019081992359F09093C600B7
:10E400008091C00086FFFCCF8091C0008064809323
:10E41000C0003196992379F70895282F982F929567
:10E420009F70892F805D8A3308F0895F8093C600D2
:10E430008091C00086FFFCCF8091C00080648093F3
:10E44000C000822F8F70982F905D9A3308F0995FEB
:10E450009093C6008091C00086FFFCCF8091C000E1
:10E4600080648093C00008959C01FB01853691056E
:10E470001CF46330710594F0C90164E670E00F94F8
:10E480002EFE605D7F4F6093C6008091C00086FFC6
:10E49000FCCF8091C00080648093C0002B30310598
:10E4A00014F43297B4F0C90164E670E00F942EFEC4
:10E4B0006AE070E00F942EFE605D7F4F6093C600AF
:10E4C0008091C00086FFFCCF8091C0008064809363
:10E4D000C000C9016AE070E00F942EFEC0968093E0
:10E4E000C6008091C00086FFFCCF8091C000806490
:10E4F0008093C00008951F93182F8EE692EE60E07F
:10E500000F94C2F11093C6008091C00086FFFCCF2B
:10E510008091C00080648093C0000F94DCF11F9153
:10E5200008952F923F924F925F926F927F928F92B7
:10E530009F92AF92BF92CF92DF92EF92FF920F9392
:10E540001F93DF93CF93CDB7DEB762970FB6F894E2
:10E55000DEBF0FBECDBF382E622ECA01DB015C01CB
:10E560006D01772420E2222E2E010894411C511CBB
:10E570008BC081E0A81680E0B80681E0C80680E084
:10E58000D80628F0C601AA27BB270F940DF2BB2797
:10E59000AD2D9C2D8B2D0F940DF28A2D0F940DF225
:10E5A0002092C6008091C00086FFFCCF8091C00001
:10E5B00080648093C0009DE29093C6008091C0006B
:10E5C00086FFFCCF8091C00080648093C0002092C1
:10E5D000C6008091C00086FFFCCF8091C00080649F
:10E5E0008093C00019828601750188249924A1E0D6
:10E5F0003A1651F03A1620F0B2E03B1661F409C029
:10E600000BBFF701779007C0C7010F9477FE782EF4
:10E6100002C0F7017080872D0F940DF22092C60082
:10E620008091C00086FFFCCF8091C0008064809301
:10E63000C000872D8052F401EF70F0708F3520F408
:10E64000E40DF51D708204C0E40DF51D8EE280839B
:10E650000894E11CF11C011D111D0894811C911CE2
:10E6600090E18916910409F0C2CF80E190E0A0E02A
:10E67000B0E0A80EB91ECA1EDB1E198AC2010F9493
:10E68000FAF10F94DCF16A94662009F072CF629679
:10E690000FB6F894DEBF0FBECDBFCF91DF911F91B3
:10E6A0000F91FF90EF90DF90CF90BF90AF909F9031
:10E6B0008F907F906F905F904F903F902F90089534
:10E6C0002F923F924F925F926F927F928F929F9282
:10E6D000AF92BF92CF92DF92EF92FF920F931F9370
:10E6E000DF93CF93CDB7DEB7CD53D1400FB6F894BB
:10E6F000DEBF0FBECDBF01E20EBF0FEF0DBF94B75F
:10E70000F894A89514BE80916000886180936000A1
:10E7100010926000789493FF05C0E0910002F091A0
:10E7200001021995279A2F9A8091C00082608093E8
:10E73000C00080E18093C40088E18093C1000000A4
:10E74000EE24FF24870144E0A42EB12CCC24DD2448
:10E7500024C0C5010197F1F70894E11CF11C011DCB
:10E76000111D21E2E2162EE4F20620E0020720E06D
:10E77000120718F031E0C32ED12CC801B70127ECE5
:10E780003BE140E050E00F9441FE611571058105C9
:10E79000910519F485B1805885B98091C00087FD35
:10E7A00003C0C114D104A9F2A6014F5F5F4FC25E3E
:10E7B000DE4F59834883CE51D140C25EDE4F8881FF
:10E7C0009981CE51D140019711F00D9410FEC05D9A
:10E7D000DE4F19821882C053D14060E0C15DDE4F28
:10E7E0001882CF52D14088249924C35DDE4F19820C
:10E7F0001882CD52D140C05EDE4F188219821A8233
:10E800001B82C052D140CE5CDE4F188219821A8220
:10E810001B82C253D140EE24FF2487010BBFF701B6
:10E8200007911691C45CDE4F19830883CC53D14005
:10E830000D940BFEC25EDE4F28813981CE51D1404E
:10E840002130310509F52091C600C25EDE4F1982E4
:10E850001882CE51D14022C02F5F3F4F4F4F5F4FA4
:10E86000213082E138078AE7480780E0580780F0C6
:10E87000C45CDE4FE881F981CC53D140EF5FFF4F9C
:10E8800019F0EE27FF27099420E030E040E050E047
:10E890008091C00087FFE0CF2091C600C35DDE4FAE
:10E8A00048815981CD52D1404F5F5F4FC35DDE4FEC
:10E8B00059834883CD52D140213209F063C64A3092
:10E8C000510508F05FC60894811C911C53E0851621
:10E8D000910409F059C600E010E018C081E280936D
:10E8E000C6008091C00086FFFCCF8091C00080648C
:10E8F0008093C0002F5F3F4F2931310579F70F9486
:10E90000DCF10F5F1F4F0530110519F020E030E0FA
:10E91000E5CF10920A0210920B0210920C02109294
:10E920000D02109206021092070210920802109235
:10E930000902109202021092030210920402109235
:10E9400005028FEE90EE60E00F94F5F180E191EE1C
:10E9500060E00F94C2F18091C00087FFFCCF9091DE
:10E96000C600903608F09F759032B8F09093C600BC
:10E970008091C00086FFFCCF8091C00080648093AE
:10E98000C000A0E2A093C6008091C00086FFFCCF2B
:10E990008091C00080648093C000983409F4D7C18E
:10E9A0009934B8F4923409F459C1933458F490333B
:10E9B00019F1903308F4E3C59F33A1F1903409F0C5
:10E9C000DEC5BDC0953409F470C1963409F0D7C5D1
:10E9D00098C1923509F42BC2933538F49C3409F46C
:10E9E000F5C1913509F0CBC518C2963509F445C279
:10E9F000993509F0C4C567C483E792EE62E00F94CD
:10EA0000F5F110920602109207021092080210927D
:10EA1000090210920A0210920B0210920C0210923C
:10EA20000D0213C18FE792EE62E00F94F5F18FEEC5
:10EA300090EE60E00F94F5F181E291EE60E00F94CA
:10EA4000C2F187EB91EE60E00F94F5F180E391EE77
:10EA500060E00F94C2F184EE90EE60E00F94F5F167
:10EA60008FE391EE60E00F94C2F186E090E061E008
:10EA700070E00F9434F20F94DCF18DE591EE60E0DC
:10EA80000F94C2F189EC91EE60E00F94F5F18EE401
:10EA900091EE60E00F94C2F183EC91EE60E00F9490
:10EAA000F5F18CE691EE60E00F94C2F18EE10F94E7
:10EAB0000DF288E90F940DF281E00F940DF20F949E
:10EAC000DCF18BE791EE60E00F94C2F119E0E0E039
:10EAD000F0E010935700E4918E2F0F940DF20F94F5
:10EAE000DCF18AE891EE60E00F94C2F1E3E0F0E03F
:10EAF00010935700E4918E2F0F940DF20F94DCF1D8
:10EB000089E991EE60E00F94C2F1E2E0F0E0109349
:10EB10005700E4918E2F0F940DF20F94DCF188EAE8
:10EB200091EE60E00F94C2F1E1E0F0E01093570045
:10EB30001491812F0F940DF20F94DCF107CF8BE825
:10EB400092EE62E00F94F5F18BE492EE60E00F94A8
:10EB5000F5F10F94DCF100E010E019C0C8016F2D51
:10EB60000F947FFEFF2031F489E492EE60E00F9471
:10EB7000C2F10BC0F092C6008091C00086FFFCCFAE
:10EB80008091C00080648093C0000F5F1F4FC80158
:10EB900081519F41A0E0B0E0ABBFFC01F790BAE229
:10EBA000FB1621F0E2E000301E07C1F60F94DCF105
:10EBB0000F94DCF187E592EE60E00F94F5F10F948D
:10EBC000DCF1CC24DD2400E010E01EC0C8010F946D
:10EBD00077FEF82E882331F489E492EE60E00F94FA
:10EBE000C2F10BC08093C6008091C00086FFFCCFAD
:10EBF0008091C00080648093C000FE1419F00894D6
:10EC0000C11CD11C0F5F1F4FC80181519F41A0E063
:10EC1000B0E0ABBFFC01E790FAE2EF1621F022E092
:10EC20000030120799F60F94DCF10F94DCF182E6C4
:10EC300092EE60E00F94C2F1C60161E070E00F94C3
:10EC400034F20F94DCF10F94DCF110920202109276
:10EC50000302109204021092050278CE89E992EE26
:10EC600062E00F94F5F1279A2F9A16C02F9880E052
:10EC700090E0E0EDF7E03197F1F7019684369105E9
:10EC8000C1F72F9A80E090E0E0EDF7E03197F1F7DF
:10EC9000019684369105C1F78091C00087FFE6CFC9
:10ECA0008091C00087FFFCCF64C485EA92EE62E0E9
:10ECB0000F94F5F140910202509103026091040219
:10ECC0007091050281E020E10F9491F2809102029F
:10ECD00090910302A0910402B091050280509F4FD1
:10ECE000AF4FBF4F8093020290930302A0930402A0
:10ECF000B093050280509041A040B04008F426CE69
:10ED0000A4CF83EB92EE62E00F94F5F140910602FE
:10ED100050910702609108027091090280E020E1A1
:10ED20000F9491F28091060290910702A09108023F
:10ED3000B091090280509F4FAF4FBF4F80930602A2
:10ED400090930702A0930802B0930902FFCD80ECD4
:10ED500092EE62E00F94F5F183E792EE60E00F949B
:10ED6000F5F18FE792EE60E00F94F5F18BE892EE0B
:10ED700060E00F94F5F189E992EE60E00F94F5F10F
:10ED800085EA92EE60E00F94F5F183EB92EE60E09D
:10ED90000F94F5F180EC92EE60E00F94F5F187ECC2
:10EDA00092EE60E00F94F5F188ED92EE60E00F9442
:10EDB000F5F18FED92EE60E00F94F5F18AEE92EEB0
:10EDC00060E00F94F5F183E093EEBDCD87EC92EE19
:10EDD00062E00F94F5F181E40F947BF282E40F94EA
:10EDE0007BF283E40F947BF284E40F947BF285E45E
:10EDF0000F947BF286E40F947BF287E40F947BF20E
:10EE000088E40F947BF28AE40F947BF28BE40F94F6
:10EE10007BF28CE40F947BF299CD88ED92EE62E068
:10EE20000F94F5F1772473948824992409C48FED05
:10EE300092EE62E00F94F5F140910A0250910B02BC
:10EE400060910C0270910D0282E020E10F9491F22A
:10EE500080910A0290910B02A0910C02B0910D02D8
:10EE600080509F4FAF4FBF4F80930A0290930B0289
:10EE7000A0930C02B0930D0269CD8AEE92EE62E08F
:10EE80000F94F5F184EE90EE60E00F94F5F18FECC5
:10EE900091EE60E00F94F5F1662477244301CC5D98
:10EEA000DE4F19821882C452D140D401C301B695F5
:10EEB000A79597958795CA5DDE4F88839983AA8326
:10EEC000BB83C652D140CC5DDE4FA881B981C4520C
:10EED000D1401196CC5DDE4FB983A883C452D14096
:10EEE000CD0162E070E00F9434F2B0E2B093C6005E
:10EEF0008091C00086FFFCCF8091C0008064809329
:10EF0000C000EDE2E093C6008091C00086FFFCCF18
:10EF10008091C00080648093C000F0E2F093C6004E
:10EF20008091C00086FFFCCF8091C00080648093F8
:10EF3000C000CA5DDE4FE880F9800A811B81C6529D
:10EF4000D140BB27A12F902F8F2D0F940DF2CA5DBA
:10EF5000DE4F8881C652D1400F940DF2B0E2FB2EF5
:10EF6000F092C6008091C00086FFFCCF8091C00067
:10EF700080648093C0000DE30093C6008091C000C0
:10EF800086FFFCCF8091C00080648093C00010E2B7
:10EF90001093C6008091C00086FFFCCF8091C00016
:10EFA00080648093C0008BBEF3012791C65DDE4F65
:10EFB0002883CA52D140A22EBB24CC24DD2408943D
:10EFC000611C711C811C911C8BBEF3018791282E42
:10EFD0003324442455240894611C711C811C911C09
:10EFE0008BBEF3013791C55DDE4F3883CB52D140E4
:10EFF0000894611C711C811C911C8BBEF30147910C
:10F00000C45DDE4F4883CC52D140ADEFEA2EAFEF66
:10F01000FA2EAFEF0A2FAFEF1A2F6E0C7F1C801E57
:10F02000911E142D032DF22CEE24EA0CFB1C0C1D5A
:10F030001D1D0F940DF220E22093C6008091C000A8
:10F0400086FFFCCF8091C00080648093C000C65DC5
:10F05000DE4F8881CA52D1400F940DF230E23093D6
:10F06000C6008091C00086FFFCCF8091C000806404
:10F070008093C000C45DDE4F8881CC52D1400F9494
:10F080000DF240E24093C6008091C00086FFFCCFA5
:10F090008091C00080648093C000C55DDE4F888190
:10F0A000CB52D1400F940DF250E25093C6008091A4
:10F0B000C00086FFFCCF8091C00080648093C000B8
:10F0C0008FEFE8168FEFF80680E0080780E018075A
:10F0D00031F484E092EE60E00F94C2F1DFC0D80119
:10F0E000C7018070907CA070B0708050904CA040A0
:10F0F000B040D1F52FEF3FE340E050E0E222F322B1
:10F1000004231523CA5DDE4FA880B980CA80DB8046
:10F11000C652D140AE0CBF1CC01ED11EAA0CBB1CD7
:10F12000CC1CDD1C8EE092EE60E00F94C2F1BB2798
:10F13000A12F902F8F2D0F940DF28E2D0F940DF285
:10F1400030E23093C6008091C00086FFFCCF8091F2
:10F15000C00080648093C0004EE34093C60080915D
:10F16000C00086FFFCCF87C08EE09EEFA0E0B0E03D
:10F17000E822F9220A231B239CE0E91694E9F90608
:10F1800090E0090790E0190709F088C0C45DDE4FE0
:10F19000A881CC52D140EA2EFF2400E010E0102FCD
:10F1A0000F2DFE2CEE24C55DDE4FB881CB52D14031
:10F1B000EB0EF11C011D111DD601C501817090706F
:10F1C000A070B070DC0199278827E80EF91E0A1F8D
:10F1D0001B1F20EF30E040E050E0A222B322C42207
:10F1E000D52241E1AA0CBB1CCC1CDD1C4A95D1F7F1
:10F1F000EA0CFB1C0C1D1D1D81E090E0A0E0B0E0BE
:10F20000282239224A225B2235E1220C331C441C7D
:10F21000551C3A95D1F7E20CF31C041D151D57013E
:10F220006801AA0CBB1CCC1CDD1C85E192EE60E0E1
:10F230000F94C2F1C801AA27BB270F940DF2BB2778
:10F24000A12F902F8F2D0F940DF28E2D0F940DF274
:10F2500090E29093C6008091C00086FFFCCF809121
:10F26000C00080648093C000AEE3A093C60080918C
:10F27000C00086FFFCCF8091C00080648093C000F6
:10F28000C601AA27BB270F940DF2BB27AD2D9C2DDD
:10F290008B2D0F940DF28A2D0F940DF20F94DCF14B
:10F2A000CC5DDE4FE881F981C452D140F99709F471
:10F2B0004DCBF4E0EF2EF12C012D112D6E0C7F1CA7
:10F2C000801E911EF2CD83E093EE62E00F94F5F183
:10F2D0008AE192EE60E00F94C2F18091C00087FF56
:10F2E000FCCF1091C6001F751093C6008091C0001E
:10F2F00086FFFCCF8091C00080648093C0000F9493
:10F30000DCF1812F81548A3108F036C1163409F4BA
:10F3100095C0173490F4133409F44EC0143430F40B
:10F320001134F1F0123409F01DC130C0143409F465
:10F3300059C0153409F016C16BC01A3409F4C4C0A1
:10F340001B3438F4173409F48FC0183409F00AC19B
:10F35000A1C01B3409F4D2C01C3409F003C1E8C0B9
:10F360008FEF81B90DC082B1809582B980E090E0C5
:10F37000E0EDF7E03197F1F70196883C9105C1F790
:10F380008091C00087FFEFCF12B8EFC08FEF84B934
:10F390000DC085B1809585B980E090E0E0EDF7E0A3
:10F3A0003197F1F70196883C9105C1F78091C00033
:10F3B00087FFEFCF15B8D9C08FEF87B90DC088B1DF
:10F3C000809588B980E090E0E0EDF7E03197F1F7C3
:10F3D0000196883C9105C1F78091C00087FFEFCF6F
:10F3E00018B8C3C08FEF8AB90DC08BB180958BB9A7
:10F3F00080E090E0E0EDF7E03197F1F70196883C8E
:10F400009105C1F78091C00087FFEFCF1BB8ADC059
:10F410008FEF8DB90DC08EB180958EB980E090E0F0
:10F42000E0EDF7E03197F1F70196883C9105C1F7DF
:10F430008091C00087FFEFCF1EB897C08FEF80BBD1
:10F440000DC081B3809581BB80E090E0E0EDF7E0F6
:10F450003197F1F70196883C9105C1F78091C00082
:10F4600087FFEFCF11BA81C08FEF83BB0DC084B38C
:10F47000809584BB80E090E0E0EDF7E03197F1F714
:10F480000196883C9105C1F78091C00087FFEFCFBE
:10F4900014BA6BC08FEF809301010FC080910201FD
:10F4A00080958093020180E090E0E0EDF7E03197F5
:10F4B000F1F70196883C9105C1F78091C00087FF64
:10F4C000EDCF1092020151C08FEF809304010FC065
:10F4D0008091050180958093050180E090E0E0ED4A
:10F4E000F7E03197F1F70196883C9105C1F78091DB
:10F4F000C00087FFEDCF1092050137C08FEF8093DA
:10F5000007010FC08091080180958093080180E079
:10F5100090E0E0EDF7E03197F1F70196883C910536
:10F52000C1F78091C00087FFEDCF109208011DC088
:10F530008FEF80930A010FC080910B01809580931B
:10F540000B0180E090E0E0EDF7E03197F1F70196F4
:10F55000883C9105C1F78091C00087FFEDCF1092E4
:10F560000B0103C085E292EEEEC98091C00087FFD7
:10F57000FCCF8091C600EAC988E392EEE4C98CE131
:10F5800091EEE1C988249924933011F1943028F444
:10F59000913089F09230B8F408C0953061F195301F
:10F5A000F0F0963009F048C043C02B3109F042C951
:10F5B00091E06BE13FC96227C15DDE4F2883CF52E6
:10F5C000D14092E037C9B22FA0E0622793E032C960
:10F5D000822F90E0A82BB92B622794E02BC92E3004
:10F5E00009F039C3622795E0C05DDE4F19821882A9
:10F5F000C053D1401FC9E1E0F0E0EC0FFD1FC05D3A
:10F60000DE4F08811981C053D140E00FF11F2083E4
:10F610000F5F1F4FC05DDE4F19830883C053D14079
:10F6200062270A171B0709F005C9D80196E002C92D
:10F63000261709F010C303C0973009F0FBC87724E0
:10F640009981933109F412C19431C8F4963009F4C8
:10F65000D8C0973050F4923009F406C1933009F4C1
:10F660006DC0913009F059C253C0913109F477C08F
:10F67000923108F0BBC0903109F04FC2F5C098310B
:10F6800009F487C0993150F4953109F4EFC09531F0
:10F6900008F4C6C1963109F040C2C2C19A3109F4DA
:10F6A0006CC09A3108F491C09B3109F45BC09D3164
:10F6B00009F033C29D81903359F48F81882311F46E
:10F6C0009EE11CC0813011F091E018C098E916C08D
:10F6D000892F807591F0903539F4E0E0F0E089E011
:10F6E0008093570094910AC0983539F4E3E0F0E034
:10F6F00089E080935700949101C090E01A821B82A8
:10F700008D818C831D829E831F8227E030E009C299
:10F710001A8288E08B8381E48C8386E58D8382E581
:10F720008E8389E48F8383E5888780E589878FE5E9
:10F730008A8782E38B872BE030E0F3C18A818139AD
:10F7400041F0823941F0803911F48FE005C080E04A
:10F7500003C082E001C08AE01A828B8344C0772410
:10F76000739482C08D81882311F48EE12CC0813086
:10F7700011F081E028C088E926C01A82E1E0F0E0BB
:10F7800089E08093570084918B831C8224E030E0D1
:10F79000C8C18B81803589F48C81883039F4E2E0EE
:10F7A000F0E089E08093570084910DC0E0E0F0E044
:10F7B00089E080935700849106C0E3E0F0E089E09F
:10F7C0008093570084911A82DFCF8D81836C99E0FA
:10F7D000E1E0F0E0082E90935700E89507B600FCB2
:10F7E000FDCF1A821B8223E030E09BC180EC8A832C
:10F7F000CE5CDE4F188219821A821B82C253D1401E
:10F800008EC18A8190E0A0E0B0E0582F44273327D2
:10F8100022278B8190E0A0E0B0E0DC0199278827C7
:10F82000282B392B4A2B5B2B8D8190E0A0E0B0E098
:10F83000282B392B4A2B5B2B8C8190E0A0E0B0E089
:10F84000BA2FA92F982F8827282B392B4A2B5B2BCF
:10F85000220F331F441F551FC05EDE4F288339839C
:10F860004A835B83C052D1401A8259C13A81C95C34
:10F87000DE4F3883C753D140CA5CDE4F1882C6536F
:10F88000D1408B81C82EDD24CA5CDE4F488159816E
:10F89000C653D140C42AD52A933109F082C0CE5C28
:10F8A000DE4F88819981AA81BB81C253D1408050AB
:10F8B000904CA340B04030F583E0CE5CDE4FE88052
:10F8C000F9800A811B81C253D140F70100935B008C
:10F8D00080935700E89507B600FCFDCFCE5CDE4F65
:10F8E000088119812A813B81C253D14000501F4FAA
:10F8F0002F4F3F4FCE5CDE4F088319832A833B8313
:10F90000C253D140C05EDE4F488159816A817B81FC
:10F91000C052D140DE011B9631E08C9111962C91A2
:10F9200011971296C75CDE4F2883C953D140C85C3B
:10F93000DE4F1882C853D14090E0C85CDE4FE881AA
:10F94000F981C853D1408E2B9F2B0C01FA01609393
:10F950005B0030935700E89511244E5F5F4F6F4F67
:10F960007F4F0EEFE02E0FEFF02ECE0CDF1CC114F8
:10F97000D10499F685E0C05EDE4F088119812A81A5
:10F980003B81C052D140F80120935B008093570027
:10F99000E89507B600FCFDCF81E180935700E8951C
:10F9A00035C0C05EDE4F88819981AA81BB81C0527B
:10F9B000D140B695A795979587957C018601ABE0D8
:10F9C000AA2EB12CAC0EBD1E0BC0D5016D915D01F0
:10F9D000C7010F947FFE0894E11CF11C01501040F8
:10F9E0000115110591F7A60160E070E0440F551F65
:10F9F000661F771FC05EDE4FE880F9800A811B8199
:10FA0000C052D1404E0D5F1D601F711F1A82C05E33
:10FA1000DE4F488359836A837B83C052D1407FC0C5
:10FA2000FA80C55CDE4FF882CB53D140C65CDE4F16
:10FA30001882CA53D1408B81C82EDD24C65CDE4FAC
:10FA400008811981CA53D140C02AD12A1A828981DA
:10FA5000BE016D5F7F4F843121F59601C05EDE4FA0
:10FA6000E880F9800A811B81C052D1400BBFF701A9
:10FA700087919691DB018C9311969C936E5F7F4FDB
:10FA8000D801C7010296A11DB11DC05EDE4F88835B
:10FA90009983AA83BB83C052D14022503040F1F6F3
:10FAA00036C0C05EDE4F288139814A815B81C052F9
:10FAB000D1400894C108D108760100E010E0089414
:10FAC000C11CD11C0894E11CF11C011D111DE20E8A
:10FAD000F31E041F151F21BDBB27A52F942F832FB5
:10FAE00082BD2F5F3F4F4F4F5F4FF89A80B5DB01CC
:10FAF0008D93BD012E153F054007510761F7C05E8C
:10FB0000DE4F288339834A835B83C052D1409601FC
:10FB10002D5F3F4FFB01108204C080EC8A8322E0FE
:10FB200030E08BE18093C6008091C00086FFFCCF5F
:10FB30008091C00080648093C000C15DDE4FF88179
:10FB4000CF52D140F093C6008091C00086FFFCCF19
:10FB50008091C00080648093C000432F3093C60022
:10FB60008091C00086FFFCCF8091C00080648093AC
:10FB7000C000922F2093C6008091C00086FFFCCF6A
:10FB80008091C00080648093C0008EE08093C600A6
:10FB90008091C00086FFFCCF8091C000806480937C
:10FBA000C00065E1C15DDE4FE880CF52D1406E25D7
:10FBB00069276427FE01319610C090819093C6009A
:10FBC0008091C00086FFFCCF31968091C000806498
:10FBD0008093C0006927215030402115310569F715
:10FBE0006093C6008091C00086FFFCCF8091C0006A
:10FBF00080648093C00085B1805885B9772081F4F6
:10FC0000C15DDE4F0881CF52D1400F5FC15DDE4F35
:10FC10000883CF52D14090E0A0E0B0E00D941AF4F8
:10FC200027982F9880E090E020ED37E0F901319798
:10FC3000F1F7019684369105C9F700008091C00064
:10FC40008D7F8093C00081E180935700E895EE2777
:10FC5000FF270994FFCF90E00D941AF497FB092E2B
:10FC600007260AD077FD04D02ED006D000201AF443
:10FC7000709561957F4F0895F6F7909581959F4F08
:10FC80000895A1E21A2EAA1BBB1BFD010DC0AA1FDD
:10FC9000BB1FEE1FFF1FA217B307E407F50720F0F5
:10FCA000A21BB30BE40BF50B661F771F881F991F70
:10FCB0001A9469F760957095809590959B01AC01B9
:10FCC000BD01CF010895AA1BBB1B51E107C0AA1FAC
:10FCD000BB1FA617B70710F0A61BB70B881F991FED
:10FCE0005A95A9F780959095BC01CD010895F99991
:10FCF000FECF92BD81BDF89A992780B50895262F31
:10FD0000F999FECF1FBA92BD81BD20BD0FB6F89400
:0EFD1000FA9AF99A0FBE01960895F894FFCF63
:040000033000E000E9
:00000001FF