:1000000007C1000036C1000034C1000032C1000049
:1000100030C100002EC100002CC100002AC1000028
:1000200028C1000026C1000024C1000022C1000038
:1000300020C100001EC100001CC100001AC1000048
:1000400018C1000057C7000014C1000012C1000011
:1000500010C100000EC100000CC1000018C5000056
:1000600008C100000C94160A0C94ED0902C10000AE
:1000700000C10000FEC00000FCC00000FAC000008B
:100080000CC70000F6C00000F4C00000F2C0000081
:10009000F0C00000EEC00000ECC0000058C7000037
:1000A000E8C00000E6C00000CBC60000E2C00000CF
:1000B000E0C00000DEC00000DCC0000094C600000C
:1000C000D8C00000D6C00000D4C00000D2C00000DC
:1000D000D0C00000CEC00000CCC00000CAC00000EC
:1000E000C8C0000069016C015B015F016301A301ED
:1000F000700174017A017E01820188018C019001F6
:10010000A30196019A019E0100000A0B02090C0D41
:100110000E080703040100000000000000000000BA
:1001200000000000000000000000000000000000CF
:10013000000000001211100000000000000000008C
:1001400000000000000000000000000000000000AF
:100150002200250028002B002E003100340002016F
:100160000000050108010B01000021002400270008
:100170002A002D00300033000101000004010701B6
:100180000A0105050505070508080808020202021C
:100190000A0A080804040404010101010101010123
:1001A0000303030303030303040707070C0C0C0CEE
:1001B0000C0C0C0C020202020606060606060606D7
:1001C0000B0B0B0B0B0B0B0B010210202008081064
:1001D00020401020408002010201080402010102B7
:1001E0000408102040808040201008040201800490
:1001F00002018040201008040201080402010102EB
:1002000004081020408001020408102040802A0EBB
:1002100011241FBECFEFD1E2DEBFCDBF00E00CBF87
:1002200024E0AEE4B2E001C01D92AE3FB207E1F7B8
:1002300012E0A0E0B2E0E4EEF4E200E00BBF02C0A6
:1002400007900D92AE34B107D9F711E0C8E0D1E0C4
:1002500000E006C021970109802FFE010E94BC0F1B
:10026000C730D10780E00807A9F70E94280B0C943B
:100270007012C6CE362F90E0FC01E85FFE4F44912D
:10028000FC01E853FE4F2491FC01EE57FE4F949180
:10029000992309F46BC0442309F455C050E0FA01D6
:1002A0003197E231F10508F04EC08827EE58FF4F34
:1002B0008F4F0C94BC0F809180008F7707C0809186
:1002C00080008F7D03C080918000877F80938000B5
:1002D0003AC084B58F7702C084B58F7D84BD33C0AA
:1002E0008091B0008F7703C08091B0008F7D8093A4
:1002F000B00029C0809190008F7707C08091900056
:100300008F7D03C080919000877F809390001BC0F9
:100310008091A0008F7707C08091A0008F7D03C0DF
:100320008091A000877F8093A0000DC08091200164
:100330008F7707C0809120018F7D03C080912001BD
:10034000877F80932001E92FF0E0EE0FFF1FE25B33
:10035000FE4FA591B4918FB7F894EC91311103C081
:1003600020952E2301C02E2B2C938FBF08953FB7CD
:10037000F89480919A0290919B02A0919C02B09176
:100380009D0226B5A89B05C02F3F19F00196A11D1F
:10039000B11D3FBFBA2FA92F982F8827820F911D1B
:1003A000A11DB11DBC01CD0142E0660F771F881F62
:1003B000991F4A95D1F70895CF93DF93EC016130EF
:1003C00079F048F06230B9F0633019F561E08B8163
:1003D00051DF60E014C061E08B814CDF60E004C05D
:1003E00060E08B8147DF61E08C8144DF61E08D81DB
:1003F00041DF60E00AC060E08B813CDF61E08C811E
:1004000039DF60E08D8136DF61E08E81DF91CF9151
:1004100031CFDF91CF910895CF93DF93EC0161301D
:1004200049F030F0623059F0633089F460E008C080
:1004300060E001C061E08B811DDF61E004C061E02C
:100440008B8118DF60E08C81DF91CF9113CFDF913A
:10045000CF9108951F93CF93DF93EC0111E020E03B
:1004600030E0A9016F85788989899A890E94731182
:1004700018160CF010E0612F8C81FCDE61E08B819E
:10048000F9DE60E08B81DF91CF911F91F3CECF93A6
:10049000DF93EC0120E030E0A9016F85788989893C
:1004A0009A890E94731118161CF4EBA1FCA102C0DA
:1004B000EDA1FEA1DF91CF911994DC0112962C9150
:1004C000213069F028F0223089F02430B1F008950D
:1004D000DC01ED91FC910280F381E02D1994DC01A7
:1004E000ED91FC910480F581E02D0DC0DC01ED91D2
:1004F000FC910680F781E02D06C0DC01ED91FC91B6
:100500000084F185E02D1994CF92DF92EF92FF9253
:100510000F931F93CF93DF936C018B017A01EC0152
:10052000CB56DD4F888187FF04C0FB01118210820A
:1005300024C08CE08C9D90018D9D300D112488810C
:10054000A901480F511D87FD5A958091480490E0FC
:100550004817590794F48881A901480F511D87FD58
:100560005A95CA01FA01EE0FFF1F8E0F9F1FFC0163
:10057000E854FC4F808186FD19C088818F5F888395
:100580008CE08C9D90018D9D300D11248881A901F6
:10059000480F511D87FD5A958091480490E04817F7
:1005A0005907B4F488818C303CF112C08881280F3F
:1005B000311D87FD3A95F901EE0FFF1F2E0F3F1FEA
:1005C000F901E854FC4F808160E08F7353DED5CF92
:1005D000F80180819181049680349C4918F480E46C
:1005E0009CE904C0F801808191810496F701918310
:1005F00080838FEF888344C0F801408151818881D6
:10060000B901680F711D87FD7A95CB01FB01EE0FD3
:10061000FF1F8E0F9F1FFC01E854FC4F81819281C8
:10062000840F951FF701918380838881A901480F6A
:10063000511D87FD5A95CA01FA01EE0FFF1F8E0F5B
:100640009F1FFC01E854FC4F808186FF19C0888100
:10065000280F311D87FD3A95F901EE0FFF1F2E0F70
:100660003F1FF901E854FC4F808161E08F73DF91F7
:10067000CF911F910F91FF90EF90DF90CF90FACD27
:10068000DF91CF911F910F91FF90EF90DF90CF906E
:10069000089585ED8093BC008091BC0084FDFCCF63
:1006A0001092EA02089540917002262F30E0240F44
:1006B000311D21323105DCF42091EA022430C9F4E5
:1006C000FC0180E090E0861758F43091700221918F
:1006D000DC01A25BBD4FA30FB11D2C930196F3CF9C
:1006E00080917002680F6093700280E0089581E04D
:1006F000089582E008950895E091BF028091BE02BE
:10070000E81730F4F0E0E256FD4F808190E0089564
:100710008FEF9FEF08959091BF028091BE029817CE
:1007200050F4E92FF0E0E256FD4F208130E09F5F6A
:100730009093BF0202C02FEF3FEFC901089580914F
:10074000BE0290E02091BF02821B91090895CF92D2
:10075000DF92EF92FF920F931F93CF93DF937C0171
:10076000262F972F8A018091EB02882391F0C62FC4
:10077000D72F6E01C40ED51ECC15DD0569F0699129
:10078000D701ED91FC910190F081E02DC701199501
:10079000F3CF642F822F87DFC801DF91CF911F91A4
:1007A0000F91FF90EF90DF90CF900895CF93DF935C
:1007B0001F92CDB7DEB769832091EB022223D1F0DF
:1007C00020910E03203240F021E030E0FC01338321
:1007D000228380E090E014C08091EC02E82FF0E0EA
:1007E000E351FD4F998190838F5F8093EC0280935A
:1007F0000E0304C061E0CE01019655DF81E090E078
:100800000F90DF91CF9108958F929F92AF92BF92F8
:10081000CF92DF92EF92FF920F931F93CF93DF93CC
:10082000EC018B859C85AD85BE850F81188529855A
:100830003A85BC01CD01601B710B820B930B09F44F
:10084000D0C08AF00E94C3109B01AC010E94C50F6A
:100850002F89388D498D5A8D0E9477110E94DE11A3
:100860006B017C011BC090958095709561957F4FC1
:100870008F4F9F4F0E94C3109B01AC010E94C50F78
:100880002F89388D498D5A8D0E9477110E94DE1173
:100890006B017C01F7FAF094F7F8F0948F84988854
:1008A000A988BA88A5019401C701B6010E947311F5
:1008B00018160CF043C020E030E0A901C501B401D6
:1008C0000E94291081110BC06F89788D898D9A8DB6
:1008D0009B01AC010E94C50F0E94DE111BC0A50147
:1008E00094016F89788D898D9A8D0E942D106B01EE
:1008F0007C0120E030E0A9010E947311181624F059
:10090000F7FAF094F7F8F094A7019601C501B40145
:100910000E94C50F7B018C01BB88CC88DD88CE8905
:100920002B2D3C2D4D2D5C2F0E94731118160CF0B1
:100930005DC03B2D7C2D8D2D9C2F5FC0A5019401AA
:10094000C701B6010E94291087FF54C020E030E0A3
:10095000A901C501B4010E942910811111C06F893C
:10096000788D898D9A8D9B01AC010E94C50F0E94E4
:10097000DE116B017C01F7FAF094F7F8F0941DC0DA
:10098000A50194016F89788D898D9A8D0E942D1013
:100990006B017C0120E030E0A9010E947311181660
:1009A00024F0F7FAF094F7F8F094A7019601C50146
:1009B000B4010E94C40F6B017C018B889C88AD88B8
:1009C000BE88B7FAB094B7F8B094A5019401C701F6
:1009D000B6010E94291087FF0DC0382D792DC50161
:1009E0000CC030E070E080E090E007C03E2D7F2D2D
:1009F000C80103C03C2D7D2DC701C32ED72E7C011D
:100A0000C701B601DF91CF911F910F91FF90EF9039
:100A1000DF90CF90BF90AF909F908F9008958F926E
:100A20009F92AF92BF92CF92DF92EF92FF926B01B3
:100A30007C019DDC4B015C01C114D104E104F10493
:100A4000E9F095DCDC01CB0188199909AA09BB09F9
:100A5000883E9340A105B10578F321E0C21AD10880
:100A6000E108F10888EE880E83E0981EA11CB11CF5
:100A7000C114D104E104F10421F7DECFFF90EF901F
:100A8000DF90CF90BF90AF909F908F9008951F926E
:100A90000F920FB60F9211242F933F938F939F9332
:100AA000AF93BF938091C0029091C102A091C20206
:100AB000B091C3023091990223E0230F2D3720F427
:100AC0000196A11DB11D05C026E8230F0296A11DA8
:100AD000B11D209399028093C0029093C102A0930C
:100AE000C202B093C30280919A0290919B02A0919E
:100AF0009C02B0919D020196A11DB11D80939A02A6
:100B000090939B02A0939C02B0939D02BF91AF91E2
:100B10009F918F913F912F910F900FBE0F901F903B
:100B200018950F931F93CF93DF931F921F92CDB70A
:100B3000DEB7152F032FFC01808191E09093EB022B
:100B400080930D031092EC0210920E03F4E06F9F5D
:100B5000B00111246A5F7F4F8CEA93E02A834983B6
:100B600025DE4981842F912F1FD5812F90E01CD540
:100B70002A81822F902F18D5802F90E015D581E003
:100B80000F900F90DF91CF911F910F91B0C49A01F8
:100B9000CB96211540E1340728F020E030E040E01A
:100BA00050E102C040E050E0BCCF0F931F93CF93C1
:100BB000DF93EC01142F9C85413019F493FF05C09D
:100BC0000DC0423049F493FF09C0613019F4905FC1
:100BD0009C8743C09051FCCF433031F4613011F019
:100BE0009850F6CF985FF4CF4430B9F5613011F4E6
:100BF0009F5F01C091509C872C852F732C87822F7B
:100C000090E0203148F4ECE1F2E0E81BF90B408180
:100C1000FC01E45FFD4F1FC030EF320F303138F47C
:100C2000FC01E450FE4F4081ECE2F2E012C02052A1
:100C3000203148F4ECE3F2E0E81BF90B4081FC01C1
:100C4000E451FE4F08C0FC01E452FE4F4081ECE449
:100C5000F2E0E81BF90B008102C04FEF0FEF8C852B
:100C60008F738C8780E1489FA00111246C818D8552
:100C70009E858DDF80E1089FA00111246F818D8505
:100C80009E8585DFEC851430A1F4E03110F413E08B
:100C900001C010E080EF8E0F803108F4166080EE06
:100CA0008E0F803108F41C60E053E03168F4196065
:100CB0000BC0E695E695E695E83028F4F0E0EC5FA9
:100CC000FD4F108101C010E08D859E8520E030E051
:100CD00010FF03C040E050E102C040E050E06E81F0
:100CE000CB961FDF8D859E8520E030E011FF03C08D
:100CF00040E050E102C040E050E06885CB9611DF53
:100D00008D859E8520E030E012FF03C040E050E179
:100D100002C040E050E06D81CB9603DF8D859E855B
:100D200020E030E013FF03C040E050E102C040E0AB
:100D300050E06985CB96F5DE8C85DF91CF911F91D0
:100D40000F91089542E062E08091AC049091AD046F
:100D50002CCF42E061E08091AC049091AD0425CFAE
:100D600041E062E08091AE049091AF041ECF41E07B
:100D700061E08091AE049091AF0417CFCF92DF92E3
:100D8000EF92FF92CF93DF93EC01E881F981028427
:100D9000F385E02D19959B01AC016F87788B898BCA
:100DA0009A8B60E070E08AE794E40E942D106B015A
:100DB0007C0120E030E0A9010E94731118161CF498
:100DC000C701B60103C0C701B60190580E94951033
:100DD0006B8F7C8F8D8F9E8FDF91CF91FF90EF90E7
:100DE000DF90CF9008951F920F920FB60F921124AB
:100DF0000BB60F922F933F934F935F936F937F9315
:100E00008F939F93AF93BF93EF93FF9348E251E08B
:100E100064E271E080E090E077DBFF91EF91BF91B9
:100E2000AF919F918F917F916F915F914F913F9182
:100E30002F910F900BBE0F900FBE0F901F90189523
:100E40001F920F920FB60F9211240BB60F922F9391
:100E50003F934F935F936F937F938F939F93AF9342
:100E6000BF93EF93FF9348EA50E064EA70E083E0B9
:100E700090E04ADBFF91EF91BF91AF919F918F91ED
:100E80007F916F915F914F913F912F910F900BBE8A
:100E90000F900FBE0F901F9018951F920F920FB6D4
:100EA0000F9211240BB60F922F933F934F935F93A2
:100EB0006F937F938F939F93AF93BF93EF93FF9322
:100EC00048E950E064E970E082E090E01DDBFF91CA
:100ED000EF91BF91AF919F918F917F916F915F91B2
:100EE0004F913F912F910F900BBE0F900FBE0F901F
:100EF0001F9018951F920F920FB60F9211240BB6E8
:100F00000F922F933F934F935F936F937F938F93A2
:100F10009F93AF93BF93EF93FF9348E850E064E84B
:100F200070E081E090E0F0DAFF91EF91BF91AF9136
:100F30009F918F917F916F915F914F913F912F91F1
:100F40000F900BBE0F900FBE0F901F9018951F9221
:100F50000F920FB60F9211240BB60F922F933F935F
:100F60004F935F936F937F938F939F93AF93BF93B1
:100F7000EF93FF938091B900887F803609F49CC07D
:100F800068F5883209F45BC090F4803109F454C0EC
:100F900038F4882309F4F6C0883009F44DC0F5C050
:100FA000883109F44CC0803209F45DC0EEC0803451
:100FB00009F468C048F4803309F455C0883309F057
:100FC000E4C08093E802D8C0803509F44FC088356A
:100FD00009F45DC0883409F0D8C0D6C0883909F456
:100FE000C7C0A8F4883709F467C038F4883609F414
:100FF00063C0803709F460C0C8C0883809F4B8C03D
:10100000803909F45FC0803809F0BFC05BC0803B05
:1010100009F486C038F4803A09F466C0883A09F4C5
:101020007FC0B3C0803C09F4A7C0883C09F4A4C0C9
:10103000883B09F48AC0A9C08091C50210C0909174
:10104000E7028091E602981770F5E091E70281E0EF
:101050008E0F8093E702F0E0EA53FD4F808180938A
:10106000BB0085EC86C08093E8028EC0E091E70269
:1010700081E08E0F8093E7028091BB00F0E0EA539D
:10108000FD4F80839091E7028091E6026EC0E0916F
:10109000E70281E08E0F8093E7028091BB00F0E0D1
:1010A000EA53FD4F80838091E90281116DC081E098
:1010B0008093C40284EA61C083E08093EA021092C4
:1010C0009402CFCF80919402803208F051C0E09119
:1010D000940281E08E0F809394028091BB00F0E037
:1010E000EC58FD4F8083BDCF85EC8093BC001092FF
:1010F000EA0280919402803230F4E0919402F0E0B0
:10110000EC58FD4F10826091940270E0E091720201
:10111000F091730284E792E019951092940235C021
:1011200084E08093EA021092710210927002E091C2
:101130006E02F0916F02199580917002811105C0C5
:1011400081E08093700210924E02E091710281E082
:101150008E0F80937102F0E0E25BFD4F80818093FF
:10116000BB009091710280917002981708F479CFBA
:1011700085E88093BC0009C085EC8093BC00109288
:10118000EA0203C01092E80284DAFF91EF91BF9166
:10119000AF919F918F917F916F915F914F913F910F
:1011A0002F910F900BBE0F900FBE0F901F901895B0
:1011B0001092EA0281E08093E9021092C40261E099
:1011C00084E158D861E085E155D8E9EBF0E0808111
:1011D0008E7F808380818D7F808388E48093B800B8
:1011E00085E48093BC000895FC01918D828D981751
:1011F00061F0828DDF01A80FB11D5D968C91928DFB
:101200009F5F9F73928F90E008958FEF9FEF0895F7
:10121000FC01918D828D981731F0828DE80FF11DC0
:10122000858D90E008958FEF9FEF0895FC01918DDB
:10123000228D892F90E0805C9F4F821B91098F73D4
:10124000992708958FE093E0F1DF21E0892B09F4DD
:1012500020E0822F0895FC01848DDF01A80FB11DCD
:10126000A35ABF4F2C91848D90E001968F739927DC
:10127000848FA689B7892C93A089B1898C918064C9
:101280008C93938D848D981306C00288F389E02D8A
:1012900080818F7D80830895EF92FF920F931F933B
:1012A000CF93DF93EC0181E0888F9B8D8C8D981319
:1012B00005C0E889F989808185FD23C0F62E0B8D54
:1012C00010E00F5F1F4F0F731127E02E8C8DE81277
:1012D0000BC00FB607FCFACFE889F989808185FF3A
:1012E000F5CFCE01B8DFF2CF8B8DFE01E80FF11DF7
:1012F000E35AFF4FF0820B8FEA89FB89808180627D
:1013000007C0EE89FF896083E889F989808180645C
:10131000808381E090E0DF91CF911F910F91FF904A
:10132000EF900895CF93DF93EC01888D8823C1F06F
:10133000EA89FB89808185FD05C0A889B9898C91DE
:1013400086FD0EC00FB607FCF5CF808185FFF2CF7A
:10135000A889B9898C9185FFEDCFCE017CDFE8CFDC
:10136000DF91CF91089580E090E0892B19F06ADF3A
:10137000811125C080E090E0892B41F080E090E071
:10138000892B21F00E94000081111CC080E090E0B8
:10139000892B41F080E090E0892B21F00E94000031
:1013A000811113C080E090E0892BA1F080E090E0F3
:1013B000892B81F00E94000081110AC008950E94CB
:1013C0000000D8CF0E940000E1CF0E940000EACFC9
:1013D0000C94000008950E9431121F920F920FB6D4
:1013E0000F9211240BB60F922F933F934F935F935D
:1013F0006F937F938F939F93AF93BF93EF93FF93DD
:101400008FE093E028DFFF91EF91BF91AF919F9123
:101410008F917F916F915F914F913F912F910F909D
:101420000BBE0F900FBE0F901F9018951F920F923A
:101430000FB60F9211240BB60F922F938F939F9399
:10144000EF93FF93E0911F03F09120038081E091DF
:101450002503F091260382FD12C09081809128031C
:101460008F5F8F7320912903821751F0E091280339
:10147000F0E0E15FFC4F958F8093280301C08081ED
:10148000FF91EF919F918F912F910F900BBE0F9035
:101490000FBE0F901F901895CF92DF92EF92FF92A0
:1014A0000F931F93CF93DF936C017A018B01C0E000
:1014B000D0E0CE15DF0589F0D8016D918D01D60100
:1014C000ED91FC910190F081E02DC6011995892BD9
:1014D00011F47E0102C02196ECCFC701DF91CF91BC
:1014E0001F910F91FF90EF90DF90CF900895382FCC
:1014F00020910E0390910D03213208F049C0809194
:10150000EA028111FCCF42E04093EA023093E90203
:101510003FEF3093E8021092E7022093E602ADEE2F
:10152000B2E046EC52E0FA013E2F341B321718F4B9
:101530003D913193F9CF1092C5022091C502990FC8
:10154000922B9093C5029091C402913061F4109255
:10155000C4029091C5029093BB009091BC0093FD92
:10156000F8CF95EC01C095EE9093BC009091EA0203
:101570009230E1F39091E8029F3F79F08091E80288
:10158000803241F08091E802803331F084E005C080
:1015900081E003C082E001C083E01092EC0210926F
:1015A0000E031092EB020895682F8CEA93E0FEC8B8
:1015B000CF93C62F9091EB0421E02093EB02909300
:1015C0000D031092EC0210920E03682F8CEA93E048
:1015D000EDD86C2F8CEA93E0E9D881E0CF9187CFEA
:1015E000AC0190919704903390F58091980428E88D
:1015F00030E0281B310987FD3395220F331F220F5E
:10160000331F4217530784F08091990428E532E094
:10161000281B310987FD3395220F331F220F331FFB
:10162000421753070CF49A0122503109220F331F3D
:101630004FB7F894892F90E0FC01EE0FFF1F8E0F3B
:101640009F1FFC01E854FC4F328321834FBF089554
:10165000789484B5826084BD84B5816084BD85B58D
:10166000826085BD85B5816085BD80916E00816099
:1016700080936E001092810080918100826080933F
:101680008100809181008160809381008091800041
:101690008160809380008091B10084608093B1006C
:1016A0008091B00081608093B00080919100826051
:1016B000809391008091910081608093910080914E
:1016C00090008160809390008091A100826080935F
:1016D000A1008091A10081608093A1008091A00071
:1016E00081608093A000809121018260809321011C
:1016F000809121018160809321018091200181608E
:101700008093200180917A00846080937A00809198
:101710007A00826080937A0080917A008160809361
:101720007A0080917A00806880937A001092C100DC
:10173000E0911F03F091200382E08083E0911B037E
:10174000F0911C031082E0911D03F0911E038FECB9
:10175000808310922703E0912303F091240386E015
:101760008083E0912103F091220380818061808356
:10177000E0912103F0912203808188608083E091D1
:101780002103F0912203808180688083E09121030E
:10179000F091220380818F7D80831092BF0210928E
:1017A000BE021092EC0210920E0302DD1092EC02C7
:1017B00010920E03FDDC60E080E0FADE80E496E04B
:1017C0009093B2048093B1048091EB0491E09093E4
:1017D000EB0280930D031092EC0210920E0360E076
:1017E0008CEA93E00E94D60381E081DE8091EB04D5
:1017F0009091EA029111FCCF91E09093EA029093CC
:10180000E9022FEF2093E8021092E7021092E6021D
:101810009093C5029091C502880F892B8093C502D1
:101820008091C402813061F41092C4028091C5029B
:101830008093BB008091BC0083FDF8CF85EC01C094
:1018400085EE8093BC008091EA028130E1F38091C3
:10185000E702811103C08091E70201C081E0A6EC9C
:10186000B2E02EE932E0F9019E2F921B981718F48E
:101870009D919193F9CF1092BF028093BE028CEAA2
:1018800093E00E948B03D82F682F6F76606180E011
:101890008FDE63E08EEF8CDE6D2F80E089DE65E009
:1018A00070E080E090E0BBD86D2F616A80E080DE60
:1018B000D0E020E030E040E050E06D2F8BEE94E08F
:1018C00030D9DF5FD031A9F7812C912C88E4A82E84
:1018D00083E4B82E8092830490928404A0928504BD
:1018E000B092860480E794E049DAC12CD12C98ECC0
:1018F000E92E92E4F92EC0928704D0928804E092F7
:101900008904F0928A0480E794E038DA80925C04DB
:1019100090925D04A0925E04B0925F0489E494E02A
:101920002DDAC0926004D0926104E0926204F092D9
:10193000630489E494E022DA80919704803308F00C
:1019400068C0EAECF1E02491E4E8F1E084918823B6
:1019500099F090E0880F991FFC01E859FE4FA5917E
:10196000B491FC01E25BFE4F859194918FB7F8949E
:10197000EC91E22BEC938FBF80919704E82FF0E07D
:101980009F01220F331FE20FF31FE854FC4F908199
:10199000907C9260908310929804109299046CE06D
:1019A000DFD29CE0899FB001112440E050E09A0111
:1019B000260F371FF901EE0FFF1F2E0F3F1FF901F2
:1019C000E854FC4F908196FD17C04F5F5F4F4C303D
:1019D000510569F7813009F011C11092800082E051
:1019E000809381001092850010928400B19A8091BA
:1019F0006F00826080936F00E0919704F0E0CF0168
:101A0000880F991FE80FF91FE854FC4F808180640C
:101A100080833AE0432E512C612C712C2FB7F8941F
:101A20008091C0029091C102A091C202B091C30204
:101A30002FBF4497A105B10508F445C02AE030E066
:101A400040E050E0BA0180919A04863308F0865352
:101A500090917B00E82FE870977F9E2B90937B00FE
:101A60008770806480937C0080917A00806480938A
:101A70007A0080917A0086FDFCCF80917800E09119
:101A8000790090E09E2B092E000CAA0BBB0B480F8F
:101A9000591F6A1F7B1F21503109A9F6CB01BA01DA
:101AA000A3019201ECD4A4E6B0E0DFD4DC01CB01C9
:101AB0002AE0B595A795979587952A95D1F7C3976D
:101AC0002CF0C0E087C0CC2309F484C080E090E013
:101AD000A8E4B3E480937F0490938004A0938104EE
:101AE000B093820485E090E0A0E0B0E080938B04A6
:101AF00090938C04A0938D04B0938E048FB7F894C8
:101B0000C090C002D090C102E090C202F090C30227
:101B10008FBF40918B0450918C0460918D04709123
:101B20008E0480918F0490919004A0919104B091C3
:101B30009204840F951FA61FB71F8C159D05AE0537
:101B4000BF0508F046C080907F0490908004A0906C
:101B50008104B090820420E030E0A901C501B40105
:101B6000C2D3181664F48091770490917804A09100
:101B70007904B0917A040196A11DB11D13C020E033
:101B800030E0A901C501B40164D287FF13C0809180
:101B9000770490917804A0917904B0917A04019728
:101BA000A109B1098093770490937804A0937904F4
:101BB000B0937A0460917704637080E794E00E94A8
:101BC0005D02C0928F04D0929004E0929104F09252
:101BD0009204C1E084EF91E003DD60ED77E080E006
:101BE00090E00E940F0584EC99E0FADC60ED77E06C
:101BF00080E090E00E940F05B6DB10CF823061F4E8
:101C00001092900080939100109295001092940091
:101C100088BB80937100F0CE833069F41092A000ED
:101C200082E08093A1001092A5001092A40089BBCD
:101C300080937200E1CE8111DFCE1092200182E00C
:101C40008093210110922501109224018ABB809378
:101C50007300D2CE109212031092110388EE93E01B
:101C6000A0E0B0E08093130390931403A0931503B6
:101C7000B093160321E232E03093100320930F0358
:101C800025EC30E030931C0320931B0324EC30E060
:101C900030931E0320931D0320EC30E0309320038B
:101CA00020931F0321EC30E0309322032093210383
:101CB00022EC30E0309324032093230326EC30E021
:101CC00030932603209325031092280310922903B2
:101CD00010922A0310922B031092AF031092AE03BE
:101CE0008093B0039093B103A093B203B093B30376
:101CF00081E392E09093AD038093AC03E5EBF4E0D5
:101D00001282118213821082DF0111971C921197A7
:101D10001C92369684E0ED3CF80791F780EB94E056
:101D20001092D7041092DA041092E70420E6209370
:101D3000B0042093EB0428EC30E03093D6042093D9
:101D4000D5049093D9048093D80448E04093CF04FD
:101D50004DE04093D2044AE04093D00449E04093E0
:101D6000D1044BE04093D3044CE04093D4044BECBB
:101D700054E05093AF044093AE0441E04093EA0432
:101D80003093E6042093E5049093E9048093E804FB
:101D900082E08093DF0487E08093E20484E0809314
:101DA000E00483E08093E10485E08093E30486E02F
:101DB0008093E4048BED94E09093AD048093AC04A5
:101DC00010929B0410929A0481E090E09093ED04AD
:101DD0008093EC04809148048033A0F491E0980F44
:101DE000909348048093970490E0FC01EE0FFF1F4E
:101DF0008E0F9F1FFC01E854FC4F88EB9BE0928301
:101E0000818303C08FEF8093970421E432E0309305
:101E1000710420937004109272041092770410924F
:101E200078041092790410927A0410927B04109234
:101E30007C0410927D0410927E0410927F04109214
:101E40008004109281041092820480E090E0A0E867
:101E5000BFE38093830490938404A0938504B0939C
:101E600086048093870490938804A0938904B09398
:101E70008A0410928B0410928C0410928D0410929C
:101E80008E0410928F04109290041092910410927C
:101E900092041092730410927404109275041092BC
:101EA000760447EB56E0509394044093930440EB40
:101EB00056E0509396044093950430934A0420933F
:101EC000490410924B041092500410925104109245
:101ED000520410925304109254041092550410921C
:101EE00056041092570410925804109259041092FC
:101EF0005A0410925B0480935C0490935D04A09359
:101F00005E04B0935F048093600490936104A09397
:101F10006204B093630410926404109265041092FA
:101F2000660410926704109268041092690410927B
:101F30006A0410926B0410924C0410924D0410929B
:101F40004E0410924F0489EA96E090936D048093BA
:101F50006C0482EA96E090936F0480936E04089577
:101F6000991B79E004C0991F961708F0961B881FEB
:101F70007A95C9F780950895EE0FFF1F881F8BBFD4
:101F80000790F691E02D19945058BB27AA270ED040
:101F900070C161D130F066D120F031F49F3F11F46F
:101FA0001EF456C10EF4E095E7FB4CC1E92F72D147
:101FB00080F3BA17620773078407950718F071F466
:101FC0009EF58AC10EF4E0950B2EBA2FA02D0B01C1
:101FD000B90190010C01CA01A0011124FF27591B6E
:101FE00099F0593F50F4503E68F11A16F040A22F74
:101FF000232F342F4427585FF3CF469537952795E5
:10200000A795F0405395C9F77EF41F16BA0B620BE3
:10201000730B840BBAF09150A1F0FF0FBB1F661F2A
:10202000771F881FC2F70EC0BA0F621F731F841F6D
:1020300048F4879577956795B795F7959E3F08F093
:10204000B3CF9395880F08F09927EE0F9795879552
:102050000895D4D008F481E008950CD00AC102D1CB
:1020600040F0F9D030F021F45F3F19F0EBC051118E
:1020700034C1EEC00FD198F39923C9F35523B1F3BE
:10208000951B550BBB27AA2762177307840738F0E7
:102090009F5F5F4F220F331F441FAA1FA9F333D046
:1020A0000E2E3AF0E0E830D091505040E695001CFA
:1020B000CAF729D0FE2F27D0660F771F881FBB1FB6
:1020C000261737074807AB07B0E809F0BB0B802D90
:1020D000BF01FF2793585F4F2AF09E3F510568F0DC
:1020E000B1C0FBC05F3FECF3983EDCF3869577957B
:1020F0006795B795F7959F5FC9F7880F911D9695DE
:10210000879597F90895E1E0660F771F881FBB1F39
:10211000621773078407BA0720F0621B730B840BE6
:10212000BA0BEE1F88F7E0950895BCD088F09F5752
:1021300090F0B92F9927B751A0F0D1F0660F771F13
:10214000881F991F1AF0BA95C9F712C0B13081F0F3
:10215000C3D0B1E00895C0C0672F782F8827B85F3B
:1021600039F0B93FCCF3869577956795B395D9F754
:102170003EF490958095709561957F4F8F4F9F4F5E
:102180000895E89409C097FB3EF49095809570956A
:1021900061957F4F8F4F9F4F9923A9F0F92F96E9B3
:1021A000BB279395F695879577956795B795F11128
:1021B000F8CFFAF4BB0F11F460FF1BC06F5F7F4FC5
:1021C0008F4F9F4F16C0882311F096E911C07723D7
:1021D00021F09EE8872F762F05C0662371F096E8E0
:1021E000862F70E060E02AF09A95660F771F881FAF
:1021F000DAF7880F9695879597F90895990F000853
:10220000550FAA0BE0E8FEEF16161706E807F907C8
:10221000C0F012161306E407F50798F0621B730B63
:10222000840B950B39F40A2661F0232B242B252BE4
:1022300021F408950A2609F4A140A6958FEF811D87
:10224000811D089597F99F6780E870E060E0089528
:102250009FEF80EC089500240A94161617061806BE
:102260000906089500240A9412161306140605069A
:102270000895092E0394000C11F4882352F0BB0F2B
:1022800040F4BF2B11F460FF04C06F5F7F4F8F4F8E
:102290009F4F089557FD9058440F551F59F05F3FC9
:1022A00071F04795880F97FB991F61F09F3F79F078
:1022B00087950895121613061406551FF2CF4695FA
:1022C000F1DF08C0161617061806991FF1CF86957C
:1022D0007105610508940895E894BB276627772760
:1022E000CB0197F908958ADF08F48FEF08950BD09A
:1022F000C0CFB1DF28F0B6DF18F0952309F0A2CFE8
:10230000A7CF1124EACFC6DFA0F3959FD1F3950F95
:1023100050E0551F629FF001729FBB27F00DB11D69
:10232000639FAA27F00DB11DAA1F649F6627B00DF9
:10233000A11D661F829F2227B00DA11D621F739FE2
:10234000B00DA11D621F839FA00D611D221F749FF0
:102350003327A00D611D231F849F600D211D822F37
:10236000762F6A2F11249F5750408AF0E1F088237E
:102370004AF0EE0FFF1FBB1F661F771F881F91508B
:102380005040A9F79E3F510570F05CCFA6CF5F3F4C
:10239000ECF3983EDCF3869577956795B795F795BE
:1023A000E7959F5FC1F7FE2B880F911D9695879546
:1023B00097F9089511F40EF44BCF3EC073DFD0F3BC
:1023C0009923D9F3CEF39F57550B87FF43D00024B1
:1023D000A0E640EA900180585695979528F4805CD5
:1023E000660F771F881F20F026173707480730F43D
:1023F000621B730B840B202931294A2BA695179455
:102400000794202531254A2758F7660F771F881F24
:1024100020F026173707480730F4620B730B840B44
:10242000200D311D411DA09581F7B901842F9158D0
:10243000880F9695879508959F3F31F0915020F42D
:10244000879577956795B795880F911D9695879590
:1024500097F9089591505040660F771F881FD2F763
:10246000089581E090E0F8943BC02BD0A59F900D9B
:10247000B49F900DA49F800D911D11240895A1E299
:102480001A2EAA1BBB1BFD010DC0AA1FBB1FEE1FEE
:10249000FF1FA217B307E407F50720F0A21BB30B39
:1024A000E40BF50B661F771F881F991F1A9469F7B5
:1024B00060957095809590959B01AC01BD01CF0111
:1024C0000895A29FB001B39FC001A39F700D811D0D
:1024D0001124911DB29F700D811D1124911D08952D
:0424E000F894FFCF9E
:1024E4000100000001030206040C08090019324A25
:1024F40062788DA2B4C5D4E1ECF4FAFDFF000000CB
:10250400004C094C0A1609F4080809920900000055
:1025140000D603A7039F038B037C037B0300000007
:0E252400005D0247022A020C02DC01040400E2
:00000001FF
