:1000000026C1000055C1000053C1000051C10000CD
:100010004FC100004DC100004BC1000049C10000AC
:1000200047C1000045C1000043C1000041C10000BC
:100030003FC100000C94DF0C3BC1000039C100003F
:1000400037C100000C94770F33C1000031C10000AC
:100050002FC100002DC100002BC100000C94340CF6
:1000600027C100000C94840B0C945B0B21C1000091
:100070001FC100001DC100001BC1000019C100000C
:100080000C944A0F15C1000013C1000011C10000FB
:100090000FC100000DC100000BC100000C94A40FA3
:1000A00007C1000005C100000C941D0F01C1000034
:1000B000FFC00000FDC00000FBC000000C94F00E6B
:1000C000F7C00000F5C00000F3C00000F1C0000060
:1000D000EFC00000EDC00000EBC00000E9C0000070
:1000E000E7C00000271657165D166D168416961683
:1000F000AB16BB16CB16D116E416EA16FD16121770
:100100002517EA162F1738173509380927092B093B
:1001100031096F093C09400946094A094E09540949
:1001200058095C096F09620966096A090000220022
:10013000250028002B002E003100340002010000B1
:10014000050108010B0100002100240027002A00FE
:100150002D003000330001010000040107010A01F5
:1001600005050505070508080808020202020A0A33
:100170000808040404040101010101010101030351
:10018000030303030303040707070C0C0C0C0C0CFC
:100190000C0C0202020206060606060606060B0BF9
:1001A0000B0B0B0B0B0B010210202008081020403A
:1001B000102040800201020108040201010204082B
:1001C00010204080804020100804020180040201B9
:1001D0008040201008040201080402010102040802
:1001E0001020408001020408102040800000200000
:1001F0002300260029002C002F00320000010000FF
:1002000003010601090100000A0B02090C0D0E088A
:1002100007030401000000000000000000000000CF
:1002200000000000000000000000000000000000CE
:10023000000012111000000000000000000000008B
:100240000000000000000000000000002719112439
:100250001FBECFEFD1E2DEBFCDBF00E00CBF12E08A
:10026000A0E0B2E0E2EAFAE300E00BBF02C00790D0
:100270000D92A637B107D9F726E0A6E7B2E001C094
:100280001D92A838B207E1F711E0C7E2D1E000E023
:1002900006C021970109802FFE010E94DF1BC63294
:1002A000D10780E00807A9F70E94F4120C944F1DB3
:1002B000A7CE2F923F924F925F926F927F928F9232
:1002C0009F92AF92BF92CF92DF92EF92FF920F93E5
:1002D0001F93CF93DF9300D000D0CDB7DEB78DE76B
:1002E00092E0909376048093750480917A0290E076
:1002F00090937804809377048091470390E09093E3
:100300007A048093790480917602853009F07BC36A
:1003100080917F0290918002885891098D359105D6
:1003200088F480917A02843041F480918102909126
:1003300082028097479708F401C280917A02843440
:1003400008F0E3C180917A028A3108F454C08091A8
:100350007D0290917E02843F914080F4109274045B
:10036000109273048FEF9FEFDC0180936F049093E2
:100370007004A0937104B09372045BC080917F02FB
:100380009091800285974B97B0F5E3E8F2E082E028
:1003900090E040E050E0BA018C010F5F1F4F2091C8
:1003A0007A0230E0021713076CF49F0122503109E2
:1003B000D9012D913C91275031092730310508F49E
:1003C000F5C1C80101979595879590937404809322
:1003D00073040C972CF410927404109273040BC0E5
:1003E00040936F045093700460937104709372048F
:1003F00084E090E0FCC280917A028A3108F44DC01A
:1004000080917D0290917E028032934008F4A6CFC5
:1004100080917F0290918002C697869708F4E2C18E
:100420003CC040936F0450937004609371047093C8
:1004300072048BE090E0DBC22081318125523109CA
:100440002B31310508F0DEC1440F551F661F771FA1
:100450004160029634968C010F5F1F4F20917A0203
:1004600030E00217130764F49F0122503109D901CB
:100470002D913C912C5031092B303105E8F2C80107
:1004800001979595879590937404809373040C97C6
:1004900044F6109274041092730480917A028232AE
:1004A00008F44CC080917F029091800206970797D4
:1004B00008F044C0E3E8F2E082E090E040E050E081
:1004C000BA018C010F5F1F4F20917A0230E00217B2
:1004D0001307DCF4DF0112972D913C9111972E51F7
:1004E00031092731310508F09AC1440F551F661FA5
:1004F000771F4160208131813496235031092530A6
:10050000310510F40296DDCFC801019795958795C6
:10051000909374048093730440972CF410927404A5
:10052000109273040BC040936F0450937004609357
:100530007104709372048CE090E059C21C821B829B
:1005400081E090E09A83898380917A028D3008F46B
:100550006BC049E753E0BE016D5F7F4FCE0101964E
:100560000E94FC11892B09F05FC049E753E0BE01EE
:100570006D5F7F4FCE0101960E94FC11019709F03B
:1005800053C049E753E0BE016D5F7F4FCE01019636
:100590000E94FC11892B09F047C0C12CD12C760197
:1005A00000E010E080917A0290E029813A812817DA
:1005B00039075CF549E753E0BE016D5F7F4FCE011F
:1005C00001960E94FC115C0149E753E0BE016D5F9A
:1005D0007F4FCE0101960E94FC11B1E0AB16B10431
:1005E00049F4892B09F5CC0CDD1CEE1CFF1C68942A
:1005F000C0F808C0AB28C1F40197B1F4CC0CDD1CE5
:10060000EE1CFF1C0F5F1F4FCDCF1093740400939F
:100610007304C0926F04D0927004E0927104F0925F
:10062000720481E090E0E3C11C821B8281E090E0D3
:100630009A8389838091770490917804181619061B
:100640000CF058C0E0917504F091760482E090E0DF
:100650009A8389838281938189974E9708F04AC053
:1006600083E090E09A838983848195810B970A9730
:1006700008F040C04CEB51E0BE016D5F7F4FCE01F2
:1006800001960E94FC11892BA9F54CEB51E0BE01AB
:100690006D5F7F4FCE0101960E94FC11019751F5CD
:1006A000C12CD12C760100E010E029813A818091A3
:1006B000770490917804281739070CF0F3C04CEBBD
:1006C00051E0BE016D5F7F4FCE0101960E94FC118B
:1006D0004C010330110509F0AFC04CEB51E0BE01F5
:1006E0006D5F7F4FCE0101960E94FC11881699061E
:1006F00009F4A2C0E0917504F0917604828193819F
:10070000C697869708F4DDC08CC1809181029091D4
:100710008202825491098E9708F014CE20E030E0D6
:1007200080E090E0DC01F901ED57FD4F40815181FF
:10073000495051094930510588F004CE8091830217
:10074000909184020997099708F0F7CD10927404EC
:10075000109273048FEF9FEFDC0158C1F901EB5742
:10076000FD4F40815181475151094231510588F473
:10077000880F991FAA1FBB1F81602C5F3F4F203835
:10078000310589F620E230E030937404209373043D
:100790003DC140815181465051094730510508F013
:1007A000D1CD880F991FAA1FBB1FE7CF20813181B0
:1007B000235131092F30310540F4440F551F661F76
:1007C000771F416002963496E7CD208131812A500F
:1007D00031092930310508F00ECE440F551F661F30
:1007E000771FF0CF8091810290918202C697869701
:1007F00008F053CEE5E8F2E083E090E040E050E01E
:10080000BA0129CE208131812C5031092A3031059D
:1008100008F043CE440F551F661F771F1ACE2D9147
:100820003C912C5031092B30310508F087CE440F14
:10083000551F661F771F5ECE4CEB51E0BE016D5F0A
:100840007F4FCE0101960E94FC115C01033011051F
:1008500069F44CEB51E0BE016D5F7F4FCE01019614
:100860000E94FC11A816B90609F044CF8114910426
:1008700059F4AA94AB2809F03DCFCC0CDD1CEE1C3A
:10088000FF1C6894C0F80BC08A94892809F032CF05
:10089000AB2809F02FCFCC0CDD1CEE1CFF1C0F5F2A
:1008A0001F4F03CF1093740400937304C0926F041E
:1008B000D0927004E0927104F092720482E090E0B1
:1008C00096C0848195814B97459708F0AAC0DF01B7
:1008D00016967F0126ECE20EF11C20E030E040E0AD
:1008E00050E060E070E080E090E00D911C91119785
:1008F000095011090830110508F093C012960D91A6
:100900001C911397015111090D30110520F501E0DB
:100910000E94E71B21601496AE15BF0531F72093A6
:100920006F0430937004409371045093720400E29A
:100930000E94021C20936D0430936E0485E090E0C9
:1009400090936C0480936B0480E390E09093740424
:100950008093730450C012960D911C91139704500C
:1009600011090530110508F05CC001E00E94E71B89
:10097000D2CF980122503109D9012D913C912950B3
:1009800031092830310508F0FAC0BC016F5F7F4F94
:10099000D8012D913C91275031092730310508F0BD
:1009A000EBC2440F551F416002960C5F1F4F209110
:1009B0007A0230E02450310982179307D4F201976C
:1009C0009595879590937404809373048A970CF49B
:1009D000D6C0052E000C660B770B40936F04509326
:1009E0007004609371047093720489E090E09093B6
:1009F0006C0480936B0481E090E00CC382E08093F0
:100A0000760210927A0280E090E004C380936F0433
:100A100090937004A0937104B093720483E090E00B
:100A2000E6CF80917A02893370F182819381895770
:100A300091098335910508F440C125C0D90112966A
:100A40006D917C911397665171096131710508F0C0
:100A500060C1D701C601880F991FAA1FBB1F6C0177
:100A60007D016894C0F84E5F5F4F2C5F3F4F4B3362
:100A7000510509F431C1D9016D917C916A50710918
:100A800069307105D8F280917A02823231F4828124
:100A900093810A97099708F44CC182819381895701
:100AA000910983359105D0F480917A028132B0F0BA
:100AB00084819581CA97899788F49F012A5F3F4F67
:100AC000C12CD12C760143E050E0D9016D917C918D
:100AD0006A5071096930710508F44AC182819381B5
:100AE0008C549109C59778F480917A02843031F45E
:100AF000848195818097479708F499C180917A0203
:100B0000843408F07BC180917A02863460F182815E
:100B100093810C970B9708F4D8C125C0D901129680
:100B20006D917C9113976E5171096731710508F0D1
:100B300004C2D701C601880F991FAA1FBB1F6C01F1
:100B40007D016894C0F84E5F5F4F2C5F3F4F453486
:100B5000510509F4D5C1D9016D917C916C50710991
:100B60006B307105D8F280917A02883540F082812D
:100B70009381855891098B35910508F4EEC18091D8
:100B80007A028032E1F48281938106970697B8F465
:100B9000848195810997099790F49F012A5F3F4FBF
:100BA000BF01625C7F4FC12CD12C7601D9014D91E0
:100BB0005C91465051094630510508F4EAC18091D4
:100BC0007704909178049E838D8306970CF416CF5A
:100BD0008F010A5F1F4F73E0272E312CE5ECCE2EDC
:100BE000EDE9DE2EECE1EE2EE1E8FE2ED8016D916E
:100BF0007C91F8013497A080B18080E090E00E9461
:100C000076192B013C01B50180E090E00E94761935
:100C10004B015C012DEC3CEC4CE45FE30E94D719E6
:100C20009B01AC01C301B2010E94721987FD17C07C
:100C30002DEC3CEC4CE45FE3C301B2010E94D719F8
:100C40009B01AC01C501B4010E947219E82F880F05
:100C5000FF0BEE27FF0FEE1FFF27319602C0E0E0EB
:100C6000F0E0A701960163E971E080E091E00E9465
:100C70008B1A6F01FF0FEE08FF08C626D726E8265D
:100C8000F926BFEF2B1A3B0A0E5F1F4FED81FE8145
:100C90002E163F0609F0AACFC0926F04D0927004BE
:100CA000E0927104F092720480E290E090937404F8
:100CB000809373048FEF9FEF9ACE84819581CA97BA
:100CC000899708F0E0CE9F012A5F3F4FC12CD12CBD
:100CD000760143E050E0CFCE9F012A583F4FD90123
:100CE0002D913C912A5031092930310508F0CBCEA5
:100CF0002CE130E03093740420937304C0926F04AD
:100D0000D0927004E0927104F09272048AE090E054
:100D10006ECED90112966D917C9113976650710930
:100D20006730710508F0AFCECC0CDD1CEE1CFF1C4B
:100D30009ACE20917A02CF01820F911D820F911DD0
:100D4000DC0112978D919C910A97099708F0A5CE26
:100D500010927404109273048FEF9FEFDC01809364
:100D60006F0490937004A0937104B09372044CC10B
:100D7000D90112966D917C91139766517109613179
:100D8000710588F112966D917C91139766507109E7
:100D90006730710508F0A2CECC0CDD1CEE1CFF1CE8
:100DA0004E5F5F4F2C5F3F4F4332510509F08DCEB0
:100DB0009F012A5B3F4FD9012D913C912A50310967
:100DC0002930310508F08ACE20E130E030937404F8
:100DD00020937304C0926F04D0927004E092710467
:100DE000F092720411C1D701C601880F991FAA1F82
:100DF000BB1F6C017D016894C0F8D2CF84819581BE
:100E000089549109C39708F07ECE9F012A5F3F4F16
:100E1000BF016A577F4FC12CD12C7601D9014D916A
:100E20005C914950510949305105B8F06CCE86812A
:100E300097810997099708F061CE10927404109277
:100E400073048FEF9FEFDC0180936F049093700425
:100E5000A0937104B0937204DAC0D90112964D9137
:100E60005C9113974651510941315105F0F4D70176
:100E7000C601880F991FAA1FBB1F6C017D016894D2
:100E8000C0F82C5F3F4F2617370741F620E230E0CD
:100E90003093740420937304C0926F04D092700452
:100EA000E0927104F0927204B2C0D90112964D9191
:100EB0005C911397465051094730510508F023CEF5
:100EC000CC0CDD1CEE1CFF1CDCCF848195810997C6
:100ED000099708F048CE868197818C974F9708F044
:100EE00042CE8085918589974D9708F03CCE9F0131
:100EF000265F3F4FC12CD12C760145E050E02BCE30
:100F00009F0126573F4FD9012D913C912C5031091B
:100F10002B30310508F027CE20E230E03093740406
:100F200020937304C0926F04D0927004E092710415
:100F3000F092720488E090E05ACDD90112966D913A
:100F40007C911397695071096930710508F00BCED7
:100F5000CC0CDD1CEE1CFF1CF6CD848195818254E7
:100F600091098E9708F00BCE8F01045C1F4F8DE125
:100F700090E040E050E01BCDD8012D913C912851EC
:100F800031092231310510F0CB0119CD440F551F25
:100F90000BCDD90112964D915C911397495151098E
:100FA0004331510508F5D701C601880F991FAA1FC3
:100FB000BB1F6C017D016894C0F82C5F3F4F261762
:100FC000370709F0F3CD2EE030E03093740420931E
:100FD0007304C0926F04D0927004E0927104F09296
:100FE00072048FE090E003CDD90112964D915C918F
:100FF0001397495051094930510508F0E0CDCC0C08
:10100000DD1CEE1CFF1CD9CF86E090E0F0CC87E021
:1010100090E0EDCC26960FB6F894DEBF0FBECDBFA4
:10102000DF91CF911F910F91FF90EF90DF90CF90C4
:10103000BF90AF909F908F907F906F905F904F90F8
:101040003F902F900895FC01918D828D981761F04B
:10105000828DDF01A80FB11D5D968C91928D9F5FEF
:101060009F73928F90E008958FEF9FEF0895FC019A
:10107000918D828D981731F0828DE80FF11D858D4D
:1010800090E008958FEF9FEF0895FC01918D228DE0
:10109000892F90E0805C9F4F821B91098F73992765
:1010A000089583E995E0F1DF21E0892B09F420E040
:1010B000822F0895FC01848DDF01A80FB11DA35A72
:1010C000BF4F2C91848D90E001968F739927848F68
:1010D000A689B7892C93A089B1898C9180648C935F
:1010E000938D848D981306C00288F389E02D80814A
:1010F0008F7D80830895EF92FF920F931F93CF937C
:10110000DF93EC0181E0888F9B8D8C8D981305C057
:10111000E889F989808185FD23C0F62E0B8D10E0CA
:101120000F5F1F4F0F731127E02E8C8DE8120BC03D
:101130000FB607FCFACFE889F989808185FFF5CFE2
:10114000CE01B8DFF2CF8B8DFE01E80FF11DE35A1F
:10115000FF4FF0820B8FEA89FB898081806207C094
:10116000EE89FF896083E889F989808180648083C2
:1011700081E090E0DF91CF911F910F91FF90EF9070
:101180000895CF93DF93EC01888D8823C1F0EA891D
:10119000FB89808185FD05C0A889B9898C9186FD70
:1011A0000EC00FB607FCF5CF808185FFF2CFA8896E
:1011B000B9898C9185FFEDCFCE017CDFE8CFDF913F
:1011C000CF91089580E090E0892B19F06ADF8111BA
:1011D00025C080E090E0892B41F080E090E0892BF1
:1011E00021F00E94000081111CC080E090E0892B5A
:1011F00041F080E090E0892B21F00E9400008111F5
:1012000013C080E090E0892BA1F080E090E0892B72
:1012100081F00E94000081110AC008950E94000020
:10122000D8CF0E940000E1CF0E940000EACF0C94CA
:101230000000089590E0FC013197E231F10508F0DB
:101240004EC08827EC57FF4F8F4F0C94DF1B8091C7
:1012500080008F7703C0809180008F7D8093800015
:10126000089580918000877FF9CF84B58F7702C081
:1012700084B58F7D84BD08958091B0008F7703C0C1
:101280008091B0008F7D8093B00008958091900090
:101290008F7707C0809190008F7D03C08091900070
:1012A000877F8093900008958091A0008F7707C07A
:1012B0008091A0008F7D03C08091A000877F8093E4
:1012C000A0000895809120018F7707C080912001B0
:1012D0008F7D03C080912001877F80932001089536
:1012E0001F93CF93DF93282F30E0F901EA5FFD4F82
:1012F0008491F901EA55FE4FD491F901E05AFE4F6D
:10130000C491CC23C1F0162F811194DFEC2FF0E0B3
:10131000EE0FFF1FE45DFE4FA591B4918FB7F894D7
:10132000111105C09C91ED2FE095E92302C0EC91CD
:10133000ED2BEC938FBFDF91CF911F9108953FB7B5
:10134000F8948091670490916804A0916904B09129
:101350006A0426B5A89B05C02F3F19F00196A11D70
:10136000B11D3FBFBA2FA92F982F8827820F911D3B
:10137000A11DB11DBC01CD0142E0660F771F881F82
:10138000991F4A95D1F70895FC0165857685878573
:1013900090890895FC014187528763877487089577
:1013A0000895FC0167830895CF92DF92EF92FF9238
:1013B0000F931F93CF93DF936C018B017A01EC01A4
:1013C000C25ADB4F888187FF04C0FB011182108263
:1013D00024C08CE08C9D90018D9D300D112488815E
:1013E000A901480F511D87FD5A958091590390E03E
:1013F0004817590794F48881A901480F511D87FDAA
:101400005A95CA01FA01EE0FFF1F8E0F9F1FFC01B4
:10141000E854FB4F808186FD19C088818F5F8883E7
:101420008CE08C9D90018D9D300D11248881A90147
:10143000480F511D87FD5A958091590390E0481738
:101440005907B4F488818C303CF112C08881280F90
:10145000311D87FD3A95F901EE0FFF1F2E0F3F1F3B
:10146000F901E854FB4F808160E08F7339DFD5CFFD
:10147000F80180819181049680349C4918F480E4BD
:101480009CE904C0F801808191810496F701918361
:1014900080838FEF888344C0F80140815181888127
:1014A000B901680F711D87FD7A95CB01FB01EE0F25
:1014B000FF1F8E0F9F1FFC01E854FB4F818192811B
:1014C000840F951FF701918380838881A901480FBC
:1014D000511D87FD5A95CA01FA01EE0FFF1F8E0FAD
:1014E0009F1FFC01E854FB4F808186FF19C0888153
:1014F000280F311D87FD3A95F901EE0FFF1F2E0FC2
:101500003F1FF901E854FB4F808161E08F73DF9149
:10151000CF911F910F91FF90EF90DF90CF90E0CE91
:10152000DF91CF911F910F91FF90EF90DF90CF90BF
:10153000089585ED8093BC008091BC0084FDFCCFB4
:1015400010926E05089540913904262F30E0240F43
:10155000311D21323105DCF420916E052430C9F4AF
:10156000FC0180E090E0861758F430913904219115
:10157000DC01A95EBB4FA30FB11D2C930196F3CFE5
:1015800080913904680F6093390480E0089581E008
:10159000089582E008950895E0917B0380917A0395
:1015A000E81730F4F0E0E65AFC4F808190E00895AF
:1015B0008FEF9FEF089590917B0380917A039817A6
:1015C00050F4E92FF0E0E65AFC4F208130E09F5FB5
:1015D00090937B0302C02FEF3FEFC90108958091E4
:1015E0007A0390E020917B03821B91090895CF92AA
:1015F000DF92EF92FF920F931F93CF93DF937C01C3
:10160000262F972F8A0180916F05882391F0C62F8E
:10161000D72F6E01C40ED51ECC15DD0569F069917A
:10162000D701ED91FC910190F081E02DC701199552
:10163000F3CF642F822F87DFC801DF91CF911F91F5
:101640000F91FF90EF90DF90CF900895CF93DF93AD
:101650001F92CDB7DEB7698320916F052223D1F0A9
:1016600020919205203240F021E030E0FC013383EC
:10167000228380E090E014C080917005E82FF0E0B4
:10168000EF58FA4F998190838F5F80937005809314
:10169000920504C061E0CE01019655DF81E090E043
:1016A0000F90DF91CF91089508950E944B1D0C94E7
:1016B000B31C0C94B31C1F920F920FB60F921124FF
:1016C0000BB60F922F933F934F935F936F937F933C
:1016D0008F939F93AF93BF93EF93FF9383E995E02D
:1016E000E9DCFF91EF91BF91AF919F918F917F9135
:1016F0006F915F914F913F912F910F900BBE0F9083
:101700000FBE0F901F9018951F920F920FB60F9259
:1017100011240BB60F922F938F939F93EF93FF9308
:10172000E091A305F091A4058081E091A905F091D5
:10173000AA0582FD12C090818091AC058F5F8F73E6
:101740002091AD05821751F0E091AC05F0E0ED5627
:10175000FA4F958F8093AC0501C08081FF91EF9186
:101760009F918F912F910F900BBE0F900FBE0F90F6
:101770001F9018958F929F92AF92BF92CF92DF9257
:10178000EF92FF926B017C01DADD4B015C01C11429
:10179000D104E104F104E9F0D2DDDC01CB018819C8
:1017A0009909AA09BB09883E9340A105B10578F3C0
:1017B00021E0C21AD108E108F10888EE880E83E022
:1017C000981EA11CB11CC114D104E104F10421F73D
:1017D000DECFFF90EF90DF90CF90BF90AF909F90C3
:1017E0008F9008952FB7F89460916304709164040A
:1017F00080916504909166042FBF08950F931F9305
:10180000CF93DF93EC01EEDF0B811C812D813E81B4
:10181000DC01CB01801B910BA20BB30B8D879E8744
:10182000AF87B88B2F8121110BC01D861E861F86A6
:10183000188A1886D7DF6B837C838D839E830EC0C6
:10184000288521110BC009851A852B853C858017B9
:101850009107A207B30710F081E088878885DF91A0
:10186000CF911F910F9108951F920F920FB60F9273
:1018700011242F933F938F939F93AF93BF938091A6
:10188000630490916404A0916504B0916604309162
:10189000620423E0230F2D3720F40196A11DB11D12
:1018A00005C026E8230F0296A11DB11D20936204F6
:1018B0008093630490936404A0936504B0936604DA
:1018C0008091670490916804A0916904B0916A04C2
:1018D0000196A11DB11D8093670490936804A093A5
:1018E0006904B0936A04BF91AF919F918F913F912A
:1018F0002F910F900FBE0F901F901895CF92DF92EF
:10190000EF92FF92CF93DF93EC016CDF64317105AE
:101910008105910508F44AC02AE030E0C12CD12CA1
:1019200076019881963308F0965380917B00492F79
:101930004870877F842B80937B009770906490938E
:101940007C0080917A00806480937A0080917A0094
:1019500086FDFCCF409178008091790050E0582BB3
:10196000052E000C660B770BC40ED51EE61EF71E67
:1019700021503109B1F6C701B6012AE030E040E05C
:1019800050E00E949A1AA4E6B0E00E94BC1AAB0193
:10199000BC018AE075956795579547958A95D1F76B
:1019A00081E04333510514F080E000C0DF91CF9116
:1019B000FF90EF90DF90CF900895089508951F92C3
:1019C0000F920FB60F9211240BB60F922F933F93E5
:1019D0004F935F936F937F938F939F93AF93BF9337
:1019E000CF93DF93EF93FF932091770230E0F901DB
:1019F000EA5FFD4F8491F901EA55FE4FD491F90158
:101A0000E05AFE4FC491CC2399F0811113DCEC2FE6
:101A1000F0E0EE0FFF1FE451FE4FA591B491EC9161
:101A2000ED2331E020E009F430E0832F922F02C053
:101A300080E090E020917B0230917C022F5F3F4F4D
:101A400030937C0220937B0220917A02253618F095
:101A500026E020937602209176022430D9F128F4F2
:101A6000223069F02330D9F060C0253009F453C02A
:101A7000263009F05AC021E02093470353C0009755
:101A800009F053C020917B0230917C02243631054D
:101A900008F443C01092470310927A021DC08130AF
:101AA000910509F042C0E0917A0221E02E0F2093C7
:101AB0007A02F0E020917B0230917C02EE0FFF1F52
:101AC000EA58FD4F3087278310927C0210927B02E8
:101AD00024E029C00097B9F4E0917A0221E02E0FAA
:101AE00020937A02F0E020917B0230917C02EE0F8D
:101AF000FF1FEA58FD4F3087278310927C02109217
:101B00007B0223E010C020917B0230917C022536BD
:101B1000310558F007C0009741F410927C021092F2
:101B20007B0203C025E020937602209179022223D4
:101B3000B1F0892B51F480917802882321F08091B3
:101B4000780261E009C02F9A0AC080917802882348
:101B500029F08091780260E0C3DB01C02F98FF91EB
:101B6000EF91DF91CF91BF91AF919F918F917F9135
:101B70006F915F914F913F912F910F900BBE0F90FE
:101B80000FBE0F901F901895CF92DF92EF92FF92A9
:101B9000CF93DF93EC01072E000C880B990B0E946A
:101BA00078196B017C0120E030E040E45FE30E94A3
:101BB000D71920E030E048E452E40E943A1B0E942A
:101BC000A21BC617D707D4F020E030E040EA5FE35D
:101BD000C701B6010E94D71920E030E048E452E482
:101BE0000E943A1B20E030E040E85FE30E94D61AF2
:101BF0000E94A21B21E06C177D070CF420E0822FCD
:101C000090E0DF91CF91FF90EF90DF90CF9008951B
:101C10000F931F93CF93DF931F921F92CDB7DEB721
:101C2000152F032FFC01808191E090936F05809325
:101C300091051092700510929205F4E06F9FB0012B
:101C400011246A5F7F4F88E796E02A834983FEDC90
:101C50004981842F912F22D3812F90E01FD32A8195
:101C6000822F902F1BD3802F90E018D381E00F900C
:101C70000F90DF91CF911F910F91B3C29A01CB9634
:101C8000211540E1340728F020E030E040E050E149
:101C900002C040E050E0BCCFCF93DF93DC018C91D9
:101CA000803308F06DC09B013327F901EA55FE4FE0
:101CB0008491F901E05AFE4F2491222399F030E0FB
:101CC000220F331FF901EA5BFE4FC591D491F90150
:101CD000E45DFE4F259134919FB7F894E881E82B9D
:101CE000E8839FBF8C91E82FF0E09F01220F331F04
:101CF000E20FF31FE854FB4F6F739081907C692BC8
:101D0000608311961C92119712961C9212976CE0A8
:101D10000E94D31B9CE0899FB001112440E050E059
:101D20009A01260F371FF901EE0FFF1F2E0F3F1FDD
:101D3000F901E854FB4F908196FD16C04F5F5F4F4D
:101D40004C30510569F78130F9F41092800082E03F
:101D5000809381001092850010928400B19A809146
:101D60006F00826080936F00EC91F0E0CF01880FEC
:101D7000991FE80FF91FE854FB4F8081806480832E
:101D80008C91DF91CF910895823061F41092900090
:101D900080939100109295001092940088BB8093DC
:101DA0007100E2CF833069F41092A00082E080934A
:101DB000A1001092A5001092A40089BB809372002C
:101DC000D3CF8111D1CF1092200182E080932101E5
:101DD00010922501109224018ABB80937300C4CF16
:101DE0001F920F920FB60F9211240BB60F922F93E2
:101DF0003F934F935F936F937F938F939F93AF9393
:101E0000BF93EF93FF9348E251E064E271E080E01A
:101E100090E0CADAFF91EF91BF91AF919F918F91BE
:101E20007F916F915F914F913F912F910F900BBEDA
:101E30000F900FBE0F901F9018951F920F920FB624
:101E40000F9211240BB60F922F933F934F935F93F2
:101E50006F937F938F939F93AF93BF93EF93FF9372
:101E600048EA50E064EA70E083E090E09DDAFF9198
:101E7000EF91BF91AF919F918F917F916F915F9102
:101E80004F913F912F910F900BBE0F900FBE0F906F
:101E90001F9018951F920F920FB60F9211240BB638
:101EA0000F922F933F934F935F936F937F938F93F3
:101EB0009F93AF93BF93EF93FF9348E950E064E99A
:101EC00070E082E090E070DAFF91EF91BF91AF9106
:101ED0009F918F917F916F915F914F913F912F9142
:101EE0000F900BBE0F900FBE0F901F9018951F9272
:101EF0000F920FB60F9211240BB60F922F933F93B0
:101F00004F935F936F937F938F939F93AF93BF9301
:101F1000EF93FF9348E850E064E870E081E090E0E0
:101F200043DAFF91EF91BF91AF919F918F917F9194
:101F30006F915F914F913F912F910F900BBE0F903A
:101F40000FBE0F901F9018951F920F920FB60F9211
:101F500011240BB60F922F933F934F935F936F9380
:101F60007F938F939F93AF93BF93EF93FF93809152
:101F7000B900887F803609F49CC068F5883209F47E
:101F80005BC090F4803109F454C038F4882309F41C
:101F9000F6C0883009F44DC0F5C0883109F44CC052
:101FA000803209F45DC0EEC0803409F468C048F4A2
:101FB000803309F455C0883309F0E4C080936C0580
:101FC000D8C0803509F44FC0883509F45DC0883425
:101FD00009F0D8C0D6C0883909F4C7C0A8F488373A
:101FE00009F467C038F4883609F463C0803709F40F
:101FF00060C0C8C0883809F4B8C0803909F45FC02F
:10200000803809F0BFC05BC0803B09F486C038F45B
:10201000803A09F466C0883A09F47FC0B3C0803CB6
:1020200009F4A7C0883C09F4A4C0883B09F48AC01D
:10203000A9C08091490510C090916B0580916A05F7
:10204000981770F5E0916B0581E08E0F80936B051A
:10205000F0E0E65BFA4F80818093BB0085EC86C0A0
:1020600080936C058EC0E0916B0581E08E0F8093AC
:102070006B058091BB00F0E0E65BFA4F80839091A6
:102080006B0580916A056EC0E0916B0581E08E0F53
:1020900080936B058091BB00F0E0E65BFA4F808394
:1020A00080916D0581116DC081E08093480584EABF
:1020B00061C083E080936E0510925D04CFCF809164
:1020C0005D04803208F051C0E0915D0481E08E0F24
:1020D00080935D048091BB00F0E0E35CFB4F808364
:1020E000BDCF85EC8093BC0010926E0580915D049D
:1020F000803230F4E0915D04F0E0E35CFB4F10824D
:1021000060915D0470E0E0913B04F0913C048DE34C
:1021100094E0199510925D0435C084E080936E05BB
:1021200010923A0410923904E0913704F091380487
:10213000199580913904811105C081E0809339049B
:1021400010921704E0913A0481E08E0F80933A04D4
:10215000F0E0E95EFB4F80818093BB0090913A04F0
:1021600080913904981708F479CF85E88093BC00F2
:1021700009C085EC8093BC0010926E0503C01092DC
:102180006C05D7D9FF91EF91BF91AF919F918F913E
:102190007F916F915F914F913F912F910F900BBE67
:1021A0000F900FBE0F901F90189510926E0581E052
:1021B00080936D051092480561E084E191D861E05B
:1021C00085E18ED8E9EBF0E080818E7F808380818D
:1021D0008D7F808388E48093B80085E48093BC0081
:1021E0000895382F2091920590919105213208F0A1
:1021F00049C080916E058111FCCF42E040936E058D
:1022000030936D053FEF30936C0510926B05209372
:102210006A05A1E7B5E04AE455E0FA013E2F341B18
:10222000321718F43D913193F9CF1092490520915E
:102230004905990F922B909349059091480591304B
:1022400061F410924805909149059093BB009091DC
:10225000BC0093FDF8CF95EC01C095EE9093BC00C7
:1022600090916E059230E1F390916C059F3F79F06B
:1022700080916C05803241F080916C05803331F0A3
:1022800084E005C081E003C082E001C083E01092D9
:1022900070051092920510926F050895682F88E7D7
:1022A00096E0D4C91F93CF93DF93EC018C8583FD17
:1022B00006C0613011F4885F07C0885005C06130E6
:1022C00011F4805F01C080518C878C858F738C875F
:1022D00040EF5FE06C818D859E85D0DC40EF5FE054
:1022E0006F818D859E85CADCEC85E695E695E69541
:1022F000E83028F4F0E0E85DFD4F108101C010E007
:102300008D859E8520E030E010FF03C040E050E165
:1023100002C040E050E06E81CB967ADC8D859E85D0
:1023200020E030E011FF03C040E050E102C040E097
:1023300050E06885CB966CDC8D859E8520E030E092
:1023400012FF03C040E050E102C040E050E06D8168
:10235000CB965EDC8D859E8520E030E013FF03C0C8
:1023600040E050E102C040E050E06985CB9650DC8F
:102370008C85DF91CF911F910895FC01208120333E
:1023800010F5318188E890E0831B910937FD939522
:10239000880F991F880F991F8438F3E09F0714F462
:1023A00084E893E00297880F991F4FB7F89430E0C4
:1023B000F901EE0FFF1F2E0F3F1FF901E854FB4FED
:1023C000928381834FBF0895CF93C62F9091B70416
:1023D00021E020936F059093910510927005109263
:1023E0009205682F88E796E031D96C2F88E796E050
:1023F0002DD981E0CF91F5CE8F929F92AF92BF926F
:10240000CF92DF92EF92FF920F931F93CF93DF93C0
:10241000FC01C081D1812091770430917804C217EA
:10242000D3070CF048C09E01220F331FE0917504C2
:10243000F0917604E20FF31F80809180C170DD2758
:10244000F1E0CF27209719F404E610E002C00CE970
:102450001FEF7A015B016C01040F151FB801C40165
:1024600093DB892B89F40E0D1F1DB801C4018CDB91
:10247000892B69F4B8016E0D7F1DC40185DB892BA2
:10248000E9F023E030E005C021E030E002C022E0C6
:1024900030E0F501808191810196821793073CF02D
:1024A000F50111821082F60180819181019691835C
:1024B0008083CE0105C081E090E002C08FEF9FEFE6
:1024C000DF91CF911F910F91FF90EF90DF90CF9010
:1024D000BF90AF909F908F900895CF92DF92EF9230
:1024E000FF920F931F93CF93DF936C017A018B01BF
:1024F000C0E0D0E0CE15DF0589F0D8016D918D01E7
:10250000D601ED91FC910190F081E02DC601199565
:10251000892B11F47E0102C02196ECCFC701DF9117
:10252000CF911F910F91FF90EF90DF90CF90089582
:102530006115710579F0FB0101900020E9F73197F1
:10254000AF01461B570BDC01ED91FC910280F3813A
:10255000E02D199480E090E008954F925F926F9281
:102560007F92EF92FF920F931F93CF93DF93CDB79C
:10257000DEB7A1970FB6F894DEBF0FBECDBF7C01CA
:10258000FA01CB0119A2223008F42AE08E010F5D76
:102590001F4F422E512C612C712CBF01A3019201BF
:1025A000C9D7F901CA01015011096A3014F4605DFC
:1025B00001C0695CD8016C93232B242B252B69F770
:1025C000B801C701B5DFA1960FB6F894DEBF0FBE04
:1025D000CDBFDF91CF911F910F91FF90EF907F9032
:1025E0006F905F904F900895789484B5826084BD19
:1025F00084B5816084BD85B5826085BD85B5816007
:1026000085BD80916E00816080936E001092810084
:10261000809181008260809381008091810081603F
:102620008093810080918000816080938000809100
:10263000B10084608093B1008091B000816080938C
:10264000B000809191008260809391008091910010
:1026500081608093910080919000816080939000D0
:102660008091A10082608093A1008091A10081608F
:102670008093A1008091A00081608093A000809150
:1026800021018260809321018091210181608093EA
:1026900021018091200181608093200180917A0046
:1026A000846080937A0080917A00826080937A00BF
:1026B00080917A00816080937A0080917A008068AE
:1026C00080937A001092C1001092740610927506E1
:1026D0001092760610927706109232061092330608
:1026E000109234061092350668EB7BE080E090E0B3
:1026F00041D883E995E09093730680937206E09148
:10270000A305F091A405D2E0D083E0919F05F0915C
:10271000A0051082E091A105F091A20580E18083DF
:102720001092AB05E091A705F091A805C6E0C08323
:10273000E091A505F091A605808180618083E091FC
:10274000A505F091A605808188608083E091A505AC
:10275000F091A605808180688083E091A505F091C5
:10276000A60580818F7D80833DD86093320670936B
:102770003306809334069093350660E572E08091CD
:10278000720690917306D4DE6AE070E080E090E01B
:102790000E94BA0B81E080934606E091A305F09178
:1027A000A405D083E0919F05F091A0051082E091EF
:1027B000A105F091A2058FEC80831092AB05E0910A
:1027C000A705F091A805C083E091A505F091A605A5
:1027D000808180618083E091A505F091A6058081CC
:1027E00088608083E091A505F091A60580818068CE
:1027F0008083E091A505F091A60580818F7D80837F
:102800001092E6031092E503B4EF4B2E5524539437
:10281000612C712CC5E02C2E312CD8EECD2ED3E0BE
:10282000DD2EE12CF12C0E94F20B672B682B692B1B
:1028300041F40E94F20B623071058105910508F4A4
:10284000FEC00E94F20B60931304709314048093F3
:1028500015049093160400910F0410911004209118
:10286000110430911204601771078207930740F436
:1028700060930F04709310048093110490931204DA
:1028800000910F0410911004209111043091120452
:102890004B015C01801A910AA20AB30A95018401D6
:1028A0000A3F11052105310508F4C9C060930F04E2
:1028B00070931004809311049093120440923E068A
:1028C00050923F0660924006709241061092420676
:1028D00010924306109244061092450680913606E7
:1028E00090913706A0913806B091390680933A0648
:1028F00090933B06A0933C06B0933D060E94F20BDA
:1029000060933606709337068093380690933906A5
:102910000E94F20B60933206709333068093340664
:10292000909335060E94F20B4B015C0162E672E067
:102930008091720690917306FBDD2AE041E050E041
:1029400060E070E0809172069091730606DE69E6A1
:1029500072E08091720690917306EADD2AE0B5017B
:10296000A4018091720690917306F7DD6BE672E028
:102970008091720690917306DBDD8091360690910E
:102980003706A0913806B0913906B501A401481B5D
:10299000590B6A0B7B0B2AE08091720690917306AB
:1029A000DCDD6BE672E08091720690917306C0DD0B
:1029B000409136065091370660913806709139067D
:1029C00080913A0690913B06A0913C06B0913D065D
:1029D000481B590B6A0B7B0B2AE080917206909181
:1029E0007306BBDD6DE672E080917206909173060E
:1029F0009FDD0E94F20BAB01BC012AE080917206C0
:102A000090917306AADDC0917206D09173066FE6AD
:102A100072E0CE018DDD6FE572E0CE0189DD65E00B
:102A200070E080E090E00E94BA0B0E94F20B60938D
:102A30003606709337068093380690933906809156
:102A4000DD03811115C0A3E0AA2EB12CB092CC03F6
:102A5000A092CB0381E090E0A0E0B0E08093D103AE
:102A60009093D203A093D303B093D4038093DD0358
:102A70008091C303811114C084E090E09093B2036D
:102A80008093B10381E090E0A0E0B0E08093B703D1
:102A90009093B803A093B903B093BA038093C30390
:102AA0008091A903811112C030929803209297035C
:102AB00081E090E0A0E0B0E080939D0390939E03BE
:102AC000A0939F03B093A0038093A90380918F03E9
:102AD000811108C087E0809377021092790281E02B
:102AE00080938F038091870381112FC0ACE0B2E007
:102AF000B0934903A093480310924A030E94F20B3B
:102B000060934B0370934C0380934D0390934E035B
:102B100010924F03109250031092510310925203DF
:102B200010925303109254031092550310925603BF
:102B30001092570310925803ECE1F2E0F09349032E
:102B4000E093480381E0809387038091000288230B
:102B500009F436C0F89482E08093B0008093B1000D
:102B600094E69093B3001092B20080937000789432
:102B70008093760210927A028091770290E0FC01B5
:102B8000EA55FE4F2491FC01E05AFE4F84918823C0
:102B9000B9F090E0880F991FFC01EA5BFE4FA59108
:102BA000B491FC01E45DFE4FC591D4919FB7F894B8
:102BB0008C91209582238C93E8812E2328839FBFBC
:102BC0008091860380934F038091820390918303C9
:102BD000A0918403B0918503809351039093520395
:102BE000A0935303B09354038091550390915603DF
:102BF000A0915703B091580380937E0390937F0375
:102C0000A0938003B093810388E493E00E94FE0BBD
:102C1000C82F80937D038BEC93E00E947E0C182FCD
:102C200081EB93E00E947E0CD82F87E993E00E940D
:102C30007E0C982FE091E503F091E603E231F10577
:102C400008F031C18827EE58FF4F8F4FB8C5E0ED2F
:102C50008E2EE7E09E2EA12CB12C809282039092C2
:102C60008303A0928403B092850381E0809386035E
:102C7000CC2309F41CC10E945901892B09F417C106
:102C800080916F0490917004A0917104B0917204CE
:102C90008D33924CAF4FB10509F0FFC010928603FF
:102CA00081E090E09093E6038093E503F6C09923DA
:102CB00009F4FDC082E090E0D6C0C0928203D092B9
:102CC0008303E0928403F0928503CC2309F4B4C01B
:102CD0001092860383E090E0C6C07CE2872E9924A0
:102CE0009394A12CB12C8092820390928303A092A2
:102CF0008403B0928503CC2309F49EC0109286030E
:102D000064E0A62EB12CA6C0C0928203D0928303A9
:102D1000E0928403F0928503CC2309F48DC01092D5
:102D200086033092E6032092E503C1C0DD2359F00B
:102D300081E080937C03112309F4B9C010927C03D5
:102D400086E090E090C0112309F4B1C080917C032B
:102D50008111F4CFACC04092820350928303609201
:102D6000840370928503CC2309F466C01092860315
:102D700087E090E078C0C0928203D0928303E09213
:102D80008403F0928503CC2309F456C01092860385
:102D900088E090E068C0DD2309F489C089E090E014
:102DA00062C088E893E1A0E0B0E080938203909352
:102DB0008303A0938403B0938503CC23E9F110929D
:102DC00086038AE090E04FC0112309F470C08BE0C5
:102DD00090E049C0C0928203D0928303E0928403C2
:102DE000F092850381E080938603CC2309F45FC0D1
:102DF000109286038CE090E036C05CE2852E992428
:102E00009394A12CB12C8092820390928303A09280
:102E10008403B0928503CC2379F0109286038DE071
:102E200090E021C040928203509283036092840319
:102E300070928503C11104C081E08093860337C07E
:102E4000109286038EE090E00EC0992381F14FE04E
:102E5000A42EB12CB092E603A092E50328C0DD2396
:102E600031F181E190E09093E6038093E5031FC088
:102E70000E945901892BD9F080916F0490917004C0
:102E8000A0917104B09172048D399246AF4FB10593
:102E900021F41092E6031092E50382E0809376021B
:102EA00010927A0204C01092E6031092E503109289
:102EB000000280910704811128C0E1E8F4E0128249
:102EC000118213821082DF0111971C9211971C92BC
:102ED000369624E0E939F20791F71092A304109294
:102EE000A6041092A2041092A1041092B3041092AE
:102EF000B6041092B2041092B10480E680937C0470
:102F00008093B70481E0809307048091FF038111CF
:102F10002DC08091A604811120C01092A60488ECD7
:102F200090E09093A2048093A1048CE794E09093A6
:102F3000A5048093A40488E080939B048DE0809393
:102F40009E048AE080939C0489E080939D048BE03A
:102F500080939F048CE08093A00487E994E0909391
:102F6000FE038093FD0381E08093FF038091F503CE
:102F700081111DC080915903803398F491E0980F1E
:102F8000909359038093F20390E0FC01EE0FFF1F32
:102F9000E80FF91FE854FB4F88EB9BE09283818395
:102FA00003C08FEF8093F20381E08093F50380915B
:102FB000EA0381111DC080915903803398F491E098
:102FC000980F909359038093E70390E0FC01EE0F74
:102FD000FF1FE80FF91FE854FB4F88EB9BE092833B
:102FE000818303C08FEF8093E70381E08093EA033E
:102FF00080910102882309F4B9C010927B031092DA
:103000007A031092700510929205CFD81092700535
:1030100010929205CAD860E080E0D6D980E496E0AC
:1030200090937E0480937D048091B70491E0909307
:103030006F0580939105109270051092920560E0E3
:1030400088E796E00E94260B81E0CBD88091B704F8
:1030500090916E059111FCCF91E090936E05909345
:103060006D052FEF20936C0510926B0510926A0589
:103070009093490590914905880F892B80934905C4
:1030800080914805813061F410924805809149058E
:103090008093BB008091BC0083FDF8CF85EC01C01C
:1030A00085EE8093BC0080916E058130E1F38091C4
:1030B0006B05811103C020916B0501C021E0AAE4DA
:1030C000B5E08AE593E0FC013E2F381B321718F477
:1030D0003D913193F9CF10927B0320937A0388E7D7
:1030E00096E00E94DB0AC82F682F6F76606180E04F
:1030F0006BD963E08EEF68D96C2F80E065D965E00D
:1031000070E080E090E00E94BA0B6C2F616A80E072
:103110005BD9C0E020E030E040E050E06C2F87EB6E
:1031200094E00E94080ECF5FC031A1F769E070E023
:1031300082EF93E00E944C0E6AE070E087EE93E02D
:103140000E944C0EC091FD03D091FE032A853B8561
:10315000A4EBB0E01BD29B01AC0160E077E883E90F
:1031600093E0E8D1288339834A835B83C091E503E8
:10317000D091E603209719F0CD30D10519F487EEF0
:1031800093E0FBD8CE018D7F049719F487EE93E08E
:1031900008C0209721F0CE01877F079719F482EFAE
:1031A00093E0EBD8C230D10519F0CB30D10519F43A
:1031B00082EF93E0E2D8209729F4809101028111F7
:1031C0000AC021C0C530D10531F0CA30D10519F08F
:1031D000C031D10531F461E08091FD039091FE038F
:1031E00061D8C130D10531F0C830D10519F0CE30E9
:1031F000D10531F462E08091FD039091FE0352D835
:10320000C330D10539F02C9729F0109201020E94A9
:10321000E20809CBA090FD03B090FE03D5018D908C
:103220009C908401000F111F000F111F0550110900
:10323000C9ECD0E0219749F361E0C50133D8B2E091
:103240008B169104B8F3C8010197F1F7F3CFE3E9C6
:10325000F5E01382128288EE93E0A0E0B0E0848370
:103260009583A683B78324E332E03183208325EC62
:1032700030E03587248724EC30E03787268720EC40
:1032800030E0318B208B21EC30E0338B228B22EC31
:1032900030E0358B248B26EC30E0378B268B118E7B
:1032A000128E138E148EE0E3F6E0168217821086DB
:1032B0001186128613861486158616861786108A3E
:1032C000118A128A138A148A158AE8E7F6E01382B3
:1032D000128284839583A683B78384E492E09183EA
:1032E0008083089540D008F481E00895E89409C0EF
:1032F00097FB3EF490958095709561957F4F8F4F29
:103300009F4F9923A9F0F92F96E9BB279395F6953E
:10331000879577956795B795F111F8CFFAF4BB0FBC
:1033200011F460FF1BC06F5F7F4F8F4F9F4F16C020
:10333000882311F096E911C0772321F09EE8872FAA
:10334000762F05C0662371F096E8862F70E060E066
:103350002AF09A95660F771F881FDAF7880F9695DF
:10336000879597F90895990F0008550FAA0BE0E883
:10337000FEEF16161706E807F907C0F01216130637
:10338000E407F50798F0621B730B840B950B39F477
:103390000A2661F0232B242B252B21F408950A26DD
:1033A00009F4A140A6958FEF811D811D08950BD0D2
:1033B00078C069D028F06ED018F0952309F05AC073
:1033C0005FC01124A2C07ED0A0F3959FD1F3950FCA
:1033D00050E0551F629FF001729FBB27F00DB11D99
:1033E000639FAA27F00DB11DAA1F649F6627B00D29
:1033F000A11D661F829F2227B00DA11D621F739F12
:10340000B00DA11D621F839FA00D611D221F749F1F
:103410003327A00D611D231F849F600D211D822F66
:10342000762F6A2F11249F5750408AF0E1F08823AD
:103430004AF0EE0FFF1FBB1F661F771F881F9150BA
:103440005040A9F79E3F510570F014C05EC05F3F29
:10345000ECF3983EDCF3869577956795B795F795ED
:10346000E7959F5FC1F7FE2B880F911D9695879575
:1034700097F9089597F99F6780E870E060E00895F4
:103480009FEF80EC089500240A941616170618067C
:103490000906089500240A94121613061406050658
:1034A0000895092E0394000C11F4882352F0BB0FE9
:1034B00040F4BF2B11F460FF04C06F5F7F4F8F4F4C
:1034C0009F4F089557FD9058440F551F59F05F3F87
:1034D00071F04795880F97FB991F61F09F3F79F036
:1034E00087950895121613061406551FF2CF4695B8
:1034F000F1DF08C0161617061806991FF1CF86953A
:103500007105610508940895E894BB27662777271D
:10351000CB0197F90895DB018F939F932DD0BF9135
:10352000AF91A29F800D911DA39F900DB29F900D12
:1035300011240895A1E21A2EAA1BBB1BFD010DC088
:10354000AA1FBB1FEE1FFF1FA217B307E407F50753
:1035500020F0A21BB30BE40BF50B661F771F881F2F
:10356000991F1A9469F760957095809590959B01C5
:10357000AC01BD01CF01089509D0A59F900DB49F66
:10358000900DA49F800D911D11240895A29FB0015C
:10359000B39FC001A39F700D811D1124911DB29F87
:1035A000700D811D1124911D08955058BB27AA2725
:1035B0000ED077CF68DF30F06DDF20F031F49F3F21
:1035C00011F41EF45DCF0EF4E095E7FB53CFE92F25
:1035D00079DF80F3BA17620773078407950718F03D
:1035E00071F49EF591CF0EF4E0950B2EBA2FA02D1D
:1035F0000B01B90190010C01CA01A0011124FF27A0
:10360000591B99F0593F50F4503E68F11A16F0409A
:10361000A22F232F342F4427585FF3CF4695379599
:103620002795A795F0405395C9F77EF41F16BA0B5E
:10363000620B730B840BBAF09150A1F0FF0FBB1F0C
:10364000661F771F881FC2F70EC0BA0F621F731F55
:10365000841F48F4879577956795B795F7959E3FB2
:1036600008F0B3CF9395880F08F09927EE0F979540
:10367000879508950CD015CF0DDF40F004DF30F0B2
:1036800021F45F3F19F0F6CE51113FCFF9CE1ADF8A
:1036900098F39923C9F35523B1F3951B550BBB2719
:1036A000AA2762177307840738F09F5F5F4F220FC6
:1036B000331F441FAA1FA9F333D00E2E3AF0E0E8BF
:1036C00030D091505040E695001CCAF729D0FE2F0B
:1036D00027D0660F771F881FBB1F2617370748079D
:1036E000AB07B0E809F0BB0B802DBF01FF27935853
:1036F0005F4F2AF09E3F510568F0BCCE06CF5F3F7A
:10370000ECF3983EDCF3869577956795B795F7953A
:103710009F5FC9F7880F911D9695879597F9089532
:10372000E1E0660F771F881FBB1F621773078407CE
:10373000BA0720F0621B730B840BBA0BEE1F88F7DD
:10374000E095089504D06894B111DFCE0895C2DEEB
:1037500088F09F5790F0B92F9927B751A0F0D1F07A
:10376000660F771F881F991F1AF0BA95C9F712C004
:10377000B13081F0C9DEB1E00895C6CE672F782F51
:103780008827B85F39F0B93FCCF386957795679570
:10379000B395D9F73EF490958095709561957F4FDC
:1037A0008F4F9F4F0895991B79E004C0991F96177A
:1037B00008F0961B881F7A95C9F780950895EE0F3B
:1037C000FF1F881F8BBF0790F691E02D19940F9370
:1037D000083090F0982F872F762F652F542F432F86
:1037E000322F22270850F4CF220F331F441F551FBA
:1037F000661F771F881F991F0A95B2F70F910895CA
:1038000097FB10F8169400080F93083098F00850B2
:10381000232F342F452F562F672F782F892F902D48
:10382000F4CF059497958795779567955795479524
:10383000379527950A95AAF70F910895CF93DF93AF
:103840008230910510F482E090E0E0918606F091DC
:10385000870620E030E0C0E0D0E0309711F14081F1
:10386000518148175907C0F04817590761F4828100
:103870009381209719F09B838A832BC090938706AE
:103880008093860626C02115310519F0421753078B
:1038900018F49A01BE01DF01EF010280F381E02DEF
:1038A000DCCF2115310509F1281B390B24303105F6
:1038B00090F412968D919C9113976115710521F0EA
:1038C000FB019383828304C09093870680938606CE
:1038D000FD01329644C0FD01E20FF31F81939193E5
:1038E000225031092D933C933AC0209184063091A7
:1038F0008506232B41F42091040230910502309378
:10390000850620938406209102023091030221153E
:10391000310541F42DB73EB74091060250910702A0
:10392000241B350BE0918406F0918506E217F3071E
:10393000A0F42E1B3F0B2817390778F0AC014E5F1F
:103940005F4F2417350748F04E0F5F1F50938506D1
:10395000409384068193919302C0E0E0F0E0CF01B0
:10396000DF91CF9108950F931F93CF93DF9300972B
:1039700009F48CC0FC0132971382128200918606F2
:10398000109187060115110581F420813181820F84
:10399000931F20918406309185062817390779F501
:1039A000F0938506E093840671C0D80140E050E0B2
:1039B000AE17BF0750F412962D913C911397AD01AD
:1039C0002115310509F1D901F3CF9D01DA013383C6
:1039D000228360817181860F971F8217930769F494
:1039E000EC0128813981260F371F2E5F3F4F31832D
:1039F00020838A819B8193838283452B29F4F093D2
:103A00008706E093860642C01396FC93EE931297C6
:103A1000ED01499159919E01240F351FE217F307DB
:103A200071F480819181840F951F029611969C9369
:103A30008E938281938113969C938E931297E0E0EC
:103A4000F0E0D80112968D919C911397009719F090
:103A5000F8018C01F6CF8D919C9198012E5F3F4F1C
:103A6000820F931F2091840630918506281739070D
:103A700069F4309729F4109287061092860602C0E6
:103A8000138212821093850600938406DF91CF91F2
:103A90001F910F91089581E090E0F89400C0F89490
:023AA000FFCF56
:103AA200010100008806800000000000DE0C590BB6
:103AB200D109D009CA09C40900000000DD0C570B66
:103AC200D109FE0BCA09C40901030206040C080944
:103AD200000000007B086D12450823083708C10862
:103AE20000000000260BF70AEF0ADB0ACC0ACB0A19
:103AF200564D4450565F317C315F564D4450560D01
:103B02000A00564D4450455F003A323A007C005F4D
:063B1200564D4450450031
:00000001FF
