:1000000026C1000055C1000053C1000051C10000CD
:100010004FC100004DC100004BC1000049C10000AC
:1000200047C1000045C1000043C1000041C10000BC
:100030003FC100000C94A30C3BC1000039C100007B
:1000400037C100000C943B0F33C1000031C10000E8
:100050002FC100002DC100002BC100000C94030C27
:1000600027C100000C94CB0A0C94BF1021C10000E2
:100070001FC100001DC100001BC1000019C100000C
:100080000C940E0F15C1000013C1000011C1000037
:100090000FC100000DC100000BC100000C94680FDF
:1000A00007C1000005C100000C94E10E01C1000071
:1000B000FFC00000FDC00000FBC000000C94B40EA7
:1000C000F7C00000F5C00000F3C00000F1C0000060
:1000D000EFC00000EDC00000EBC00000E9C0000070
:1000E000E7C00000A508A80897089B08A108DF083A
:1000F000AC08B008B608BA08BE08C408C808CC08DE
:10010000DF08D208D608DA08171547154E1563150B
:1001100080159515AA15C315D815DE15F715FD150B
:1001200012162B164316FD15491652160000200014
:100130002300260029002C002F00320000010000BF
:1001400003010601090100000A0B02090C0D0E084B
:100150000703040100000000000000000000000090
:10016000000000000000000000000000000000008F
:10017000000012111000000000000000000000004C
:10018000000000000000000000000000000022004D
:10019000250028002B002E00310034000201000051
:1001A000050108010B0100002100240027002A009E
:1001B0002D003000330001010000040107010A0195
:1001C00005050505070508080808020202020A0AD3
:1001D00008080404040401010101010101010303F1
:1001E000030303030303040707070C0C0C0C0C0C9C
:1001F0000C0C0202020206060606060606060B0B99
:100200000B0B0B0B0B0B01021020200808102040D9
:1002100010204080020102010804020101020408CA
:100220001020408080402010080402018004020158
:1002300080402010080402010804020101020408A1
:100240001020408001020408102040804D18112425
:100250001FBECFEFD1E2DEBFCDBF00E00CBF12E08A
:10026000A0E0B2E0EEEEF8E300E00BBF02C00790C2
:100270000D92A236B107D9F726E0A2E6B2E001C09E
:100280001D92AE34B207E1F711E0C7E2D1E000E021
:1002900006C021970109802FFE010E94051BC6326E
:1002A000D10780E00807A9F70E94A4120C94751CDE
:1002B000A7CE2F923F924F925F926F927F928F9232
:1002C0009F92AF92BF92CF92DF92EF92FF920F93E5
:1002D0001F93CF93DF9300D000D0CDB7DEB789E670
:1002E00092E090933C0480933B048091660290E0FE
:1002F00090933E0480933D048091330390E090936B
:10030000400480933F0480916202853009F07BC3F2
:1003100080916B0290916C02885891098D359105FE
:1003200088F480916602843041F480916D0290914E
:100330006E028097479708F401C280916602843468
:1003400008F0E3C1809166028A3108F454C08091BC
:10035000690290916A02843F914080F410923A04BD
:10036000109239048FEF9FEFDC0180933504909356
:100370003604A0933704B09338045BC080916B02BD
:1003800090916C0285974B97B0F5EFE6F2E082E032
:1003900090E040E050E0BA018C010F5F1F4F2091C8
:1003A000660230E0021713076CF49F0122503109F6
:1003B000D9012D913C91275031092730310508F49E
:1003C000F5C1C80101979595879590933A0480935C
:1003D00039040C972CF410923A04109239040BC093
:1003E0004093350450933604609337047093380477
:1003F00084E090E0FCC2809166028A3108F44DC02E
:100400008091690290916A028032934008F4A6CFED
:1004100080916B0290916C02C697869708F4E2C1B6
:100420003CC0409335045093360460933704709376
:1004300038048BE090E0DBC2208131812552310904
:100440002B31310508F0DEC1440F551F661F771FA1
:100450004160029634968C010F5F1F4F2091660217
:1004600030E00217130764F49F0122503109D901CB
:100470002D913C912C5031092B303105E8F2C80107
:1004800001979595879590933A04809339040C973A
:1004900044F610923A041092390480916602823236
:1004A00008F44CC080916B0290916C0206970797FC
:1004B00008F044C0EFE6F2E082E090E040E050E077
:1004C000BA018C010F5F1F4F2091660230E00217C6
:1004D0001307DCF4DF0112972D913C9111972E51F7
:1004E00031092731310508F09AC1440F551F661FA5
:1004F000771F4160208131813496235031092530A6
:10050000310510F40296DDCFC801019795958795C6
:1005100090933A048093390440972CF410923A0453
:10052000109239040BC04093350450933604609305
:100530003704709338048CE090E059C21C821B820F
:1005400081E090E09A838983809166028D3008F47F
:100550006BC049E753E0BE016D5F7F4FCE0101964E
:100560000E94F311892B09F05FC049E753E0BE01F7
:100570006D5F7F4FCE0101960E94F311019709F044
:1005800053C049E753E0BE016D5F7F4FCE01019636
:100590000E94F311892B09F047C0C12CD12C7601A0
:1005A00000E010E08091660290E029813A812817EE
:1005B00039075CF549E753E0BE016D5F7F4FCE011F
:1005C00001960E94F3115C0149E753E0BE016D5FA3
:1005D0007F4FCE0101960E94F311B1E0AB16B1043A
:1005E00049F4892B09F5CC0CDD1CEE1CFF1C68942A
:1005F000C0F808C0AB28C1F40197B1F4CC0CDD1CE5
:10060000EE1CFF1C0F5F1F4FCDCF10933A040093D9
:100610003904C0923504D0923604E0923704F09247
:10062000380481E090E0E3C11C821B8281E090E00D
:100630009A83898380913D0490913E04181619068F
:100640000CF058C0E0913B04F0913C0482E090E053
:100650009A8389838281938189974E9708F04AC053
:1006600083E090E09A838983848195810B970A9730
:1006700008F040C04CEB51E0BE016D5F7F4FCE01F2
:1006800001960E94F311892BA9F54CEB51E0BE01B4
:100690006D5F7F4FCE0101960E94F311019751F5D6
:1006A000C12CD12C760100E010E029813A818091A3
:1006B0003D0490913E04281739070CF0F3C04CEB31
:1006C00051E0BE016D5F7F4FCE0101960E94F31194
:1006D0004C010330110509F0AFC04CEB51E0BE01F5
:1006E0006D5F7F4FCE0101960E94F3118816990627
:1006F00009F4A2C0E0913B04F0913C048281938113
:10070000C697869708F4DDC08CC180916D029091E8
:100710006E02825491098E9708F014CE20E030E0EA
:1007200080E090E0DC01F901E159FD4F4081518109
:10073000495051094930510588F004CE80916F022B
:10074000909170020997099708F0F7CD10923A043A
:10075000109239048FEF9FEFDC0158C1F901EF5877
:10076000FD4F40815181475151094231510588F473
:10077000880F991FAA1FBB1F81602C5F3F4F203835
:10078000310589F620E230E030933A0420933904B1
:100790003DC140815181465051094730510508F013
:1007A000D1CD880F991FAA1FBB1FE7CF20813181B0
:1007B000235131092F30310540F4440F551F661F76
:1007C000771F416002963496E7CD208131812A500F
:1007D00031092930310508F00ECE440F551F661F30
:1007E000771FF0CF80916D0290916E02C697869729
:1007F00008F053CEE1E7F2E083E090E040E050E023
:10080000BA0129CE208131812C5031092A3031059D
:1008100008F043CE440F551F661F771F1ACE2D9147
:100820003C912C5031092B30310508F087CE440F14
:10083000551F661F771F5ECE4CEB51E0BE016D5F0A
:100840007F4FCE0101960E94F3115C010330110528
:1008500069F44CEB51E0BE016D5F7F4FCE01019614
:100860000E94F311A816B90609F044CF811491042F
:1008700059F4AA94AB2809F03DCFCC0CDD1CEE1C3A
:10088000FF1C6894C0F80BC08A94892809F032CF05
:10089000AB2809F02FCFCC0CDD1CEE1CFF1C0F5F2A
:1008A0001F4F03CF10933A0400933904C0923504CC
:1008B000D0923604E0923704F092380482E090E05F
:1008C00096C0848195814B97459708F0AAC0DF01B7
:1008D00016967F0126ECE20EF11C20E030E040E0AD
:1008E00050E060E070E080E090E00D911C91119785
:1008F000095011090830110508F093C012960D91A6
:100900001C911397015111090D30110520F501E0DB
:100910000E940D1B21601496AE15BF0531F7209380
:10092000350430933604409337045093380400E282
:100930000E94281B209333043093340485E090E018
:10094000909332048093310480E390E090933A04D2
:100950008093390450C012960D911C911397045046
:1009600011090530110508F05CC001E00E940D1B63
:10097000D2CF980122503109D9012D913C912950B3
:1009800031092830310508F0FAC0BC016F5F7F4F94
:10099000D8012D913C91275031092730310508F0BD
:1009A000EBC2440F551F416002960C5F1F4F209110
:1009B000660230E02450310982179307D4F2019780
:1009C0009595879590933A04809339048A970CF40F
:1009D000D6C0052E000C660B770B40933504509360
:1009E0003604609337047093380489E090E0909364
:1009F00032048093310481E090E00CC382E0809364
:100A000062021092660280E090E004C38093350495
:100A100090933604A0933704B093380483E090E0B9
:100A2000E6CF80916602893370F182819381895784
:100A300091098335910508F440C125C0D90112966A
:100A40006D917C911397665171096131710508F0C0
:100A500060C1D701C601880F991FAA1FBB1F6C0177
:100A60007D016894C0F84E5F5F4F2C5F3F4F4B3362
:100A7000510509F431C1D9016D917C916A50710918
:100A800069307105D8F280916602823231F4828138
:100A900093810A97099708F44CC182819381895701
:100AA000910983359105D0F4809166028132B0F0CE
:100AB00084819581CA97899788F49F012A5F3F4F67
:100AC000C12CD12C760143E050E0D9016D917C918D
:100AD0006A5071096930710508F44AC182819381B5
:100AE0008C549109C59778F480916602843031F472
:100AF000848195818097479708F499C18091660217
:100B0000843408F07BC180916602863460F1828172
:100B100093810C970B9708F4D8C125C0D901129680
:100B20006D917C9113976E5171096731710508F0D1
:100B300004C2D701C601880F991FAA1FBB1F6C01F1
:100B40007D016894C0F84E5F5F4F2C5F3F4F453486
:100B5000510509F4D5C1D9016D917C916C50710991
:100B60006B307105D8F280916602883540F0828141
:100B70009381855891098B35910508F4EEC18091D8
:100B800066028032E1F48281938106970697B8F479
:100B9000848195810997099790F49F012A5F3F4FBF
:100BA000BF01625C7F4FC12CD12C7601D9014D91E0
:100BB0005C91465051094630510508F4EAC18091D4
:100BC0003D0490913E049E838D8306970CF416CFCE
:100BD0008F010A5F1F4F73E0272E312CE5ECCE2EDC
:100BE000EDE9DE2EECE1EE2EE1E8FE2ED8016D916E
:100BF0007C91F8013497A080B18080E090E00E9461
:100C00009C182B013C01B50180E090E00E949C18EB
:100C10004B015C012DEC3CEC4CE45FE30E94FD18C1
:100C20009B01AC01C301B2010E94981887FD17C057
:100C30002DEC3CEC4CE45FE3C301B2010E94FD18D3
:100C40009B01AC01C501B4010E949818E82F880FE0
:100C5000FF0BEE27FF0FEE1FFF27319602C0E0E0EB
:100C6000F0E0A701960163E971E080E091E00E9465
:100C7000B1196F01FF0FEE08FF08C626D726E82638
:100C8000F926BFEF2B1A3B0A0E5F1F4FED81FE8145
:100C90002E163F0609F0AACFC0923504D092360432
:100CA000E0923704F092380480E290E090933A04A6
:100CB000809339048FEF9FEF9ACE84819581CA97F4
:100CC000899708F0E0CE9F012A5F3F4FC12CD12CBD
:100CD000760143E050E0CFCE9F012A583F4FD90123
:100CE0002D913C912A5031092930310508F0CBCEA5
:100CF0002CE130E030933A0420933904C09235045B
:100D0000D0923604E0923704F09238048AE090E002
:100D10006ECED90112966D917C9113976650710930
:100D20006730710508F0AFCECC0CDD1CEE1CFF1C4B
:100D30009ACE20916602CF01820F911D820F911DE4
:100D4000DC0112978D919C910A97099708F0A5CE26
:100D500010923A04109239048FEF9FEFDC018093D8
:100D6000350490933604A0933704B09338044CC1F3
:100D7000D90112966D917C91139766517109613179
:100D8000710588F112966D917C91139766507109E7
:100D90006730710508F0A2CECC0CDD1CEE1CFF1CE8
:100DA0004E5F5F4F2C5F3F4F4332510509F08DCEB0
:100DB0009F012A5B3F4FD9012D913C912A50310967
:100DC0002930310508F08ACE20E130E030933A0432
:100DD00020933904C0923504D0923604E09237044F
:100DE000F092380411C1D701C601880F991FAA1FBC
:100DF000BB1F6C017D016894C0F8D2CF84819581BE
:100E000089549109C39708F07ECE9F012A5F3F4F16
:100E1000BF016A577F4FC12CD12C7601D9014D916A
:100E20005C914950510949305105B8F06CCE86812A
:100E300097810997099708F061CE10923A041092B1
:100E400039048FEF9FEFDC018093350490933604D3
:100E5000A0933704B0933804DAC0D90112964D91AB
:100E60005C9113974651510941315105F0F4D70176
:100E7000C601880F991FAA1FBB1F6C017D016894D2
:100E8000C0F82C5F3F4F2617370741F620E230E0CD
:100E900030933A0420933904C0923504D09236043A
:100EA000E0923704F0923804B2C0D90112964D9105
:100EB0005C911397465051094730510508F023CEF5
:100EC000CC0CDD1CEE1CFF1CDCCF848195810997C6
:100ED000099708F048CE868197818C974F9708F044
:100EE00042CE8085918589974D9708F03CCE9F0131
:100EF000265F3F4FC12CD12C760145E050E02BCE30
:100F00009F0126573F4FD9012D913C912C5031091B
:100F10002B30310508F027CE20E230E030933A0440
:100F200020933904C0923504D0923604E0923704FD
:100F3000F092380488E090E05ACDD90112966D9174
:100F40007C911397695071096930710508F00BCED7
:100F5000CC0CDD1CEE1CFF1CF6CD848195818254E7
:100F600091098E9708F00BCE8F01045C1F4F8DE125
:100F700090E040E050E01BCDD8012D913C912851EC
:100F800031092231310510F0CB0119CD440F551F25
:100F90000BCDD90112964D915C911397495151098E
:100FA0004331510508F5D701C601880F991FAA1FC3
:100FB000BB1F6C017D016894C0F82C5F3F4F261762
:100FC000370709F0F3CD2EE030E030933A04209358
:100FD0003904C0923504D0923604E0923704F0927E
:100FE00038048FE090E003CDD90112964D915C91C9
:100FF0001397495051094930510508F0E0CDCC0C08
:10100000DD1CEE1CFF1CD9CF86E090E0F0CC87E021
:1010100090E0EDCC26960FB6F894DEBF0FBECDBFA4
:10102000DF91CF911F910F91FF90EF90DF90CF90C4
:10103000BF90AF909F908F907F906F905F904F90F8
:101040003F902F900895FC01918D828D981761F04B
:10105000828DDF01A80FB11D5D968C91928D9F5FEF
:101060009F73928F90E008958FEF9FEF0895FC019A
:10107000918D828D981731F0828DE80FF11D858D4D
:1010800090E008958FEF9FEF0895FC01918D228DE0
:10109000892F90E0805C9F4F821B91098F73992765
:1010A000089580E090E0892B21F00E94B510811115
:1010B00025C080E090E0892B41F080E090E0892B12
:1010C00021F00E94000081111CC080E090E0892B7B
:1010D00041F080E090E0892B21F00E940000811116
:1010E00013C080E090E0892BA1F080E090E0892B94
:1010F00081F00E94000081110AC008950E94000042
:10110000D8CF0E940000E1CF0E940000EACF0C94EB
:101110000000089590E0FC013197E231F10508F0FC
:101120004EC08827EE58FF4F8F4F0C94051B8091BF
:1011300080008F7703C0809180008F7D8093800036
:10114000089580918000877FF9CF84B58F7702C0A2
:1011500084B58F7D84BD08958091B0008F7703C0E2
:101160008091B0008F7D8093B000089580919000B1
:101170008F7707C0809190008F7D03C08091900091
:10118000877F8093900008958091A0008F7707C09B
:101190008091A0008F7D03C08091A000877F809305
:1011A000A0000895809120018F7707C080912001D1
:1011B0008F7D03C080912001877F80932001089557
:1011C0001F93CF93DF93282F30E0F901EA5BFE4FA6
:1011D0008491F901EA5FFD4FD491F901E054FE4F8B
:1011E000C491CC23C1F0162F811194DFEC2FF0E0D5
:1011F000EE0FFF1FE457FE4FA591B4918FB7F894FF
:10120000111105C09C91ED2FE095E92302C0EC91EE
:10121000ED2BEC938FBFDF91CF911F9108953FB7D6
:10122000F8948091840390918503A0918603B091F6
:10123000870326B5A89B05C02F3F19F00196A11D75
:10124000B11D3FBFBA2FA92F982F8827820F911D5C
:10125000A11DB11DBC01CD0142E0660F771F881FA3
:10126000991F4A95D1F70895FC0165857685878594
:1012700090890895FC014187528763877487089598
:101280000895FC0167830895CF92DF92EF92FF9259
:101290000F931F93CF93DF936C018B017A01EC01C5
:1012A000C558DC4F888187FF04C0FB011182108282
:1012B00024C08CE08C9D90018D9D300D112488817F
:1012C000A901480F511D87FD5A958091990390E01F
:1012D0004817590794F48881A901480F511D87FDCB
:1012E0005A95CA01FA01EE0FFF1F8E0F9F1FFC01D6
:1012F000E258FB4F808186FD19C088818F5F88830B
:101300008CE08C9D90018D9D300D11248881A90168
:10131000480F511D87FD5A958091990390E0481719
:101320005907B4F488818C303CF112C08881280FB1
:10133000311D87FD3A95F901EE0FFF1F2E0F3F1F5C
:10134000F901E258FB4F808160E08F7339DFD5CF20
:10135000F80180819181049680349C4918F480E4DE
:101360009CE904C0F801808191810496F701918382
:1013700080838FEF888344C0F80140815181888148
:10138000B901680F711D87FD7A95CB01FB01EE0F46
:10139000FF1F8E0F9F1FFC01E258FB4F818192813E
:1013A000840F951FF701918380838881A901480FDD
:1013B000511D87FD5A95CA01FA01EE0FFF1F8E0FCE
:1013C0009F1FFC01E258FB4F808186FF19C0888176
:1013D000280F311D87FD3A95F901EE0FFF1F2E0FE3
:1013E0003F1FF901E258FB4F808161E08F73DF916D
:1013F000CF911F910F91FF90EF90DF90CF90E0CEB3
:10140000DF91CF911F910F91FF90EF90DF90CF90E0
:10141000089585ED8093BC008091BC0084FDFCCFD5
:1014200010923405089540915603262F30E0240F82
:10143000311D21323105DCF4209134052430C9F40A
:10144000FC0180E090E0861758F43091560321911A
:10145000DC01AC5CBC4FA30FB11D2C930196F3CF04
:1014600080915603680F6093560380E0089581E0F1
:10147000089582E008950895E091BB038091BA0336
:10148000E81730F4F0E0E656FC4F808190E00895D4
:101490008FEF9FEF08959091BB038091BA03981747
:1014A00050F4E92FF0E0E656FC4F208130E09F5FDA
:1014B0009093BB0302C02FEF3FEFC90108958091C5
:1014C000BA0390E02091BB03821B91090895CF924B
:1014D000DF92EF92FF920F931F93CF93DF937C01E4
:1014E000262F972F8A0180913505882391F0C62FEA
:1014F000D72F6E01C40ED51ECC15DD0569F069919C
:10150000D701ED91FC910190F081E02DC701199573
:10151000F3CF642F822F87DFC801DF91CF911F9116
:101520000F91FF90EF90DF90CF900895CF93DF93CE
:101530001F92CDB7DEB76983209135052223D1F004
:1015400020915805203240F021E030E0FC01338347
:10155000228380E090E014C080913605E82FF0E00F
:10156000E95CFA4F998190838F5F80933605809371
:10157000580504C061E0CE01019655DF81E090E09E
:101580000F90DF91CF91089508950E94711C0C94E3
:10159000D91B0C94D91B1F920F920FB60F921124D6
:1015A0000BB60F922F938F939F93EF93FF93E0913E
:1015B0006905F0916A058081E0916F05F0917005F1
:1015C00082FD12C09081809172058F5F8F73209190
:1015D0007305821751F0E0917205F0E0E75AFA4F77
:1015E000958F8093720501C08081FF91EF919F914B
:1015F0008F912F910F900BBE0F900FBE0F901F90E9
:101600001895FC01848DDF01A80FB11DA35ABF4FAF
:101610002C91848D90E001968F739927848FA689F1
:10162000B7892C93A089B1898C9180648C93938D18
:10163000848D981306C00288F389E02D80818F7D08
:1016400080830895EF92FF920F931F93CF93DF93C0
:10165000EC0181E0888F9B8D8C8D981305C0E88903
:10166000F989808185FD23C0F62E0B8D10E00F5F78
:101670001F4F0F731127E02E8C8DE8120BC00FB691
:1016800007FCFACFE889F989808185FFF5CFCE0183
:10169000B8DFF2CF8B8DFE01E80FF11DE35AFF4F4B
:1016A000F0820B8FEA89FB898081806207C0EE8916
:1016B000FF896083E889F98980818064808381E083
:1016C00090E0DF91CF911F910F91FF90EF900895DF
:1016D000CF93DF93EC01888D8823C1F0EA89FB89E1
:1016E000808185FD05C0A889B9898C9186FD0EC0D1
:1016F0000FB607FCF5CF808185FFF2CFA889B989A5
:101700008C9185FFEDCFCE017CDFE8CFDF91CF91CB
:1017100008958F929F92AF92BF92CF92DF92EF92F5
:10172000FF926B017C017BDD4B015C01C114D10494
:10173000E104F104E9F073DDDC01CB0188199909BA
:10174000AA09BB09883E9340A105B10578F321E0C1
:10175000C21AD108E108F10888EE880E83E0981ECD
:10176000A11CB11CC114D104E104F10421F7DECFA6
:10177000FF90EF90DF90CF90BF90AF909F908F90B1
:1017800008952FB7F8946091800370918103809140
:101790008203909183032FBF08950F931F93CF93DC
:1017A000DF93EC01EEDF0B811C812D813E81DC019A
:1017B000CB01801B910BA20BB30B8D879E87AF874C
:1017C000B88B2F8121110BC01D861E861F86188A9B
:1017D0001886D7DF6B837C838D839E830EC028851C
:1017E00021110BC009851A852B853C85801791072F
:1017F000A207B30710F081E088878885DF91CF9139
:101800001F910F9108951F920F920FB60F921124FE
:101810002F933F938F939F93AF93BF9380918003B8
:1018200090918103A0918203B091830330917F0353
:1018300023E0230F2D3720F40196A11DB11D05C013
:1018400026E8230F0296A11DB11D20937F038093EC
:10185000800390938103A0938203B09383038091CC
:10186000840390918503A0918603B091870301962C
:10187000A11DB11D8093840390938503A0938603DB
:10188000B0938703BF91AF919F918F913F912F911B
:101890000F900FBE0F901F901895CF92DF92EF928E
:1018A000FF92DC01EAE0F0E060E070E0CB013C9107
:1018B000363308F0365320917B00432F4870277F42
:1018C000242B20937B00232F2770206420937C00FF
:1018D00020917A00206420937A0020917A0026FDDE
:1018E000FCCF409178002091790050E0522B6A01A2
:1018F000550FEE08FF086C0D7D1D8E1D9F1D319745
:10190000B1F62AE030E040E050E00E94C019A4E6C1
:10191000B0E00E94E219DC01CB012AE0B595A79561
:10192000979587952A95D1F7BC016B50710981E095
:101930006133710508F080E0FF90EF90DF90CF9069
:101940000895089508951F920F920FB60F921124D3
:101950000BB60F922F933F934F935F936F937F93A9
:101960008F939F93AF93BF93CF93DF93EF93FF93A7
:101970002091630230E0F901EA5BFE4F8491F901A6
:10198000EA5FFD4FD491F901E054FE4FC491CC239E
:1019900099F08111BFDBEC2FF0E0EE0FFF1FE45D4B
:1019A000FE4FA591B491EC91ED2331E020E009F4D4
:1019B00030E0832F922F02C080E090E020916702F8
:1019C000309168022F5F3F4F309368022093670287
:1019D00020916602253618F026E0209362022091BD
:1019E00062022430D9F128F4223069F02330D9F092
:1019F00060C0253009F453C0263009F05AC021E0F8
:101A00002093330353C0009709F053C0209167021D
:101A1000309168022436310508F443C01092330334
:101A2000109266021DC08130910509F042C0E0911C
:101A3000660221E02E0F20936602F0E020916702FB
:101A400030916802EE0FFF1FEE59FD4F308727835C
:101A5000109268021092670224E029C00097B9F43E
:101A6000E091660221E02E0F20936602F0E02091C3
:101A7000670230916802EE0FFF1FEE59FD4F30876D
:101A80002783109268021092670223E010C0209111
:101A90006702309168022536310558F007C000977B
:101AA00041F4109268021092670203C025E020936F
:101AB0006202209165022223B1F0892B51F48091BA
:101AC0006402882321F08091640261E009C02F9AAA
:101AD0000AC080916402882329F08091640260E04A
:101AE0006FDB01C02F98FF91EF91DF91CF91BF91F4
:101AF000AF919F918F917F916F915F914F913F91A6
:101B00002F910F900BBE0F900FBE0F901F90189546
:101B1000CF92DF92EF92FF92CF93DF93EC01072EEB
:101B2000000C880B990B0E949E186B017C0120E031
:101B300030E040E45FE30E94FD1820E030E048E43C
:101B400052E40E94601A0E94C81AC617D707D4F040
:101B500020E030E040EA5FE3C701B6010E94FD18D3
:101B600020E030E048E452E40E94601A20E030E0D7
:101B700040E85FE30E94FC190E94C81A21E06C173C
:101B80007D070CF420E0822F90E0DF91CF91FF9051
:101B9000EF90DF90CF9008950F931F93CF93DF9333
:101BA0001F921F92CDB7DEB7152F032FFC01808146
:101BB00091E0909335058093570510923605109269
:101BC0005805F4E06F9FB00111246A5F7F4F8EE3E8
:101BD00096E02A834983AADC4981842F912F55D32B
:101BE000812F90E052D32A81822F902F4ED3802FC5
:101BF00090E04BD381E00F900F90DF91CF911F9138
:101C00000F91E6C29A01CB96211540E1340728F0E6
:101C100020E030E040E050E102C040E050E0BCCFC6
:101C2000CF93DF93DC018C91803308F06DC09B0172
:101C30003327F901EA5FFD4F8491F901E054FE4F2B
:101C40002491222399F030E0220F331FF901EA5545
:101C5000FE4FC591D491F901E457FE4F259134917F
:101C60009FB7F894E881E82BE8839FBF8C91E82F19
:101C7000F0E09F01220F331FE20FF31FE258FB4FEA
:101C80006F739081907C692B608311961C921197E1
:101C900012961C9212976CE00E94F91A9CE0899FA0
:101CA000B001112440E050E09A01260F371FF901DE
:101CB000EE0FFF1F2E0F3F1FF901E258FB4F9081DF
:101CC00096FD16C04F5F5F4F4C30510569F781306C
:101CD000F9F41092800082E08093810010928500D8
:101CE00010928400B19A80916F00826080936F009F
:101CF000EC91F0E0CF01880F991FE80FF91FE2582F
:101D0000FB4F8081806480838C91DF91CF91089517
:101D1000823061F4109290008093910010929500AF
:101D20001092940088BB80937100E2CF833069F4F5
:101D30001092A00082E08093A1001092A500109262
:101D4000A40089BB80937200D3CF8111D1CF1092B0
:101D5000200182E08093210110922501109224013C
:101D60008ABB80937300C4CF1F920F920FB60F925D
:101D700011240BB60F922F933F934F935F936F9362
:101D80007F938F939F93AF93BF93EF93FF9348E21B
:101D900051E064E271E080E090E076DAFF91EF914B
:101DA000BF91AF919F918F917F916F915F914F9173
:101DB0003F912F910F900BBE0F900FBE0F901F9071
:101DC00018951F920F920FB60F9211240BB60F9217
:101DD0002F933F934F935F936F937F938F939F9333
:101DE000AF93BF93EF93FF9348EA50E064EA70E04B
:101DF00083E090E049DAFF91EF91BF91AF919F911D
:101E00008F917F916F915F914F913F912F910F90A3
:101E10000BBE0F900FBE0F901F9018951F920F9240
:101E20000FB60F9211240BB60F922F933F934F933F
:101E30005F936F937F938F939F93AF93BF93EF9332
:101E4000FF9348E950E064E970E082E090E01CDA3A
:101E5000FF91EF91BF91AF919F918F917F916F9182
:101E60005F914F913F912F910F900BBE0F900FBE3E
:101E70000F901F9018951F920F920FB60F9211247A
:101E80000BB60F922F933F934F935F936F937F9374
:101E90008F939F93AF93BF93EF93FF9348E850E0E6
:101EA00064E870E081E090E0EFD9FF91EF91BF919D
:101EB000AF919F918F917F916F915F914F913F91E2
:101EC0002F910F900BBE0F900FBE0F901F90189583
:101ED0001F920F920FB60F9211240BB60F922F93F1
:101EE0003F934F935F936F937F938F939F93AF93A2
:101EF000BF93EF93FF938091B900887F803609F4F8
:101F00009CC068F5883209F45BC090F4803109F414
:101F100054C038F4882309F4F6C0883009F44DC061
:101F2000F5C0883109F44CC0803209F45DC0EEC0C0
:101F3000803409F468C048F4803309F455C088330C
:101F400009F0E4C080933205D8C0803509F44FC051
:101F5000883509F45DC0883409F0D8C0D6C0883906
:101F600009F4C7C0A8F4883709F467C038F4883684
:101F700009F463C0803709F460C0C8C0883809F428
:101F8000B8C0803909F45FC0803809F0BFC05BC0B9
:101F9000803B09F486C038F4803A09F466C0883A78
:101FA00009F47FC0B3C0803C09F4A7C0883C09F4A1
:101FB000A4C0883B09F48AC0A9C080910F0510C055
:101FC0009091310580913005981770F5E0913105B9
:101FD00081E08E0F80933105F0E0E05FFA4F808161
:101FE0008093BB0085EC86C0809332058EC0E09163
:101FF000310581E08E0F809331058091BB00F0E0C8
:10200000E05FFA4F808390913105809130056EC07A
:10201000E091310581E08E0F809331058091BB0006
:10202000F0E0E05FFA4F80838091330581116DC04D
:1020300081E080930E0584EA61C083E080933405DB
:1020400010927A03CFCF80917A03803208F051C08A
:10205000E0917A0381E08E0F80937A038091BB0038
:10206000F0E0E65AFC4F8083BDCF85EC8093BC0046
:102070001092340580917A03803230F4E0917A0333
:10208000F0E0E65AFC4F108260917A0370E0E09134
:102090005803F09159038AE593E0199510927A0359
:1020A00035C084E080933405109257031092560394
:1020B000E0915403F09155031995809156038111D5
:1020C00005C081E08093560310923403E0915703DA
:1020D00081E08E0F80935703F0E0EC5CFC4F808131
:1020E0008093BB009091570380915603981708F492
:1020F00079CF85E88093BC0009C085EC8093BC0053
:102100001092340503C01092320583D9FF91EF91EC
:10211000BF91AF919F918F917F916F915F914F91FF
:102120003F912F910F900BBE0F900FBE0F901F90FD
:1021300018951092340581E08093330510920E05B6
:1021400061E084E13DD861E085E13AD8E9EBF0E077
:1021500080818E7F808380818D7F808388E48093DF
:10216000B80085E48093BC00089589E595E00E945D
:10217000450821E0892B09F420E0822F08951F9261
:102180000F920FB60F9211240BB60F922F933F931D
:102190004F935F936F937F938F939F93AF93BF936F
:1021A000EF93FF9389E595E02CDAFF91EF91BF91D2
:1021B000AF919F918F917F916F915F914F913F91DF
:1021C0002F910F900BBE0F900FBE0F901F90189580
:1021D000382F2091580590915705213208F049C0B9
:1021E000809134058111FCCF42E040933405309357
:1021F00033053FEF309332051092310520933005BF
:10220000A7E3B5E040E155E0FA013E2F341B321759
:1022100018F43D913193F9CF10920F0520910F05DD
:10222000990F922B90930F0590910E05913061F4C8
:1022300010920E0590910F059093BB009091BC00F9
:1022400093FDF8CF95EC01C095EE9093BC00909172
:1022500034059230E1F3909132059F3F79F08091FF
:102260003205803241F080913205803331F084E0D4
:1022700005C081E003C082E001C083E01092360512
:1022800010925805109235050895682F8EE396E058
:102290004DC91F93CF93DF93EC018C8583FD06C05E
:1022A000613011F4885F07C0885005C0613011F4B7
:1022B000805F01C080518C878C858F738C8740EF45
:1022C0005FE06C818D859E859DDC40EF5FE06F81D6
:1022D0008D859E8597DCEC85E695E695E695E8305C
:1022E00028F4F0E0E85DFD4F108101C010E08D851D
:1022F0009E8520E030E010FF03C040E050E102C0C6
:1023000040E050E06E81CB9647DC8D859E8520E0D5
:1023100030E011FF03C040E050E102C040E050E077
:102320006885CB9639DC8D859E8520E030E012FFF4
:1023300003C040E050E102C040E050E06D81CB9628
:102340002BDC8D859E8520E030E013FF03C040E04C
:1023500050E102C040E050E06985CB961DDC8C85E1
:10236000DF91CF911F910895FC012081203310F55A
:10237000318188E890E0831B910937FD9395880FA0
:10238000991F880F991F8438F3E09F0714F484E89D
:1023900093E00297880F991F4FB7F89430E0F90146
:1023A000EE0FFF1F2E0F3F1FF901E258FB4F9283E4
:1023B00081834FBF0895CF93C62F90917D0421E074
:1023C00020933505909357051092360510925805C5
:1023D000682F8EE396E0AAD86C2F8EE396E0A6D8FD
:1023E00081E0CF91F5CE8F929F92AF92BF92CF9224
:1023F000DF92EF92FF920F931F93CF93DF93FC0135
:10240000C081D18120913D0430913E04C217D30791
:102410000CF048C09E01220F331FE0913B04F09165
:102420003C04E20FF31F80809180C170DD27F1E052
:10243000CF27209719F404E610E002C00CE91FEF43
:102440007A015B016C01040F151FB801C40160DB48
:10245000892B89F40E0D1F1DB801C40159DB892B8E
:1024600069F4B8016E0D7F1DC40152DB892BE9F0C0
:1024700023E030E005C021E030E002C022E030E09F
:10248000F501808191810196821793073CF0F50157
:1024900011821082F601808191810196918380835F
:1024A000CE0105C081E090E002C08FEF9FEFDF9189
:1024B000CF911F910F91FF90EF90DF90CF90BF9041
:1024C000AF909F908F900895CF92DF92EF92FF92FE
:1024D0000F931F93CF93DF936C017A018B01C0E0C0
:1024E000D0E0CE15DF0589F0D8016D918D01D601C0
:1024F000ED91FC910190F081E02DC6011995892B99
:1025000011F47E0102C02196ECCFC701DF91CF917B
:102510001F910F91FF90EF90DF90CF90089561157C
:10252000710579F0FB0101900020E9F73197AF01C7
:10253000461B570BDC01ED91FC910280F381E02DED
:10254000199480E090E00895CF93DF93CDB7DEB784
:10255000A2970FB6F894DEBF0FBECDBF789484B5B6
:10256000826084BD84B5816084BD85B5826085BD8F
:1025700085B5816085BD80916E00816080936E001D
:10258000109281008091810082608093810080910F
:1025900081008160809381008091800081608093C0
:1025A00080008091B10084608093B1008091B00080
:1025B00081608093B000809191008260809391004F
:1025C0008091910081608093910080919000816062
:1025D000809390008091A10082608093A1008091FF
:1025E000A10081608093A1008091A0008160809310
:1025F000A0008091210182608093210180912101BE
:10260000816080932101809120018160809320016D
:1026100080917A00846080937A0080917A00826051
:1026200080937A0080917A00816080937A00809113
:102630007A00806880937A001092C10010923A0666
:1026400010923B0610923C0610923D061092F8053F
:102650001092F9051092FA051092FB0568EB7BE0E9
:1026600080E090E056D889E595E090933906809314
:102670003806E0916905F0916A0502E00083E09177
:102680006505F09166051082E0916705F091680597
:1026900080E1808310927105E0916D05F0916E05E7
:1026A00016E01083E0916B05F0916C0580818061EC
:1026B0008083E0916B05F0916C0580818860808358
:1026C000E0916B05F0916C05808180688083E091DA
:1026D0006B05F0916C0580818F7D808352D860936B
:1026E000F8057093F9058093FA059093FB0560E572
:1026F00072E0809138069091390611DF6AE070E04F
:1027000080E090E006D881E080930C06E0916905B6
:10271000F0916A050083E0916505F09166051082ED
:10272000E0916705F09168058FEC80831092710548
:10273000E0916D05F0916E051083E0916B05F091CD
:102740006C05808180618083E0916B05F0916C0560
:10275000808188608083E0916B05F0916C058081B9
:1027600080688083E0916B05F0916C0580818F7D9E
:1027700080831092080410920704212C312C21012F
:10278000239468EEC62E63E0D62EE12CF12C8091C6
:10279000FF03811111C083E090E09093F8038093D0
:1027A000F7032092FB033092FC034092FD0350920A
:1027B000FE0381E08093FF038091EF03811111C03C
:1027C000A4E0B0E0B093E803A093E7032092EB030A
:1027D0003092EC034092ED035092EE0381E080933F
:1027E000EF038091DF03811111C085E090E09093A9
:1027F000D8038093D7032092DB033092DC0340920E
:10280000DD035092DE0381E08093DF038091CF03EC
:10281000811108C087E0809363021092650281E015
:102820008093CF038091C70381112FC08CE092E089
:10283000909389038093880310928A030E94C10BAE
:1028400060938B0370938C0380938D0390938E031E
:1028500010928F03109290031092910310929203A2
:102860001092930310929403109295031092960382
:1028700010929703109298038CE192E09093890351
:102880008093880381E08093C703809100028823AE
:1028900009F437C0F89482E08093B0008093B100CF
:1028A00094E69093B3001092B200809370007894F5
:1028B00080936202109266028091630290E0FC01B4
:1028C000EA5FFD4F2491FC01E054FE4F8491882380
:1028D000C1F090E0880F991FFC01EA55FE4FA591C9
:1028E000B49184579E4FFC01859194914FB7F89411
:1028F0003C91209532233C93DC01EC912E232C93C8
:102900004FBF8091C60380938F038091C203909143
:10291000C303A091C403B091C50380939103909326
:102920009203A0939303B0939403809195039091A5
:102930009603A0919703B09198038093BE03909360
:10294000BF03A093C003B093C10388E893E00E9443
:10295000CD0B8093BD0387EF93E00E944D0CA82E12
:1029600087EE93E00E944D0CB82E87ED93E00E9415
:102970004D0C8AA320910704309108043901330FCC
:102980008808990897FE27C0E0915905F0915A05EB
:102990000190F081E02D6DE289E595E019952227FF
:1029A0003327A901261937094809590919A28E01A7
:1029B0000F5D1F4FCA01B9012AE030E040E050E04E
:1029C000DFD4605DF80162938F0121153105410567
:1029D000510581F716C0A401930119A28E010F5D64
:1029E0001F4FCA01B9012AE030E040E050E0C8D4EE
:1029F000605DD8016E938D012115310541055105AA
:102A000081F7B80189E595E08ADD6FE572E089E537
:102A100095E085DDE0910704F0910804E231F105CD
:102A200008F05BC18827EC57FF4F8F4FEEC580ED54
:102A300097E0A0E0B0E08093C2039093C303A0931B
:102A4000C403B093C50381E08093C6038091BD03A6
:102A5000882309F446C10E945901892B09F441C118
:102A60008091350490913604A0913704B0913804D8
:102A70008D33924CAF4FB10509F029C11092C603B6
:102A800081E090E0909308048093070420C1FAA1AC
:102A9000FF2309F426C182E090E0FFC0C092C20388
:102AA000D092C303E092C403F092C50381E0809307
:102AB000C6038091BD03882309F413C11092C60395
:102AC00083E090E0EAC08CE291E0A0E0B0E0809387
:102AD000C2039093C303A093C403B093C50381E0E2
:102AE0008093C6038091BD03882309F4FAC0109235
:102AF000C603A4E0B0E0B0930804A0930704F1C0BB
:102B0000C092C203D092C303E092C403F092C50303
:102B100081E08093C6038091BD03882309F4E1C05E
:102B20001092C60385E090E0B8C0BB2059F081E068
:102B30008093BC03AA2009F4D4C01092BC0386E0A1
:102B400090E0ABC0AA2009F4CCC08091BC038111F5
:102B5000F4CFC7C084EF91E0A0E0B0E08093C2035F
:102B60009093C303A093C403B093C50381E0809303
:102B7000C6038091BD03882309F4B3C01092C60335
:102B800087E090E08AC0C092C203D092C303E09273
:102B9000C403F092C50381E08093C6038091BD0316
:102BA000882309F49EC01092C60388E090E075C0A7
:102BB000BB2009F496C089E090E06FC088E893E1FB
:102BC000A0E0B0E08093C2039093C303A093C4033A
:102BD000B093C50381E08093C6038091BD03882331
:102BE00009F47FC01092C6038AE090E056C0AA2084
:102BF00009F477C08BE090E050C0C092C203D0923D
:102C0000C303E092C403F092C50381E08093C6033E
:102C10008091BD03882309F464C01092C6038CE040
:102C200090E03BC08CE291E0A0E0B0E08093C20372
:102C30009093C303A093C403B093C50381E0809332
:102C4000C6038091BD03882309F44BC01092C603CC
:102C50008DE090E022C084EF91E0A0E0B0E08093AE
:102C6000C2039093C303A093C403B093C50381E050
:102C70008093C6038091BD03882399F11092C60307
:102C80008EE090E00AC09AA1992359F18FE090E07C
:102C900004C0BB2031F181E190E09093080480935F
:102CA00007041FC00E945901892BD9F08091350477
:102CB00090913604A0913704B09138048D39924632
:102CC000AF4FB10521F4109208041092070482E07E
:102CD000809362021092660204C01092080410925F
:102CE00007041092000280912904811128C0E7E4B2
:102CF000F4E01282118213821082DF0111971C927C
:102D000011971C92369624E0EF35F20791F7109256
:102D1000690410926C041092680410926704109277
:102D2000790410927C04109278041092770480E663
:102D30008093420480937D0481E0809329048091F4
:102D4000210481112DC080916C04811120C010924A
:102D50006C0488EC90E0909368048093670482E4AC
:102D600094E090936B0480936A0488E080936104FC
:102D70008DE0809364048AE08093620489E080930C
:102D800063048BE0809365048CE0809366048DE59A
:102D900094E09093200480931F0481E080932104A9
:102DA0008091170481111EC0809199038033A0F493
:102DB00091E0980F909399038093140490E0FC01A4
:102DC000EE0FFF1F8E0F9F1FFC01E258FB4F88EB99
:102DD0009BE09283818303C08FEF8093140481E092
:102DE0008093170480910C0481111EC08091990377
:102DF0008033A0F491E0980F909399038093090495
:102E000090E0FC01EE0FFF1F8E0F9F1FFC01E258A8
:102E1000FB4F88EB9BE09283818303C08FEF80930D
:102E2000090481E080930C0480910102882309F455
:102E3000BDC01092BB031092BA03109236051092D7
:102E4000580577D9109236051092580572D960E06E
:102E500080E0B1DA80E496E09093440480934304E8
:102E600080917D0491E090933505809357051092F1
:102E700036051092580560E08EE396E00E94960AAF
:102E800081E0A6D980917D04909134059111FCCF09
:102E900091E090933405909333052FEF2093320502
:102EA000109231051092300590930F0590910F0507
:102EB000880F892B80930F0580910E05813061F476
:102EC00010920E0580910F058093BB008091BC008D
:102ED00083FDF8CF85EC01C085EE8093BC00809126
:102EE00034058130E1F380913105811103C0809177
:102EF000310501C081E0A0E1B5E02AE933E0F90144
:102F00009E2F921B981718F49D919193F9CF1092D0
:102F1000BB038093BA038EE396E00E944B0A182FFE
:102F2000682F6F76606180E046DA63E08EEF43DA07
:102F3000612F80E040DA65E070E080E090E00E9480
:102F4000890B612F616A80E036DA10E020E030E022
:102F500040E050E0612F8DE794E00E94CC0D1F5FB0
:102F60001031A1F769E070E084E194E00E94100E56
:102F70006AE070E089E094E00E94100E00911F0466
:102F800010912004D8011A962D913C911B97A4EB27
:102F9000B0E022D29B01AC0160E077E883E993E0E6
:102FA000EFD1F801208331834283538300910704DA
:102FB000109108040115110519F00D30110519F4CF
:102FC00089E094E0D1D9C8018D7F049719F489E094
:102FD00094E009C00115110521F0C801877F07970A
:102FE00019F484E194E0C0D90230110519F00B30D6
:102FF000110519F484E194E0B7D90115110529F4FC
:103000008091010281110AC021C00530110531F003
:103010000A30110519F00031110531F461E0809199
:103020001F049091200435D90130110531F008308A
:10303000110519F00E30110531F462E080911F0482
:103040009091200426D90330110541F00C30110570
:1030500029F0109201020E94510899CB80901F0420
:1030600090902004D4016D907C905301AA0CBB1C5D
:10307000AA0CBB1CB5E0AB1AB10809EC10E001507A
:10308000110939F361E0C40104D9E2E06E1671045C
:10309000B0F3C5010197F1F7F2CFE9E5F5E013824E
:1030A000128288EE93E0A0E0B0E084839583A6834B
:1030B000B78324E332E03183208325EC30E0358789
:1030C000248724EC30E03787268720EC30E0318BF2
:1030D000208B21EC30E0338B228B22EC30E0358BDF
:1030E000248B26EC30E0378B268B118E128E138EBC
:1030F000148EE6EFF5E0168217821086118612868E
:1031000013861486158616861786108A118A128AE7
:10311000138A148A158AEEE3F6E0138212828483FE
:103120009583A683B78384E492E091838083089596
:1031300040D008F481E00895E89409C097FB3EF47C
:1031400090958095709561957F4F8F4F9F4F9923F4
:10315000A9F0F92F96E9BB279395F6958795779572
:103160006795B795F111F8CFFAF4BB0F11F460FF32
:103170001BC06F5F7F4F8F4F9F4F16C0882311F08A
:1031800096E911C0772321F09EE8872F762F05C09E
:10319000662371F096E8862F70E060E02AF09A9539
:1031A000660F771F881FDAF7880F9695879597F92E
:1031B0000895990F0008550FAA0BE0E8FEEF1616C8
:1031C0001706E807F907C0F012161306E407F5071B
:1031D00098F0621B730B840B950B39F40A2661F08F
:1031E000232B242B252B21F408950A2609F4A14032
:1031F000A6958FEF811D811D08950BD078C069D0F1
:1032000028F06ED018F0952309F05AC05FC0112441
:10321000A2C07ED0A0F3959FD1F3950F50E0551F2B
:10322000629FF001729FBB27F00DB11D639FAA271B
:10323000F00DB11DAA1F649F6627B00DA11D661F6A
:10324000829F2227B00DA11D621F739FB00DA11D8B
:10325000621F839FA00D611D221F749F3327A00D45
:10326000611D231F849F600D211D822F762F6A2FE1
:1032700011249F5750408AF0E1F088234AF0EE0F66
:10328000FF1FBB1F661F771F881F91505040A9F773
:103290009E3F510570F014C05EC05F3FECF3983E56
:1032A000DCF3869577956795B795F795E7959F5FDA
:1032B000C1F7FE2B880F911D9695879597F9089574
:1032C00097F99F6780E870E060E008959FEF80ECD9
:1032D000089500240A94161617061806090608957C
:1032E00000240A9412161306140605060895092EE2
:1032F0000394000C11F4882352F0BB0F40F4BF2B51
:1033000011F460FF04C06F5F7F4F8F4F9F4F089590
:1033100057FD9058440F551F59F05F3F71F0479586
:10332000880F97FB991F61F09F3F79F0879508956B
:10333000121613061406551FF2CF4695F1DF08C08A
:10334000161617061806991FF1CF869571056105A7
:1033500008940895E894BB2766277727CB0197F94F
:103360000895DB018F939F932DD0BF91AF91A29FC2
:10337000800D911DA39F900DB29F900D1124089573
:10338000A1E21A2EAA1BBB1BFD010DC0AA1FBB1F69
:10339000EE1FFF1FA217B307E407F50720F0A21BDB
:1033A000B30BE40BF50B661F771F881F991F1A9448
:1033B00069F760957095809590959B01AC01BD0172
:1033C000CF01089509D0A59F900DB49F900DA49FA3
:1033D000800D911D11240895A29FB001B39FC001DB
:1033E000A39F700D811D1124911DB29F700D811D31
:1033F0001124911D08955058BB27AA270ED077CFCE
:1034000068DF30F06DDF20F031F49F3F11F41EF4DF
:103410005DCF0EF4E095E7FB53CFE92F79DF80F322
:10342000BA17620773078407950718F071F49EF5C1
:1034300091CF0EF4E0950B2EBA2FA02D0B01B90100
:1034400090010C01CA01A0011124FF27591B99F01A
:10345000593F50F4503E68F11A16F040A22F232F26
:10346000342F4427585FF3CF469537952795A79576
:10347000F0405395C9F77EF41F16BA0B620B730B1D
:10348000840BBAF09150A1F0FF0FBB1F661F771F8E
:10349000881FC2F70EC0BA0F621F731F841F48F443
:1034A000879577956795B795F7959E3F08F0B3CFC9
:1034B0009395880F08F09927EE0F979587950895B3
:1034C0000CD015CF0DDF40F004DF30F021F45F3F6A
:1034D00019F0F6CE51113FCFF9CE1ADF98F39923A8
:1034E000C9F35523B1F3951B550BBB27AA276217C8
:1034F0007307840738F09F5F5F4F220F331F441F0D
:10350000AA1FA9F333D00E2E3AF0E0E830D0915044
:103510005040E695001CCAF729D0FE2F27D0660F31
:10352000771F881FBB1F261737074807AB07B0E870
:1035300009F0BB0B802DBF01FF2793585F4F2AF086
:103540009E3F510568F0BCCE06CF5F3FECF3983E3E
:10355000DCF3869577956795B795F7959F5FC9F7E3
:10356000880F911D9695879597F90895E1E0660F6C
:10357000771F881FBB1F621773078407BA0720F0E5
:10358000621B730B840BBA0BEE1F88F7E09508954E
:1035900004D06894B111DFCE0895C2DE88F09F5741
:1035A00090F0B92F9927B751A0F0D1F0660F771F8F
:1035B000881F991F1AF0BA95C9F712C0B13081F06F
:1035C000C9DEB1E00895C6CE672F782F8827B85F8F
:1035D00039F0B93FCCF3869577956795B395D9F7D0
:1035E0003EF490958095709561957F4F8F4F9F4FDA
:1035F0000895991B79E004C0991F961708F0961B4F
:10360000881F7A95C9F780950895EE0FFF1F881FD0
:103610008BBF0790F691E02D19940F93083090F02E
:10362000982F872F762F652F542F432F322F222745
:103630000850F4CF220F331F441F551F661F771FFA
:10364000881F991F0A95B2F70F91089597FB10F8FC
:10365000169400080F93083098F00850232F342F49
:10366000452F562F672F782F892F902DF4CF059453
:1036700097958795779567955795479537952795AA
:103680000A95AAF70F910895CF93DF9382309105A1
:1036900010F482E090E0E0914C06F0914D0620E0BD
:1036A00030E0C0E0D0E0309711F1408151814817FF
:1036B0005907C0F04817590761F482819381209718
:1036C00019F09B838A832BC090934D0680934C0600
:1036D00026C02115310519F04217530718F49A0135
:1036E000BE01DF01EF010280F381E02DDCCF211567
:1036F000310509F1281B390B2430310590F412965D
:103700008D919C9113976115710521F0FB019383B5
:10371000828304C090934D0680934C06FD0132963F
:1037200044C0FD01E20FF31F8193919322503109B0
:103730002D933C933AC020914A0630914B06232B9F
:1037400041F4209104023091050230934B062093FE
:103750004A0620910202309103022115310541F4FD
:103760002DB73EB74091060250910702241B350B3E
:10377000E0914A06F0914B06E217F307A0F42E1BE6
:103780003F0B2817390778F0AC014E5F5F4F2417C5
:10379000350748F04E0F5F1F50934B0640934A0683
:1037A0008193919302C0E0E0F0E0CF01DF91CF91EF
:1037B00008950F931F93CF93DF93009709F48CC064
:1037C000FC0132971382128200914C0610914D0633
:1037D0000115110581F420813181820F931F209101
:1037E0004A0630914B062817390779F5F0934B06B6
:1037F000E0934A0671C0D80140E050E0AE17BF0721
:1038000050F412962D913C911397AD01211531057D
:1038100009F1D901F3CF9D01DA013383228360815D
:103820007181860F971F8217930769F4EC01288135
:103830003981260F371F2E5F3F4F318320838A81C6
:103840009B8193838283452B29F4F0934D06E0936B
:103850004C0642C01396FC93EE931297ED014991EA
:1038600059919E01240F351FE217F30771F48081EF
:103870009181840F951F029611969C938E9382815D
:10388000938113969C938E931297E0E0F0E0D80119
:1038900012968D919C911397009719F0F8018C0165
:1038A000F6CF8D919C9198012E5F3F4F820F931F11
:1038B00020914A0630914B062817390769F4309752
:1038C00029F410924D0610924C0602C01382128207
:1038D00010934B0600934A06DF91CF911F910F91F1
:0E38E000089581E090E0F89400C0F894FFCFC6
:1038EE00010100004E06800000000000A20CC90A73
:1038FE00410940093A09340900000000A10CC70A29
:10390E004109CD0B3A09340901030206040C0809DA
:10391E0000000000220B6412450823083708680BCC
:10392E0000000000960A670A5F0A4B0A3C0A3B0A2F
:10393E00564D4450565F317C315F564D4450560DB6
:02394E000A006D
:020000023000CC
:10E000000D9489F10D94B2F10D94B2F10D94B2F129
:10E010000D94B2F10D94B2F10D94B2F10D94B2F1F0
:10E020000D94B2F10D94B2F10D94B2F10D94B2F1E0
:10E030000D94B2F10D94B2F10D94B2F10D94B2F1D0
:10E040000D94B2F10D94B2F10D94B2F10D94B2F1C0
:10E050000D94B2F10D94B2F10D94B2F10D94B2F1B0
:10E060000D94B2F10D94B2F10D94B2F10D94B2F1A0
:10E070000D94B2F10D94B2F10D94B2F10D94B2F190
:10E080000D94B2F10D94B2F10D94B2F10D94B2F180
:10E090000D94B2F10D94B2F10D94B2F10D94B2F170
:10E0A0000D94B2F10D94B2F10D94B2F10D94B2F160
:10E0B0000D94B2F10D94B2F10D94B2F10D94B2F150
:10E0C0000D94B2F10D94B2F10D94B2F10D94B2F140
:10E0D0000D94B2F10D94B2F10D94B2F10D94B2F130
:10E0E0000D94B2F141546D656761323536300041AF
:10E0F000726475696E6F206578706C6F72657220DE
:10E1000073746B3530305632206279204D4C530099
:10E11000426F6F746C6F616465723E004875683F52
:10E1200000436F6D70696C6564206F6E203D200048
:10E130004350552054797065202020203D20005FF9
:10E140005F4156525F415243485F5F3D2000415658
:10E1500052204C696243205665723D20004743437C
:10E160002056657273696F6E203D20004350552024
:10E1700049442020202020203D20004C6F7720663D
:10E18000757365202020203D20004869676820665F
:10E190007573652020203D200045787420667573D6
:10E1A00065202020203D20004C6F636B2066757336
:10E1B000652020203D20004D617220203720323024
:10E1C000313300312E362E3800342E332E350056A2
:10E1D00023202020414444522020206F7020636F70
:10E1E00064652020202020696E73747275637469E1
:10E1F0006F6E2061646472202020496E74657272B3
:10E20000757074006E6F20766563746F7200726A49
:10E210006D702020006A6D70200057686174207056
:10E220006F72743A00506F7274206E6F7420737541
:10E2300070706F72746564004D7573742062652030
:10E2400061206C6574746572002000577269747483
:10E25000696E672045450052656164696E672045B7
:10E26000450045452065727220636E743D00504F35
:10E27000525400303D5A65726F2061646472003FF1
:10E280003D43505520737461747300403D454550C3
:10E29000524F4D207465737400423D426C696E6B41
:10E2A000204C454400453D44756D70204545505215
:10E2B0004F4D00463D44756D7020464C415348001B
:10E2C000483D48656C70004C3D4C69737420492F83
:10E2D0004F20506F72747300513D51756974005234
:10E2E0003D44756D702052414D00563D73686F7707
:10E2F00020696E7465727275707420566563746FF0
:10E30000727300593D506F727420626C696E6B00BD
:10E310002A0011241FBECFEFD1E2DEBFCDBF01E046
:10E320000CBF12E0A0E0B2E0EEE1FDEF03E00BBFB6
:10E3300002C007900D92A030B107D9F712E0A0E01B
:10E34000B2E001C01D92AE30B107E1F70F9460F367
:10E350000D948DFE01E20EBF0FEF0DBF11241FBE05
:10E360000D9460F30D9400F020E030E040ED57E0B4
:10E3700005C0FA013197F1F72F5F3F4F2817390792
:10E38000C0F308959C01260F311DC901A0E0B0E043
:10E390002F5F3F4FABBFFC018791882361F08093D3
:10E3A000C6008091C00086FFFCCF8091C0008064D1
:10E3B0008093C000EACF08958DE08093C6008091DD
:10E3C000C00086FFFCCF8091C00080648093C000B5
:10E3D0008AE08093C6008091C00086FFFCCF8091C8
:10E3E000C00080648093C00008950F94C2F10F9420
:10E3F000DCF10895FC019081992359F09093C600B7
:10E400008091C00086FFFCCF8091C0008064809323
:10E41000C0003196992379F70895282F982F929567
:10E420009F70892F805D8A3308F0895F8093C600D2
:10E430008091C00086FFFCCF8091C00080648093F3
:10E44000C000822F8F70982F905D9A3308F0995FEB
:10E450009093C6008091C00086FFFCCF8091C000E1
:10E4600080648093C00008959C01FB01853691056E
:10E470001CF46330710594F0C90164E670E00F94F8
:10E480002EFE605D7F4F6093C6008091C00086FFC6
:10E49000FCCF8091C00080648093C0002B30310598
:10E4A00014F43297B4F0C90164E670E00F942EFEC4
:10E4B0006AE070E00F942EFE605D7F4F6093C600AF
:10E4C0008091C00086FFFCCF8091C0008064809363
:10E4D000C000C9016AE070E00F942EFEC0968093E0
:10E4E000C6008091C00086FFFCCF8091C000806490
:10E4F0008093C00008951F93182F8EE692EE60E07F
:10E500000F94C2F11093C6008091C00086FFFCCF2B
:10E510008091C00080648093C0000F94DCF11F9153
:10E5200008952F923F924F925F926F927F928F92B7
:10E530009F92AF92BF92CF92DF92EF92FF920F9392
:10E540001F93DF93CF93CDB7DEB762970FB6F894E2
:10E55000DEBF0FBECDBF382E622ECA01DB015C01CB
:10E560006D01772420E2222E2E010894411C511CBB
:10E570008BC081E0A81680E0B80681E0C80680E084
:10E58000D80628F0C601AA27BB270F940DF2BB2797
:10E59000AD2D9C2D8B2D0F940DF28A2D0F940DF225
:10E5A0002092C6008091C00086FFFCCF8091C00001
:10E5B00080648093C0009DE29093C6008091C0006B
:10E5C00086FFFCCF8091C00080648093C0002092C1
:10E5D000C6008091C00086FFFCCF8091C00080649F
:10E5E0008093C00019828601750188249924A1E0D6
:10E5F0003A1651F03A1620F0B2E03B1661F409C029
:10E600000BBFF701779007C0C7010F9477FE782EF4
:10E6100002C0F7017080872D0F940DF22092C60082
:10E620008091C00086FFFCCF8091C0008064809301
:10E63000C000872D8052F401EF70F0708F3520F408
:10E64000E40DF51D708204C0E40DF51D8EE280839B
:10E650000894E11CF11C011D111D0894811C911CE2
:10E6600090E18916910409F0C2CF80E190E0A0E02A
:10E67000B0E0A80EB91ECA1EDB1E198AC2010F9493
:10E68000FAF10F94DCF16A94662009F072CF629679
:10E690000FB6F894DEBF0FBECDBFCF91DF911F91B3
:10E6A0000F91FF90EF90DF90CF90BF90AF909F9031
:10E6B0008F907F906F905F904F903F902F90089534
:10E6C0002F923F924F925F926F927F928F929F9282
:10E6D000AF92BF92CF92DF92EF92FF920F931F9370
:10E6E000DF93CF93CDB7DEB7CD53D1400FB6F894BB
:10E6F000DEBF0FBECDBF01E20EBF0FEF0DBF94B75F
:10E70000F894A89514BE80916000886180936000A1
:10E7100010926000789493FF05C0E0910002F091A0
:10E7200001021995279A2F9A8091C00082608093E8
:10E73000C00080E18093C40088E18093C1000000A4
:10E74000EE24FF24870144E0A42EB12CCC24DD2448
:10E7500024C0C5010197F1F70894E11CF11C011DCB
:10E76000111D21E2E2162EE4F20620E0020720E06D
:10E77000120718F031E0C32ED12CC801B70127ECE5
:10E780003BE140E050E00F9441FE611571058105C9
:10E79000910519F485B1805885B98091C00087FD35
:10E7A00003C0C114D104A9F2A6014F5F5F4FC25E3E
:10E7B000DE4F59834883CE51D140C25EDE4F8881FF
:10E7C0009981CE51D140019711F00D9410FEC05D9A
:10E7D000DE4F19821882C053D14060E0C15DDE4F28
:10E7E0001882CF52D14088249924C35DDE4F19820C
:10E7F0001882CD52D140C05EDE4F188219821A8233
:10E800001B82C052D140CE5CDE4F188219821A8220
:10E810001B82C253D140EE24FF2487010BBFF701B6
:10E8200007911691C45CDE4F19830883CC53D14005
:10E830000D940BFEC25EDE4F28813981CE51D1404E
:10E840002130310509F52091C600C25EDE4F1982E4
:10E850001882CE51D14022C02F5F3F4F4F4F5F4FA4
:10E86000213082E138078AE7480780E0580780F0C6
:10E87000C45CDE4FE881F981CC53D140EF5FFF4F9C
:10E8800019F0EE27FF27099420E030E040E050E047
:10E890008091C00087FFE0CF2091C600C35DDE4FAE
:10E8A00048815981CD52D1404F5F5F4FC35DDE4FEC
:10E8B00059834883CD52D140213209F063C64A3092
:10E8C000510508F05FC60894811C911C53E0851621
:10E8D000910409F059C600E010E018C081E280936D
:10E8E000C6008091C00086FFFCCF8091C00080648C
:10E8F0008093C0002F5F3F4F2931310579F70F9486
:10E90000DCF10F5F1F4F0530110519F020E030E0FA
:10E91000E5CF10920A0210920B0210920C02109294
:10E920000D02109206021092070210920802109235
:10E930000902109202021092030210920402109235
:10E9400005028FEE90EE60E00F94F5F180E191EE1C
:10E9500060E00F94C2F18091C00087FFFCCF9091DE
:10E96000C600903608F09F759032B8F09093C600BC
:10E970008091C00086FFFCCF8091C00080648093AE
:10E98000C000A0E2A093C6008091C00086FFFCCF2B
:10E990008091C00080648093C000983409F4D7C18E
:10E9A0009934B8F4923409F459C1933458F490333B
:10E9B00019F1903308F4E3C59F33A1F1903409F0C5
:10E9C000DEC5BDC0953409F470C1963409F0D7C5D1
:10E9D00098C1923509F42BC2933538F49C3409F46C
:10E9E000F5C1913509F0CBC518C2963509F445C279
:10E9F000993509F0C4C567C483E792EE62E00F94CD
:10EA0000F5F110920602109207021092080210927D
:10EA1000090210920A0210920B0210920C0210923C
:10EA20000D0213C18FE792EE62E00F94F5F18FEEC5
:10EA300090EE60E00F94F5F181E291EE60E00F94CA
:10EA4000C2F187EB91EE60E00F94F5F180E391EE77
:10EA500060E00F94C2F184EE90EE60E00F94F5F167
:10EA60008FE391EE60E00F94C2F186E090E061E008
:10EA700070E00F9434F20F94DCF18DE591EE60E0DC
:10EA80000F94C2F189EC91EE60E00F94F5F18EE401
:10EA900091EE60E00F94C2F183EC91EE60E00F9490
:10EAA000F5F18CE691EE60E00F94C2F18EE10F94E7
:10EAB0000DF288E90F940DF281E00F940DF20F949E
:10EAC000DCF18BE791EE60E00F94C2F119E0E0E039
:10EAD000F0E010935700E4918E2F0F940DF20F94F5
:10EAE000DCF18AE891EE60E00F94C2F1E3E0F0E03F
:10EAF00010935700E4918E2F0F940DF20F94DCF1D8
:10EB000089E991EE60E00F94C2F1E2E0F0E0109349
:10EB10005700E4918E2F0F940DF20F94DCF188EAE8
:10EB200091EE60E00F94C2F1E1E0F0E01093570045
:10EB30001491812F0F940DF20F94DCF107CF8BE825
:10EB400092EE62E00F94F5F18BE492EE60E00F94A8
:10EB5000F5F10F94DCF100E010E019C0C8016F2D51
:10EB60000F947FFEFF2031F489E492EE60E00F9471
:10EB7000C2F10BC0F092C6008091C00086FFFCCFAE
:10EB80008091C00080648093C0000F5F1F4FC80158
:10EB900081519F41A0E0B0E0ABBFFC01F790BAE229
:10EBA000FB1621F0E2E000301E07C1F60F94DCF105
:10EBB0000F94DCF187E592EE60E00F94F5F10F948D
:10EBC000DCF1CC24DD2400E010E01EC0C8010F946D
:10EBD00077FEF82E882331F489E492EE60E00F94FA
:10EBE000C2F10BC08093C6008091C00086FFFCCFAD
:10EBF0008091C00080648093C000FE1419F00894D6
:10EC0000C11CD11C0F5F1F4FC80181519F41A0E063
:10EC1000B0E0ABBFFC01E790FAE2EF1621F022E092
:10EC20000030120799F60F94DCF10F94DCF182E6C4
:10EC300092EE60E00F94C2F1C60161E070E00F94C3
:10EC400034F20F94DCF10F94DCF110920202109276
:10EC50000302109204021092050278CE89E992EE26
:10EC600062E00F94F5F1279A2F9A16C02F9880E052
:10EC700090E0E0EDF7E03197F1F7019684369105E9
:10EC8000C1F72F9A80E090E0E0EDF7E03197F1F7DF
:10EC9000019684369105C1F78091C00087FFE6CFC9
:10ECA0008091C00087FFFCCF64C485EA92EE62E0E9
:10ECB0000F94F5F140910202509103026091040219
:10ECC0007091050281E020E10F9491F2809102029F
:10ECD00090910302A0910402B091050280509F4FD1
:10ECE000AF4FBF4F8093020290930302A0930402A0
:10ECF000B093050280509041A040B04008F426CE69
:10ED0000A4CF83EB92EE62E00F94F5F140910602FE
:10ED100050910702609108027091090280E020E1A1
:10ED20000F9491F28091060290910702A09108023F
:10ED3000B091090280509F4FAF4FBF4F80930602A2
:10ED400090930702A0930802B0930902FFCD80ECD4
:10ED500092EE62E00F94F5F183E792EE60E00F949B
:10ED6000F5F18FE792EE60E00F94F5F18BE892EE0B
:10ED700060E00F94F5F189E992EE60E00F94F5F10F
:10ED800085EA92EE60E00F94F5F183EB92EE60E09D
:10ED90000F94F5F180EC92EE60E00F94F5F187ECC2
:10EDA00092EE60E00F94F5F188ED92EE60E00F9442
:10EDB000F5F18FED92EE60E00F94F5F18AEE92EEB0
:10EDC00060E00F94F5F183E093EEBDCD87EC92EE19
:10EDD00062E00F94F5F181E40F947BF282E40F94EA
:10EDE0007BF283E40F947BF284E40F947BF285E45E
:10EDF0000F947BF286E40F947BF287E40F947BF20E
:10EE000088E40F947BF28AE40F947BF28BE40F94F6
:10EE10007BF28CE40F947BF299CD88ED92EE62E068
:10EE20000F94F5F1772473948824992409C48FED05
:10EE300092EE62E00F94F5F140910A0250910B02BC
:10EE400060910C0270910D0282E020E10F9491F22A
:10EE500080910A0290910B02A0910C02B0910D02D8
:10EE600080509F4FAF4FBF4F80930A0290930B0289
:10EE7000A0930C02B0930D0269CD8AEE92EE62E08F
:10EE80000F94F5F184EE90EE60E00F94F5F18FECC5
:10EE900091EE60E00F94F5F1662477244301CC5D98
:10EEA000DE4F19821882C452D140D401C301B695F5
:10EEB000A79597958795CA5DDE4F88839983AA8326
:10EEC000BB83C652D140CC5DDE4FA881B981C4520C
:10EED000D1401196CC5DDE4FB983A883C452D14096
:10EEE000CD0162E070E00F9434F2B0E2B093C6005E
:10EEF0008091C00086FFFCCF8091C0008064809329
:10EF0000C000EDE2E093C6008091C00086FFFCCF18
:10EF10008091C00080648093C000F0E2F093C6004E
:10EF20008091C00086FFFCCF8091C00080648093F8
:10EF3000C000CA5DDE4FE880F9800A811B81C6529D
:10EF4000D140BB27A12F902F8F2D0F940DF2CA5DBA
:10EF5000DE4F8881C652D1400F940DF2B0E2FB2EF5
:10EF6000F092C6008091C00086FFFCCF8091C00067
:10EF700080648093C0000DE30093C6008091C000C0
:10EF800086FFFCCF8091C00080648093C00010E2B7
:10EF90001093C6008091C00086FFFCCF8091C00016
:10EFA00080648093C0008BBEF3012791C65DDE4F65
:10EFB0002883CA52D140A22EBB24CC24DD2408943D
:10EFC000611C711C811C911C8BBEF3018791282E42
:10EFD0003324442455240894611C711C811C911C09
:10EFE0008BBEF3013791C55DDE4F3883CB52D140E4
:10EFF0000894611C711C811C911C8BBEF30147910C
:10F00000C45DDE4F4883CC52D140ADEFEA2EAFEF66
:10F01000FA2EAFEF0A2FAFEF1A2F6E0C7F1C801E57
:10F02000911E142D032DF22CEE24EA0CFB1C0C1D5A
:10F030001D1D0F940DF220E22093C6008091C000A8
:10F0400086FFFCCF8091C00080648093C000C65DC5
:10F05000DE4F8881CA52D1400F940DF230E23093D6
:10F06000C6008091C00086FFFCCF8091C000806404
:10F070008093C000C45DDE4F8881CC52D1400F9494
:10F080000DF240E24093C6008091C00086FFFCCFA5
:10F090008091C00080648093C000C55DDE4F888190
:10F0A000CB52D1400F940DF250E25093C6008091A4
:10F0B000C00086FFFCCF8091C00080648093C000B8
:10F0C0008FEFE8168FEFF80680E0080780E018075A
:10F0D00031F484E092EE60E00F94C2F1DFC0D80119
:10F0E000C7018070907CA070B0708050904CA040A0
:10F0F000B040D1F52FEF3FE340E050E0E222F322B1
:10F1000004231523CA5DDE4FA880B980CA80DB8046
:10F11000C652D140AE0CBF1CC01ED11EAA0CBB1CD7
:10F12000CC1CDD1C8EE092EE60E00F94C2F1BB2798
:10F13000A12F902F8F2D0F940DF28E2D0F940DF285
:10F1400030E23093C6008091C00086FFFCCF8091F2
:10F15000C00080648093C0004EE34093C60080915D
:10F16000C00086FFFCCF87C08EE09EEFA0E0B0E03D
:10F17000E822F9220A231B239CE0E91694E9F90608
:10F1800090E0090790E0190709F088C0C45DDE4FE0
:10F19000A881CC52D140EA2EFF2400E010E0102FCD
:10F1A0000F2DFE2CEE24C55DDE4FB881CB52D14031
:10F1B000EB0EF11C011D111DD601C501817090706F
:10F1C000A070B070DC0199278827E80EF91E0A1F8D
:10F1D0001B1F20EF30E040E050E0A222B322C42207
:10F1E000D52241E1AA0CBB1CCC1CDD1C4A95D1F7F1
:10F1F000EA0CFB1C0C1D1D1D81E090E0A0E0B0E0BE
:10F20000282239224A225B2235E1220C331C441C7D
:10F21000551C3A95D1F7E20CF31C041D151D57013E
:10F220006801AA0CBB1CCC1CDD1C85E192EE60E0E1
:10F230000F94C2F1C801AA27BB270F940DF2BB2778
:10F24000A12F902F8F2D0F940DF28E2D0F940DF274
:10F2500090E29093C6008091C00086FFFCCF809121
:10F26000C00080648093C000AEE3A093C60080918C
:10F27000C00086FFFCCF8091C00080648093C000F6
:10F28000C601AA27BB270F940DF2BB27AD2D9C2DDD
:10F290008B2D0F940DF28A2D0F940DF20F94DCF14B
:10F2A000CC5DDE4FE881F981C452D140F99709F471
:10F2B0004DCBF4E0EF2EF12C012D112D6E0C7F1CA7
:10F2C000801E911EF2CD83E093EE62E00F94F5F183
:10F2D0008AE192EE60E00F94C2F18091C00087FF56
:10F2E000FCCF1091C6001F751093C6008091C0001E
:10F2F00086FFFCCF8091C00080648093C0000F9493
:10F30000DCF1812F81548A3108F036C1163409F4BA
:10F3100095C0173490F4133409F44EC0143430F40B
:10F320001134F1F0123409F01DC130C0143409F465
:10F3300059C0153409F016C16BC01A3409F4C4C0A1
:10F340001B3438F4173409F48FC0183409F00AC19B
:10F35000A1C01B3409F4D2C01C3409F003C1E8C0B9
:10F360008FEF81B90DC082B1809582B980E090E0C5
:10F37000E0EDF7E03197F1F70196883C9105C1F790
:10F380008091C00087FFEFCF12B8EFC08FEF84B934
:10F390000DC085B1809585B980E090E0E0EDF7E0A3
:10F3A0003197F1F70196883C9105C1F78091C00033
:10F3B00087FFEFCF15B8D9C08FEF87B90DC088B1DF
:10F3C000809588B980E090E0E0EDF7E03197F1F7C3
:10F3D0000196883C9105C1F78091C00087FFEFCF6F
:10F3E00018B8C3C08FEF8AB90DC08BB180958BB9A7
:10F3F00080E090E0E0EDF7E03197F1F70196883C8E
:10F400009105C1F78091C00087FFEFCF1BB8ADC059
:10F410008FEF8DB90DC08EB180958EB980E090E0F0
:10F42000E0EDF7E03197F1F70196883C9105C1F7DF
:10F430008091C00087FFEFCF1EB897C08FEF80BBD1
:10F440000DC081B3809581BB80E090E0E0EDF7E0F6
:10F450003197F1F70196883C9105C1F78091C00082
:10F4600087FFEFCF11BA81C08FEF83BB0DC084B38C
:10F47000809584BB80E090E0E0EDF7E03197F1F714
:10F480000196883C9105C1F78091C00087FFEFCFBE
:10F4900014BA6BC08FEF809301010FC080910201FD
:10F4A00080958093020180E090E0E0EDF7E03197F5
:10F4B000F1F70196883C9105C1F78091C00087FF64
:10F4C000EDCF1092020151C08FEF809304010FC065
:10F4D0008091050180958093050180E090E0E0ED4A
:10F4E000F7E03197F1F70196883C9105C1F78091DB
:10F4F000C00087FFEDCF1092050137C08FEF8093DA
:10F5000007010FC08091080180958093080180E079
:10F5100090E0E0EDF7E03197F1F70196883C910536
:10F52000C1F78091C00087FFEDCF109208011DC088
:10F530008FEF80930A010FC080910B01809580931B
:10F540000B0180E090E0E0EDF7E03197F1F70196F4
:10F55000883C9105C1F78091C00087FFEDCF1092E4
:10F560000B0103C085E292EEEEC98091C00087FFD7
:10F57000FCCF8091C600EAC988E392EEE4C98CE131
:10F5800091EEE1C988249924933011F1943028F444
:10F59000913089F09230B8F408C0953061F195301F
:10F5A000F0F0963009F048C043C02B3109F042C951
:10F5B00091E06BE13FC96227C15DDE4F2883CF52E6
:10F5C000D14092E037C9B22FA0E0622793E032C960
:10F5D000822F90E0A82BB92B622794E02BC92E3004
:10F5E00009F039C3622795E0C05DDE4F19821882A9
:10F5F000C053D1401FC9E1E0F0E0EC0FFD1FC05D3A
:10F60000DE4F08811981C053D140E00FF11F2083E4
:10F610000F5F1F4FC05DDE4F19830883C053D14079
:10F6200062270A171B0709F005C9D80196E002C92D
:10F63000261709F010C303C0973009F0FBC87724E0
:10F640009981933109F412C19431C8F4963009F4C8
:10F65000D8C0973050F4923009F406C1933009F4C1
:10F660006DC0913009F059C253C0913109F477C08F
:10F67000923108F0BBC0903109F04FC2F5C098310B
:10F6800009F487C0993150F4953109F4EFC09531F0
:10F6900008F4C6C1963109F040C2C2C19A3109F4DA
:10F6A0006CC09A3108F491C09B3109F45BC09D3164
:10F6B00009F033C29D81903359F48F81882311F46E
:10F6C0009EE11CC0813011F091E018C098E916C08D
:10F6D000892F807591F0903539F4E0E0F0E089E011
:10F6E0008093570094910AC0983539F4E3E0F0E034
:10F6F00089E080935700949101C090E01A821B82A8
:10F700008D818C831D829E831F8227E030E009C299
:10F710001A8288E08B8381E48C8386E58D8382E581
:10F720008E8389E48F8383E5888780E589878FE5E9
:10F730008A8782E38B872BE030E0F3C18A818139AD
:10F7400041F0823941F0803911F48FE005C080E04A
:10F7500003C082E001C08AE01A828B8344C0772410
:10F76000739482C08D81882311F48EE12CC0813086
:10F7700011F081E028C088E926C01A82E1E0F0E0BB
:10F7800089E08093570084918B831C8224E030E0D1
:10F79000C8C18B81803589F48C81883039F4E2E0EE
:10F7A000F0E089E08093570084910DC0E0E0F0E044
:10F7B00089E080935700849106C0E3E0F0E089E09F
:10F7C0008093570084911A82DFCF8D81836C99E0FA
:10F7D000E1E0F0E0082E90935700E89507B600FCB2
:10F7E000FDCF1A821B8223E030E09BC180EC8A832C
:10F7F000CE5CDE4F188219821A821B82C253D1401E
:10F800008EC18A8190E0A0E0B0E0582F44273327D2
:10F8100022278B8190E0A0E0B0E0DC0199278827C7
:10F82000282B392B4A2B5B2B8D8190E0A0E0B0E098
:10F83000282B392B4A2B5B2B8C8190E0A0E0B0E089
:10F84000BA2FA92F982F8827282B392B4A2B5B2BCF
:10F85000220F331F441F551FC05EDE4F288339839C
:10F860004A835B83C052D1401A8259C13A81C95C34
:10F87000DE4F3883C753D140CA5CDE4F1882C6536F
:10F88000D1408B81C82EDD24CA5CDE4F488159816E
:10F89000C653D140C42AD52A933109F082C0CE5C28
:10F8A000DE4F88819981AA81BB81C253D1408050AB
:10F8B000904CA340B04030F583E0CE5CDE4FE88052
:10F8C000F9800A811B81C253D140F70100935B008C
:10F8D00080935700E89507B600FCFDCFCE5CDE4F65
:10F8E000088119812A813B81C253D14000501F4FAA
:10F8F0002F4F3F4FCE5CDE4F088319832A833B8313
:10F90000C253D140C05EDE4F488159816A817B81FC
:10F91000C052D140DE011B9631E08C9111962C91A2
:10F9200011971296C75CDE4F2883C953D140C85C3B
:10F93000DE4F1882C853D14090E0C85CDE4FE881AA
:10F94000F981C853D1408E2B9F2B0C01FA01609393
:10F950005B0030935700E89511244E5F5F4F6F4F67
:10F960007F4F0EEFE02E0FEFF02ECE0CDF1CC114F8
:10F97000D10499F685E0C05EDE4F088119812A81A5
:10F980003B81C052D140F80120935B008093570027
:10F99000E89507B600FCFDCF81E180935700E8951C
:10F9A00035C0C05EDE4F88819981AA81BB81C0527B
:10F9B000D140B695A795979587957C018601ABE0D8
:10F9C000AA2EB12CAC0EBD1E0BC0D5016D915D01F0
:10F9D000C7010F947FFE0894E11CF11C01501040F8
:10F9E0000115110591F7A60160E070E0440F551F65
:10F9F000661F771FC05EDE4FE880F9800A811B8199
:10FA0000C052D1404E0D5F1D601F711F1A82C05E33
:10FA1000DE4F488359836A837B83C052D1407FC0C5
:10FA2000FA80C55CDE4FF882CB53D140C65CDE4F16
:10FA30001882CA53D1408B81C82EDD24C65CDE4FAC
:10FA400008811981CA53D140C02AD12A1A828981DA
:10FA5000BE016D5F7F4F843121F59601C05EDE4FA0
:10FA6000E880F9800A811B81C052D1400BBFF701A9
:10FA700087919691DB018C9311969C936E5F7F4FDB
:10FA8000D801C7010296A11DB11DC05EDE4F88835B
:10FA90009983AA83BB83C052D14022503040F1F6F3
:10FAA00036C0C05EDE4F288139814A815B81C052F9
:10FAB000D1400894C108D108760100E010E0089414
:10FAC000C11CD11C0894E11CF11C011D111DE20E8A
:10FAD000F31E041F151F21BDBB27A52F942F832FB5
:10FAE00082BD2F5F3F4F4F4F5F4FF89A80B5DB01CC
:10FAF0008D93BD012E153F054007510761F7C05E8C
:10FB0000DE4F288339834A835B83C052D1409601FC
:10FB10002D5F3F4FFB01108204C080EC8A8322E0FE
:10FB200030E08BE18093C6008091C00086FFFCCF5F
:10FB30008091C00080648093C000C15DDE4FF88179
:10FB4000CF52D140F093C6008091C00086FFFCCF19
:10FB50008091C00080648093C000432F3093C60022
:10FB60008091C00086FFFCCF8091C00080648093AC
:10FB7000C000922F2093C6008091C00086FFFCCF6A
:10FB80008091C00080648093C0008EE08093C600A6
:10FB90008091C00086FFFCCF8091C000806480937C
:10FBA000C00065E1C15DDE4FE880CF52D1406E25D7
:10FBB00069276427FE01319610C090819093C6009A
:10FBC0008091C00086FFFCCF31968091C000806498
:10FBD0008093C0006927215030402115310569F715
:10FBE0006093C6008091C00086FFFCCF8091C0006A
:10FBF00080648093C00085B1805885B9772081F4F6
:10FC0000C15DDE4F0881CF52D1400F5FC15DDE4F35
:10FC10000883CF52D14090E0A0E0B0E00D941AF4F8
:10FC200027982F9880E090E020ED37E0F901319798
:10FC3000F1F7019684369105C9F700008091C00064
:10FC40008D7F8093C00081E180935700E895EE2777
:10FC5000FF270994FFCF90E00D941AF497FB092E2B
:10FC600007260AD077FD04D02ED006D000201AF443
:10FC7000709561957F4F0895F6F7909581959F4F08
:10FC80000895A1E21A2EAA1BBB1BFD010DC0AA1FDD
:10FC9000BB1FEE1FFF1FA217B307E407F50720F0F5
:10FCA000A21BB30BE40BF50B661F771F881F991F70
:10FCB0001A9469F760957095809590959B01AC01B9
:10FCC000BD01CF010895AA1BBB1B51E107C0AA1FAC
:10FCD000BB1FA617B70710F0A61BB70B881F991FED
:10FCE0005A95A9F780959095BC01CD010895F99991
:10FCF000FECF92BD81BDF89A992780B50895262F31
:10FD0000F999FECF1FBA92BD81BD20BD0FB6F89400
:0EFD1000FA9AF99A0FBE01960895F894FFCF63
:040000033000E000E9
:00000001FF