:100000000C9436000C945E000C945E000C945E0020
:100010000C945E000C945E000C945E000C945E00E8
:100020000C945E000C945E000C945E000C945E00D8
:100030000C945E000C945E000C945E000C945E00C8
:100040000C9400010C945E000C943E030C9470031D
:100050000C945E000C945E000C945E000C945E00A8
:100060000C945E000C945E009900A00311241FBE46
:10007000CFEFD8E0DEBFCDBF11E0A0E0B1E0E8E611
:10008000FBE002C005900D92AC33B107D9F722E036
:10009000ACE3B1E001C01D92A630B207E1F710E079
:1000A000CCE6D0E004C02297FE010E949F05C8362E
:1000B000D107C9F70E94E4030C94B2050C94000028
:1000C00026E040E855E260E070E089E691E00C94BB
:1000D000DC0265E071E089E691E00E9431048EE483
:1000E00091E00E94A900682F70E04AE050E089E6A4
:1000F00091E00E94E10468EE73E080E090E00E94ED
:10010000790160E171E089E691E00E9431048CE3BD
:1001100091E00E94A900682F70E04AE050E089E673
:1001200091E00E94E10468EE73E080E090E00C94BE
:10013000790160E070E08EE491E00E94A50061E04A
:1001400070E08CE391E00C94A500FC017183608366
:100150000895AF92BF92CF92DF92EF92FF920F93EA
:100160001F93CF93DF93EC010E944A016431710524
:1001700081059105D0F10AE010E0C12CD12C760167
:1001800088810E94DC01AA2797FDA095BA2FC80E8E
:10019000D91EEA1EFB1E0150110991F7C701B601D5
:1001A0002AE030E040E050E00E945105CA01B90168
:1001B0001F921F921F9224E62F93A12CB12C650150
:1001C000E12C14E0F12E00E010E020E030E0A90185
:1001D0000E94F90421E00F900F900F900F9063336D
:1001E00071050CF020E0822F00C0DF91CF911F91AC
:1001F0000F91FF90EF90DF90CF90BF90AF90089558
:100200001F920F920FB60F9211242F933F938F934B
:100210009F93AF93BF938091610190916201A091F0
:100220006301B09164013091600123E0230F2D3709
:1002300020F40196A11DB11D05C026E8230F0296EA
:10024000A11DB11D20936001809361019093620113
:10025000A0936301B0936401809165019091660160
:10026000A0916701B09168010196A11DB11D809315
:10027000650190936601A0936701B0936801BF91F7
:10028000AF919F918F913F912F910F900FBE0F9043
:100290001F9018952FB7F8946091610170916201D9
:1002A00080916301909164012FBF08953FB7F89446
:1002B0008091650190916601A0916701B0916801FC
:1002C00026B5A89B05C02F3F19F00196A11DB11DB1
:1002D0003FBF6627782F892F9A2F620F711D811DCE
:1002E000911D42E0660F771F881F991F4A95D1F72D
:1002F0000895CF92DF92EF92FF92CF93DF936B013D
:100300007C010E945601EB01C114D104E104F10407
:1003100089F00E9440050E9456016C1B7D0B683ECF
:10032000734090F381E0C81AD108E108F108C85180
:10033000DC4FEACFDF91CF91FF90EF90DF90CF902D
:100340000895789484B5826084BD84B5816084BD4D
:1003500085B5826085BD85B5816085BDEEE6F0E03E
:10036000808181608083E1E8F0E01082808182609A
:100370008083808181608083E0E8F0E0808181601B
:100380008083E1EBF0E0808184608083E0EBF0E04B
:10039000808181608083EAE7F0E0808184608083EF
:1003A0008081826080838081816080838081806899
:1003B00080831092C10008958E3008F08E508770AF
:1003C0002091040190E4299F90011124822B8093B5
:1003D0007C0080917A00806480937A0080917A001A
:1003E00086FDFCCF809178002091790090E0922BDF
:1003F0000895FC01818D228D90E0805C9F4F821BCF
:1004000091098F7399270895FC01918D828D98171A
:1004100031F0828DE80FF11D858D90E008958FEF0A
:100420009FEF0895FC01918D828D981761F0828D68
:10043000DF01A80FB11D5D968C91928D9F5F9F7318
:10044000928F90E008958FEF9FEF089586E993E0F3
:10045000892B49F080E090E0892B29F00E949603D7
:1004600081110C9400000895FC01848DDF01A80F18
:10047000B11DA35ABF4F2C91848D90E001968F73CC
:100480009927848FA689B7892C93A089B1898C91EB
:1004900080648C93938D848D981306C00288F389B1
:1004A000E02D80818F7D80830895CF93DF93EC01D1
:1004B000888D8823C9F0EA89FB89808185FD05C084
:1004C000A889B9898C9186FD0FC00FB607FCF5CFBE
:1004D000808185FFF2CFA889B9898C9185FFEDCF06
:1004E000CE010E943402E7CFDF91CF910895CF92E1
:1004F000DF92FF920F931F93CF93DF931F92CDB79D
:10050000DEB76C0181E0D60158968C9358975B96C4
:100510009C915B975C968C915C97981307C0509662
:10052000ED91FC915197808185FD2EC0F601038DE0
:1005300010E00F5F1F4F0F731127F02EF601848D0F
:10054000F81211C00FB607FCF9CFD6015096ED9105
:10055000FC915197808185FFF1CFC60169830E948C
:1005600034026981EBCF838DE80FF11DE35AFF4F11
:100570006083D6015B960C935B975296ED91FC914C
:100580005397808180620CC0D6015696ED91FC9104
:10059000579760835096ED91FC91519780818064CC
:1005A000808381E090E00F90DF91CF911F910F91B8
:1005B000FF90DF90CF900895BF92CF92DF92EF929D
:1005C000FF92CF93DF93EC016A017B01B22EE889A1
:1005D000F98982E08083411581EE58076105710534
:1005E000A1F060E079E08DE390E0A70196010E9420
:1005F00051052150310941095109569547953795C3
:100600002795211580E1380798F0E889F98910824B
:1006100060E874E88EE190E0A70196010E94510520
:10062000215031094109510956954795379527952C
:10063000EC85FD853083EE85FF852083188EEC895F
:10064000FD89B082EA89FB89808180618083EA89A3
:10065000FB89808188608083EA89FB89808180684A
:100660008083EA89FB8980818F7D8083DF91CF91B0
:10067000FF90EF90DF90CF90BF9008951F920F9260
:100680000FB60F9211242F938F939F93EF93FF93A5
:10069000E0917901F0917A018081E0917F01F09100
:1006A000800182FD12C09081809182018F5F8F73E3
:1006B00020918301821751F0E0918201F0E0E75927
:1006C000FE4F958F8093820101C08081FF91EF9151
:1006D0009F918F912F910F900FBE0F901F901895A3
:1006E0001F920F920FB60F9211242F933F934F93A7
:1006F0005F936F937F938F939F93AF93BF93EF938A
:10070000FF9389E691E00E943402FF91EF91BF913F
:10071000AF919F918F917F916F915F914F913F9199
:100720002F910F900FBE0F901F90189589E691E0C2
:100730000E94F90121E0892B09F420E0822F08951D
:1007400010926C0110926B0188EE93E0A0E0B0E093
:1007500080936D0190936E01A0936F01B09370012F
:100760008FE191E090936A018093690185EC90E0BC
:10077000909376018093750184EC90E090937801DA
:100780008093770180EC90E090937A0180937901D7
:1007900081EC90E090937C0180937B0182EC90E06F
:1007A00090937E0180937D0186EC90E09093800190
:1007B00080937F0110928201109283011092840134
:1007C00010928501089508950E94A1010E94E303FB
:1007D0000E946000C6E2D2E00E9469002097E1F327
:1007E0000E942602F9CFCF92DF92EF92FF920F93F1
:1007F0001F93CF93DF937C016A01EB0100E010E0CF
:100800000C151D0571F06991D701ED91FC910190D6
:10081000F081E02DC7010995892B19F00F5F1F4F5B
:10082000EFCFC801DF91CF911F910F91FF90EF9013
:10083000DF90CF9008956115710581F0DB010D9077
:100840000020E9F7AD0141505109461B570BDC016F
:10085000ED91FC910280F381E02D099480E090E01D
:1008600008950C941B04DC01ED91FC910190F08142
:10087000E02D09946BE271E00C941B048F929F921F
:10088000AF92BF92CF92DF92EF92FF920F931F939E
:10089000CF93DF93CDB7DEB7A1970FB6F894DEBF45
:1008A0000FBECDBF7C01C42EE52FCB01D22E19A2E5
:1008B00021E02D1510F02AE0D22E8E010F5D1F4F82
:1008C0008D2C912CA12CB12C6C2D7E2FA501940187
:1008D0000E9451058C2DD29E8019112401501109BE
:1008E0008A3014F4805D01C0895CF8018083211591
:1008F00031054105510521F0C22EE32FCA01E4CF95
:10090000B801C7010E941B04A1960FB6F894DEBF80
:100910000FBECDBFDF91CF911F910F91FF90EF9050
:10092000DF90CF90BF90AF909F908F900895CF921F
:10093000DF92EF92FF920F931F93CF93DF93EC011F
:100940006A017B012115310579F4E881F981019073
:10095000F081E02D642FDF91CF911F910F91FF90D7
:10096000EF90DF90CF9009942A303105E9F477FFBA
:100970001AC06DE20E9433048C0144275527BA0146
:100980004C195D096E097F092AE0CE010E943E04E0
:10099000800F911FDF91CF911F910F91FF90EF90EA
:1009A000DF90CF9008952AE0B701A601CE01DF9134
:1009B000CF911F910F91FF90EF90DF90CF900C940B
:1009C0003E040F931F93CF93DF93EC019A01AB0189
:1009D000662757FD6095762F0E9497048C01CE0103
:1009E0000E943A04800F911FDF91CF911F910F91C8
:1009F00008954F925F926F927F92AF92BF92CF9283
:100A0000DF92EF92FF920F931F93CF93DF93CDB7B7
:100A1000DEB729013A01621B730B840B950B298900
:100A20003A894B895C892A193B094C095D09298B54
:100A30003A8B4B8B5C8B9B01AC0169897A898B89E2
:100A40009C890E944105E418F50806091709A801C8
:100A500097010E9473052A0D3B1D4C1D5D1DCA01A7
:100A6000B901DF91CF911F910F91FF90EF90DF902F
:100A7000CF90BF90AF907F906F905F904F90089510
:100A80000895DB018F939F930E949205BF91AF91D0
:100A9000A29F800D911DA39F900DB29F900D1124D8
:100AA0000895A1E21A2EAA1BBB1BFD010DC0AA1FAF
:100AB000BB1FEE1FFF1FA217B307E407F50720F0C7
:100AC000A21BB30BE40BF50B661F771F881F991F42
:100AD0001A9469F760957095809590959B01AC018B
:100AE000BD01CF010895052E97FB1EF400940E94CE
:100AF0008A0557FD07D00E94510507FC03D04EF42C
:100B00000C948A0550954095309521953F4F4F4F55
:100B10005F4F089590958095709561957F4F8F4FA9
:100B20009F4F08950E94A305A59F900DB49F900D1F
:100B3000A49F800D911D11240895EE0FFF1F0590B5
:100B4000F491E02D0994A29FB001B39FC001A39F2F
:100B5000700D811D1124911DB29F700D811D1124F6
:080B6000911D0895F894FFCFE8
:100B6800010000000153656E736F7231203D200053
:100B780053656E736F7232203D20000000000077CD
:100B880002F303F9011202040255020D0A006E6114
:0C0B98006E00696E66006F7666002E002D
:00000001FF
